{
	"contracts/1_Storage.sol": {
		"Storage": {
			"abi": [
				{
					"inputs": [],
					"stateMutability": "nonpayable",
					"type": "constructor"
				},
				{
					"inputs": [],
					"name": "addElement",
					"outputs": [],
					"stateMutability": "nonpayable",
					"type": "function"
				},
				{
					"inputs": [],
					"name": "b1",
					"outputs": [
						{
							"internalType": "bytes",
							"name": "",
							"type": "bytes"
						}
					],
					"stateMutability": "view",
					"type": "function"
				},
				{
					"inputs": [],
					"name": "getValue",
					"outputs": [
						{
							"internalType": "uint256",
							"name": "",
							"type": "uint256"
						}
					],
					"stateMutability": "view",
					"type": "function"
				},
				{
					"inputs": [
						{
							"internalType": "string",
							"name": "",
							"type": "string"
						}
					],
					"name": "myMapping",
					"outputs": [
						{
							"internalType": "uint256",
							"name": "",
							"type": "uint256"
						}
					],
					"stateMutability": "view",
					"type": "function"
				},
				{
					"inputs": [
						{
							"internalType": "uint256",
							"name": "",
							"type": "uint256"
						}
					],
					"name": "players",
					"outputs": [
						{
							"internalType": "string",
							"name": "name",
							"type": "string"
						},
						{
							"internalType": "uint256",
							"name": "level",
							"type": "uint256"
						},
						{
							"internalType": "uint256",
							"name": "score",
							"type": "uint256"
						}
					],
					"stateMutability": "view",
					"type": "function"
				},
				{
					"inputs": [],
					"name": "retrieve",
					"outputs": [
						{
							"internalType": "uint256",
							"name": "",
							"type": "uint256"
						}
					],
					"stateMutability": "view",
					"type": "function"
				},
				{
					"inputs": [],
					"name": "s1",
					"outputs": [
						{
							"internalType": "string",
							"name": "",
							"type": "string"
						}
					],
					"stateMutability": "view",
					"type": "function"
				},
				{
					"inputs": [
						{
							"internalType": "uint256",
							"name": "_id",
							"type": "uint256"
						},
						{
							"internalType": "string",
							"name": "_name",
							"type": "string"
						},
						{
							"internalType": "uint256",
							"name": "_level",
							"type": "uint256"
						}
					],
					"name": "setMapping",
					"outputs": [],
					"stateMutability": "nonpayable",
					"type": "function"
				},
				{
					"inputs": [
						{
							"internalType": "uint256",
							"name": "_value",
							"type": "uint256"
						}
					],
					"name": "setValue",
					"outputs": [],
					"stateMutability": "nonpayable",
					"type": "function"
				},
				{
					"inputs": [
						{
							"internalType": "uint256",
							"name": "num",
							"type": "uint256"
						}
					],
					"name": "store",
					"outputs": [],
					"stateMutability": "nonpayable",
					"type": "function"
				}
			],
			"devdoc": {
				"custom:dev-run-script": "./scripts/deploy_with_ethers.ts",
				"details": "Store & retrieve value in a variable",
				"kind": "dev",
				"methods": {
					"retrieve()": {
						"details": "Return value ",
						"returns": {
							"_0": "value of 'number'"
						}
					},
					"store(uint256)": {
						"details": "Store value in variable",
						"params": {
							"num": "value to store"
						}
					}
				},
				"title": "Storage",
				"version": 1
			},
			"evm": {
				"assembly": "    /* \"contracts/1_Storage.sol\":192:1280  contract Storage {... */\n  mstore(0x40, 0x80)\n    /* \"contracts/1_Storage.sol\":257:280  bytes public b1 = \"abc\" */\n  mload(0x40)\n  dup1\n  0x40\n  add\n  0x40\n  mstore\n  dup1\n  0x03\n  dup2\n  mstore\n  0x20\n  add\n  0x6162630000000000000000000000000000000000000000000000000000000000\n  dup2\n  mstore\n  pop\n  0x02\n  swap1\n  dup2\n  tag_1\n  swap2\n  swap1\n  tag_2\n  jump\t// in\ntag_1:\n  pop\n    /* \"contracts/1_Storage.sol\":287:311  string public s1 = \"abc\" */\n  mload(0x40)\n  dup1\n  0x40\n  add\n  0x40\n  mstore\n  dup1\n  0x03\n  dup2\n  mstore\n  0x20\n  add\n  0x6162630000000000000000000000000000000000000000000000000000000000\n  dup2\n  mstore\n  pop\n  0x03\n  swap1\n  dup2\n  tag_3\n  swap2\n  swap1\n  tag_4\n  jump\t// in\ntag_3:\n  pop\n    /* \"contracts/1_Storage.sol\":502:545  constructor() {... */\n  callvalue\n  dup1\n  iszero\n  tag_5\n  jumpi\n  0x00\n  dup1\n  revert\ntag_5:\n  pop\n    /* \"contracts/1_Storage.sol\":535:538  100 */\n  0x64\n    /* \"contracts/1_Storage.sol\":526:532  number */\n  0x00\n    /* \"contracts/1_Storage.sol\":526:538  number = 100 */\n  dup2\n  swap1\n  sstore\n  pop\n    /* \"contracts/1_Storage.sol\":192:1280  contract Storage {... */\n  jump(tag_8)\n    /* \"#utility.yul\":7:106   */\ntag_9:\n    /* \"#utility.yul\":59:65   */\n  0x00\n    /* \"#utility.yul\":93:98   */\n  dup2\n    /* \"#utility.yul\":87:99   */\n  mload\n    /* \"#utility.yul\":77:99   */\n  swap1\n  pop\n    /* \"#utility.yul\":7:106   */\n  swap2\n  swap1\n  pop\n  jump\t// out\n    /* \"#utility.yul\":112:292   */\ntag_10:\n    /* \"#utility.yul\":160:237   */\n  0x4e487b7100000000000000000000000000000000000000000000000000000000\n    /* \"#utility.yul\":157:158   */\n  0x00\n    /* \"#utility.yul\":150:238   */\n  mstore\n    /* \"#utility.yul\":257:261   */\n  0x41\n    /* \"#utility.yul\":254:255   */\n  0x04\n    /* \"#utility.yul\":247:262   */\n  mstore\n    /* \"#utility.yul\":281:285   */\n  0x24\n    /* \"#utility.yul\":278:279   */\n  0x00\n    /* \"#utility.yul\":271:286   */\n  revert\n    /* \"#utility.yul\":298:478   */\ntag_11:\n    /* \"#utility.yul\":346:423   */\n  0x4e487b7100000000000000000000000000000000000000000000000000000000\n    /* \"#utility.yul\":343:344   */\n  0x00\n    /* \"#utility.yul\":336:424   */\n  mstore\n    /* \"#utility.yul\":443:447   */\n  0x22\n    /* \"#utility.yul\":440:441   */\n  0x04\n    /* \"#utility.yul\":433:448   */\n  mstore\n    /* \"#utility.yul\":467:471   */\n  0x24\n    /* \"#utility.yul\":464:465   */\n  0x00\n    /* \"#utility.yul\":457:472   */\n  revert\n    /* \"#utility.yul\":484:804   */\ntag_12:\n    /* \"#utility.yul\":528:534   */\n  0x00\n    /* \"#utility.yul\":565:566   */\n  0x02\n    /* \"#utility.yul\":559:563   */\n  dup3\n    /* \"#utility.yul\":555:567   */\n  div\n    /* \"#utility.yul\":545:567   */\n  swap1\n  pop\n    /* \"#utility.yul\":612:613   */\n  0x01\n    /* \"#utility.yul\":606:610   */\n  dup3\n    /* \"#utility.yul\":602:614   */\n  and\n    /* \"#utility.yul\":633:651   */\n  dup1\n    /* \"#utility.yul\":623:704   */\n  tag_36\n  jumpi\n    /* \"#utility.yul\":689:693   */\n  0x7f\n    /* \"#utility.yul\":681:687   */\n  dup3\n    /* \"#utility.yul\":677:694   */\n  and\n    /* \"#utility.yul\":667:694   */\n  swap2\n  pop\n    /* \"#utility.yul\":623:704   */\ntag_36:\n    /* \"#utility.yul\":751:753   */\n  0x20\n    /* \"#utility.yul\":743:749   */\n  dup3\n    /* \"#utility.yul\":740:754   */\n  lt\n    /* \"#utility.yul\":720:738   */\n  dup2\n    /* \"#utility.yul\":717:755   */\n  sub\n    /* \"#utility.yul\":714:798   */\n  tag_37\n  jumpi\n    /* \"#utility.yul\":770:788   */\n  tag_38\n  tag_11\n  jump\t// in\ntag_38:\n    /* \"#utility.yul\":714:798   */\ntag_37:\n    /* \"#utility.yul\":535:804   */\n  pop\n    /* \"#utility.yul\":484:804   */\n  swap2\n  swap1\n  pop\n  jump\t// out\n    /* \"#utility.yul\":810:950   */\ntag_13:\n    /* \"#utility.yul\":858:862   */\n  0x00\n    /* \"#utility.yul\":881:884   */\n  dup2\n    /* \"#utility.yul\":873:884   */\n  swap1\n  pop\n    /* \"#utility.yul\":904:907   */\n  dup2\n    /* \"#utility.yul\":901:902   */\n  0x00\n    /* \"#utility.yul\":894:908   */\n  mstore\n    /* \"#utility.yul\":938:942   */\n  0x20\n    /* \"#utility.yul\":935:936   */\n  0x00\n    /* \"#utility.yul\":925:943   */\n  keccak256\n    /* \"#utility.yul\":917:943   */\n  swap1\n  pop\n    /* \"#utility.yul\":810:950   */\n  swap2\n  swap1\n  pop\n  jump\t// out\n    /* \"#utility.yul\":956:1049   */\ntag_14:\n    /* \"#utility.yul\":993:999   */\n  0x00\n    /* \"#utility.yul\":1040:1042   */\n  0x20\n    /* \"#utility.yul\":1035:1037   */\n  0x1f\n    /* \"#utility.yul\":1028:1033   */\n  dup4\n    /* \"#utility.yul\":1024:1038   */\n  add\n    /* \"#utility.yul\":1020:1043   */\n  div\n    /* \"#utility.yul\":1010:1043   */\n  swap1\n  pop\n    /* \"#utility.yul\":956:1049   */\n  swap2\n  swap1\n  pop\n  jump\t// out\n    /* \"#utility.yul\":1055:1162   */\ntag_15:\n    /* \"#utility.yul\":1099:1107   */\n  0x00\n    /* \"#utility.yul\":1149:1154   */\n  dup3\n    /* \"#utility.yul\":1143:1147   */\n  dup3\n    /* \"#utility.yul\":1139:1155   */\n  shl\n    /* \"#utility.yul\":1118:1155   */\n  swap1\n  pop\n    /* \"#utility.yul\":1055:1162   */\n  swap3\n  swap2\n  pop\n  pop\n  jump\t// out\n    /* \"#utility.yul\":1168:1561   */\ntag_16:\n    /* \"#utility.yul\":1237:1243   */\n  0x00\n    /* \"#utility.yul\":1287:1288   */\n  0x08\n    /* \"#utility.yul\":1275:1285   */\n  dup4\n    /* \"#utility.yul\":1271:1289   */\n  mul\n    /* \"#utility.yul\":1310:1407   */\n  tag_43\n    /* \"#utility.yul\":1340:1406   */\n  0xffffffffffffffffffffffffffffffffffffffffffffffffffffffffffffffff\n    /* \"#utility.yul\":1329:1338   */\n  dup3\n    /* \"#utility.yul\":1310:1407   */\n  tag_15\n  jump\t// in\ntag_43:\n    /* \"#utility.yul\":1428:1467   */\n  tag_44\n    /* \"#utility.yul\":1458:1466   */\n  dup7\n    /* \"#utility.yul\":1447:1456   */\n  dup4\n    /* \"#utility.yul\":1428:1467   */\n  tag_15\n  jump\t// in\ntag_44:\n    /* \"#utility.yul\":1416:1467   */\n  swap6\n  pop\n    /* \"#utility.yul\":1500:1504   */\n  dup1\n    /* \"#utility.yul\":1496:1505   */\n  not\n    /* \"#utility.yul\":1489:1494   */\n  dup5\n    /* \"#utility.yul\":1485:1506   */\n  and\n    /* \"#utility.yul\":1476:1506   */\n  swap4\n  pop\n    /* \"#utility.yul\":1549:1553   */\n  dup1\n    /* \"#utility.yul\":1539:1547   */\n  dup7\n    /* \"#utility.yul\":1535:1554   */\n  and\n    /* \"#utility.yul\":1528:1533   */\n  dup5\n    /* \"#utility.yul\":1525:1555   */\n  or\n    /* \"#utility.yul\":1515:1555   */\n  swap3\n  pop\n    /* \"#utility.yul\":1244:1561   */\n  pop\n  pop\n    /* \"#utility.yul\":1168:1561   */\n  swap4\n  swap3\n  pop\n  pop\n  pop\n  jump\t// out\n    /* \"#utility.yul\":1567:1644   */\ntag_17:\n    /* \"#utility.yul\":1604:1611   */\n  0x00\n    /* \"#utility.yul\":1633:1638   */\n  dup2\n    /* \"#utility.yul\":1622:1638   */\n  swap1\n  pop\n    /* \"#utility.yul\":1567:1644   */\n  swap2\n  swap1\n  pop\n  jump\t// out\n    /* \"#utility.yul\":1650:1710   */\ntag_18:\n    /* \"#utility.yul\":1678:1681   */\n  0x00\n    /* \"#utility.yul\":1699:1704   */\n  dup2\n    /* \"#utility.yul\":1692:1704   */\n  swap1\n  pop\n    /* \"#utility.yul\":1650:1710   */\n  swap2\n  swap1\n  pop\n  jump\t// out\n    /* \"#utility.yul\":1716:1858   */\ntag_19:\n    /* \"#utility.yul\":1766:1775   */\n  0x00\n    /* \"#utility.yul\":1799:1852   */\n  tag_48\n    /* \"#utility.yul\":1817:1851   */\n  tag_49\n    /* \"#utility.yul\":1826:1850   */\n  tag_50\n    /* \"#utility.yul\":1844:1849   */\n  dup5\n    /* \"#utility.yul\":1826:1850   */\n  tag_17\n  jump\t// in\ntag_50:\n    /* \"#utility.yul\":1817:1851   */\n  tag_18\n  jump\t// in\ntag_49:\n    /* \"#utility.yul\":1799:1852   */\n  tag_17\n  jump\t// in\ntag_48:\n    /* \"#utility.yul\":1786:1852   */\n  swap1\n  pop\n    /* \"#utility.yul\":1716:1858   */\n  swap2\n  swap1\n  pop\n  jump\t// out\n    /* \"#utility.yul\":1864:1939   */\ntag_20:\n    /* \"#utility.yul\":1907:1910   */\n  0x00\n    /* \"#utility.yul\":1928:1933   */\n  dup2\n    /* \"#utility.yul\":1921:1933   */\n  swap1\n  pop\n    /* \"#utility.yul\":1864:1939   */\n  swap2\n  swap1\n  pop\n  jump\t// out\n    /* \"#utility.yul\":1945:2214   */\ntag_21:\n    /* \"#utility.yul\":2055:2094   */\n  tag_53\n    /* \"#utility.yul\":2086:2093   */\n  dup4\n    /* \"#utility.yul\":2055:2094   */\n  tag_19\n  jump\t// in\ntag_53:\n    /* \"#utility.yul\":2116:2207   */\n  tag_54\n    /* \"#utility.yul\":2165:2206   */\n  tag_55\n    /* \"#utility.yul\":2189:2205   */\n  dup3\n    /* \"#utility.yul\":2165:2206   */\n  tag_20\n  jump\t// in\ntag_55:\n    /* \"#utility.yul\":2157:2163   */\n  dup5\n    /* \"#utility.yul\":2150:2154   */\n  dup5\n    /* \"#utility.yul\":2144:2155   */\n  sload\n    /* \"#utility.yul\":2116:2207   */\n  tag_16\n  jump\t// in\ntag_54:\n    /* \"#utility.yul\":2110:2114   */\n  dup3\n    /* \"#utility.yul\":2103:2208   */\n  sstore\n    /* \"#utility.yul\":2021:2214   */\n  pop\n    /* \"#utility.yul\":1945:2214   */\n  pop\n  pop\n  pop\n  jump\t// out\n    /* \"#utility.yul\":2220:2293   */\ntag_22:\n    /* \"#utility.yul\":2265:2268   */\n  0x00\n    /* \"#utility.yul\":2220:2293   */\n  swap1\n  jump\t// out\n    /* \"#utility.yul\":2299:2488   */\ntag_23:\n    /* \"#utility.yul\":2376:2408   */\n  tag_58\n  tag_22\n  jump\t// in\ntag_58:\n    /* \"#utility.yul\":2417:2482   */\n  tag_59\n    /* \"#utility.yul\":2475:2481   */\n  dup2\n    /* \"#utility.yul\":2467:2473   */\n  dup5\n    /* \"#utility.yul\":2461:2465   */\n  dup5\n    /* \"#utility.yul\":2417:2482   */\n  tag_21\n  jump\t// in\ntag_59:\n    /* \"#utility.yul\":2352:2488   */\n  pop\n    /* \"#utility.yul\":2299:2488   */\n  pop\n  pop\n  jump\t// out\n    /* \"#utility.yul\":2494:2680   */\ntag_24:\n    /* \"#utility.yul\":2554:2674   */\ntag_61:\n    /* \"#utility.yul\":2571:2574   */\n  dup2\n    /* \"#utility.yul\":2564:2569   */\n  dup2\n    /* \"#utility.yul\":2561:2575   */\n  lt\n    /* \"#utility.yul\":2554:2674   */\n  iszero\n  tag_63\n  jumpi\n    /* \"#utility.yul\":2625:2664   */\n  tag_64\n    /* \"#utility.yul\":2662:2663   */\n  0x00\n    /* \"#utility.yul\":2655:2660   */\n  dup3\n    /* \"#utility.yul\":2625:2664   */\n  tag_23\n  jump\t// in\ntag_64:\n    /* \"#utility.yul\":2598:2599   */\n  0x01\n    /* \"#utility.yul\":2591:2596   */\n  dup2\n    /* \"#utility.yul\":2587:2600   */\n  add\n    /* \"#utility.yul\":2578:2600   */\n  swap1\n  pop\n    /* \"#utility.yul\":2554:2674   */\n  jump(tag_61)\ntag_63:\n    /* \"#utility.yul\":2494:2680   */\n  pop\n  pop\n  jump\t// out\n    /* \"#utility.yul\":2686:3227   */\ntag_25:\n    /* \"#utility.yul\":2786:2788   */\n  0x1f\n    /* \"#utility.yul\":2781:2784   */\n  dup3\n    /* \"#utility.yul\":2778:2789   */\n  gt\n    /* \"#utility.yul\":2775:3220   */\n  iszero\n  tag_66\n  jumpi\n    /* \"#utility.yul\":2820:2857   */\n  tag_67\n    /* \"#utility.yul\":2851:2856   */\n  dup2\n    /* \"#utility.yul\":2820:2857   */\n  tag_13\n  jump\t// in\ntag_67:\n    /* \"#utility.yul\":2903:2932   */\n  tag_68\n    /* \"#utility.yul\":2921:2931   */\n  dup5\n    /* \"#utility.yul\":2903:2932   */\n  tag_14\n  jump\t// in\ntag_68:\n    /* \"#utility.yul\":2893:2901   */\n  dup2\n    /* \"#utility.yul\":2889:2933   */\n  add\n    /* \"#utility.yul\":3086:3088   */\n  0x20\n    /* \"#utility.yul\":3074:3084   */\n  dup6\n    /* \"#utility.yul\":3071:3089   */\n  lt\n    /* \"#utility.yul\":3068:3117   */\n  iszero\n  tag_69\n  jumpi\n    /* \"#utility.yul\":3107:3115   */\n  dup2\n    /* \"#utility.yul\":3092:3115   */\n  swap1\n  pop\n    /* \"#utility.yul\":3068:3117   */\ntag_69:\n    /* \"#utility.yul\":3130:3210   */\n  tag_70\n    /* \"#utility.yul\":3186:3208   */\n  tag_71\n    /* \"#utility.yul\":3204:3207   */\n  dup6\n    /* \"#utility.yul\":3186:3208   */\n  tag_14\n  jump\t// in\ntag_71:\n    /* \"#utility.yul\":3176:3184   */\n  dup4\n    /* \"#utility.yul\":3172:3209   */\n  add\n    /* \"#utility.yul\":3159:3170   */\n  dup3\n    /* \"#utility.yul\":3130:3210   */\n  tag_24\n  jump\t// in\ntag_70:\n    /* \"#utility.yul\":2790:3220   */\n  pop\n  pop\n    /* \"#utility.yul\":2775:3220   */\ntag_66:\n    /* \"#utility.yul\":2686:3227   */\n  pop\n  pop\n  pop\n  jump\t// out\n    /* \"#utility.yul\":3233:3350   */\ntag_26:\n    /* \"#utility.yul\":3287:3295   */\n  0x00\n    /* \"#utility.yul\":3337:3342   */\n  dup3\n    /* \"#utility.yul\":3331:3335   */\n  dup3\n    /* \"#utility.yul\":3327:3343   */\n  shr\n    /* \"#utility.yul\":3306:3343   */\n  swap1\n  pop\n    /* \"#utility.yul\":3233:3350   */\n  swap3\n  swap2\n  pop\n  pop\n  jump\t// out\n    /* \"#utility.yul\":3356:3525   */\ntag_27:\n    /* \"#utility.yul\":3400:3406   */\n  0x00\n    /* \"#utility.yul\":3433:3484   */\n  tag_74\n    /* \"#utility.yul\":3481:3482   */\n  0x00\n    /* \"#utility.yul\":3477:3483   */\n  not\n    /* \"#utility.yul\":3469:3474   */\n  dup5\n    /* \"#utility.yul\":3466:3467   */\n  0x08\n    /* \"#utility.yul\":3462:3475   */\n  mul\n    /* \"#utility.yul\":3433:3484   */\n  tag_26\n  jump\t// in\ntag_74:\n    /* \"#utility.yul\":3429:3485   */\n  not\n    /* \"#utility.yul\":3514:3518   */\n  dup1\n    /* \"#utility.yul\":3508:3512   */\n  dup4\n    /* \"#utility.yul\":3504:3519   */\n  and\n    /* \"#utility.yul\":3494:3519   */\n  swap2\n  pop\n    /* \"#utility.yul\":3407:3525   */\n  pop\n    /* \"#utility.yul\":3356:3525   */\n  swap3\n  swap2\n  pop\n  pop\n  jump\t// out\n    /* \"#utility.yul\":3530:3825   */\ntag_28:\n    /* \"#utility.yul\":3606:3610   */\n  0x00\n    /* \"#utility.yul\":3752:3781   */\n  tag_76\n    /* \"#utility.yul\":3777:3780   */\n  dup4\n    /* \"#utility.yul\":3771:3775   */\n  dup4\n    /* \"#utility.yul\":3752:3781   */\n  tag_27\n  jump\t// in\ntag_76:\n    /* \"#utility.yul\":3744:3781   */\n  swap2\n  pop\n    /* \"#utility.yul\":3814:3817   */\n  dup3\n    /* \"#utility.yul\":3811:3812   */\n  0x02\n    /* \"#utility.yul\":3807:3818   */\n  mul\n    /* \"#utility.yul\":3801:3805   */\n  dup3\n    /* \"#utility.yul\":3798:3819   */\n  or\n    /* \"#utility.yul\":3790:3819   */\n  swap1\n  pop\n    /* \"#utility.yul\":3530:3825   */\n  swap3\n  swap2\n  pop\n  pop\n  jump\t// out\n    /* \"#utility.yul\":3830:5222   */\ntag_2:\n    /* \"#utility.yul\":3946:3983   */\n  tag_78\n    /* \"#utility.yul\":3979:3982   */\n  dup3\n    /* \"#utility.yul\":3946:3983   */\n  tag_9\n  jump\t// in\ntag_78:\n    /* \"#utility.yul\":4048:4066   */\n  0xffffffffffffffff\n    /* \"#utility.yul\":4040:4046   */\n  dup2\n    /* \"#utility.yul\":4037:4067   */\n  gt\n    /* \"#utility.yul\":4034:4090   */\n  iszero\n  tag_79\n  jumpi\n    /* \"#utility.yul\":4070:4088   */\n  tag_80\n  tag_10\n  jump\t// in\ntag_80:\n    /* \"#utility.yul\":4034:4090   */\ntag_79:\n    /* \"#utility.yul\":4114:4152   */\n  tag_81\n    /* \"#utility.yul\":4146:4150   */\n  dup3\n    /* \"#utility.yul\":4140:4151   */\n  sload\n    /* \"#utility.yul\":4114:4152   */\n  tag_12\n  jump\t// in\ntag_81:\n    /* \"#utility.yul\":4199:4265   */\n  tag_82\n    /* \"#utility.yul\":4258:4264   */\n  dup3\n    /* \"#utility.yul\":4250:4256   */\n  dup3\n    /* \"#utility.yul\":4244:4248   */\n  dup6\n    /* \"#utility.yul\":4199:4265   */\n  tag_25\n  jump\t// in\ntag_82:\n    /* \"#utility.yul\":4292:4293   */\n  0x00\n    /* \"#utility.yul\":4316:4320   */\n  0x20\n    /* \"#utility.yul\":4303:4320   */\n  swap1\n  pop\n    /* \"#utility.yul\":4348:4350   */\n  0x1f\n    /* \"#utility.yul\":4340:4346   */\n  dup4\n    /* \"#utility.yul\":4337:4351   */\n  gt\n    /* \"#utility.yul\":4365:4366   */\n  0x01\n    /* \"#utility.yul\":4360:4977   */\n  dup2\n  eq\n  tag_84\n  jumpi\n    /* \"#utility.yul\":5021:5022   */\n  0x00\n    /* \"#utility.yul\":5038:5044   */\n  dup5\n    /* \"#utility.yul\":5035:5112   */\n  iszero\n  tag_85\n  jumpi\n    /* \"#utility.yul\":5087:5096   */\n  dup3\n    /* \"#utility.yul\":5082:5085   */\n  dup8\n    /* \"#utility.yul\":5078:5097   */\n  add\n    /* \"#utility.yul\":5072:5098   */\n  mload\n    /* \"#utility.yul\":5063:5098   */\n  swap1\n  pop\n    /* \"#utility.yul\":5035:5112   */\ntag_85:\n    /* \"#utility.yul\":5138:5205   */\n  tag_86\n    /* \"#utility.yul\":5198:5204   */\n  dup6\n    /* \"#utility.yul\":5191:5196   */\n  dup3\n    /* \"#utility.yul\":5138:5205   */\n  tag_28\n  jump\t// in\ntag_86:\n    /* \"#utility.yul\":5132:5136   */\n  dup7\n    /* \"#utility.yul\":5125:5206   */\n  sstore\n    /* \"#utility.yul\":4994:5216   */\n  pop\n    /* \"#utility.yul\":4330:5216   */\n  jump(tag_83)\n    /* \"#utility.yul\":4360:4977   */\ntag_84:\n    /* \"#utility.yul\":4412:4416   */\n  0x1f\n    /* \"#utility.yul\":4408:4417   */\n  not\n    /* \"#utility.yul\":4400:4406   */\n  dup5\n    /* \"#utility.yul\":4396:4418   */\n  and\n    /* \"#utility.yul\":4446:4482   */\n  tag_87\n    /* \"#utility.yul\":4477:4481   */\n  dup7\n    /* \"#utility.yul\":4446:4482   */\n  tag_13\n  jump\t// in\ntag_87:\n    /* \"#utility.yul\":4504:4505   */\n  0x00\n    /* \"#utility.yul\":4518:4726   */\ntag_88:\n    /* \"#utility.yul\":4532:4539   */\n  dup3\n    /* \"#utility.yul\":4529:4530   */\n  dup2\n    /* \"#utility.yul\":4526:4540   */\n  lt\n    /* \"#utility.yul\":4518:4726   */\n  iszero\n  tag_90\n  jumpi\n    /* \"#utility.yul\":4611:4620   */\n  dup5\n    /* \"#utility.yul\":4606:4609   */\n  dup10\n    /* \"#utility.yul\":4602:4621   */\n  add\n    /* \"#utility.yul\":4596:4622   */\n  mload\n    /* \"#utility.yul\":4588:4594   */\n  dup3\n    /* \"#utility.yul\":4581:4623   */\n  sstore\n    /* \"#utility.yul\":4662:4663   */\n  0x01\n    /* \"#utility.yul\":4654:4660   */\n  dup3\n    /* \"#utility.yul\":4650:4664   */\n  add\n    /* \"#utility.yul\":4640:4664   */\n  swap2\n  pop\n    /* \"#utility.yul\":4709:4711   */\n  0x20\n    /* \"#utility.yul\":4698:4707   */\n  dup6\n    /* \"#utility.yul\":4694:4712   */\n  add\n    /* \"#utility.yul\":4681:4712   */\n  swap5\n  pop\n    /* \"#utility.yul\":4555:4559   */\n  0x20\n    /* \"#utility.yul\":4552:4553   */\n  dup2\n    /* \"#utility.yul\":4548:4560   */\n  add\n    /* \"#utility.yul\":4543:4560   */\n  swap1\n  pop\n    /* \"#utility.yul\":4518:4726   */\n  jump(tag_88)\ntag_90:\n    /* \"#utility.yul\":4754:4760   */\n  dup7\n    /* \"#utility.yul\":4745:4752   */\n  dup4\n    /* \"#utility.yul\":4742:4761   */\n  lt\n    /* \"#utility.yul\":4739:4918   */\n  iszero\n  tag_91\n  jumpi\n    /* \"#utility.yul\":4812:4821   */\n  dup5\n    /* \"#utility.yul\":4807:4810   */\n  dup10\n    /* \"#utility.yul\":4803:4822   */\n  add\n    /* \"#utility.yul\":4797:4823   */\n  mload\n    /* \"#utility.yul\":4855:4903   */\n  tag_92\n    /* \"#utility.yul\":4897:4901   */\n  0x1f\n    /* \"#utility.yul\":4889:4895   */\n  dup10\n    /* \"#utility.yul\":4885:4902   */\n  and\n    /* \"#utility.yul\":4874:4883   */\n  dup3\n    /* \"#utility.yul\":4855:4903   */\n  tag_27\n  jump\t// in\ntag_92:\n    /* \"#utility.yul\":4847:4853   */\n  dup4\n    /* \"#utility.yul\":4840:4904   */\n  sstore\n    /* \"#utility.yul\":4762:4918   */\n  pop\n    /* \"#utility.yul\":4739:4918   */\ntag_91:\n    /* \"#utility.yul\":4964:4965   */\n  0x01\n    /* \"#utility.yul\":4960:4961   */\n  0x02\n    /* \"#utility.yul\":4952:4958   */\n  dup9\n    /* \"#utility.yul\":4948:4962   */\n  mul\n    /* \"#utility.yul\":4944:4966   */\n  add\n    /* \"#utility.yul\":4938:4942   */\n  dup9\n    /* \"#utility.yul\":4931:4967   */\n  sstore\n    /* \"#utility.yul\":4367:4977   */\n  pop\n  pop\n  pop\n    /* \"#utility.yul\":4330:5216   */\ntag_83:\n  pop\n    /* \"#utility.yul\":3921:5222   */\n  pop\n  pop\n  pop\n    /* \"#utility.yul\":3830:5222   */\n  pop\n  pop\n  jump\t// out\n    /* \"#utility.yul\":5228:5369   */\ntag_29:\n    /* \"#utility.yul\":5277:5281   */\n  0x00\n    /* \"#utility.yul\":5300:5303   */\n  dup2\n    /* \"#utility.yul\":5292:5303   */\n  swap1\n  pop\n    /* \"#utility.yul\":5323:5326   */\n  dup2\n    /* \"#utility.yul\":5320:5321   */\n  0x00\n    /* \"#utility.yul\":5313:5327   */\n  mstore\n    /* \"#utility.yul\":5357:5361   */\n  0x20\n    /* \"#utility.yul\":5354:5355   */\n  0x00\n    /* \"#utility.yul\":5344:5362   */\n  keccak256\n    /* \"#utility.yul\":5336:5362   */\n  swap1\n  pop\n    /* \"#utility.yul\":5228:5369   */\n  swap2\n  swap1\n  pop\n  jump\t// out\n    /* \"#utility.yul\":5375:5918   */\ntag_30:\n    /* \"#utility.yul\":5476:5478   */\n  0x1f\n    /* \"#utility.yul\":5471:5474   */\n  dup3\n    /* \"#utility.yul\":5468:5479   */\n  gt\n    /* \"#utility.yul\":5465:5911   */\n  iszero\n  tag_95\n  jumpi\n    /* \"#utility.yul\":5510:5548   */\n  tag_96\n    /* \"#utility.yul\":5542:5547   */\n  dup2\n    /* \"#utility.yul\":5510:5548   */\n  tag_29\n  jump\t// in\ntag_96:\n    /* \"#utility.yul\":5594:5623   */\n  tag_97\n    /* \"#utility.yul\":5612:5622   */\n  dup5\n    /* \"#utility.yul\":5594:5623   */\n  tag_14\n  jump\t// in\ntag_97:\n    /* \"#utility.yul\":5584:5592   */\n  dup2\n    /* \"#utility.yul\":5580:5624   */\n  add\n    /* \"#utility.yul\":5777:5779   */\n  0x20\n    /* \"#utility.yul\":5765:5775   */\n  dup6\n    /* \"#utility.yul\":5762:5780   */\n  lt\n    /* \"#utility.yul\":5759:5808   */\n  iszero\n  tag_98\n  jumpi\n    /* \"#utility.yul\":5798:5806   */\n  dup2\n    /* \"#utility.yul\":5783:5806   */\n  swap1\n  pop\n    /* \"#utility.yul\":5759:5808   */\ntag_98:\n    /* \"#utility.yul\":5821:5901   */\n  tag_99\n    /* \"#utility.yul\":5877:5899   */\n  tag_100\n    /* \"#utility.yul\":5895:5898   */\n  dup6\n    /* \"#utility.yul\":5877:5899   */\n  tag_14\n  jump\t// in\ntag_100:\n    /* \"#utility.yul\":5867:5875   */\n  dup4\n    /* \"#utility.yul\":5863:5900   */\n  add\n    /* \"#utility.yul\":5850:5861   */\n  dup3\n    /* \"#utility.yul\":5821:5901   */\n  tag_24\n  jump\t// in\ntag_99:\n    /* \"#utility.yul\":5480:5911   */\n  pop\n  pop\n    /* \"#utility.yul\":5465:5911   */\ntag_95:\n    /* \"#utility.yul\":5375:5918   */\n  pop\n  pop\n  pop\n  jump\t// out\n    /* \"#utility.yul\":5924:7319   */\ntag_4:\n    /* \"#utility.yul\":6041:6078   */\n  tag_102\n    /* \"#utility.yul\":6074:6077   */\n  dup3\n    /* \"#utility.yul\":6041:6078   */\n  tag_9\n  jump\t// in\ntag_102:\n    /* \"#utility.yul\":6143:6161   */\n  0xffffffffffffffff\n    /* \"#utility.yul\":6135:6141   */\n  dup2\n    /* \"#utility.yul\":6132:6162   */\n  gt\n    /* \"#utility.yul\":6129:6185   */\n  iszero\n  tag_103\n  jumpi\n    /* \"#utility.yul\":6165:6183   */\n  tag_104\n  tag_10\n  jump\t// in\ntag_104:\n    /* \"#utility.yul\":6129:6185   */\ntag_103:\n    /* \"#utility.yul\":6209:6247   */\n  tag_105\n    /* \"#utility.yul\":6241:6245   */\n  dup3\n    /* \"#utility.yul\":6235:6246   */\n  sload\n    /* \"#utility.yul\":6209:6247   */\n  tag_12\n  jump\t// in\ntag_105:\n    /* \"#utility.yul\":6294:6361   */\n  tag_106\n    /* \"#utility.yul\":6354:6360   */\n  dup3\n    /* \"#utility.yul\":6346:6352   */\n  dup3\n    /* \"#utility.yul\":6340:6344   */\n  dup6\n    /* \"#utility.yul\":6294:6361   */\n  tag_30\n  jump\t// in\ntag_106:\n    /* \"#utility.yul\":6388:6389   */\n  0x00\n    /* \"#utility.yul\":6412:6416   */\n  0x20\n    /* \"#utility.yul\":6399:6416   */\n  swap1\n  pop\n    /* \"#utility.yul\":6444:6446   */\n  0x1f\n    /* \"#utility.yul\":6436:6442   */\n  dup4\n    /* \"#utility.yul\":6433:6447   */\n  gt\n    /* \"#utility.yul\":6461:6462   */\n  0x01\n    /* \"#utility.yul\":6456:7074   */\n  dup2\n  eq\n  tag_108\n  jumpi\n    /* \"#utility.yul\":7118:7119   */\n  0x00\n    /* \"#utility.yul\":7135:7141   */\n  dup5\n    /* \"#utility.yul\":7132:7209   */\n  iszero\n  tag_109\n  jumpi\n    /* \"#utility.yul\":7184:7193   */\n  dup3\n    /* \"#utility.yul\":7179:7182   */\n  dup8\n    /* \"#utility.yul\":7175:7194   */\n  add\n    /* \"#utility.yul\":7169:7195   */\n  mload\n    /* \"#utility.yul\":7160:7195   */\n  swap1\n  pop\n    /* \"#utility.yul\":7132:7209   */\ntag_109:\n    /* \"#utility.yul\":7235:7302   */\n  tag_110\n    /* \"#utility.yul\":7295:7301   */\n  dup6\n    /* \"#utility.yul\":7288:7293   */\n  dup3\n    /* \"#utility.yul\":7235:7302   */\n  tag_28\n  jump\t// in\ntag_110:\n    /* \"#utility.yul\":7229:7233   */\n  dup7\n    /* \"#utility.yul\":7222:7303   */\n  sstore\n    /* \"#utility.yul\":7091:7313   */\n  pop\n    /* \"#utility.yul\":6426:7313   */\n  jump(tag_107)\n    /* \"#utility.yul\":6456:7074   */\ntag_108:\n    /* \"#utility.yul\":6508:6512   */\n  0x1f\n    /* \"#utility.yul\":6504:6513   */\n  not\n    /* \"#utility.yul\":6496:6502   */\n  dup5\n    /* \"#utility.yul\":6492:6514   */\n  and\n    /* \"#utility.yul\":6542:6579   */\n  tag_111\n    /* \"#utility.yul\":6574:6578   */\n  dup7\n    /* \"#utility.yul\":6542:6579   */\n  tag_29\n  jump\t// in\ntag_111:\n    /* \"#utility.yul\":6601:6602   */\n  0x00\n    /* \"#utility.yul\":6615:6823   */\ntag_112:\n    /* \"#utility.yul\":6629:6636   */\n  dup3\n    /* \"#utility.yul\":6626:6627   */\n  dup2\n    /* \"#utility.yul\":6623:6637   */\n  lt\n    /* \"#utility.yul\":6615:6823   */\n  iszero\n  tag_114\n  jumpi\n    /* \"#utility.yul\":6708:6717   */\n  dup5\n    /* \"#utility.yul\":6703:6706   */\n  dup10\n    /* \"#utility.yul\":6699:6718   */\n  add\n    /* \"#utility.yul\":6693:6719   */\n  mload\n    /* \"#utility.yul\":6685:6691   */\n  dup3\n    /* \"#utility.yul\":6678:6720   */\n  sstore\n    /* \"#utility.yul\":6759:6760   */\n  0x01\n    /* \"#utility.yul\":6751:6757   */\n  dup3\n    /* \"#utility.yul\":6747:6761   */\n  add\n    /* \"#utility.yul\":6737:6761   */\n  swap2\n  pop\n    /* \"#utility.yul\":6806:6808   */\n  0x20\n    /* \"#utility.yul\":6795:6804   */\n  dup6\n    /* \"#utility.yul\":6791:6809   */\n  add\n    /* \"#utility.yul\":6778:6809   */\n  swap5\n  pop\n    /* \"#utility.yul\":6652:6656   */\n  0x20\n    /* \"#utility.yul\":6649:6650   */\n  dup2\n    /* \"#utility.yul\":6645:6657   */\n  add\n    /* \"#utility.yul\":6640:6657   */\n  swap1\n  pop\n    /* \"#utility.yul\":6615:6823   */\n  jump(tag_112)\ntag_114:\n    /* \"#utility.yul\":6851:6857   */\n  dup7\n    /* \"#utility.yul\":6842:6849   */\n  dup4\n    /* \"#utility.yul\":6839:6858   */\n  lt\n    /* \"#utility.yul\":6836:7015   */\n  iszero\n  tag_115\n  jumpi\n    /* \"#utility.yul\":6909:6918   */\n  dup5\n    /* \"#utility.yul\":6904:6907   */\n  dup10\n    /* \"#utility.yul\":6900:6919   */\n  add\n    /* \"#utility.yul\":6894:6920   */\n  mload\n    /* \"#utility.yul\":6952:7000   */\n  tag_116\n    /* \"#utility.yul\":6994:6998   */\n  0x1f\n    /* \"#utility.yul\":6986:6992   */\n  dup10\n    /* \"#utility.yul\":6982:6999   */\n  and\n    /* \"#utility.yul\":6971:6980   */\n  dup3\n    /* \"#utility.yul\":6952:7000   */\n  tag_27\n  jump\t// in\ntag_116:\n    /* \"#utility.yul\":6944:6950   */\n  dup4\n    /* \"#utility.yul\":6937:7001   */\n  sstore\n    /* \"#utility.yul\":6859:7015   */\n  pop\n    /* \"#utility.yul\":6836:7015   */\ntag_115:\n    /* \"#utility.yul\":7061:7062   */\n  0x01\n    /* \"#utility.yul\":7057:7058   */\n  0x02\n    /* \"#utility.yul\":7049:7055   */\n  dup9\n    /* \"#utility.yul\":7045:7059   */\n  mul\n    /* \"#utility.yul\":7041:7063   */\n  add\n    /* \"#utility.yul\":7035:7039   */\n  dup9\n    /* \"#utility.yul\":7028:7064   */\n  sstore\n    /* \"#utility.yul\":6463:7074   */\n  pop\n  pop\n  pop\n    /* \"#utility.yul\":6426:7313   */\ntag_107:\n  pop\n    /* \"#utility.yul\":6016:7319   */\n  pop\n  pop\n  pop\n    /* \"#utility.yul\":5924:7319   */\n  pop\n  pop\n  jump\t// out\n    /* \"contracts/1_Storage.sol\":192:1280  contract Storage {... */\ntag_8:\n  dataSize(sub_0)\n  dup1\n  dataOffset(sub_0)\n  0x00\n  codecopy\n  0x00\n  return\nstop\n\nsub_0: assembly {\n        /* \"contracts/1_Storage.sol\":192:1280  contract Storage {... */\n      mstore(0x40, 0x80)\n      callvalue\n      dup1\n      iszero\n      tag_1\n      jumpi\n      0x00\n      dup1\n      revert\n    tag_1:\n      pop\n      jumpi(tag_2, lt(calldatasize, 0x04))\n      shr(0xe0, calldataload(0x00))\n      dup1\n      0x6cc014de\n      gt\n      tag_13\n      jumpi\n      dup1\n      0x6cc014de\n      eq\n      tag_8\n      jumpi\n      dup1\n      0x8a01906d\n      eq\n      tag_9\n      jumpi\n      dup1\n      0xee495002\n      eq\n      tag_10\n      jumpi\n      dup1\n      0xf71d96cb\n      eq\n      tag_11\n      jumpi\n      dup1\n      0xffac7005\n      eq\n      tag_12\n      jumpi\n      jump(tag_2)\n    tag_13:\n      dup1\n      0x20965255\n      eq\n      tag_3\n      jumpi\n      dup1\n      0x2e64cec1\n      eq\n      tag_4\n      jumpi\n      dup1\n      0x3f2273b3\n      eq\n      tag_5\n      jumpi\n      dup1\n      0x55241077\n      eq\n      tag_6\n      jumpi\n      dup1\n      0x6057361d\n      eq\n      tag_7\n      jumpi\n    tag_2:\n      0x00\n      dup1\n      revert\n        /* \"contracts/1_Storage.sol\":1042:1118  function getValue() public view returns (uint) {... */\n    tag_3:\n      tag_14\n      tag_15\n      jump\t// in\n    tag_14:\n      mload(0x40)\n      tag_16\n      swap2\n      swap1\n      tag_17\n      jump\t// in\n    tag_16:\n      mload(0x40)\n      dup1\n      swap2\n      sub\n      swap1\n      return\n        /* \"contracts/1_Storage.sol\":1199:1278  function retrieve() public view returns (uint256){... */\n    tag_4:\n      tag_18\n      tag_19\n      jump\t// in\n    tag_18:\n      mload(0x40)\n      tag_20\n      swap2\n      swap1\n      tag_17\n      jump\t// in\n    tag_20:\n      mload(0x40)\n      dup1\n      swap2\n      sub\n      swap1\n      return\n        /* \"contracts/1_Storage.sol\":689:772  function addElement() public {... */\n    tag_5:\n      tag_21\n      tag_22\n      jump\t// in\n    tag_21:\n      stop\n        /* \"contracts/1_Storage.sol\":950:1019  function setValue(uint _value) public {... */\n    tag_6:\n      tag_23\n      0x04\n      dup1\n      calldatasize\n      sub\n      dup2\n      add\n      swap1\n      tag_24\n      swap2\n      swap1\n      tag_25\n      jump\t// in\n    tag_24:\n      tag_26\n      jump\t// in\n    tag_23:\n      stop\n        /* \"contracts/1_Storage.sol\":863:927  function store(uint256 num) public {... */\n    tag_7:\n      tag_27\n      0x04\n      dup1\n      calldatasize\n      sub\n      dup2\n      add\n      swap1\n      tag_28\n      swap2\n      swap1\n      tag_25\n      jump\t// in\n    tag_28:\n      tag_29\n      jump\t// in\n    tag_27:\n      stop\n        /* \"contracts/1_Storage.sol\":287:311  string public s1 = \"abc\" */\n    tag_8:\n      tag_30\n      tag_31\n      jump\t// in\n    tag_30:\n      mload(0x40)\n      tag_32\n      swap2\n      swap1\n      tag_33\n      jump\t// in\n    tag_32:\n      mload(0x40)\n      dup1\n      swap2\n      sub\n      swap1\n      return\n        /* \"contracts/1_Storage.sol\":551:680  function setMapping(uint _id, string memory _name, uint _level) public {... */\n    tag_9:\n      tag_34\n      0x04\n      dup1\n      calldatasize\n      sub\n      dup2\n      add\n      swap1\n      tag_35\n      swap2\n      swap1\n      tag_36\n      jump\t// in\n    tag_35:\n      tag_37\n      jump\t// in\n    tag_34:\n      stop\n        /* \"contracts/1_Storage.sol\":257:280  bytes public b1 = \"abc\" */\n    tag_10:\n      tag_38\n      tag_39\n      jump\t// in\n    tag_38:\n      mload(0x40)\n      tag_40\n      swap2\n      swap1\n      tag_41\n      jump\t// in\n    tag_40:\n      mload(0x40)\n      dup1\n      swap2\n      sub\n      swap1\n      return\n        /* \"contracts/1_Storage.sol\":457:495  mapping(uint => Player) public players */\n    tag_11:\n      tag_42\n      0x04\n      dup1\n      calldatasize\n      sub\n      dup2\n      add\n      swap1\n      tag_43\n      swap2\n      swap1\n      tag_25\n      jump\t// in\n    tag_43:\n      tag_44\n      jump\t// in\n    tag_42:\n      mload(0x40)\n      tag_45\n      swap4\n      swap3\n      swap2\n      swap1\n      tag_46\n      jump\t// in\n    tag_45:\n      mload(0x40)\n      dup1\n      swap2\n      sub\n      swap1\n      return\n        /* \"contracts/1_Storage.sol\":317:357  mapping(string => uint) public myMapping */\n    tag_12:\n      tag_47\n      0x04\n      dup1\n      calldatasize\n      sub\n      dup2\n      add\n      swap1\n      tag_48\n      swap2\n      swap1\n      tag_49\n      jump\t// in\n    tag_48:\n      tag_50\n      jump\t// in\n    tag_47:\n      mload(0x40)\n      tag_51\n      swap2\n      swap1\n      tag_17\n      jump\t// in\n    tag_51:\n      mload(0x40)\n      dup1\n      swap2\n      sub\n      swap1\n      return\n        /* \"contracts/1_Storage.sol\":1042:1118  function getValue() public view returns (uint) {... */\n    tag_15:\n        /* \"contracts/1_Storage.sol\":1083:1087  uint */\n      0x00\n        /* \"contracts/1_Storage.sol\":1106:1111  value */\n      sload(0x01)\n        /* \"contracts/1_Storage.sol\":1099:1111  return value */\n      swap1\n      pop\n        /* \"contracts/1_Storage.sol\":1042:1118  function getValue() public view returns (uint) {... */\n      swap1\n      jump\t// out\n        /* \"contracts/1_Storage.sol\":1199:1278  function retrieve() public view returns (uint256){... */\n    tag_19:\n        /* \"contracts/1_Storage.sol\":1240:1247  uint256 */\n      0x00\n        /* \"contracts/1_Storage.sol\":1265:1271  number */\n      dup1\n      sload\n        /* \"contracts/1_Storage.sol\":1258:1271  return number */\n      swap1\n      pop\n        /* \"contracts/1_Storage.sol\":1199:1278  function retrieve() public view returns (uint256){... */\n      swap1\n      jump\t// out\n        /* \"contracts/1_Storage.sol\":689:772  function addElement() public {... */\n    tag_22:\n        /* \"contracts/1_Storage.sol\":728:730  b1 */\n      0x02\n        /* \"contracts/1_Storage.sol\":728:740  b1.push(\"x\") */\n      dup1\n      dup1\n      sload\n      dup1\n      tag_55\n      swap1\n      tag_56\n      jump\t// in\n    tag_55:\n      dup1\n      0x1f\n      dup2\n      sub\n      tag_57\n      jumpi\n      dup4\n      0x00\n      mstore\n      keccak256(0x00, 0x20)\n      not(0xff)\n      dup5\n      and\n      dup2\n      sstore\n      0x3f\n      swap4\n      pop\n      pop\n    tag_57:\n      pop\n      0x02\n      dup3\n      add\n      dup4\n      sstore\n      0x01\n      dup2\n      add\n      swap3\n      pop\n      pop\n      pop\n      0x01\n      swap1\n      sub\n      dup2\n      sload\n      0x01\n      and\n      iszero\n      tag_59\n      jumpi\n      swap1\n      0x00\n      mstore\n      keccak256(0x00, 0x20)\n      swap1\n      0x20\n      swap2\n      dup3\n      dup3\n      div\n      add\n      swap2\n      swap1\n      mod\n    tag_59:\n      0x7800000000000000000000000000000000000000000000000000000000000000\n      swap1\n      swap2\n      swap1\n      swap2\n      0x1f\n      sub\n      0x0100\n      exp\n      dup2\n      sload\n      dup2\n      0xff\n      mul\n      not\n      and\n      swap1\n      0x0100000000000000000000000000000000000000000000000000000000000000\n      dup5\n      div\n      mul\n      or\n      swap1\n      sstore\n      pop\n        /* \"contracts/1_Storage.sol\":689:772  function addElement() public {... */\n      jump\t// out\n        /* \"contracts/1_Storage.sol\":950:1019  function setValue(uint _value) public {... */\n    tag_26:\n        /* \"contracts/1_Storage.sol\":1006:1012  _value */\n      dup1\n        /* \"contracts/1_Storage.sol\":998:1003  value */\n      0x01\n        /* \"contracts/1_Storage.sol\":998:1012  value = _value */\n      dup2\n      swap1\n      sstore\n      pop\n        /* \"contracts/1_Storage.sol\":950:1019  function setValue(uint _value) public {... */\n      pop\n      jump\t// out\n        /* \"contracts/1_Storage.sol\":863:927  function store(uint256 num) public {... */\n    tag_29:\n        /* \"contracts/1_Storage.sol\":917:920  num */\n      dup1\n        /* \"contracts/1_Storage.sol\":908:914  number */\n      0x00\n        /* \"contracts/1_Storage.sol\":908:920  number = num */\n      dup2\n      swap1\n      sstore\n      pop\n        /* \"contracts/1_Storage.sol\":863:927  function store(uint256 num) public {... */\n      pop\n      jump\t// out\n        /* \"contracts/1_Storage.sol\":287:311  string public s1 = \"abc\" */\n    tag_31:\n      0x03\n      dup1\n      sload\n      tag_62\n      swap1\n      tag_56\n      jump\t// in\n    tag_62:\n      dup1\n      0x1f\n      add\n      0x20\n      dup1\n      swap2\n      div\n      mul\n      0x20\n      add\n      mload(0x40)\n      swap1\n      dup2\n      add\n      0x40\n      mstore\n      dup1\n      swap3\n      swap2\n      swap1\n      dup2\n      dup2\n      mstore\n      0x20\n      add\n      dup3\n      dup1\n      sload\n      tag_63\n      swap1\n      tag_56\n      jump\t// in\n    tag_63:\n      dup1\n      iszero\n      tag_64\n      jumpi\n      dup1\n      0x1f\n      lt\n      tag_65\n      jumpi\n      0x0100\n      dup1\n      dup4\n      sload\n      div\n      mul\n      dup4\n      mstore\n      swap2\n      0x20\n      add\n      swap2\n      jump(tag_64)\n    tag_65:\n      dup3\n      add\n      swap2\n      swap1\n      0x00\n      mstore\n      keccak256(0x00, 0x20)\n      swap1\n    tag_66:\n      dup2\n      sload\n      dup2\n      mstore\n      swap1\n      0x01\n      add\n      swap1\n      0x20\n      add\n      dup1\n      dup4\n      gt\n      tag_66\n      jumpi\n      dup3\n      swap1\n      sub\n      0x1f\n      and\n      dup3\n      add\n      swap2\n    tag_64:\n      pop\n      pop\n      pop\n      pop\n      pop\n      dup2\n      jump\t// out\n        /* \"contracts/1_Storage.sol\":551:680  function setMapping(uint _id, string memory _name, uint _level) public {... */\n    tag_37:\n        /* \"contracts/1_Storage.sol\":647:673  Player(_name, _level, 100) */\n      mload(0x40)\n      dup1\n      0x60\n      add\n      0x40\n      mstore\n      dup1\n        /* \"contracts/1_Storage.sol\":654:659  _name */\n      dup4\n        /* \"contracts/1_Storage.sol\":647:673  Player(_name, _level, 100) */\n      dup2\n      mstore\n      0x20\n      add\n        /* \"contracts/1_Storage.sol\":661:667  _level */\n      dup3\n        /* \"contracts/1_Storage.sol\":647:673  Player(_name, _level, 100) */\n      dup2\n      mstore\n      0x20\n      add\n        /* \"contracts/1_Storage.sol\":669:672  100 */\n      0x64\n        /* \"contracts/1_Storage.sol\":647:673  Player(_name, _level, 100) */\n      dup2\n      mstore\n      pop\n        /* \"contracts/1_Storage.sol\":632:639  players */\n      0x05\n        /* \"contracts/1_Storage.sol\":632:644  players[_id] */\n      0x00\n        /* \"contracts/1_Storage.sol\":640:643  _id */\n      dup6\n        /* \"contracts/1_Storage.sol\":632:644  players[_id] */\n      dup2\n      mstore\n      0x20\n      add\n      swap1\n      dup2\n      mstore\n      0x20\n      add\n      0x00\n      keccak256\n        /* \"contracts/1_Storage.sol\":632:673  players[_id] = Player(_name, _level, 100) */\n      0x00\n      dup3\n      add\n      mload\n      dup2\n      0x00\n      add\n      swap1\n      dup2\n      tag_68\n      swap2\n      swap1\n      tag_69\n      jump\t// in\n    tag_68:\n      pop\n      0x20\n      dup3\n      add\n      mload\n      dup2\n      0x01\n      add\n      sstore\n      0x40\n      dup3\n      add\n      mload\n      dup2\n      0x02\n      add\n      sstore\n      swap1\n      pop\n      pop\n        /* \"contracts/1_Storage.sol\":551:680  function setMapping(uint _id, string memory _name, uint _level) public {... */\n      pop\n      pop\n      pop\n      jump\t// out\n        /* \"contracts/1_Storage.sol\":257:280  bytes public b1 = \"abc\" */\n    tag_39:\n      0x02\n      dup1\n      sload\n      tag_70\n      swap1\n      tag_56\n      jump\t// in\n    tag_70:\n      dup1\n      0x1f\n      add\n      0x20\n      dup1\n      swap2\n      div\n      mul\n      0x20\n      add\n      mload(0x40)\n      swap1\n      dup2\n      add\n      0x40\n      mstore\n      dup1\n      swap3\n      swap2\n      swap1\n      dup2\n      dup2\n      mstore\n      0x20\n      add\n      dup3\n      dup1\n      sload\n      tag_71\n      swap1\n      tag_56\n      jump\t// in\n    tag_71:\n      dup1\n      iszero\n      tag_72\n      jumpi\n      dup1\n      0x1f\n      lt\n      tag_73\n      jumpi\n      0x0100\n      dup1\n      dup4\n      sload\n      div\n      mul\n      dup4\n      mstore\n      swap2\n      0x20\n      add\n      swap2\n      jump(tag_72)\n    tag_73:\n      dup3\n      add\n      swap2\n      swap1\n      0x00\n      mstore\n      keccak256(0x00, 0x20)\n      swap1\n    tag_74:\n      dup2\n      sload\n      dup2\n      mstore\n      swap1\n      0x01\n      add\n      swap1\n      0x20\n      add\n      dup1\n      dup4\n      gt\n      tag_74\n      jumpi\n      dup3\n      swap1\n      sub\n      0x1f\n      and\n      dup3\n      add\n      swap2\n    tag_72:\n      pop\n      pop\n      pop\n      pop\n      pop\n      dup2\n      jump\t// out\n        /* \"contracts/1_Storage.sol\":457:495  mapping(uint => Player) public players */\n    tag_44:\n      mstore(0x20, 0x05)\n      dup1\n      0x00\n      mstore\n      keccak256(0x00, 0x40)\n      0x00\n      swap2\n      pop\n      swap1\n      pop\n      dup1\n      0x00\n      add\n      dup1\n      sload\n      tag_75\n      swap1\n      tag_56\n      jump\t// in\n    tag_75:\n      dup1\n      0x1f\n      add\n      0x20\n      dup1\n      swap2\n      div\n      mul\n      0x20\n      add\n      mload(0x40)\n      swap1\n      dup2\n      add\n      0x40\n      mstore\n      dup1\n      swap3\n      swap2\n      swap1\n      dup2\n      dup2\n      mstore\n      0x20\n      add\n      dup3\n      dup1\n      sload\n      tag_76\n      swap1\n      tag_56\n      jump\t// in\n    tag_76:\n      dup1\n      iszero\n      tag_77\n      jumpi\n      dup1\n      0x1f\n      lt\n      tag_78\n      jumpi\n      0x0100\n      dup1\n      dup4\n      sload\n      div\n      mul\n      dup4\n      mstore\n      swap2\n      0x20\n      add\n      swap2\n      jump(tag_77)\n    tag_78:\n      dup3\n      add\n      swap2\n      swap1\n      0x00\n      mstore\n      keccak256(0x00, 0x20)\n      swap1\n    tag_79:\n      dup2\n      sload\n      dup2\n      mstore\n      swap1\n      0x01\n      add\n      swap1\n      0x20\n      add\n      dup1\n      dup4\n      gt\n      tag_79\n      jumpi\n      dup3\n      swap1\n      sub\n      0x1f\n      and\n      dup3\n      add\n      swap2\n    tag_77:\n      pop\n      pop\n      pop\n      pop\n      pop\n      swap1\n      dup1\n      0x01\n      add\n      sload\n      swap1\n      dup1\n      0x02\n      add\n      sload\n      swap1\n      pop\n      dup4\n      jump\t// out\n        /* \"contracts/1_Storage.sol\":317:357  mapping(string => uint) public myMapping */\n    tag_50:\n      0x04\n      dup2\n      dup1\n      mload\n      0x20\n      dup2\n      add\n      dup3\n      add\n      dup1\n      mload\n      dup5\n      dup3\n      mstore\n      0x20\n      dup4\n      add\n      0x20\n      dup6\n      add\n      keccak256\n      dup2\n      dup4\n      mstore\n      dup1\n      swap6\n      pop\n      pop\n      pop\n      pop\n      pop\n      pop\n      0x00\n      swap2\n      pop\n      swap1\n      pop\n      sload\n      dup2\n      jump\t// out\n        /* \"#utility.yul\":7:84   */\n    tag_80:\n        /* \"#utility.yul\":44:51   */\n      0x00\n        /* \"#utility.yul\":73:78   */\n      dup2\n        /* \"#utility.yul\":62:78   */\n      swap1\n      pop\n        /* \"#utility.yul\":7:84   */\n      swap2\n      swap1\n      pop\n      jump\t// out\n        /* \"#utility.yul\":90:208   */\n    tag_81:\n        /* \"#utility.yul\":177:201   */\n      tag_123\n        /* \"#utility.yul\":195:200   */\n      dup2\n        /* \"#utility.yul\":177:201   */\n      tag_80\n      jump\t// in\n    tag_123:\n        /* \"#utility.yul\":172:175   */\n      dup3\n        /* \"#utility.yul\":165:202   */\n      mstore\n        /* \"#utility.yul\":90:208   */\n      pop\n      pop\n      jump\t// out\n        /* \"#utility.yul\":214:436   */\n    tag_17:\n        /* \"#utility.yul\":307:311   */\n      0x00\n        /* \"#utility.yul\":345:347   */\n      0x20\n        /* \"#utility.yul\":334:343   */\n      dup3\n        /* \"#utility.yul\":330:348   */\n      add\n        /* \"#utility.yul\":322:348   */\n      swap1\n      pop\n        /* \"#utility.yul\":358:429   */\n      tag_125\n        /* \"#utility.yul\":426:427   */\n      0x00\n        /* \"#utility.yul\":415:424   */\n      dup4\n        /* \"#utility.yul\":411:428   */\n      add\n        /* \"#utility.yul\":402:408   */\n      dup5\n        /* \"#utility.yul\":358:429   */\n      tag_81\n      jump\t// in\n    tag_125:\n        /* \"#utility.yul\":214:436   */\n      swap3\n      swap2\n      pop\n      pop\n      jump\t// out\n        /* \"#utility.yul\":442:517   */\n    tag_82:\n        /* \"#utility.yul\":475:481   */\n      0x00\n        /* \"#utility.yul\":508:510   */\n      0x40\n        /* \"#utility.yul\":502:511   */\n      mload\n        /* \"#utility.yul\":492:511   */\n      swap1\n      pop\n        /* \"#utility.yul\":442:517   */\n      swap1\n      jump\t// out\n        /* \"#utility.yul\":523:640   */\n    tag_83:\n        /* \"#utility.yul\":632:633   */\n      0x00\n        /* \"#utility.yul\":629:630   */\n      dup1\n        /* \"#utility.yul\":622:634   */\n      revert\n        /* \"#utility.yul\":646:763   */\n    tag_84:\n        /* \"#utility.yul\":755:756   */\n      0x00\n        /* \"#utility.yul\":752:753   */\n      dup1\n        /* \"#utility.yul\":745:757   */\n      revert\n        /* \"#utility.yul\":769:891   */\n    tag_85:\n        /* \"#utility.yul\":842:866   */\n      tag_130\n        /* \"#utility.yul\":860:865   */\n      dup2\n        /* \"#utility.yul\":842:866   */\n      tag_80\n      jump\t// in\n    tag_130:\n        /* \"#utility.yul\":835:840   */\n      dup2\n        /* \"#utility.yul\":832:867   */\n      eq\n        /* \"#utility.yul\":822:885   */\n      tag_131\n      jumpi\n        /* \"#utility.yul\":881:882   */\n      0x00\n        /* \"#utility.yul\":878:879   */\n      dup1\n        /* \"#utility.yul\":871:883   */\n      revert\n        /* \"#utility.yul\":822:885   */\n    tag_131:\n        /* \"#utility.yul\":769:891   */\n      pop\n      jump\t// out\n        /* \"#utility.yul\":897:1036   */\n    tag_86:\n        /* \"#utility.yul\":943:948   */\n      0x00\n        /* \"#utility.yul\":981:987   */\n      dup2\n        /* \"#utility.yul\":968:988   */\n      calldataload\n        /* \"#utility.yul\":959:988   */\n      swap1\n      pop\n        /* \"#utility.yul\":997:1030   */\n      tag_133\n        /* \"#utility.yul\":1024:1029   */\n      dup2\n        /* \"#utility.yul\":997:1030   */\n      tag_85\n      jump\t// in\n    tag_133:\n        /* \"#utility.yul\":897:1036   */\n      swap3\n      swap2\n      pop\n      pop\n      jump\t// out\n        /* \"#utility.yul\":1042:1371   */\n    tag_25:\n        /* \"#utility.yul\":1101:1107   */\n      0x00\n        /* \"#utility.yul\":1150:1152   */\n      0x20\n        /* \"#utility.yul\":1138:1147   */\n      dup3\n        /* \"#utility.yul\":1129:1136   */\n      dup5\n        /* \"#utility.yul\":1125:1148   */\n      sub\n        /* \"#utility.yul\":1121:1153   */\n      slt\n        /* \"#utility.yul\":1118:1237   */\n      iszero\n      tag_135\n      jumpi\n        /* \"#utility.yul\":1156:1235   */\n      tag_136\n      tag_83\n      jump\t// in\n    tag_136:\n        /* \"#utility.yul\":1118:1237   */\n    tag_135:\n        /* \"#utility.yul\":1276:1277   */\n      0x00\n        /* \"#utility.yul\":1301:1354   */\n      tag_137\n        /* \"#utility.yul\":1346:1353   */\n      dup5\n        /* \"#utility.yul\":1337:1343   */\n      dup3\n        /* \"#utility.yul\":1326:1335   */\n      dup6\n        /* \"#utility.yul\":1322:1344   */\n      add\n        /* \"#utility.yul\":1301:1354   */\n      tag_86\n      jump\t// in\n    tag_137:\n        /* \"#utility.yul\":1291:1354   */\n      swap2\n      pop\n        /* \"#utility.yul\":1247:1364   */\n      pop\n        /* \"#utility.yul\":1042:1371   */\n      swap3\n      swap2\n      pop\n      pop\n      jump\t// out\n        /* \"#utility.yul\":1377:1476   */\n    tag_87:\n        /* \"#utility.yul\":1429:1435   */\n      0x00\n        /* \"#utility.yul\":1463:1468   */\n      dup2\n        /* \"#utility.yul\":1457:1469   */\n      mload\n        /* \"#utility.yul\":1447:1469   */\n      swap1\n      pop\n        /* \"#utility.yul\":1377:1476   */\n      swap2\n      swap1\n      pop\n      jump\t// out\n        /* \"#utility.yul\":1482:1651   */\n    tag_88:\n        /* \"#utility.yul\":1566:1577   */\n      0x00\n        /* \"#utility.yul\":1600:1606   */\n      dup3\n        /* \"#utility.yul\":1595:1598   */\n      dup3\n        /* \"#utility.yul\":1588:1607   */\n      mstore\n        /* \"#utility.yul\":1640:1644   */\n      0x20\n        /* \"#utility.yul\":1635:1638   */\n      dup3\n        /* \"#utility.yul\":1631:1645   */\n      add\n        /* \"#utility.yul\":1616:1645   */\n      swap1\n      pop\n        /* \"#utility.yul\":1482:1651   */\n      swap3\n      swap2\n      pop\n      pop\n      jump\t// out\n        /* \"#utility.yul\":1657:1903   */\n    tag_89:\n        /* \"#utility.yul\":1738:1739   */\n      0x00\n        /* \"#utility.yul\":1748:1861   */\n    tag_141:\n        /* \"#utility.yul\":1762:1768   */\n      dup4\n        /* \"#utility.yul\":1759:1760   */\n      dup2\n        /* \"#utility.yul\":1756:1769   */\n      lt\n        /* \"#utility.yul\":1748:1861   */\n      iszero\n      tag_143\n      jumpi\n        /* \"#utility.yul\":1847:1848   */\n      dup1\n        /* \"#utility.yul\":1842:1845   */\n      dup3\n        /* \"#utility.yul\":1838:1849   */\n      add\n        /* \"#utility.yul\":1832:1850   */\n      mload\n        /* \"#utility.yul\":1828:1829   */\n      dup2\n        /* \"#utility.yul\":1823:1826   */\n      dup5\n        /* \"#utility.yul\":1819:1830   */\n      add\n        /* \"#utility.yul\":1812:1851   */\n      mstore\n        /* \"#utility.yul\":1784:1786   */\n      0x20\n        /* \"#utility.yul\":1781:1782   */\n      dup2\n        /* \"#utility.yul\":1777:1787   */\n      add\n        /* \"#utility.yul\":1772:1787   */\n      swap1\n      pop\n        /* \"#utility.yul\":1748:1861   */\n      jump(tag_141)\n    tag_143:\n        /* \"#utility.yul\":1895:1896   */\n      0x00\n        /* \"#utility.yul\":1886:1892   */\n      dup5\n        /* \"#utility.yul\":1881:1884   */\n      dup5\n        /* \"#utility.yul\":1877:1893   */\n      add\n        /* \"#utility.yul\":1870:1897   */\n      mstore\n        /* \"#utility.yul\":1719:1903   */\n      pop\n        /* \"#utility.yul\":1657:1903   */\n      pop\n      pop\n      pop\n      jump\t// out\n        /* \"#utility.yul\":1909:2011   */\n    tag_90:\n        /* \"#utility.yul\":1950:1956   */\n      0x00\n        /* \"#utility.yul\":2001:2003   */\n      0x1f\n        /* \"#utility.yul\":1997:2004   */\n      not\n        /* \"#utility.yul\":1992:1994   */\n      0x1f\n        /* \"#utility.yul\":1985:1990   */\n      dup4\n        /* \"#utility.yul\":1981:1995   */\n      add\n        /* \"#utility.yul\":1977:2005   */\n      and\n        /* \"#utility.yul\":1967:2005   */\n      swap1\n      pop\n        /* \"#utility.yul\":1909:2011   */\n      swap2\n      swap1\n      pop\n      jump\t// out\n        /* \"#utility.yul\":2017:2394   */\n    tag_91:\n        /* \"#utility.yul\":2105:2108   */\n      0x00\n        /* \"#utility.yul\":2133:2172   */\n      tag_146\n        /* \"#utility.yul\":2166:2171   */\n      dup3\n        /* \"#utility.yul\":2133:2172   */\n      tag_87\n      jump\t// in\n    tag_146:\n        /* \"#utility.yul\":2188:2259   */\n      tag_147\n        /* \"#utility.yul\":2252:2258   */\n      dup2\n        /* \"#utility.yul\":2247:2250   */\n      dup6\n        /* \"#utility.yul\":2188:2259   */\n      tag_88\n      jump\t// in\n    tag_147:\n        /* \"#utility.yul\":2181:2259   */\n      swap4\n      pop\n        /* \"#utility.yul\":2268:2333   */\n      tag_148\n        /* \"#utility.yul\":2326:2332   */\n      dup2\n        /* \"#utility.yul\":2321:2324   */\n      dup6\n        /* \"#utility.yul\":2314:2318   */\n      0x20\n        /* \"#utility.yul\":2307:2312   */\n      dup7\n        /* \"#utility.yul\":2303:2319   */\n      add\n        /* \"#utility.yul\":2268:2333   */\n      tag_89\n      jump\t// in\n    tag_148:\n        /* \"#utility.yul\":2358:2387   */\n      tag_149\n        /* \"#utility.yul\":2380:2386   */\n      dup2\n        /* \"#utility.yul\":2358:2387   */\n      tag_90\n      jump\t// in\n    tag_149:\n        /* \"#utility.yul\":2353:2356   */\n      dup5\n        /* \"#utility.yul\":2349:2388   */\n      add\n        /* \"#utility.yul\":2342:2388   */\n      swap2\n      pop\n        /* \"#utility.yul\":2109:2394   */\n      pop\n        /* \"#utility.yul\":2017:2394   */\n      swap3\n      swap2\n      pop\n      pop\n      jump\t// out\n        /* \"#utility.yul\":2400:2713   */\n    tag_33:\n        /* \"#utility.yul\":2513:2517   */\n      0x00\n        /* \"#utility.yul\":2551:2553   */\n      0x20\n        /* \"#utility.yul\":2540:2549   */\n      dup3\n        /* \"#utility.yul\":2536:2554   */\n      add\n        /* \"#utility.yul\":2528:2554   */\n      swap1\n      pop\n        /* \"#utility.yul\":2600:2609   */\n      dup2\n        /* \"#utility.yul\":2594:2598   */\n      dup2\n        /* \"#utility.yul\":2590:2610   */\n      sub\n        /* \"#utility.yul\":2586:2587   */\n      0x00\n        /* \"#utility.yul\":2575:2584   */\n      dup4\n        /* \"#utility.yul\":2571:2588   */\n      add\n        /* \"#utility.yul\":2564:2611   */\n      mstore\n        /* \"#utility.yul\":2628:2706   */\n      tag_151\n        /* \"#utility.yul\":2701:2705   */\n      dup2\n        /* \"#utility.yul\":2692:2698   */\n      dup5\n        /* \"#utility.yul\":2628:2706   */\n      tag_91\n      jump\t// in\n    tag_151:\n        /* \"#utility.yul\":2620:2706   */\n      swap1\n      pop\n        /* \"#utility.yul\":2400:2713   */\n      swap3\n      swap2\n      pop\n      pop\n      jump\t// out\n        /* \"#utility.yul\":2719:2836   */\n    tag_92:\n        /* \"#utility.yul\":2828:2829   */\n      0x00\n        /* \"#utility.yul\":2825:2826   */\n      dup1\n        /* \"#utility.yul\":2818:2830   */\n      revert\n        /* \"#utility.yul\":2842:2959   */\n    tag_93:\n        /* \"#utility.yul\":2951:2952   */\n      0x00\n        /* \"#utility.yul\":2948:2949   */\n      dup1\n        /* \"#utility.yul\":2941:2953   */\n      revert\n        /* \"#utility.yul\":2965:3145   */\n    tag_94:\n        /* \"#utility.yul\":3013:3090   */\n      0x4e487b7100000000000000000000000000000000000000000000000000000000\n        /* \"#utility.yul\":3010:3011   */\n      0x00\n        /* \"#utility.yul\":3003:3091   */\n      mstore\n        /* \"#utility.yul\":3110:3114   */\n      0x41\n        /* \"#utility.yul\":3107:3108   */\n      0x04\n        /* \"#utility.yul\":3100:3115   */\n      mstore\n        /* \"#utility.yul\":3134:3138   */\n      0x24\n        /* \"#utility.yul\":3131:3132   */\n      0x00\n        /* \"#utility.yul\":3124:3139   */\n      revert\n        /* \"#utility.yul\":3151:3432   */\n    tag_95:\n        /* \"#utility.yul\":3234:3261   */\n      tag_156\n        /* \"#utility.yul\":3256:3260   */\n      dup3\n        /* \"#utility.yul\":3234:3261   */\n      tag_90\n      jump\t// in\n    tag_156:\n        /* \"#utility.yul\":3226:3232   */\n      dup2\n        /* \"#utility.yul\":3222:3262   */\n      add\n        /* \"#utility.yul\":3364:3370   */\n      dup2\n        /* \"#utility.yul\":3352:3362   */\n      dup2\n        /* \"#utility.yul\":3349:3371   */\n      lt\n        /* \"#utility.yul\":3328:3346   */\n      0xffffffffffffffff\n        /* \"#utility.yul\":3316:3326   */\n      dup3\n        /* \"#utility.yul\":3313:3347   */\n      gt\n        /* \"#utility.yul\":3310:3372   */\n      or\n        /* \"#utility.yul\":3307:3395   */\n      iszero\n      tag_157\n      jumpi\n        /* \"#utility.yul\":3375:3393   */\n      tag_158\n      tag_94\n      jump\t// in\n    tag_158:\n        /* \"#utility.yul\":3307:3395   */\n    tag_157:\n        /* \"#utility.yul\":3415:3425   */\n      dup1\n        /* \"#utility.yul\":3411:3413   */\n      0x40\n        /* \"#utility.yul\":3404:3426   */\n      mstore\n        /* \"#utility.yul\":3194:3432   */\n      pop\n        /* \"#utility.yul\":3151:3432   */\n      pop\n      pop\n      jump\t// out\n        /* \"#utility.yul\":3438:3567   */\n    tag_96:\n        /* \"#utility.yul\":3472:3478   */\n      0x00\n        /* \"#utility.yul\":3499:3519   */\n      tag_160\n      tag_82\n      jump\t// in\n    tag_160:\n        /* \"#utility.yul\":3489:3519   */\n      swap1\n      pop\n        /* \"#utility.yul\":3528:3561   */\n      tag_161\n        /* \"#utility.yul\":3556:3560   */\n      dup3\n        /* \"#utility.yul\":3548:3554   */\n      dup3\n        /* \"#utility.yul\":3528:3561   */\n      tag_95\n      jump\t// in\n    tag_161:\n        /* \"#utility.yul\":3438:3567   */\n      swap2\n      swap1\n      pop\n      jump\t// out\n        /* \"#utility.yul\":3573:3881   */\n    tag_97:\n        /* \"#utility.yul\":3635:3639   */\n      0x00\n        /* \"#utility.yul\":3725:3743   */\n      0xffffffffffffffff\n        /* \"#utility.yul\":3717:3723   */\n      dup3\n        /* \"#utility.yul\":3714:3744   */\n      gt\n        /* \"#utility.yul\":3711:3767   */\n      iszero\n      tag_163\n      jumpi\n        /* \"#utility.yul\":3747:3765   */\n      tag_164\n      tag_94\n      jump\t// in\n    tag_164:\n        /* \"#utility.yul\":3711:3767   */\n    tag_163:\n        /* \"#utility.yul\":3785:3814   */\n      tag_165\n        /* \"#utility.yul\":3807:3813   */\n      dup3\n        /* \"#utility.yul\":3785:3814   */\n      tag_90\n      jump\t// in\n    tag_165:\n        /* \"#utility.yul\":3777:3814   */\n      swap1\n      pop\n        /* \"#utility.yul\":3869:3873   */\n      0x20\n        /* \"#utility.yul\":3863:3867   */\n      dup2\n        /* \"#utility.yul\":3859:3874   */\n      add\n        /* \"#utility.yul\":3851:3874   */\n      swap1\n      pop\n        /* \"#utility.yul\":3573:3881   */\n      swap2\n      swap1\n      pop\n      jump\t// out\n        /* \"#utility.yul\":3887:4033   */\n    tag_98:\n        /* \"#utility.yul\":3984:3990   */\n      dup3\n        /* \"#utility.yul\":3979:3982   */\n      dup2\n        /* \"#utility.yul\":3974:3977   */\n      dup4\n        /* \"#utility.yul\":3961:3991   */\n      calldatacopy\n        /* \"#utility.yul\":4025:4026   */\n      0x00\n        /* \"#utility.yul\":4016:4022   */\n      dup4\n        /* \"#utility.yul\":4011:4014   */\n      dup4\n        /* \"#utility.yul\":4007:4023   */\n      add\n        /* \"#utility.yul\":4000:4027   */\n      mstore\n        /* \"#utility.yul\":3887:4033   */\n      pop\n      pop\n      pop\n      jump\t// out\n        /* \"#utility.yul\":4039:4464   */\n    tag_99:\n        /* \"#utility.yul\":4117:4122   */\n      0x00\n        /* \"#utility.yul\":4142:4208   */\n      tag_168\n        /* \"#utility.yul\":4158:4207   */\n      tag_169\n        /* \"#utility.yul\":4200:4206   */\n      dup5\n        /* \"#utility.yul\":4158:4207   */\n      tag_97\n      jump\t// in\n    tag_169:\n        /* \"#utility.yul\":4142:4208   */\n      tag_96\n      jump\t// in\n    tag_168:\n        /* \"#utility.yul\":4133:4208   */\n      swap1\n      pop\n        /* \"#utility.yul\":4231:4237   */\n      dup3\n        /* \"#utility.yul\":4224:4229   */\n      dup2\n        /* \"#utility.yul\":4217:4238   */\n      mstore\n        /* \"#utility.yul\":4269:4273   */\n      0x20\n        /* \"#utility.yul\":4262:4267   */\n      dup2\n        /* \"#utility.yul\":4258:4274   */\n      add\n        /* \"#utility.yul\":4307:4310   */\n      dup5\n        /* \"#utility.yul\":4298:4304   */\n      dup5\n        /* \"#utility.yul\":4293:4296   */\n      dup5\n        /* \"#utility.yul\":4289:4305   */\n      add\n        /* \"#utility.yul\":4286:4311   */\n      gt\n        /* \"#utility.yul\":4283:4395   */\n      iszero\n      tag_170\n      jumpi\n        /* \"#utility.yul\":4314:4393   */\n      tag_171\n      tag_93\n      jump\t// in\n    tag_171:\n        /* \"#utility.yul\":4283:4395   */\n    tag_170:\n        /* \"#utility.yul\":4404:4458   */\n      tag_172\n        /* \"#utility.yul\":4451:4457   */\n      dup5\n        /* \"#utility.yul\":4446:4449   */\n      dup3\n        /* \"#utility.yul\":4441:4444   */\n      dup6\n        /* \"#utility.yul\":4404:4458   */\n      tag_98\n      jump\t// in\n    tag_172:\n        /* \"#utility.yul\":4123:4464   */\n      pop\n        /* \"#utility.yul\":4039:4464   */\n      swap4\n      swap3\n      pop\n      pop\n      pop\n      jump\t// out\n        /* \"#utility.yul\":4484:4824   */\n    tag_100:\n        /* \"#utility.yul\":4540:4545   */\n      0x00\n        /* \"#utility.yul\":4589:4592   */\n      dup3\n        /* \"#utility.yul\":4582:4586   */\n      0x1f\n        /* \"#utility.yul\":4574:4580   */\n      dup4\n        /* \"#utility.yul\":4570:4587   */\n      add\n        /* \"#utility.yul\":4566:4593   */\n      slt\n        /* \"#utility.yul\":4556:4678   */\n      tag_174\n      jumpi\n        /* \"#utility.yul\":4597:4676   */\n      tag_175\n      tag_92\n      jump\t// in\n    tag_175:\n        /* \"#utility.yul\":4556:4678   */\n    tag_174:\n        /* \"#utility.yul\":4714:4720   */\n      dup2\n        /* \"#utility.yul\":4701:4721   */\n      calldataload\n        /* \"#utility.yul\":4739:4818   */\n      tag_176\n        /* \"#utility.yul\":4814:4817   */\n      dup5\n        /* \"#utility.yul\":4806:4812   */\n      dup3\n        /* \"#utility.yul\":4799:4803   */\n      0x20\n        /* \"#utility.yul\":4791:4797   */\n      dup7\n        /* \"#utility.yul\":4787:4804   */\n      add\n        /* \"#utility.yul\":4739:4818   */\n      tag_99\n      jump\t// in\n    tag_176:\n        /* \"#utility.yul\":4730:4818   */\n      swap2\n      pop\n        /* \"#utility.yul\":4546:4824   */\n      pop\n        /* \"#utility.yul\":4484:4824   */\n      swap3\n      swap2\n      pop\n      pop\n      jump\t// out\n        /* \"#utility.yul\":4830:5629   */\n    tag_36:\n        /* \"#utility.yul\":4917:4923   */\n      0x00\n        /* \"#utility.yul\":4925:4931   */\n      dup1\n        /* \"#utility.yul\":4933:4939   */\n      0x00\n        /* \"#utility.yul\":4982:4984   */\n      0x60\n        /* \"#utility.yul\":4970:4979   */\n      dup5\n        /* \"#utility.yul\":4961:4968   */\n      dup7\n        /* \"#utility.yul\":4957:4980   */\n      sub\n        /* \"#utility.yul\":4953:4985   */\n      slt\n        /* \"#utility.yul\":4950:5069   */\n      iszero\n      tag_178\n      jumpi\n        /* \"#utility.yul\":4988:5067   */\n      tag_179\n      tag_83\n      jump\t// in\n    tag_179:\n        /* \"#utility.yul\":4950:5069   */\n    tag_178:\n        /* \"#utility.yul\":5108:5109   */\n      0x00\n        /* \"#utility.yul\":5133:5186   */\n      tag_180\n        /* \"#utility.yul\":5178:5185   */\n      dup7\n        /* \"#utility.yul\":5169:5175   */\n      dup3\n        /* \"#utility.yul\":5158:5167   */\n      dup8\n        /* \"#utility.yul\":5154:5176   */\n      add\n        /* \"#utility.yul\":5133:5186   */\n      tag_86\n      jump\t// in\n    tag_180:\n        /* \"#utility.yul\":5123:5186   */\n      swap4\n      pop\n        /* \"#utility.yul\":5079:5196   */\n      pop\n        /* \"#utility.yul\":5263:5265   */\n      0x20\n        /* \"#utility.yul\":5252:5261   */\n      dup5\n        /* \"#utility.yul\":5248:5266   */\n      add\n        /* \"#utility.yul\":5235:5267   */\n      calldataload\n        /* \"#utility.yul\":5294:5312   */\n      0xffffffffffffffff\n        /* \"#utility.yul\":5286:5292   */\n      dup2\n        /* \"#utility.yul\":5283:5313   */\n      gt\n        /* \"#utility.yul\":5280:5397   */\n      iszero\n      tag_181\n      jumpi\n        /* \"#utility.yul\":5316:5395   */\n      tag_182\n      tag_84\n      jump\t// in\n    tag_182:\n        /* \"#utility.yul\":5280:5397   */\n    tag_181:\n        /* \"#utility.yul\":5421:5484   */\n      tag_183\n        /* \"#utility.yul\":5476:5483   */\n      dup7\n        /* \"#utility.yul\":5467:5473   */\n      dup3\n        /* \"#utility.yul\":5456:5465   */\n      dup8\n        /* \"#utility.yul\":5452:5474   */\n      add\n        /* \"#utility.yul\":5421:5484   */\n      tag_100\n      jump\t// in\n    tag_183:\n        /* \"#utility.yul\":5411:5484   */\n      swap3\n      pop\n        /* \"#utility.yul\":5206:5494   */\n      pop\n        /* \"#utility.yul\":5533:5535   */\n      0x40\n        /* \"#utility.yul\":5559:5612   */\n      tag_184\n        /* \"#utility.yul\":5604:5611   */\n      dup7\n        /* \"#utility.yul\":5595:5601   */\n      dup3\n        /* \"#utility.yul\":5584:5593   */\n      dup8\n        /* \"#utility.yul\":5580:5602   */\n      add\n        /* \"#utility.yul\":5559:5612   */\n      tag_86\n      jump\t// in\n    tag_184:\n        /* \"#utility.yul\":5549:5612   */\n      swap2\n      pop\n        /* \"#utility.yul\":5504:5622   */\n      pop\n        /* \"#utility.yul\":4830:5629   */\n      swap3\n      pop\n      swap3\n      pop\n      swap3\n      jump\t// out\n        /* \"#utility.yul\":5635:5733   */\n    tag_101:\n        /* \"#utility.yul\":5686:5692   */\n      0x00\n        /* \"#utility.yul\":5720:5725   */\n      dup2\n        /* \"#utility.yul\":5714:5726   */\n      mload\n        /* \"#utility.yul\":5704:5726   */\n      swap1\n      pop\n        /* \"#utility.yul\":5635:5733   */\n      swap2\n      swap1\n      pop\n      jump\t// out\n        /* \"#utility.yul\":5739:5907   */\n    tag_102:\n        /* \"#utility.yul\":5822:5833   */\n      0x00\n        /* \"#utility.yul\":5856:5862   */\n      dup3\n        /* \"#utility.yul\":5851:5854   */\n      dup3\n        /* \"#utility.yul\":5844:5863   */\n      mstore\n        /* \"#utility.yul\":5896:5900   */\n      0x20\n        /* \"#utility.yul\":5891:5894   */\n      dup3\n        /* \"#utility.yul\":5887:5901   */\n      add\n        /* \"#utility.yul\":5872:5901   */\n      swap1\n      pop\n        /* \"#utility.yul\":5739:5907   */\n      swap3\n      swap2\n      pop\n      pop\n      jump\t// out\n        /* \"#utility.yul\":5913:6286   */\n    tag_103:\n        /* \"#utility.yul\":5999:6002   */\n      0x00\n        /* \"#utility.yul\":6027:6065   */\n      tag_188\n        /* \"#utility.yul\":6059:6064   */\n      dup3\n        /* \"#utility.yul\":6027:6065   */\n      tag_101\n      jump\t// in\n    tag_188:\n        /* \"#utility.yul\":6081:6151   */\n      tag_189\n        /* \"#utility.yul\":6144:6150   */\n      dup2\n        /* \"#utility.yul\":6139:6142   */\n      dup6\n        /* \"#utility.yul\":6081:6151   */\n      tag_102\n      jump\t// in\n    tag_189:\n        /* \"#utility.yul\":6074:6151   */\n      swap4\n      pop\n        /* \"#utility.yul\":6160:6225   */\n      tag_190\n        /* \"#utility.yul\":6218:6224   */\n      dup2\n        /* \"#utility.yul\":6213:6216   */\n      dup6\n        /* \"#utility.yul\":6206:6210   */\n      0x20\n        /* \"#utility.yul\":6199:6204   */\n      dup7\n        /* \"#utility.yul\":6195:6211   */\n      add\n        /* \"#utility.yul\":6160:6225   */\n      tag_89\n      jump\t// in\n    tag_190:\n        /* \"#utility.yul\":6250:6279   */\n      tag_191\n        /* \"#utility.yul\":6272:6278   */\n      dup2\n        /* \"#utility.yul\":6250:6279   */\n      tag_90\n      jump\t// in\n    tag_191:\n        /* \"#utility.yul\":6245:6248   */\n      dup5\n        /* \"#utility.yul\":6241:6280   */\n      add\n        /* \"#utility.yul\":6234:6280   */\n      swap2\n      pop\n        /* \"#utility.yul\":6003:6286   */\n      pop\n        /* \"#utility.yul\":5913:6286   */\n      swap3\n      swap2\n      pop\n      pop\n      jump\t// out\n        /* \"#utility.yul\":6292:6601   */\n    tag_41:\n        /* \"#utility.yul\":6403:6407   */\n      0x00\n        /* \"#utility.yul\":6441:6443   */\n      0x20\n        /* \"#utility.yul\":6430:6439   */\n      dup3\n        /* \"#utility.yul\":6426:6444   */\n      add\n        /* \"#utility.yul\":6418:6444   */\n      swap1\n      pop\n        /* \"#utility.yul\":6490:6499   */\n      dup2\n        /* \"#utility.yul\":6484:6488   */\n      dup2\n        /* \"#utility.yul\":6480:6500   */\n      sub\n        /* \"#utility.yul\":6476:6477   */\n      0x00\n        /* \"#utility.yul\":6465:6474   */\n      dup4\n        /* \"#utility.yul\":6461:6478   */\n      add\n        /* \"#utility.yul\":6454:6501   */\n      mstore\n        /* \"#utility.yul\":6518:6594   */\n      tag_193\n        /* \"#utility.yul\":6589:6593   */\n      dup2\n        /* \"#utility.yul\":6580:6586   */\n      dup5\n        /* \"#utility.yul\":6518:6594   */\n      tag_103\n      jump\t// in\n    tag_193:\n        /* \"#utility.yul\":6510:6594   */\n      swap1\n      pop\n        /* \"#utility.yul\":6292:6601   */\n      swap3\n      swap2\n      pop\n      pop\n      jump\t// out\n        /* \"#utility.yul\":6607:7140   */\n    tag_46:\n        /* \"#utility.yul\":6776:6780   */\n      0x00\n        /* \"#utility.yul\":6814:6816   */\n      0x60\n        /* \"#utility.yul\":6803:6812   */\n      dup3\n        /* \"#utility.yul\":6799:6817   */\n      add\n        /* \"#utility.yul\":6791:6817   */\n      swap1\n      pop\n        /* \"#utility.yul\":6863:6872   */\n      dup2\n        /* \"#utility.yul\":6857:6861   */\n      dup2\n        /* \"#utility.yul\":6853:6873   */\n      sub\n        /* \"#utility.yul\":6849:6850   */\n      0x00\n        /* \"#utility.yul\":6838:6847   */\n      dup4\n        /* \"#utility.yul\":6834:6851   */\n      add\n        /* \"#utility.yul\":6827:6874   */\n      mstore\n        /* \"#utility.yul\":6891:6969   */\n      tag_195\n        /* \"#utility.yul\":6964:6968   */\n      dup2\n        /* \"#utility.yul\":6955:6961   */\n      dup7\n        /* \"#utility.yul\":6891:6969   */\n      tag_91\n      jump\t// in\n    tag_195:\n        /* \"#utility.yul\":6883:6969   */\n      swap1\n      pop\n        /* \"#utility.yul\":6979:7051   */\n      tag_196\n        /* \"#utility.yul\":7047:7049   */\n      0x20\n        /* \"#utility.yul\":7036:7045   */\n      dup4\n        /* \"#utility.yul\":7032:7050   */\n      add\n        /* \"#utility.yul\":7023:7029   */\n      dup6\n        /* \"#utility.yul\":6979:7051   */\n      tag_81\n      jump\t// in\n    tag_196:\n        /* \"#utility.yul\":7061:7133   */\n      tag_197\n        /* \"#utility.yul\":7129:7131   */\n      0x40\n        /* \"#utility.yul\":7118:7127   */\n      dup4\n        /* \"#utility.yul\":7114:7132   */\n      add\n        /* \"#utility.yul\":7105:7111   */\n      dup5\n        /* \"#utility.yul\":7061:7133   */\n      tag_81\n      jump\t// in\n    tag_197:\n        /* \"#utility.yul\":6607:7140   */\n      swap5\n      swap4\n      pop\n      pop\n      pop\n      pop\n      jump\t// out\n        /* \"#utility.yul\":7146:7655   */\n    tag_49:\n        /* \"#utility.yul\":7215:7221   */\n      0x00\n        /* \"#utility.yul\":7264:7266   */\n      0x20\n        /* \"#utility.yul\":7252:7261   */\n      dup3\n        /* \"#utility.yul\":7243:7250   */\n      dup5\n        /* \"#utility.yul\":7239:7262   */\n      sub\n        /* \"#utility.yul\":7235:7267   */\n      slt\n        /* \"#utility.yul\":7232:7351   */\n      iszero\n      tag_199\n      jumpi\n        /* \"#utility.yul\":7270:7349   */\n      tag_200\n      tag_83\n      jump\t// in\n    tag_200:\n        /* \"#utility.yul\":7232:7351   */\n    tag_199:\n        /* \"#utility.yul\":7418:7419   */\n      0x00\n        /* \"#utility.yul\":7407:7416   */\n      dup3\n        /* \"#utility.yul\":7403:7420   */\n      add\n        /* \"#utility.yul\":7390:7421   */\n      calldataload\n        /* \"#utility.yul\":7448:7466   */\n      0xffffffffffffffff\n        /* \"#utility.yul\":7440:7446   */\n      dup2\n        /* \"#utility.yul\":7437:7467   */\n      gt\n        /* \"#utility.yul\":7434:7551   */\n      iszero\n      tag_201\n      jumpi\n        /* \"#utility.yul\":7470:7549   */\n      tag_202\n      tag_84\n      jump\t// in\n    tag_202:\n        /* \"#utility.yul\":7434:7551   */\n    tag_201:\n        /* \"#utility.yul\":7575:7638   */\n      tag_203\n        /* \"#utility.yul\":7630:7637   */\n      dup5\n        /* \"#utility.yul\":7621:7627   */\n      dup3\n        /* \"#utility.yul\":7610:7619   */\n      dup6\n        /* \"#utility.yul\":7606:7628   */\n      add\n        /* \"#utility.yul\":7575:7638   */\n      tag_100\n      jump\t// in\n    tag_203:\n        /* \"#utility.yul\":7565:7638   */\n      swap2\n      pop\n        /* \"#utility.yul\":7361:7648   */\n      pop\n        /* \"#utility.yul\":7146:7655   */\n      swap3\n      swap2\n      pop\n      pop\n      jump\t// out\n        /* \"#utility.yul\":7661:7841   */\n    tag_104:\n        /* \"#utility.yul\":7709:7786   */\n      0x4e487b7100000000000000000000000000000000000000000000000000000000\n        /* \"#utility.yul\":7706:7707   */\n      0x00\n        /* \"#utility.yul\":7699:7787   */\n      mstore\n        /* \"#utility.yul\":7806:7810   */\n      0x22\n        /* \"#utility.yul\":7803:7804   */\n      0x04\n        /* \"#utility.yul\":7796:7811   */\n      mstore\n        /* \"#utility.yul\":7830:7834   */\n      0x24\n        /* \"#utility.yul\":7827:7828   */\n      0x00\n        /* \"#utility.yul\":7820:7835   */\n      revert\n        /* \"#utility.yul\":7847:8167   */\n    tag_56:\n        /* \"#utility.yul\":7891:7897   */\n      0x00\n        /* \"#utility.yul\":7928:7929   */\n      0x02\n        /* \"#utility.yul\":7922:7926   */\n      dup3\n        /* \"#utility.yul\":7918:7930   */\n      div\n        /* \"#utility.yul\":7908:7930   */\n      swap1\n      pop\n        /* \"#utility.yul\":7975:7976   */\n      0x01\n        /* \"#utility.yul\":7969:7973   */\n      dup3\n        /* \"#utility.yul\":7965:7977   */\n      and\n        /* \"#utility.yul\":7996:8014   */\n      dup1\n        /* \"#utility.yul\":7986:8067   */\n      tag_206\n      jumpi\n        /* \"#utility.yul\":8052:8056   */\n      0x7f\n        /* \"#utility.yul\":8044:8050   */\n      dup3\n        /* \"#utility.yul\":8040:8057   */\n      and\n        /* \"#utility.yul\":8030:8057   */\n      swap2\n      pop\n        /* \"#utility.yul\":7986:8067   */\n    tag_206:\n        /* \"#utility.yul\":8114:8116   */\n      0x20\n        /* \"#utility.yul\":8106:8112   */\n      dup3\n        /* \"#utility.yul\":8103:8117   */\n      lt\n        /* \"#utility.yul\":8083:8101   */\n      dup2\n        /* \"#utility.yul\":8080:8118   */\n      sub\n        /* \"#utility.yul\":8077:8161   */\n      tag_207\n      jumpi\n        /* \"#utility.yul\":8133:8151   */\n      tag_208\n      tag_104\n      jump\t// in\n    tag_208:\n        /* \"#utility.yul\":8077:8161   */\n    tag_207:\n        /* \"#utility.yul\":7898:8167   */\n      pop\n        /* \"#utility.yul\":7847:8167   */\n      swap2\n      swap1\n      pop\n      jump\t// out\n        /* \"#utility.yul\":8173:8314   */\n    tag_105:\n        /* \"#utility.yul\":8222:8226   */\n      0x00\n        /* \"#utility.yul\":8245:8248   */\n      dup2\n        /* \"#utility.yul\":8237:8248   */\n      swap1\n      pop\n        /* \"#utility.yul\":8268:8271   */\n      dup2\n        /* \"#utility.yul\":8265:8266   */\n      0x00\n        /* \"#utility.yul\":8258:8272   */\n      mstore\n        /* \"#utility.yul\":8302:8306   */\n      0x20\n        /* \"#utility.yul\":8299:8300   */\n      0x00\n        /* \"#utility.yul\":8289:8307   */\n      keccak256\n        /* \"#utility.yul\":8281:8307   */\n      swap1\n      pop\n        /* \"#utility.yul\":8173:8314   */\n      swap2\n      swap1\n      pop\n      jump\t// out\n        /* \"#utility.yul\":8320:8413   */\n    tag_106:\n        /* \"#utility.yul\":8357:8363   */\n      0x00\n        /* \"#utility.yul\":8404:8406   */\n      0x20\n        /* \"#utility.yul\":8399:8401   */\n      0x1f\n        /* \"#utility.yul\":8392:8397   */\n      dup4\n        /* \"#utility.yul\":8388:8402   */\n      add\n        /* \"#utility.yul\":8384:8407   */\n      div\n        /* \"#utility.yul\":8374:8407   */\n      swap1\n      pop\n        /* \"#utility.yul\":8320:8413   */\n      swap2\n      swap1\n      pop\n      jump\t// out\n        /* \"#utility.yul\":8419:8526   */\n    tag_107:\n        /* \"#utility.yul\":8463:8471   */\n      0x00\n        /* \"#utility.yul\":8513:8518   */\n      dup3\n        /* \"#utility.yul\":8507:8511   */\n      dup3\n        /* \"#utility.yul\":8503:8519   */\n      shl\n        /* \"#utility.yul\":8482:8519   */\n      swap1\n      pop\n        /* \"#utility.yul\":8419:8526   */\n      swap3\n      swap2\n      pop\n      pop\n      jump\t// out\n        /* \"#utility.yul\":8532:8925   */\n    tag_108:\n        /* \"#utility.yul\":8601:8607   */\n      0x00\n        /* \"#utility.yul\":8651:8652   */\n      0x08\n        /* \"#utility.yul\":8639:8649   */\n      dup4\n        /* \"#utility.yul\":8635:8653   */\n      mul\n        /* \"#utility.yul\":8674:8771   */\n      tag_213\n        /* \"#utility.yul\":8704:8770   */\n      0xffffffffffffffffffffffffffffffffffffffffffffffffffffffffffffffff\n        /* \"#utility.yul\":8693:8702   */\n      dup3\n        /* \"#utility.yul\":8674:8771   */\n      tag_107\n      jump\t// in\n    tag_213:\n        /* \"#utility.yul\":8792:8831   */\n      tag_214\n        /* \"#utility.yul\":8822:8830   */\n      dup7\n        /* \"#utility.yul\":8811:8820   */\n      dup4\n        /* \"#utility.yul\":8792:8831   */\n      tag_107\n      jump\t// in\n    tag_214:\n        /* \"#utility.yul\":8780:8831   */\n      swap6\n      pop\n        /* \"#utility.yul\":8864:8868   */\n      dup1\n        /* \"#utility.yul\":8860:8869   */\n      not\n        /* \"#utility.yul\":8853:8858   */\n      dup5\n        /* \"#utility.yul\":8849:8870   */\n      and\n        /* \"#utility.yul\":8840:8870   */\n      swap4\n      pop\n        /* \"#utility.yul\":8913:8917   */\n      dup1\n        /* \"#utility.yul\":8903:8911   */\n      dup7\n        /* \"#utility.yul\":8899:8918   */\n      and\n        /* \"#utility.yul\":8892:8897   */\n      dup5\n        /* \"#utility.yul\":8889:8919   */\n      or\n        /* \"#utility.yul\":8879:8919   */\n      swap3\n      pop\n        /* \"#utility.yul\":8608:8925   */\n      pop\n      pop\n        /* \"#utility.yul\":8532:8925   */\n      swap4\n      swap3\n      pop\n      pop\n      pop\n      jump\t// out\n        /* \"#utility.yul\":8931:8991   */\n    tag_109:\n        /* \"#utility.yul\":8959:8962   */\n      0x00\n        /* \"#utility.yul\":8980:8985   */\n      dup2\n        /* \"#utility.yul\":8973:8985   */\n      swap1\n      pop\n        /* \"#utility.yul\":8931:8991   */\n      swap2\n      swap1\n      pop\n      jump\t// out\n        /* \"#utility.yul\":8997:9139   */\n    tag_110:\n        /* \"#utility.yul\":9047:9056   */\n      0x00\n        /* \"#utility.yul\":9080:9133   */\n      tag_217\n        /* \"#utility.yul\":9098:9132   */\n      tag_218\n        /* \"#utility.yul\":9107:9131   */\n      tag_219\n        /* \"#utility.yul\":9125:9130   */\n      dup5\n        /* \"#utility.yul\":9107:9131   */\n      tag_80\n      jump\t// in\n    tag_219:\n        /* \"#utility.yul\":9098:9132   */\n      tag_109\n      jump\t// in\n    tag_218:\n        /* \"#utility.yul\":9080:9133   */\n      tag_80\n      jump\t// in\n    tag_217:\n        /* \"#utility.yul\":9067:9133   */\n      swap1\n      pop\n        /* \"#utility.yul\":8997:9139   */\n      swap2\n      swap1\n      pop\n      jump\t// out\n        /* \"#utility.yul\":9145:9220   */\n    tag_111:\n        /* \"#utility.yul\":9188:9191   */\n      0x00\n        /* \"#utility.yul\":9209:9214   */\n      dup2\n        /* \"#utility.yul\":9202:9214   */\n      swap1\n      pop\n        /* \"#utility.yul\":9145:9220   */\n      swap2\n      swap1\n      pop\n      jump\t// out\n        /* \"#utility.yul\":9226:9495   */\n    tag_112:\n        /* \"#utility.yul\":9336:9375   */\n      tag_222\n        /* \"#utility.yul\":9367:9374   */\n      dup4\n        /* \"#utility.yul\":9336:9375   */\n      tag_110\n      jump\t// in\n    tag_222:\n        /* \"#utility.yul\":9397:9488   */\n      tag_223\n        /* \"#utility.yul\":9446:9487   */\n      tag_224\n        /* \"#utility.yul\":9470:9486   */\n      dup3\n        /* \"#utility.yul\":9446:9487   */\n      tag_111\n      jump\t// in\n    tag_224:\n        /* \"#utility.yul\":9438:9444   */\n      dup5\n        /* \"#utility.yul\":9431:9435   */\n      dup5\n        /* \"#utility.yul\":9425:9436   */\n      sload\n        /* \"#utility.yul\":9397:9488   */\n      tag_108\n      jump\t// in\n    tag_223:\n        /* \"#utility.yul\":9391:9395   */\n      dup3\n        /* \"#utility.yul\":9384:9489   */\n      sstore\n        /* \"#utility.yul\":9302:9495   */\n      pop\n        /* \"#utility.yul\":9226:9495   */\n      pop\n      pop\n      pop\n      jump\t// out\n        /* \"#utility.yul\":9501:9574   */\n    tag_113:\n        /* \"#utility.yul\":9546:9549   */\n      0x00\n        /* \"#utility.yul\":9501:9574   */\n      swap1\n      jump\t// out\n        /* \"#utility.yul\":9580:9769   */\n    tag_114:\n        /* \"#utility.yul\":9657:9689   */\n      tag_227\n      tag_113\n      jump\t// in\n    tag_227:\n        /* \"#utility.yul\":9698:9763   */\n      tag_228\n        /* \"#utility.yul\":9756:9762   */\n      dup2\n        /* \"#utility.yul\":9748:9754   */\n      dup5\n        /* \"#utility.yul\":9742:9746   */\n      dup5\n        /* \"#utility.yul\":9698:9763   */\n      tag_112\n      jump\t// in\n    tag_228:\n        /* \"#utility.yul\":9633:9769   */\n      pop\n        /* \"#utility.yul\":9580:9769   */\n      pop\n      pop\n      jump\t// out\n        /* \"#utility.yul\":9775:9961   */\n    tag_115:\n        /* \"#utility.yul\":9835:9955   */\n    tag_230:\n        /* \"#utility.yul\":9852:9855   */\n      dup2\n        /* \"#utility.yul\":9845:9850   */\n      dup2\n        /* \"#utility.yul\":9842:9856   */\n      lt\n        /* \"#utility.yul\":9835:9955   */\n      iszero\n      tag_232\n      jumpi\n        /* \"#utility.yul\":9906:9945   */\n      tag_233\n        /* \"#utility.yul\":9943:9944   */\n      0x00\n        /* \"#utility.yul\":9936:9941   */\n      dup3\n        /* \"#utility.yul\":9906:9945   */\n      tag_114\n      jump\t// in\n    tag_233:\n        /* \"#utility.yul\":9879:9880   */\n      0x01\n        /* \"#utility.yul\":9872:9877   */\n      dup2\n        /* \"#utility.yul\":9868:9881   */\n      add\n        /* \"#utility.yul\":9859:9881   */\n      swap1\n      pop\n        /* \"#utility.yul\":9835:9955   */\n      jump(tag_230)\n    tag_232:\n        /* \"#utility.yul\":9775:9961   */\n      pop\n      pop\n      jump\t// out\n        /* \"#utility.yul\":9967:10510   */\n    tag_116:\n        /* \"#utility.yul\":10068:10070   */\n      0x1f\n        /* \"#utility.yul\":10063:10066   */\n      dup3\n        /* \"#utility.yul\":10060:10071   */\n      gt\n        /* \"#utility.yul\":10057:10503   */\n      iszero\n      tag_235\n      jumpi\n        /* \"#utility.yul\":10102:10140   */\n      tag_236\n        /* \"#utility.yul\":10134:10139   */\n      dup2\n        /* \"#utility.yul\":10102:10140   */\n      tag_105\n      jump\t// in\n    tag_236:\n        /* \"#utility.yul\":10186:10215   */\n      tag_237\n        /* \"#utility.yul\":10204:10214   */\n      dup5\n        /* \"#utility.yul\":10186:10215   */\n      tag_106\n      jump\t// in\n    tag_237:\n        /* \"#utility.yul\":10176:10184   */\n      dup2\n        /* \"#utility.yul\":10172:10216   */\n      add\n        /* \"#utility.yul\":10369:10371   */\n      0x20\n        /* \"#utility.yul\":10357:10367   */\n      dup6\n        /* \"#utility.yul\":10354:10372   */\n      lt\n        /* \"#utility.yul\":10351:10400   */\n      iszero\n      tag_238\n      jumpi\n        /* \"#utility.yul\":10390:10398   */\n      dup2\n        /* \"#utility.yul\":10375:10398   */\n      swap1\n      pop\n        /* \"#utility.yul\":10351:10400   */\n    tag_238:\n        /* \"#utility.yul\":10413:10493   */\n      tag_239\n        /* \"#utility.yul\":10469:10491   */\n      tag_240\n        /* \"#utility.yul\":10487:10490   */\n      dup6\n        /* \"#utility.yul\":10469:10491   */\n      tag_106\n      jump\t// in\n    tag_240:\n        /* \"#utility.yul\":10459:10467   */\n      dup4\n        /* \"#utility.yul\":10455:10492   */\n      add\n        /* \"#utility.yul\":10442:10453   */\n      dup3\n        /* \"#utility.yul\":10413:10493   */\n      tag_115\n      jump\t// in\n    tag_239:\n        /* \"#utility.yul\":10072:10503   */\n      pop\n      pop\n        /* \"#utility.yul\":10057:10503   */\n    tag_235:\n        /* \"#utility.yul\":9967:10510   */\n      pop\n      pop\n      pop\n      jump\t// out\n        /* \"#utility.yul\":10516:10633   */\n    tag_117:\n        /* \"#utility.yul\":10570:10578   */\n      0x00\n        /* \"#utility.yul\":10620:10625   */\n      dup3\n        /* \"#utility.yul\":10614:10618   */\n      dup3\n        /* \"#utility.yul\":10610:10626   */\n      shr\n        /* \"#utility.yul\":10589:10626   */\n      swap1\n      pop\n        /* \"#utility.yul\":10516:10633   */\n      swap3\n      swap2\n      pop\n      pop\n      jump\t// out\n        /* \"#utility.yul\":10639:10808   */\n    tag_118:\n        /* \"#utility.yul\":10683:10689   */\n      0x00\n        /* \"#utility.yul\":10716:10767   */\n      tag_243\n        /* \"#utility.yul\":10764:10765   */\n      0x00\n        /* \"#utility.yul\":10760:10766   */\n      not\n        /* \"#utility.yul\":10752:10757   */\n      dup5\n        /* \"#utility.yul\":10749:10750   */\n      0x08\n        /* \"#utility.yul\":10745:10758   */\n      mul\n        /* \"#utility.yul\":10716:10767   */\n      tag_117\n      jump\t// in\n    tag_243:\n        /* \"#utility.yul\":10712:10768   */\n      not\n        /* \"#utility.yul\":10797:10801   */\n      dup1\n        /* \"#utility.yul\":10791:10795   */\n      dup4\n        /* \"#utility.yul\":10787:10802   */\n      and\n        /* \"#utility.yul\":10777:10802   */\n      swap2\n      pop\n        /* \"#utility.yul\":10690:10808   */\n      pop\n        /* \"#utility.yul\":10639:10808   */\n      swap3\n      swap2\n      pop\n      pop\n      jump\t// out\n        /* \"#utility.yul\":10813:11108   */\n    tag_119:\n        /* \"#utility.yul\":10889:10893   */\n      0x00\n        /* \"#utility.yul\":11035:11064   */\n      tag_245\n        /* \"#utility.yul\":11060:11063   */\n      dup4\n        /* \"#utility.yul\":11054:11058   */\n      dup4\n        /* \"#utility.yul\":11035:11064   */\n      tag_118\n      jump\t// in\n    tag_245:\n        /* \"#utility.yul\":11027:11064   */\n      swap2\n      pop\n        /* \"#utility.yul\":11097:11100   */\n      dup3\n        /* \"#utility.yul\":11094:11095   */\n      0x02\n        /* \"#utility.yul\":11090:11101   */\n      mul\n        /* \"#utility.yul\":11084:11088   */\n      dup3\n        /* \"#utility.yul\":11081:11102   */\n      or\n        /* \"#utility.yul\":11073:11102   */\n      swap1\n      pop\n        /* \"#utility.yul\":10813:11108   */\n      swap3\n      swap2\n      pop\n      pop\n      jump\t// out\n        /* \"#utility.yul\":11113:12508   */\n    tag_69:\n        /* \"#utility.yul\":11230:11267   */\n      tag_247\n        /* \"#utility.yul\":11263:11266   */\n      dup3\n        /* \"#utility.yul\":11230:11267   */\n      tag_87\n      jump\t// in\n    tag_247:\n        /* \"#utility.yul\":11332:11350   */\n      0xffffffffffffffff\n        /* \"#utility.yul\":11324:11330   */\n      dup2\n        /* \"#utility.yul\":11321:11351   */\n      gt\n        /* \"#utility.yul\":11318:11374   */\n      iszero\n      tag_248\n      jumpi\n        /* \"#utility.yul\":11354:11372   */\n      tag_249\n      tag_94\n      jump\t// in\n    tag_249:\n        /* \"#utility.yul\":11318:11374   */\n    tag_248:\n        /* \"#utility.yul\":11398:11436   */\n      tag_250\n        /* \"#utility.yul\":11430:11434   */\n      dup3\n        /* \"#utility.yul\":11424:11435   */\n      sload\n        /* \"#utility.yul\":11398:11436   */\n      tag_56\n      jump\t// in\n    tag_250:\n        /* \"#utility.yul\":11483:11550   */\n      tag_251\n        /* \"#utility.yul\":11543:11549   */\n      dup3\n        /* \"#utility.yul\":11535:11541   */\n      dup3\n        /* \"#utility.yul\":11529:11533   */\n      dup6\n        /* \"#utility.yul\":11483:11550   */\n      tag_116\n      jump\t// in\n    tag_251:\n        /* \"#utility.yul\":11577:11578   */\n      0x00\n        /* \"#utility.yul\":11601:11605   */\n      0x20\n        /* \"#utility.yul\":11588:11605   */\n      swap1\n      pop\n        /* \"#utility.yul\":11633:11635   */\n      0x1f\n        /* \"#utility.yul\":11625:11631   */\n      dup4\n        /* \"#utility.yul\":11622:11636   */\n      gt\n        /* \"#utility.yul\":11650:11651   */\n      0x01\n        /* \"#utility.yul\":11645:12263   */\n      dup2\n      eq\n      tag_253\n      jumpi\n        /* \"#utility.yul\":12307:12308   */\n      0x00\n        /* \"#utility.yul\":12324:12330   */\n      dup5\n        /* \"#utility.yul\":12321:12398   */\n      iszero\n      tag_254\n      jumpi\n        /* \"#utility.yul\":12373:12382   */\n      dup3\n        /* \"#utility.yul\":12368:12371   */\n      dup8\n        /* \"#utility.yul\":12364:12383   */\n      add\n        /* \"#utility.yul\":12358:12384   */\n      mload\n        /* \"#utility.yul\":12349:12384   */\n      swap1\n      pop\n        /* \"#utility.yul\":12321:12398   */\n    tag_254:\n        /* \"#utility.yul\":12424:12491   */\n      tag_255\n        /* \"#utility.yul\":12484:12490   */\n      dup6\n        /* \"#utility.yul\":12477:12482   */\n      dup3\n        /* \"#utility.yul\":12424:12491   */\n      tag_119\n      jump\t// in\n    tag_255:\n        /* \"#utility.yul\":12418:12422   */\n      dup7\n        /* \"#utility.yul\":12411:12492   */\n      sstore\n        /* \"#utility.yul\":12280:12502   */\n      pop\n        /* \"#utility.yul\":11615:12502   */\n      jump(tag_252)\n        /* \"#utility.yul\":11645:12263   */\n    tag_253:\n        /* \"#utility.yul\":11697:11701   */\n      0x1f\n        /* \"#utility.yul\":11693:11702   */\n      not\n        /* \"#utility.yul\":11685:11691   */\n      dup5\n        /* \"#utility.yul\":11681:11703   */\n      and\n        /* \"#utility.yul\":11731:11768   */\n      tag_256\n        /* \"#utility.yul\":11763:11767   */\n      dup7\n        /* \"#utility.yul\":11731:11768   */\n      tag_105\n      jump\t// in\n    tag_256:\n        /* \"#utility.yul\":11790:11791   */\n      0x00\n        /* \"#utility.yul\":11804:12012   */\n    tag_257:\n        /* \"#utility.yul\":11818:11825   */\n      dup3\n        /* \"#utility.yul\":11815:11816   */\n      dup2\n        /* \"#utility.yul\":11812:11826   */\n      lt\n        /* \"#utility.yul\":11804:12012   */\n      iszero\n      tag_259\n      jumpi\n        /* \"#utility.yul\":11897:11906   */\n      dup5\n        /* \"#utility.yul\":11892:11895   */\n      dup10\n        /* \"#utility.yul\":11888:11907   */\n      add\n        /* \"#utility.yul\":11882:11908   */\n      mload\n        /* \"#utility.yul\":11874:11880   */\n      dup3\n        /* \"#utility.yul\":11867:11909   */\n      sstore\n        /* \"#utility.yul\":11948:11949   */\n      0x01\n        /* \"#utility.yul\":11940:11946   */\n      dup3\n        /* \"#utility.yul\":11936:11950   */\n      add\n        /* \"#utility.yul\":11926:11950   */\n      swap2\n      pop\n        /* \"#utility.yul\":11995:11997   */\n      0x20\n        /* \"#utility.yul\":11984:11993   */\n      dup6\n        /* \"#utility.yul\":11980:11998   */\n      add\n        /* \"#utility.yul\":11967:11998   */\n      swap5\n      pop\n        /* \"#utility.yul\":11841:11845   */\n      0x20\n        /* \"#utility.yul\":11838:11839   */\n      dup2\n        /* \"#utility.yul\":11834:11846   */\n      add\n        /* \"#utility.yul\":11829:11846   */\n      swap1\n      pop\n        /* \"#utility.yul\":11804:12012   */\n      jump(tag_257)\n    tag_259:\n        /* \"#utility.yul\":12040:12046   */\n      dup7\n        /* \"#utility.yul\":12031:12038   */\n      dup4\n        /* \"#utility.yul\":12028:12047   */\n      lt\n        /* \"#utility.yul\":12025:12204   */\n      iszero\n      tag_260\n      jumpi\n        /* \"#utility.yul\":12098:12107   */\n      dup5\n        /* \"#utility.yul\":12093:12096   */\n      dup10\n        /* \"#utility.yul\":12089:12108   */\n      add\n        /* \"#utility.yul\":12083:12109   */\n      mload\n        /* \"#utility.yul\":12141:12189   */\n      tag_261\n        /* \"#utility.yul\":12183:12187   */\n      0x1f\n        /* \"#utility.yul\":12175:12181   */\n      dup10\n        /* \"#utility.yul\":12171:12188   */\n      and\n        /* \"#utility.yul\":12160:12169   */\n      dup3\n        /* \"#utility.yul\":12141:12189   */\n      tag_118\n      jump\t// in\n    tag_261:\n        /* \"#utility.yul\":12133:12139   */\n      dup4\n        /* \"#utility.yul\":12126:12190   */\n      sstore\n        /* \"#utility.yul\":12048:12204   */\n      pop\n        /* \"#utility.yul\":12025:12204   */\n    tag_260:\n        /* \"#utility.yul\":12250:12251   */\n      0x01\n        /* \"#utility.yul\":12246:12247   */\n      0x02\n        /* \"#utility.yul\":12238:12244   */\n      dup9\n        /* \"#utility.yul\":12234:12248   */\n      mul\n        /* \"#utility.yul\":12230:12252   */\n      add\n        /* \"#utility.yul\":12224:12228   */\n      dup9\n        /* \"#utility.yul\":12217:12253   */\n      sstore\n        /* \"#utility.yul\":11652:12263   */\n      pop\n      pop\n      pop\n        /* \"#utility.yul\":11615:12502   */\n    tag_252:\n      pop\n        /* \"#utility.yul\":11205:12508   */\n      pop\n      pop\n      pop\n        /* \"#utility.yul\":11113:12508   */\n      pop\n      pop\n      jump\t// out\n\n    auxdata: 0xa2646970667358221220ad7cfa00c73e6b60d2a6ce30a389cc5a78129d2d1a0044bd79a52f4f9585d5b764736f6c63430008110033\n}\n",
				"bytecode": {
					"linkReferences": {},
					"object": "60806040526040518060400160405280600381526020017f6162630000000000000000000000000000000000000000000000000000000000815250600290816200004a919062000328565b506040518060400160405280600381526020017f61626300000000000000000000000000000000000000000000000000000000008152506003908162000091919062000474565b503480156200009f57600080fd5b5060646000819055506200055b565b600081519050919050565b7f4e487b7100000000000000000000000000000000000000000000000000000000600052604160045260246000fd5b7f4e487b7100000000000000000000000000000000000000000000000000000000600052602260045260246000fd5b600060028204905060018216806200013057607f821691505b602082108103620001465762000145620000e8565b5b50919050565b60008190508160005260206000209050919050565b60006020601f8301049050919050565b600082821b905092915050565b600060088302620001b07fffffffffffffffffffffffffffffffffffffffffffffffffffffffffffffffff8262000171565b620001bc868362000171565b95508019841693508086168417925050509392505050565b6000819050919050565b6000819050919050565b60006200020962000203620001fd84620001d4565b620001de565b620001d4565b9050919050565b6000819050919050565b6200022583620001e8565b6200023d620002348262000210565b8484546200017e565b825550505050565b600090565b6200025462000245565b620002618184846200021a565b505050565b5b8181101562000289576200027d6000826200024a565b60018101905062000267565b5050565b601f821115620002d857620002a2816200014c565b620002ad8462000161565b81016020851015620002bd578190505b620002d5620002cc8562000161565b83018262000266565b50505b505050565b600082821c905092915050565b6000620002fd60001984600802620002dd565b1980831691505092915050565b6000620003188383620002ea565b9150826002028217905092915050565b6200033382620000ae565b67ffffffffffffffff8111156200034f576200034e620000b9565b5b6200035b825462000117565b620003688282856200028d565b600060209050601f831160018114620003a057600084156200038b578287015190505b6200039785826200030a565b86555062000407565b601f198416620003b0866200014c565b60005b82811015620003da57848901518255600182019150602085019450602081019050620003b3565b86831015620003fa5784890151620003f6601f891682620002ea565b8355505b6001600288020188555050505b505050505050565b60008190508160005260206000209050919050565b601f8211156200046f5762000439816200040f565b620004448462000161565b8101602085101562000454578190505b6200046c620004638562000161565b83018262000266565b50505b505050565b6200047f82620000ae565b67ffffffffffffffff8111156200049b576200049a620000b9565b5b620004a7825462000117565b620004b482828562000424565b600060209050601f831160018114620004ec5760008415620004d7578287015190505b620004e385826200030a565b86555062000553565b601f198416620004fc866200040f565b60005b828110156200052657848901518255600182019150602085019450602081019050620004ff565b8683101562000546578489015162000542601f891682620002ea565b8355505b6001600288020188555050505b505050505050565b610c27806200056b6000396000f3fe608060405234801561001057600080fd5b506004361061009e5760003560e01c80636cc014de116100665780636cc014de146101215780638a01906d1461013f578063ee4950021461015b578063f71d96cb14610179578063ffac7005146101ab5761009e565b806320965255146100a35780632e64cec1146100c15780633f2273b3146100df57806355241077146100e95780636057361d14610105575b600080fd5b6100ab6101db565b6040516100b89190610537565b60405180910390f35b6100c96101e5565b6040516100d69190610537565b60405180910390f35b6100e76101ee565b005b61010360048036038101906100fe9190610592565b6102ad565b005b61011f600480360381019061011a9190610592565b6102b7565b005b6101296102c1565b604051610136919061064f565b60405180910390f35b610159600480360381019061015491906107a6565b61034f565b005b6101636103b0565b604051610170919061086a565b60405180910390f35b610193600480360381019061018e9190610592565b61043e565b6040516101a29392919061088c565b60405180910390f35b6101c560048036038101906101c091906108ca565b6104f0565b6040516101d29190610537565b60405180910390f35b6000600154905090565b60008054905090565b6002808054806101fd90610942565b80601f810361021c5783600052602060002060ff1984168155603f9350505b5060028201835560018101925050506001900381546001161561024e5790600052602060002090602091828204019190065b7f780000000000000000000000000000000000000000000000000000000000000090919091601f036101000a81548160ff021916907f010000000000000000000000000000000000000000000000000000000000000084040217905550565b8060018190555050565b8060008190555050565b600380546102ce90610942565b80601f01602080910402602001604051908101604052809291908181526020018280546102fa90610942565b80156103475780601f1061031c57610100808354040283529160200191610347565b820191906000526020600020905b81548152906001019060200180831161032a57829003601f168201915b505050505081565b604051806060016040528083815260200182815260200160648152506005600085815260200190815260200160002060008201518160000190816103939190610b1f565b506020820151816001015560408201518160020155905050505050565b600280546103bd90610942565b80601f01602080910402602001604051908101604052809291908181526020018280546103e990610942565b80156104365780601f1061040b57610100808354040283529160200191610436565b820191906000526020600020905b81548152906001019060200180831161041957829003601f168201915b505050505081565b600560205280600052604060002060009150905080600001805461046190610942565b80601f016020809104026020016040519081016040528092919081815260200182805461048d90610942565b80156104da5780601f106104af576101008083540402835291602001916104da565b820191906000526020600020905b8154815290600101906020018083116104bd57829003601f168201915b5050505050908060010154908060020154905083565b6004818051602081018201805184825260208301602085012081835280955050505050506000915090505481565b6000819050919050565b6105318161051e565b82525050565b600060208201905061054c6000830184610528565b92915050565b6000604051905090565b600080fd5b600080fd5b61056f8161051e565b811461057a57600080fd5b50565b60008135905061058c81610566565b92915050565b6000602082840312156105a8576105a761055c565b5b60006105b68482850161057d565b91505092915050565b600081519050919050565b600082825260208201905092915050565b60005b838110156105f95780820151818401526020810190506105de565b60008484015250505050565b6000601f19601f8301169050919050565b6000610621826105bf565b61062b81856105ca565b935061063b8185602086016105db565b61064481610605565b840191505092915050565b600060208201905081810360008301526106698184610616565b905092915050565b600080fd5b600080fd5b7f4e487b7100000000000000000000000000000000000000000000000000000000600052604160045260246000fd5b6106b382610605565b810181811067ffffffffffffffff821117156106d2576106d161067b565b5b80604052505050565b60006106e5610552565b90506106f182826106aa565b919050565b600067ffffffffffffffff8211156107115761071061067b565b5b61071a82610605565b9050602081019050919050565b82818337600083830152505050565b6000610749610744846106f6565b6106db565b90508281526020810184848401111561076557610764610676565b5b610770848285610727565b509392505050565b600082601f83011261078d5761078c610671565b5b813561079d848260208601610736565b91505092915050565b6000806000606084860312156107bf576107be61055c565b5b60006107cd8682870161057d565b935050602084013567ffffffffffffffff8111156107ee576107ed610561565b5b6107fa86828701610778565b925050604061080b8682870161057d565b9150509250925092565b600081519050919050565b600082825260208201905092915050565b600061083c82610815565b6108468185610820565b93506108568185602086016105db565b61085f81610605565b840191505092915050565b600060208201905081810360008301526108848184610831565b905092915050565b600060608201905081810360008301526108a68186610616565b90506108b56020830185610528565b6108c26040830184610528565b949350505050565b6000602082840312156108e0576108df61055c565b5b600082013567ffffffffffffffff8111156108fe576108fd610561565b5b61090a84828501610778565b91505092915050565b7f4e487b7100000000000000000000000000000000000000000000000000000000600052602260045260246000fd5b6000600282049050600182168061095a57607f821691505b60208210810361096d5761096c610913565b5b50919050565b60008190508160005260206000209050919050565b60006020601f8301049050919050565b600082821b905092915050565b6000600883026109d57fffffffffffffffffffffffffffffffffffffffffffffffffffffffffffffffff82610998565b6109df8683610998565b95508019841693508086168417925050509392505050565b6000819050919050565b6000610a1c610a17610a128461051e565b6109f7565b61051e565b9050919050565b6000819050919050565b610a3683610a01565b610a4a610a4282610a23565b8484546109a5565b825550505050565b600090565b610a5f610a52565b610a6a818484610a2d565b505050565b5b81811015610a8e57610a83600082610a57565b600181019050610a70565b5050565b601f821115610ad357610aa481610973565b610aad84610988565b81016020851015610abc578190505b610ad0610ac885610988565b830182610a6f565b50505b505050565b600082821c905092915050565b6000610af660001984600802610ad8565b1980831691505092915050565b6000610b0f8383610ae5565b9150826002028217905092915050565b610b28826105bf565b67ffffffffffffffff811115610b4157610b4061067b565b5b610b4b8254610942565b610b56828285610a92565b600060209050601f831160018114610b895760008415610b77578287015190505b610b818582610b03565b865550610be9565b601f198416610b9786610973565b60005b82811015610bbf57848901518255600182019150602085019450602081019050610b9a565b86831015610bdc5784890151610bd8601f891682610ae5565b8355505b6001600288020188555050505b50505050505056fea2646970667358221220ad7cfa00c73e6b60d2a6ce30a389cc5a78129d2d1a0044bd79a52f4f9585d5b764736f6c63430008110033",
					"opcodes": "PUSH1 0x80 PUSH1 0x40 MSTORE PUSH1 0x40 MLOAD DUP1 PUSH1 0x40 ADD PUSH1 0x40 MSTORE DUP1 PUSH1 0x3 DUP2 MSTORE PUSH1 0x20 ADD PUSH32 0x6162630000000000000000000000000000000000000000000000000000000000 DUP2 MSTORE POP PUSH1 0x2 SWAP1 DUP2 PUSH3 0x4A SWAP2 SWAP1 PUSH3 0x328 JUMP JUMPDEST POP PUSH1 0x40 MLOAD DUP1 PUSH1 0x40 ADD PUSH1 0x40 MSTORE DUP1 PUSH1 0x3 DUP2 MSTORE PUSH1 0x20 ADD PUSH32 0x6162630000000000000000000000000000000000000000000000000000000000 DUP2 MSTORE POP PUSH1 0x3 SWAP1 DUP2 PUSH3 0x91 SWAP2 SWAP1 PUSH3 0x474 JUMP JUMPDEST POP CALLVALUE DUP1 ISZERO PUSH3 0x9F JUMPI PUSH1 0x0 DUP1 REVERT JUMPDEST POP PUSH1 0x64 PUSH1 0x0 DUP2 SWAP1 SSTORE POP PUSH3 0x55B JUMP JUMPDEST PUSH1 0x0 DUP2 MLOAD SWAP1 POP SWAP2 SWAP1 POP JUMP JUMPDEST PUSH32 0x4E487B7100000000000000000000000000000000000000000000000000000000 PUSH1 0x0 MSTORE PUSH1 0x41 PUSH1 0x4 MSTORE PUSH1 0x24 PUSH1 0x0 REVERT JUMPDEST PUSH32 0x4E487B7100000000000000000000000000000000000000000000000000000000 PUSH1 0x0 MSTORE PUSH1 0x22 PUSH1 0x4 MSTORE PUSH1 0x24 PUSH1 0x0 REVERT JUMPDEST PUSH1 0x0 PUSH1 0x2 DUP3 DIV SWAP1 POP PUSH1 0x1 DUP3 AND DUP1 PUSH3 0x130 JUMPI PUSH1 0x7F DUP3 AND SWAP2 POP JUMPDEST PUSH1 0x20 DUP3 LT DUP2 SUB PUSH3 0x146 JUMPI PUSH3 0x145 PUSH3 0xE8 JUMP JUMPDEST JUMPDEST POP SWAP2 SWAP1 POP JUMP JUMPDEST PUSH1 0x0 DUP2 SWAP1 POP DUP2 PUSH1 0x0 MSTORE PUSH1 0x20 PUSH1 0x0 KECCAK256 SWAP1 POP SWAP2 SWAP1 POP JUMP JUMPDEST PUSH1 0x0 PUSH1 0x20 PUSH1 0x1F DUP4 ADD DIV SWAP1 POP SWAP2 SWAP1 POP JUMP JUMPDEST PUSH1 0x0 DUP3 DUP3 SHL SWAP1 POP SWAP3 SWAP2 POP POP JUMP JUMPDEST PUSH1 0x0 PUSH1 0x8 DUP4 MUL PUSH3 0x1B0 PUSH32 0xFFFFFFFFFFFFFFFFFFFFFFFFFFFFFFFFFFFFFFFFFFFFFFFFFFFFFFFFFFFFFFFF DUP3 PUSH3 0x171 JUMP JUMPDEST PUSH3 0x1BC DUP7 DUP4 PUSH3 0x171 JUMP JUMPDEST SWAP6 POP DUP1 NOT DUP5 AND SWAP4 POP DUP1 DUP7 AND DUP5 OR SWAP3 POP POP POP SWAP4 SWAP3 POP POP POP JUMP JUMPDEST PUSH1 0x0 DUP2 SWAP1 POP SWAP2 SWAP1 POP JUMP JUMPDEST PUSH1 0x0 DUP2 SWAP1 POP SWAP2 SWAP1 POP JUMP JUMPDEST PUSH1 0x0 PUSH3 0x209 PUSH3 0x203 PUSH3 0x1FD DUP5 PUSH3 0x1D4 JUMP JUMPDEST PUSH3 0x1DE JUMP JUMPDEST PUSH3 0x1D4 JUMP JUMPDEST SWAP1 POP SWAP2 SWAP1 POP JUMP JUMPDEST PUSH1 0x0 DUP2 SWAP1 POP SWAP2 SWAP1 POP JUMP JUMPDEST PUSH3 0x225 DUP4 PUSH3 0x1E8 JUMP JUMPDEST PUSH3 0x23D PUSH3 0x234 DUP3 PUSH3 0x210 JUMP JUMPDEST DUP5 DUP5 SLOAD PUSH3 0x17E JUMP JUMPDEST DUP3 SSTORE POP POP POP POP JUMP JUMPDEST PUSH1 0x0 SWAP1 JUMP JUMPDEST PUSH3 0x254 PUSH3 0x245 JUMP JUMPDEST PUSH3 0x261 DUP2 DUP5 DUP5 PUSH3 0x21A JUMP JUMPDEST POP POP POP JUMP JUMPDEST JUMPDEST DUP2 DUP2 LT ISZERO PUSH3 0x289 JUMPI PUSH3 0x27D PUSH1 0x0 DUP3 PUSH3 0x24A JUMP JUMPDEST PUSH1 0x1 DUP2 ADD SWAP1 POP PUSH3 0x267 JUMP JUMPDEST POP POP JUMP JUMPDEST PUSH1 0x1F DUP3 GT ISZERO PUSH3 0x2D8 JUMPI PUSH3 0x2A2 DUP2 PUSH3 0x14C JUMP JUMPDEST PUSH3 0x2AD DUP5 PUSH3 0x161 JUMP JUMPDEST DUP2 ADD PUSH1 0x20 DUP6 LT ISZERO PUSH3 0x2BD JUMPI DUP2 SWAP1 POP JUMPDEST PUSH3 0x2D5 PUSH3 0x2CC DUP6 PUSH3 0x161 JUMP JUMPDEST DUP4 ADD DUP3 PUSH3 0x266 JUMP JUMPDEST POP POP JUMPDEST POP POP POP JUMP JUMPDEST PUSH1 0x0 DUP3 DUP3 SHR SWAP1 POP SWAP3 SWAP2 POP POP JUMP JUMPDEST PUSH1 0x0 PUSH3 0x2FD PUSH1 0x0 NOT DUP5 PUSH1 0x8 MUL PUSH3 0x2DD JUMP JUMPDEST NOT DUP1 DUP4 AND SWAP2 POP POP SWAP3 SWAP2 POP POP JUMP JUMPDEST PUSH1 0x0 PUSH3 0x318 DUP4 DUP4 PUSH3 0x2EA JUMP JUMPDEST SWAP2 POP DUP3 PUSH1 0x2 MUL DUP3 OR SWAP1 POP SWAP3 SWAP2 POP POP JUMP JUMPDEST PUSH3 0x333 DUP3 PUSH3 0xAE JUMP JUMPDEST PUSH8 0xFFFFFFFFFFFFFFFF DUP2 GT ISZERO PUSH3 0x34F JUMPI PUSH3 0x34E PUSH3 0xB9 JUMP JUMPDEST JUMPDEST PUSH3 0x35B DUP3 SLOAD PUSH3 0x117 JUMP JUMPDEST PUSH3 0x368 DUP3 DUP3 DUP6 PUSH3 0x28D JUMP JUMPDEST PUSH1 0x0 PUSH1 0x20 SWAP1 POP PUSH1 0x1F DUP4 GT PUSH1 0x1 DUP2 EQ PUSH3 0x3A0 JUMPI PUSH1 0x0 DUP5 ISZERO PUSH3 0x38B JUMPI DUP3 DUP8 ADD MLOAD SWAP1 POP JUMPDEST PUSH3 0x397 DUP6 DUP3 PUSH3 0x30A JUMP JUMPDEST DUP7 SSTORE POP PUSH3 0x407 JUMP JUMPDEST PUSH1 0x1F NOT DUP5 AND PUSH3 0x3B0 DUP7 PUSH3 0x14C JUMP JUMPDEST PUSH1 0x0 JUMPDEST DUP3 DUP2 LT ISZERO PUSH3 0x3DA JUMPI DUP5 DUP10 ADD MLOAD DUP3 SSTORE PUSH1 0x1 DUP3 ADD SWAP2 POP PUSH1 0x20 DUP6 ADD SWAP5 POP PUSH1 0x20 DUP2 ADD SWAP1 POP PUSH3 0x3B3 JUMP JUMPDEST DUP7 DUP4 LT ISZERO PUSH3 0x3FA JUMPI DUP5 DUP10 ADD MLOAD PUSH3 0x3F6 PUSH1 0x1F DUP10 AND DUP3 PUSH3 0x2EA JUMP JUMPDEST DUP4 SSTORE POP JUMPDEST PUSH1 0x1 PUSH1 0x2 DUP9 MUL ADD DUP9 SSTORE POP POP POP JUMPDEST POP POP POP POP POP POP JUMP JUMPDEST PUSH1 0x0 DUP2 SWAP1 POP DUP2 PUSH1 0x0 MSTORE PUSH1 0x20 PUSH1 0x0 KECCAK256 SWAP1 POP SWAP2 SWAP1 POP JUMP JUMPDEST PUSH1 0x1F DUP3 GT ISZERO PUSH3 0x46F JUMPI PUSH3 0x439 DUP2 PUSH3 0x40F JUMP JUMPDEST PUSH3 0x444 DUP5 PUSH3 0x161 JUMP JUMPDEST DUP2 ADD PUSH1 0x20 DUP6 LT ISZERO PUSH3 0x454 JUMPI DUP2 SWAP1 POP JUMPDEST PUSH3 0x46C PUSH3 0x463 DUP6 PUSH3 0x161 JUMP JUMPDEST DUP4 ADD DUP3 PUSH3 0x266 JUMP JUMPDEST POP POP JUMPDEST POP POP POP JUMP JUMPDEST PUSH3 0x47F DUP3 PUSH3 0xAE JUMP JUMPDEST PUSH8 0xFFFFFFFFFFFFFFFF DUP2 GT ISZERO PUSH3 0x49B JUMPI PUSH3 0x49A PUSH3 0xB9 JUMP JUMPDEST JUMPDEST PUSH3 0x4A7 DUP3 SLOAD PUSH3 0x117 JUMP JUMPDEST PUSH3 0x4B4 DUP3 DUP3 DUP6 PUSH3 0x424 JUMP JUMPDEST PUSH1 0x0 PUSH1 0x20 SWAP1 POP PUSH1 0x1F DUP4 GT PUSH1 0x1 DUP2 EQ PUSH3 0x4EC JUMPI PUSH1 0x0 DUP5 ISZERO PUSH3 0x4D7 JUMPI DUP3 DUP8 ADD MLOAD SWAP1 POP JUMPDEST PUSH3 0x4E3 DUP6 DUP3 PUSH3 0x30A JUMP JUMPDEST DUP7 SSTORE POP PUSH3 0x553 JUMP JUMPDEST PUSH1 0x1F NOT DUP5 AND PUSH3 0x4FC DUP7 PUSH3 0x40F JUMP JUMPDEST PUSH1 0x0 JUMPDEST DUP3 DUP2 LT ISZERO PUSH3 0x526 JUMPI DUP5 DUP10 ADD MLOAD DUP3 SSTORE PUSH1 0x1 DUP3 ADD SWAP2 POP PUSH1 0x20 DUP6 ADD SWAP5 POP PUSH1 0x20 DUP2 ADD SWAP1 POP PUSH3 0x4FF JUMP JUMPDEST DUP7 DUP4 LT ISZERO PUSH3 0x546 JUMPI DUP5 DUP10 ADD MLOAD PUSH3 0x542 PUSH1 0x1F DUP10 AND DUP3 PUSH3 0x2EA JUMP JUMPDEST DUP4 SSTORE POP JUMPDEST PUSH1 0x1 PUSH1 0x2 DUP9 MUL ADD DUP9 SSTORE POP POP POP JUMPDEST POP POP POP POP POP POP JUMP JUMPDEST PUSH2 0xC27 DUP1 PUSH3 0x56B PUSH1 0x0 CODECOPY PUSH1 0x0 RETURN INVALID PUSH1 0x80 PUSH1 0x40 MSTORE CALLVALUE DUP1 ISZERO PUSH2 0x10 JUMPI PUSH1 0x0 DUP1 REVERT JUMPDEST POP PUSH1 0x4 CALLDATASIZE LT PUSH2 0x9E JUMPI PUSH1 0x0 CALLDATALOAD PUSH1 0xE0 SHR DUP1 PUSH4 0x6CC014DE GT PUSH2 0x66 JUMPI DUP1 PUSH4 0x6CC014DE EQ PUSH2 0x121 JUMPI DUP1 PUSH4 0x8A01906D EQ PUSH2 0x13F JUMPI DUP1 PUSH4 0xEE495002 EQ PUSH2 0x15B JUMPI DUP1 PUSH4 0xF71D96CB EQ PUSH2 0x179 JUMPI DUP1 PUSH4 0xFFAC7005 EQ PUSH2 0x1AB JUMPI PUSH2 0x9E JUMP JUMPDEST DUP1 PUSH4 0x20965255 EQ PUSH2 0xA3 JUMPI DUP1 PUSH4 0x2E64CEC1 EQ PUSH2 0xC1 JUMPI DUP1 PUSH4 0x3F2273B3 EQ PUSH2 0xDF JUMPI DUP1 PUSH4 0x55241077 EQ PUSH2 0xE9 JUMPI DUP1 PUSH4 0x6057361D EQ PUSH2 0x105 JUMPI JUMPDEST PUSH1 0x0 DUP1 REVERT JUMPDEST PUSH2 0xAB PUSH2 0x1DB JUMP JUMPDEST PUSH1 0x40 MLOAD PUSH2 0xB8 SWAP2 SWAP1 PUSH2 0x537 JUMP JUMPDEST PUSH1 0x40 MLOAD DUP1 SWAP2 SUB SWAP1 RETURN JUMPDEST PUSH2 0xC9 PUSH2 0x1E5 JUMP JUMPDEST PUSH1 0x40 MLOAD PUSH2 0xD6 SWAP2 SWAP1 PUSH2 0x537 JUMP JUMPDEST PUSH1 0x40 MLOAD DUP1 SWAP2 SUB SWAP1 RETURN JUMPDEST PUSH2 0xE7 PUSH2 0x1EE JUMP JUMPDEST STOP JUMPDEST PUSH2 0x103 PUSH1 0x4 DUP1 CALLDATASIZE SUB DUP2 ADD SWAP1 PUSH2 0xFE SWAP2 SWAP1 PUSH2 0x592 JUMP JUMPDEST PUSH2 0x2AD JUMP JUMPDEST STOP JUMPDEST PUSH2 0x11F PUSH1 0x4 DUP1 CALLDATASIZE SUB DUP2 ADD SWAP1 PUSH2 0x11A SWAP2 SWAP1 PUSH2 0x592 JUMP JUMPDEST PUSH2 0x2B7 JUMP JUMPDEST STOP JUMPDEST PUSH2 0x129 PUSH2 0x2C1 JUMP JUMPDEST PUSH1 0x40 MLOAD PUSH2 0x136 SWAP2 SWAP1 PUSH2 0x64F JUMP JUMPDEST PUSH1 0x40 MLOAD DUP1 SWAP2 SUB SWAP1 RETURN JUMPDEST PUSH2 0x159 PUSH1 0x4 DUP1 CALLDATASIZE SUB DUP2 ADD SWAP1 PUSH2 0x154 SWAP2 SWAP1 PUSH2 0x7A6 JUMP JUMPDEST PUSH2 0x34F JUMP JUMPDEST STOP JUMPDEST PUSH2 0x163 PUSH2 0x3B0 JUMP JUMPDEST PUSH1 0x40 MLOAD PUSH2 0x170 SWAP2 SWAP1 PUSH2 0x86A JUMP JUMPDEST PUSH1 0x40 MLOAD DUP1 SWAP2 SUB SWAP1 RETURN JUMPDEST PUSH2 0x193 PUSH1 0x4 DUP1 CALLDATASIZE SUB DUP2 ADD SWAP1 PUSH2 0x18E SWAP2 SWAP1 PUSH2 0x592 JUMP JUMPDEST PUSH2 0x43E JUMP JUMPDEST PUSH1 0x40 MLOAD PUSH2 0x1A2 SWAP4 SWAP3 SWAP2 SWAP1 PUSH2 0x88C JUMP JUMPDEST PUSH1 0x40 MLOAD DUP1 SWAP2 SUB SWAP1 RETURN JUMPDEST PUSH2 0x1C5 PUSH1 0x4 DUP1 CALLDATASIZE SUB DUP2 ADD SWAP1 PUSH2 0x1C0 SWAP2 SWAP1 PUSH2 0x8CA JUMP JUMPDEST PUSH2 0x4F0 JUMP JUMPDEST PUSH1 0x40 MLOAD PUSH2 0x1D2 SWAP2 SWAP1 PUSH2 0x537 JUMP JUMPDEST PUSH1 0x40 MLOAD DUP1 SWAP2 SUB SWAP1 RETURN JUMPDEST PUSH1 0x0 PUSH1 0x1 SLOAD SWAP1 POP SWAP1 JUMP JUMPDEST PUSH1 0x0 DUP1 SLOAD SWAP1 POP SWAP1 JUMP JUMPDEST PUSH1 0x2 DUP1 DUP1 SLOAD DUP1 PUSH2 0x1FD SWAP1 PUSH2 0x942 JUMP JUMPDEST DUP1 PUSH1 0x1F DUP2 SUB PUSH2 0x21C JUMPI DUP4 PUSH1 0x0 MSTORE PUSH1 0x20 PUSH1 0x0 KECCAK256 PUSH1 0xFF NOT DUP5 AND DUP2 SSTORE PUSH1 0x3F SWAP4 POP POP JUMPDEST POP PUSH1 0x2 DUP3 ADD DUP4 SSTORE PUSH1 0x1 DUP2 ADD SWAP3 POP POP POP PUSH1 0x1 SWAP1 SUB DUP2 SLOAD PUSH1 0x1 AND ISZERO PUSH2 0x24E JUMPI SWAP1 PUSH1 0x0 MSTORE PUSH1 0x20 PUSH1 0x0 KECCAK256 SWAP1 PUSH1 0x20 SWAP2 DUP3 DUP3 DIV ADD SWAP2 SWAP1 MOD JUMPDEST PUSH32 0x7800000000000000000000000000000000000000000000000000000000000000 SWAP1 SWAP2 SWAP1 SWAP2 PUSH1 0x1F SUB PUSH2 0x100 EXP DUP2 SLOAD DUP2 PUSH1 0xFF MUL NOT AND SWAP1 PUSH32 0x100000000000000000000000000000000000000000000000000000000000000 DUP5 DIV MUL OR SWAP1 SSTORE POP JUMP JUMPDEST DUP1 PUSH1 0x1 DUP2 SWAP1 SSTORE POP POP JUMP JUMPDEST DUP1 PUSH1 0x0 DUP2 SWAP1 SSTORE POP POP JUMP JUMPDEST PUSH1 0x3 DUP1 SLOAD PUSH2 0x2CE SWAP1 PUSH2 0x942 JUMP JUMPDEST DUP1 PUSH1 0x1F ADD PUSH1 0x20 DUP1 SWAP2 DIV MUL PUSH1 0x20 ADD PUSH1 0x40 MLOAD SWAP1 DUP2 ADD PUSH1 0x40 MSTORE DUP1 SWAP3 SWAP2 SWAP1 DUP2 DUP2 MSTORE PUSH1 0x20 ADD DUP3 DUP1 SLOAD PUSH2 0x2FA SWAP1 PUSH2 0x942 JUMP JUMPDEST DUP1 ISZERO PUSH2 0x347 JUMPI DUP1 PUSH1 0x1F LT PUSH2 0x31C JUMPI PUSH2 0x100 DUP1 DUP4 SLOAD DIV MUL DUP4 MSTORE SWAP2 PUSH1 0x20 ADD SWAP2 PUSH2 0x347 JUMP JUMPDEST DUP3 ADD SWAP2 SWAP1 PUSH1 0x0 MSTORE PUSH1 0x20 PUSH1 0x0 KECCAK256 SWAP1 JUMPDEST DUP2 SLOAD DUP2 MSTORE SWAP1 PUSH1 0x1 ADD SWAP1 PUSH1 0x20 ADD DUP1 DUP4 GT PUSH2 0x32A JUMPI DUP3 SWAP1 SUB PUSH1 0x1F AND DUP3 ADD SWAP2 JUMPDEST POP POP POP POP POP DUP2 JUMP JUMPDEST PUSH1 0x40 MLOAD DUP1 PUSH1 0x60 ADD PUSH1 0x40 MSTORE DUP1 DUP4 DUP2 MSTORE PUSH1 0x20 ADD DUP3 DUP2 MSTORE PUSH1 0x20 ADD PUSH1 0x64 DUP2 MSTORE POP PUSH1 0x5 PUSH1 0x0 DUP6 DUP2 MSTORE PUSH1 0x20 ADD SWAP1 DUP2 MSTORE PUSH1 0x20 ADD PUSH1 0x0 KECCAK256 PUSH1 0x0 DUP3 ADD MLOAD DUP2 PUSH1 0x0 ADD SWAP1 DUP2 PUSH2 0x393 SWAP2 SWAP1 PUSH2 0xB1F JUMP JUMPDEST POP PUSH1 0x20 DUP3 ADD MLOAD DUP2 PUSH1 0x1 ADD SSTORE PUSH1 0x40 DUP3 ADD MLOAD DUP2 PUSH1 0x2 ADD SSTORE SWAP1 POP POP POP POP POP JUMP JUMPDEST PUSH1 0x2 DUP1 SLOAD PUSH2 0x3BD SWAP1 PUSH2 0x942 JUMP JUMPDEST DUP1 PUSH1 0x1F ADD PUSH1 0x20 DUP1 SWAP2 DIV MUL PUSH1 0x20 ADD PUSH1 0x40 MLOAD SWAP1 DUP2 ADD PUSH1 0x40 MSTORE DUP1 SWAP3 SWAP2 SWAP1 DUP2 DUP2 MSTORE PUSH1 0x20 ADD DUP3 DUP1 SLOAD PUSH2 0x3E9 SWAP1 PUSH2 0x942 JUMP JUMPDEST DUP1 ISZERO PUSH2 0x436 JUMPI DUP1 PUSH1 0x1F LT PUSH2 0x40B JUMPI PUSH2 0x100 DUP1 DUP4 SLOAD DIV MUL DUP4 MSTORE SWAP2 PUSH1 0x20 ADD SWAP2 PUSH2 0x436 JUMP JUMPDEST DUP3 ADD SWAP2 SWAP1 PUSH1 0x0 MSTORE PUSH1 0x20 PUSH1 0x0 KECCAK256 SWAP1 JUMPDEST DUP2 SLOAD DUP2 MSTORE SWAP1 PUSH1 0x1 ADD SWAP1 PUSH1 0x20 ADD DUP1 DUP4 GT PUSH2 0x419 JUMPI DUP3 SWAP1 SUB PUSH1 0x1F AND DUP3 ADD SWAP2 JUMPDEST POP POP POP POP POP DUP2 JUMP JUMPDEST PUSH1 0x5 PUSH1 0x20 MSTORE DUP1 PUSH1 0x0 MSTORE PUSH1 0x40 PUSH1 0x0 KECCAK256 PUSH1 0x0 SWAP2 POP SWAP1 POP DUP1 PUSH1 0x0 ADD DUP1 SLOAD PUSH2 0x461 SWAP1 PUSH2 0x942 JUMP JUMPDEST DUP1 PUSH1 0x1F ADD PUSH1 0x20 DUP1 SWAP2 DIV MUL PUSH1 0x20 ADD PUSH1 0x40 MLOAD SWAP1 DUP2 ADD PUSH1 0x40 MSTORE DUP1 SWAP3 SWAP2 SWAP1 DUP2 DUP2 MSTORE PUSH1 0x20 ADD DUP3 DUP1 SLOAD PUSH2 0x48D SWAP1 PUSH2 0x942 JUMP JUMPDEST DUP1 ISZERO PUSH2 0x4DA JUMPI DUP1 PUSH1 0x1F LT PUSH2 0x4AF JUMPI PUSH2 0x100 DUP1 DUP4 SLOAD DIV MUL DUP4 MSTORE SWAP2 PUSH1 0x20 ADD SWAP2 PUSH2 0x4DA JUMP JUMPDEST DUP3 ADD SWAP2 SWAP1 PUSH1 0x0 MSTORE PUSH1 0x20 PUSH1 0x0 KECCAK256 SWAP1 JUMPDEST DUP2 SLOAD DUP2 MSTORE SWAP1 PUSH1 0x1 ADD SWAP1 PUSH1 0x20 ADD DUP1 DUP4 GT PUSH2 0x4BD JUMPI DUP3 SWAP1 SUB PUSH1 0x1F AND DUP3 ADD SWAP2 JUMPDEST POP POP POP POP POP SWAP1 DUP1 PUSH1 0x1 ADD SLOAD SWAP1 DUP1 PUSH1 0x2 ADD SLOAD SWAP1 POP DUP4 JUMP JUMPDEST PUSH1 0x4 DUP2 DUP1 MLOAD PUSH1 0x20 DUP2 ADD DUP3 ADD DUP1 MLOAD DUP5 DUP3 MSTORE PUSH1 0x20 DUP4 ADD PUSH1 0x20 DUP6 ADD KECCAK256 DUP2 DUP4 MSTORE DUP1 SWAP6 POP POP POP POP POP POP PUSH1 0x0 SWAP2 POP SWAP1 POP SLOAD DUP2 JUMP JUMPDEST PUSH1 0x0 DUP2 SWAP1 POP SWAP2 SWAP1 POP JUMP JUMPDEST PUSH2 0x531 DUP2 PUSH2 0x51E JUMP JUMPDEST DUP3 MSTORE POP POP JUMP JUMPDEST PUSH1 0x0 PUSH1 0x20 DUP3 ADD SWAP1 POP PUSH2 0x54C PUSH1 0x0 DUP4 ADD DUP5 PUSH2 0x528 JUMP JUMPDEST SWAP3 SWAP2 POP POP JUMP JUMPDEST PUSH1 0x0 PUSH1 0x40 MLOAD SWAP1 POP SWAP1 JUMP JUMPDEST PUSH1 0x0 DUP1 REVERT JUMPDEST PUSH1 0x0 DUP1 REVERT JUMPDEST PUSH2 0x56F DUP2 PUSH2 0x51E JUMP JUMPDEST DUP2 EQ PUSH2 0x57A JUMPI PUSH1 0x0 DUP1 REVERT JUMPDEST POP JUMP JUMPDEST PUSH1 0x0 DUP2 CALLDATALOAD SWAP1 POP PUSH2 0x58C DUP2 PUSH2 0x566 JUMP JUMPDEST SWAP3 SWAP2 POP POP JUMP JUMPDEST PUSH1 0x0 PUSH1 0x20 DUP3 DUP5 SUB SLT ISZERO PUSH2 0x5A8 JUMPI PUSH2 0x5A7 PUSH2 0x55C JUMP JUMPDEST JUMPDEST PUSH1 0x0 PUSH2 0x5B6 DUP5 DUP3 DUP6 ADD PUSH2 0x57D JUMP JUMPDEST SWAP2 POP POP SWAP3 SWAP2 POP POP JUMP JUMPDEST PUSH1 0x0 DUP2 MLOAD SWAP1 POP SWAP2 SWAP1 POP JUMP JUMPDEST PUSH1 0x0 DUP3 DUP3 MSTORE PUSH1 0x20 DUP3 ADD SWAP1 POP SWAP3 SWAP2 POP POP JUMP JUMPDEST PUSH1 0x0 JUMPDEST DUP4 DUP2 LT ISZERO PUSH2 0x5F9 JUMPI DUP1 DUP3 ADD MLOAD DUP2 DUP5 ADD MSTORE PUSH1 0x20 DUP2 ADD SWAP1 POP PUSH2 0x5DE JUMP JUMPDEST PUSH1 0x0 DUP5 DUP5 ADD MSTORE POP POP POP POP JUMP JUMPDEST PUSH1 0x0 PUSH1 0x1F NOT PUSH1 0x1F DUP4 ADD AND SWAP1 POP SWAP2 SWAP1 POP JUMP JUMPDEST PUSH1 0x0 PUSH2 0x621 DUP3 PUSH2 0x5BF JUMP JUMPDEST PUSH2 0x62B DUP2 DUP6 PUSH2 0x5CA JUMP JUMPDEST SWAP4 POP PUSH2 0x63B DUP2 DUP6 PUSH1 0x20 DUP7 ADD PUSH2 0x5DB JUMP JUMPDEST PUSH2 0x644 DUP2 PUSH2 0x605 JUMP JUMPDEST DUP5 ADD SWAP2 POP POP SWAP3 SWAP2 POP POP JUMP JUMPDEST PUSH1 0x0 PUSH1 0x20 DUP3 ADD SWAP1 POP DUP2 DUP2 SUB PUSH1 0x0 DUP4 ADD MSTORE PUSH2 0x669 DUP2 DUP5 PUSH2 0x616 JUMP JUMPDEST SWAP1 POP SWAP3 SWAP2 POP POP JUMP JUMPDEST PUSH1 0x0 DUP1 REVERT JUMPDEST PUSH1 0x0 DUP1 REVERT JUMPDEST PUSH32 0x4E487B7100000000000000000000000000000000000000000000000000000000 PUSH1 0x0 MSTORE PUSH1 0x41 PUSH1 0x4 MSTORE PUSH1 0x24 PUSH1 0x0 REVERT JUMPDEST PUSH2 0x6B3 DUP3 PUSH2 0x605 JUMP JUMPDEST DUP2 ADD DUP2 DUP2 LT PUSH8 0xFFFFFFFFFFFFFFFF DUP3 GT OR ISZERO PUSH2 0x6D2 JUMPI PUSH2 0x6D1 PUSH2 0x67B JUMP JUMPDEST JUMPDEST DUP1 PUSH1 0x40 MSTORE POP POP POP JUMP JUMPDEST PUSH1 0x0 PUSH2 0x6E5 PUSH2 0x552 JUMP JUMPDEST SWAP1 POP PUSH2 0x6F1 DUP3 DUP3 PUSH2 0x6AA JUMP JUMPDEST SWAP2 SWAP1 POP JUMP JUMPDEST PUSH1 0x0 PUSH8 0xFFFFFFFFFFFFFFFF DUP3 GT ISZERO PUSH2 0x711 JUMPI PUSH2 0x710 PUSH2 0x67B JUMP JUMPDEST JUMPDEST PUSH2 0x71A DUP3 PUSH2 0x605 JUMP JUMPDEST SWAP1 POP PUSH1 0x20 DUP2 ADD SWAP1 POP SWAP2 SWAP1 POP JUMP JUMPDEST DUP3 DUP2 DUP4 CALLDATACOPY PUSH1 0x0 DUP4 DUP4 ADD MSTORE POP POP POP JUMP JUMPDEST PUSH1 0x0 PUSH2 0x749 PUSH2 0x744 DUP5 PUSH2 0x6F6 JUMP JUMPDEST PUSH2 0x6DB JUMP JUMPDEST SWAP1 POP DUP3 DUP2 MSTORE PUSH1 0x20 DUP2 ADD DUP5 DUP5 DUP5 ADD GT ISZERO PUSH2 0x765 JUMPI PUSH2 0x764 PUSH2 0x676 JUMP JUMPDEST JUMPDEST PUSH2 0x770 DUP5 DUP3 DUP6 PUSH2 0x727 JUMP JUMPDEST POP SWAP4 SWAP3 POP POP POP JUMP JUMPDEST PUSH1 0x0 DUP3 PUSH1 0x1F DUP4 ADD SLT PUSH2 0x78D JUMPI PUSH2 0x78C PUSH2 0x671 JUMP JUMPDEST JUMPDEST DUP2 CALLDATALOAD PUSH2 0x79D DUP5 DUP3 PUSH1 0x20 DUP7 ADD PUSH2 0x736 JUMP JUMPDEST SWAP2 POP POP SWAP3 SWAP2 POP POP JUMP JUMPDEST PUSH1 0x0 DUP1 PUSH1 0x0 PUSH1 0x60 DUP5 DUP7 SUB SLT ISZERO PUSH2 0x7BF JUMPI PUSH2 0x7BE PUSH2 0x55C JUMP JUMPDEST JUMPDEST PUSH1 0x0 PUSH2 0x7CD DUP7 DUP3 DUP8 ADD PUSH2 0x57D JUMP JUMPDEST SWAP4 POP POP PUSH1 0x20 DUP5 ADD CALLDATALOAD PUSH8 0xFFFFFFFFFFFFFFFF DUP2 GT ISZERO PUSH2 0x7EE JUMPI PUSH2 0x7ED PUSH2 0x561 JUMP JUMPDEST JUMPDEST PUSH2 0x7FA DUP7 DUP3 DUP8 ADD PUSH2 0x778 JUMP JUMPDEST SWAP3 POP POP PUSH1 0x40 PUSH2 0x80B DUP7 DUP3 DUP8 ADD PUSH2 0x57D JUMP JUMPDEST SWAP2 POP POP SWAP3 POP SWAP3 POP SWAP3 JUMP JUMPDEST PUSH1 0x0 DUP2 MLOAD SWAP1 POP SWAP2 SWAP1 POP JUMP JUMPDEST PUSH1 0x0 DUP3 DUP3 MSTORE PUSH1 0x20 DUP3 ADD SWAP1 POP SWAP3 SWAP2 POP POP JUMP JUMPDEST PUSH1 0x0 PUSH2 0x83C DUP3 PUSH2 0x815 JUMP JUMPDEST PUSH2 0x846 DUP2 DUP6 PUSH2 0x820 JUMP JUMPDEST SWAP4 POP PUSH2 0x856 DUP2 DUP6 PUSH1 0x20 DUP7 ADD PUSH2 0x5DB JUMP JUMPDEST PUSH2 0x85F DUP2 PUSH2 0x605 JUMP JUMPDEST DUP5 ADD SWAP2 POP POP SWAP3 SWAP2 POP POP JUMP JUMPDEST PUSH1 0x0 PUSH1 0x20 DUP3 ADD SWAP1 POP DUP2 DUP2 SUB PUSH1 0x0 DUP4 ADD MSTORE PUSH2 0x884 DUP2 DUP5 PUSH2 0x831 JUMP JUMPDEST SWAP1 POP SWAP3 SWAP2 POP POP JUMP JUMPDEST PUSH1 0x0 PUSH1 0x60 DUP3 ADD SWAP1 POP DUP2 DUP2 SUB PUSH1 0x0 DUP4 ADD MSTORE PUSH2 0x8A6 DUP2 DUP7 PUSH2 0x616 JUMP JUMPDEST SWAP1 POP PUSH2 0x8B5 PUSH1 0x20 DUP4 ADD DUP6 PUSH2 0x528 JUMP JUMPDEST PUSH2 0x8C2 PUSH1 0x40 DUP4 ADD DUP5 PUSH2 0x528 JUMP JUMPDEST SWAP5 SWAP4 POP POP POP POP JUMP JUMPDEST PUSH1 0x0 PUSH1 0x20 DUP3 DUP5 SUB SLT ISZERO PUSH2 0x8E0 JUMPI PUSH2 0x8DF PUSH2 0x55C JUMP JUMPDEST JUMPDEST PUSH1 0x0 DUP3 ADD CALLDATALOAD PUSH8 0xFFFFFFFFFFFFFFFF DUP2 GT ISZERO PUSH2 0x8FE JUMPI PUSH2 0x8FD PUSH2 0x561 JUMP JUMPDEST JUMPDEST PUSH2 0x90A DUP5 DUP3 DUP6 ADD PUSH2 0x778 JUMP JUMPDEST SWAP2 POP POP SWAP3 SWAP2 POP POP JUMP JUMPDEST PUSH32 0x4E487B7100000000000000000000000000000000000000000000000000000000 PUSH1 0x0 MSTORE PUSH1 0x22 PUSH1 0x4 MSTORE PUSH1 0x24 PUSH1 0x0 REVERT JUMPDEST PUSH1 0x0 PUSH1 0x2 DUP3 DIV SWAP1 POP PUSH1 0x1 DUP3 AND DUP1 PUSH2 0x95A JUMPI PUSH1 0x7F DUP3 AND SWAP2 POP JUMPDEST PUSH1 0x20 DUP3 LT DUP2 SUB PUSH2 0x96D JUMPI PUSH2 0x96C PUSH2 0x913 JUMP JUMPDEST JUMPDEST POP SWAP2 SWAP1 POP JUMP JUMPDEST PUSH1 0x0 DUP2 SWAP1 POP DUP2 PUSH1 0x0 MSTORE PUSH1 0x20 PUSH1 0x0 KECCAK256 SWAP1 POP SWAP2 SWAP1 POP JUMP JUMPDEST PUSH1 0x0 PUSH1 0x20 PUSH1 0x1F DUP4 ADD DIV SWAP1 POP SWAP2 SWAP1 POP JUMP JUMPDEST PUSH1 0x0 DUP3 DUP3 SHL SWAP1 POP SWAP3 SWAP2 POP POP JUMP JUMPDEST PUSH1 0x0 PUSH1 0x8 DUP4 MUL PUSH2 0x9D5 PUSH32 0xFFFFFFFFFFFFFFFFFFFFFFFFFFFFFFFFFFFFFFFFFFFFFFFFFFFFFFFFFFFFFFFF DUP3 PUSH2 0x998 JUMP JUMPDEST PUSH2 0x9DF DUP7 DUP4 PUSH2 0x998 JUMP JUMPDEST SWAP6 POP DUP1 NOT DUP5 AND SWAP4 POP DUP1 DUP7 AND DUP5 OR SWAP3 POP POP POP SWAP4 SWAP3 POP POP POP JUMP JUMPDEST PUSH1 0x0 DUP2 SWAP1 POP SWAP2 SWAP1 POP JUMP JUMPDEST PUSH1 0x0 PUSH2 0xA1C PUSH2 0xA17 PUSH2 0xA12 DUP5 PUSH2 0x51E JUMP JUMPDEST PUSH2 0x9F7 JUMP JUMPDEST PUSH2 0x51E JUMP JUMPDEST SWAP1 POP SWAP2 SWAP1 POP JUMP JUMPDEST PUSH1 0x0 DUP2 SWAP1 POP SWAP2 SWAP1 POP JUMP JUMPDEST PUSH2 0xA36 DUP4 PUSH2 0xA01 JUMP JUMPDEST PUSH2 0xA4A PUSH2 0xA42 DUP3 PUSH2 0xA23 JUMP JUMPDEST DUP5 DUP5 SLOAD PUSH2 0x9A5 JUMP JUMPDEST DUP3 SSTORE POP POP POP POP JUMP JUMPDEST PUSH1 0x0 SWAP1 JUMP JUMPDEST PUSH2 0xA5F PUSH2 0xA52 JUMP JUMPDEST PUSH2 0xA6A DUP2 DUP5 DUP5 PUSH2 0xA2D JUMP JUMPDEST POP POP POP JUMP JUMPDEST JUMPDEST DUP2 DUP2 LT ISZERO PUSH2 0xA8E JUMPI PUSH2 0xA83 PUSH1 0x0 DUP3 PUSH2 0xA57 JUMP JUMPDEST PUSH1 0x1 DUP2 ADD SWAP1 POP PUSH2 0xA70 JUMP JUMPDEST POP POP JUMP JUMPDEST PUSH1 0x1F DUP3 GT ISZERO PUSH2 0xAD3 JUMPI PUSH2 0xAA4 DUP2 PUSH2 0x973 JUMP JUMPDEST PUSH2 0xAAD DUP5 PUSH2 0x988 JUMP JUMPDEST DUP2 ADD PUSH1 0x20 DUP6 LT ISZERO PUSH2 0xABC JUMPI DUP2 SWAP1 POP JUMPDEST PUSH2 0xAD0 PUSH2 0xAC8 DUP6 PUSH2 0x988 JUMP JUMPDEST DUP4 ADD DUP3 PUSH2 0xA6F JUMP JUMPDEST POP POP JUMPDEST POP POP POP JUMP JUMPDEST PUSH1 0x0 DUP3 DUP3 SHR SWAP1 POP SWAP3 SWAP2 POP POP JUMP JUMPDEST PUSH1 0x0 PUSH2 0xAF6 PUSH1 0x0 NOT DUP5 PUSH1 0x8 MUL PUSH2 0xAD8 JUMP JUMPDEST NOT DUP1 DUP4 AND SWAP2 POP POP SWAP3 SWAP2 POP POP JUMP JUMPDEST PUSH1 0x0 PUSH2 0xB0F DUP4 DUP4 PUSH2 0xAE5 JUMP JUMPDEST SWAP2 POP DUP3 PUSH1 0x2 MUL DUP3 OR SWAP1 POP SWAP3 SWAP2 POP POP JUMP JUMPDEST PUSH2 0xB28 DUP3 PUSH2 0x5BF JUMP JUMPDEST PUSH8 0xFFFFFFFFFFFFFFFF DUP2 GT ISZERO PUSH2 0xB41 JUMPI PUSH2 0xB40 PUSH2 0x67B JUMP JUMPDEST JUMPDEST PUSH2 0xB4B DUP3 SLOAD PUSH2 0x942 JUMP JUMPDEST PUSH2 0xB56 DUP3 DUP3 DUP6 PUSH2 0xA92 JUMP JUMPDEST PUSH1 0x0 PUSH1 0x20 SWAP1 POP PUSH1 0x1F DUP4 GT PUSH1 0x1 DUP2 EQ PUSH2 0xB89 JUMPI PUSH1 0x0 DUP5 ISZERO PUSH2 0xB77 JUMPI DUP3 DUP8 ADD MLOAD SWAP1 POP JUMPDEST PUSH2 0xB81 DUP6 DUP3 PUSH2 0xB03 JUMP JUMPDEST DUP7 SSTORE POP PUSH2 0xBE9 JUMP JUMPDEST PUSH1 0x1F NOT DUP5 AND PUSH2 0xB97 DUP7 PUSH2 0x973 JUMP JUMPDEST PUSH1 0x0 JUMPDEST DUP3 DUP2 LT ISZERO PUSH2 0xBBF JUMPI DUP5 DUP10 ADD MLOAD DUP3 SSTORE PUSH1 0x1 DUP3 ADD SWAP2 POP PUSH1 0x20 DUP6 ADD SWAP5 POP PUSH1 0x20 DUP2 ADD SWAP1 POP PUSH2 0xB9A JUMP JUMPDEST DUP7 DUP4 LT ISZERO PUSH2 0xBDC JUMPI DUP5 DUP10 ADD MLOAD PUSH2 0xBD8 PUSH1 0x1F DUP10 AND DUP3 PUSH2 0xAE5 JUMP JUMPDEST DUP4 SSTORE POP JUMPDEST PUSH1 0x1 PUSH1 0x2 DUP9 MUL ADD DUP9 SSTORE POP POP POP JUMPDEST POP POP POP POP POP POP JUMP INVALID LOG2 PUSH5 0x6970667358 0x22 SLT KECCAK256 0xAD PUSH29 0xFA00C73E6B60D2A6CE30A389CC5A78129D2D1A0044BD79A52F4F9585D5 0xB7 PUSH5 0x736F6C6343 STOP ADDMOD GT STOP CALLER "
				},
				"gasEstimates": {
					"creation": {
						"codeDepositCost": "622200",
						"executionCost": "infinite",
						"totalCost": "infinite"
					},
					"external": {
						"addElement()": "74861",
						"b1()": "infinite",
						"getValue()": "2438",
						"myMapping(string)": "infinite",
						"players(uint256)": "infinite",
						"retrieve()": "2460",
						"s1()": "infinite",
						"setMapping(uint256,string,uint256)": "infinite",
						"setValue(uint256)": "22587",
						"store(uint256)": "22609"
					}
				},
				"methodIdentifiers": {
					"addElement()": "3f2273b3",
					"b1()": "ee495002",
					"getValue()": "20965255",
					"myMapping(string)": "ffac7005",
					"players(uint256)": "f71d96cb",
					"retrieve()": "2e64cec1",
					"s1()": "6cc014de",
					"setMapping(uint256,string,uint256)": "8a01906d",
					"setValue(uint256)": "55241077",
					"store(uint256)": "6057361d"
				}
			},
			"storageLayout": {
				"storage": [
					{
						"astId": 4,
						"contract": "contracts/1_Storage.sol:Storage",
						"label": "number",
						"offset": 0,
						"slot": "0",
						"type": "t_uint256"
					},
					{
						"astId": 6,
						"contract": "contracts/1_Storage.sol:Storage",
						"label": "value",
						"offset": 0,
						"slot": "1",
						"type": "t_uint256"
					},
					{
						"astId": 9,
						"contract": "contracts/1_Storage.sol:Storage",
						"label": "b1",
						"offset": 0,
						"slot": "2",
						"type": "t_bytes_storage"
					},
					{
						"astId": 12,
						"contract": "contracts/1_Storage.sol:Storage",
						"label": "s1",
						"offset": 0,
						"slot": "3",
						"type": "t_string_storage"
					},
					{
						"astId": 16,
						"contract": "contracts/1_Storage.sol:Storage",
						"label": "myMapping",
						"offset": 0,
						"slot": "4",
						"type": "t_mapping(t_string_memory_ptr,t_uint256)"
					},
					{
						"astId": 28,
						"contract": "contracts/1_Storage.sol:Storage",
						"label": "players",
						"offset": 0,
						"slot": "5",
						"type": "t_mapping(t_uint256,t_struct(Player)23_storage)"
					}
				],
				"types": {
					"t_bytes_storage": {
						"encoding": "bytes",
						"label": "bytes",
						"numberOfBytes": "32"
					},
					"t_mapping(t_string_memory_ptr,t_uint256)": {
						"encoding": "mapping",
						"key": "t_string_memory_ptr",
						"label": "mapping(string => uint256)",
						"numberOfBytes": "32",
						"value": "t_uint256"
					},
					"t_mapping(t_uint256,t_struct(Player)23_storage)": {
						"encoding": "mapping",
						"key": "t_uint256",
						"label": "mapping(uint256 => struct Storage.Player)",
						"numberOfBytes": "32",
						"value": "t_struct(Player)23_storage"
					},
					"t_string_memory_ptr": {
						"encoding": "bytes",
						"label": "string",
						"numberOfBytes": "32"
					},
					"t_string_storage": {
						"encoding": "bytes",
						"label": "string",
						"numberOfBytes": "32"
					},
					"t_struct(Player)23_storage": {
						"encoding": "inplace",
						"label": "struct Storage.Player",
						"members": [
							{
								"astId": 18,
								"contract": "contracts/1_Storage.sol:Storage",
								"label": "name",
								"offset": 0,
								"slot": "0",
								"type": "t_string_storage"
							},
							{
								"astId": 20,
								"contract": "contracts/1_Storage.sol:Storage",
								"label": "level",
								"offset": 0,
								"slot": "1",
								"type": "t_uint256"
							},
							{
								"astId": 22,
								"contract": "contracts/1_Storage.sol:Storage",
								"label": "score",
								"offset": 0,
								"slot": "2",
								"type": "t_uint256"
							}
						],
						"numberOfBytes": "96"
					},
					"t_uint256": {
						"encoding": "inplace",
						"label": "uint256",
						"numberOfBytes": "32"
					}
				}
			},
			"userdoc": {
				"kind": "user",
				"methods": {},
				"version": 1
			}
		}
	}
}