{
	"contracts/1_Storage.sol": {
		"Storage": {
			"abi": [
				{
					"inputs": [],
					"stateMutability": "nonpayable",
					"type": "constructor"
				},
				{
					"inputs": [],
					"name": "addElement",
					"outputs": [],
					"stateMutability": "nonpayable",
					"type": "function"
				},
				{
					"inputs": [],
					"name": "b1",
					"outputs": [
						{
							"internalType": "bytes",
							"name": "",
							"type": "bytes"
						}
					],
					"stateMutability": "view",
					"type": "function"
				},
				{
					"inputs": [],
					"name": "getValue",
					"outputs": [
						{
							"internalType": "uint256",
							"name": "",
							"type": "uint256"
						}
					],
					"stateMutability": "view",
					"type": "function"
				},
				{
					"inputs": [
						{
							"internalType": "string",
							"name": "",
							"type": "string"
						}
					],
					"name": "myMapping",
					"outputs": [
						{
							"internalType": "uint256",
							"name": "",
							"type": "uint256"
						}
					],
					"stateMutability": "view",
					"type": "function"
				},
				{
					"inputs": [],
					"name": "retrieve",
					"outputs": [
						{
							"internalType": "uint256",
							"name": "",
							"type": "uint256"
						}
					],
					"stateMutability": "view",
					"type": "function"
				},
				{
					"inputs": [],
					"name": "s1",
					"outputs": [
						{
							"internalType": "string",
							"name": "",
							"type": "string"
						}
					],
					"stateMutability": "view",
					"type": "function"
				},
				{
					"inputs": [
						{
							"internalType": "uint256",
							"name": "_value",
							"type": "uint256"
						}
					],
					"name": "setValue",
					"outputs": [],
					"stateMutability": "nonpayable",
					"type": "function"
				},
				{
					"inputs": [
						{
							"internalType": "uint256",
							"name": "num",
							"type": "uint256"
						}
					],
					"name": "store",
					"outputs": [],
					"stateMutability": "nonpayable",
					"type": "function"
				}
			],
			"devdoc": {
				"custom:dev-run-script": "./scripts/deploy_with_ethers.ts",
				"details": "Store & retrieve value in a variable",
				"kind": "dev",
				"methods": {
					"retrieve()": {
						"details": "Return value ",
						"returns": {
							"_0": "value of 'number'"
						}
					},
					"store(uint256)": {
						"details": "Store value in variable",
						"params": {
							"num": "value to store"
						}
					}
				},
				"title": "Storage",
				"version": 1
			},
			"evm": {
				"assembly": "    /* \"contracts/1_Storage.sol\":192:1004  contract Storage {... */\n  mstore(0x40, 0x80)\n    /* \"contracts/1_Storage.sol\":257:280  bytes public b1 = \"abc\" */\n  mload(0x40)\n  dup1\n  0x40\n  add\n  0x40\n  mstore\n  dup1\n  0x03\n  dup2\n  mstore\n  0x20\n  add\n  0x6162630000000000000000000000000000000000000000000000000000000000\n  dup2\n  mstore\n  pop\n  0x02\n  swap1\n  dup2\n  tag_1\n  swap2\n  swap1\n  tag_2\n  jump\t// in\ntag_1:\n  pop\n    /* \"contracts/1_Storage.sol\":287:311  string public s1 = \"abc\" */\n  mload(0x40)\n  dup1\n  0x40\n  add\n  0x40\n  mstore\n  dup1\n  0x03\n  dup2\n  mstore\n  0x20\n  add\n  0x6162630000000000000000000000000000000000000000000000000000000000\n  dup2\n  mstore\n  pop\n  0x03\n  swap1\n  dup2\n  tag_3\n  swap2\n  swap1\n  tag_4\n  jump\t// in\ntag_3:\n  pop\n    /* \"contracts/1_Storage.sol\":364:407  constructor() {... */\n  callvalue\n  dup1\n  iszero\n  tag_5\n  jumpi\n  0x00\n  dup1\n  revert\ntag_5:\n  pop\n    /* \"contracts/1_Storage.sol\":397:400  100 */\n  0x64\n    /* \"contracts/1_Storage.sol\":388:394  number */\n  0x00\n    /* \"contracts/1_Storage.sol\":388:400  number = 100 */\n  dup2\n  swap1\n  sstore\n  pop\n    /* \"contracts/1_Storage.sol\":192:1004  contract Storage {... */\n  jump(tag_8)\n    /* \"#utility.yul\":7:106   */\ntag_9:\n    /* \"#utility.yul\":59:65   */\n  0x00\n    /* \"#utility.yul\":93:98   */\n  dup2\n    /* \"#utility.yul\":87:99   */\n  mload\n    /* \"#utility.yul\":77:99   */\n  swap1\n  pop\n    /* \"#utility.yul\":7:106   */\n  swap2\n  swap1\n  pop\n  jump\t// out\n    /* \"#utility.yul\":112:292   */\ntag_10:\n    /* \"#utility.yul\":160:237   */\n  0x4e487b7100000000000000000000000000000000000000000000000000000000\n    /* \"#utility.yul\":157:158   */\n  0x00\n    /* \"#utility.yul\":150:238   */\n  mstore\n    /* \"#utility.yul\":257:261   */\n  0x41\n    /* \"#utility.yul\":254:255   */\n  0x04\n    /* \"#utility.yul\":247:262   */\n  mstore\n    /* \"#utility.yul\":281:285   */\n  0x24\n    /* \"#utility.yul\":278:279   */\n  0x00\n    /* \"#utility.yul\":271:286   */\n  revert\n    /* \"#utility.yul\":298:478   */\ntag_11:\n    /* \"#utility.yul\":346:423   */\n  0x4e487b7100000000000000000000000000000000000000000000000000000000\n    /* \"#utility.yul\":343:344   */\n  0x00\n    /* \"#utility.yul\":336:424   */\n  mstore\n    /* \"#utility.yul\":443:447   */\n  0x22\n    /* \"#utility.yul\":440:441   */\n  0x04\n    /* \"#utility.yul\":433:448   */\n  mstore\n    /* \"#utility.yul\":467:471   */\n  0x24\n    /* \"#utility.yul\":464:465   */\n  0x00\n    /* \"#utility.yul\":457:472   */\n  revert\n    /* \"#utility.yul\":484:804   */\ntag_12:\n    /* \"#utility.yul\":528:534   */\n  0x00\n    /* \"#utility.yul\":565:566   */\n  0x02\n    /* \"#utility.yul\":559:563   */\n  dup3\n    /* \"#utility.yul\":555:567   */\n  div\n    /* \"#utility.yul\":545:567   */\n  swap1\n  pop\n    /* \"#utility.yul\":612:613   */\n  0x01\n    /* \"#utility.yul\":606:610   */\n  dup3\n    /* \"#utility.yul\":602:614   */\n  and\n    /* \"#utility.yul\":633:651   */\n  dup1\n    /* \"#utility.yul\":623:704   */\n  tag_36\n  jumpi\n    /* \"#utility.yul\":689:693   */\n  0x7f\n    /* \"#utility.yul\":681:687   */\n  dup3\n    /* \"#utility.yul\":677:694   */\n  and\n    /* \"#utility.yul\":667:694   */\n  swap2\n  pop\n    /* \"#utility.yul\":623:704   */\ntag_36:\n    /* \"#utility.yul\":751:753   */\n  0x20\n    /* \"#utility.yul\":743:749   */\n  dup3\n    /* \"#utility.yul\":740:754   */\n  lt\n    /* \"#utility.yul\":720:738   */\n  dup2\n    /* \"#utility.yul\":717:755   */\n  sub\n    /* \"#utility.yul\":714:798   */\n  tag_37\n  jumpi\n    /* \"#utility.yul\":770:788   */\n  tag_38\n  tag_11\n  jump\t// in\ntag_38:\n    /* \"#utility.yul\":714:798   */\ntag_37:\n    /* \"#utility.yul\":535:804   */\n  pop\n    /* \"#utility.yul\":484:804   */\n  swap2\n  swap1\n  pop\n  jump\t// out\n    /* \"#utility.yul\":810:950   */\ntag_13:\n    /* \"#utility.yul\":858:862   */\n  0x00\n    /* \"#utility.yul\":881:884   */\n  dup2\n    /* \"#utility.yul\":873:884   */\n  swap1\n  pop\n    /* \"#utility.yul\":904:907   */\n  dup2\n    /* \"#utility.yul\":901:902   */\n  0x00\n    /* \"#utility.yul\":894:908   */\n  mstore\n    /* \"#utility.yul\":938:942   */\n  0x20\n    /* \"#utility.yul\":935:936   */\n  0x00\n    /* \"#utility.yul\":925:943   */\n  keccak256\n    /* \"#utility.yul\":917:943   */\n  swap1\n  pop\n    /* \"#utility.yul\":810:950   */\n  swap2\n  swap1\n  pop\n  jump\t// out\n    /* \"#utility.yul\":956:1049   */\ntag_14:\n    /* \"#utility.yul\":993:999   */\n  0x00\n    /* \"#utility.yul\":1040:1042   */\n  0x20\n    /* \"#utility.yul\":1035:1037   */\n  0x1f\n    /* \"#utility.yul\":1028:1033   */\n  dup4\n    /* \"#utility.yul\":1024:1038   */\n  add\n    /* \"#utility.yul\":1020:1043   */\n  div\n    /* \"#utility.yul\":1010:1043   */\n  swap1\n  pop\n    /* \"#utility.yul\":956:1049   */\n  swap2\n  swap1\n  pop\n  jump\t// out\n    /* \"#utility.yul\":1055:1162   */\ntag_15:\n    /* \"#utility.yul\":1099:1107   */\n  0x00\n    /* \"#utility.yul\":1149:1154   */\n  dup3\n    /* \"#utility.yul\":1143:1147   */\n  dup3\n    /* \"#utility.yul\":1139:1155   */\n  shl\n    /* \"#utility.yul\":1118:1155   */\n  swap1\n  pop\n    /* \"#utility.yul\":1055:1162   */\n  swap3\n  swap2\n  pop\n  pop\n  jump\t// out\n    /* \"#utility.yul\":1168:1561   */\ntag_16:\n    /* \"#utility.yul\":1237:1243   */\n  0x00\n    /* \"#utility.yul\":1287:1288   */\n  0x08\n    /* \"#utility.yul\":1275:1285   */\n  dup4\n    /* \"#utility.yul\":1271:1289   */\n  mul\n    /* \"#utility.yul\":1310:1407   */\n  tag_43\n    /* \"#utility.yul\":1340:1406   */\n  0xffffffffffffffffffffffffffffffffffffffffffffffffffffffffffffffff\n    /* \"#utility.yul\":1329:1338   */\n  dup3\n    /* \"#utility.yul\":1310:1407   */\n  tag_15\n  jump\t// in\ntag_43:\n    /* \"#utility.yul\":1428:1467   */\n  tag_44\n    /* \"#utility.yul\":1458:1466   */\n  dup7\n    /* \"#utility.yul\":1447:1456   */\n  dup4\n    /* \"#utility.yul\":1428:1467   */\n  tag_15\n  jump\t// in\ntag_44:\n    /* \"#utility.yul\":1416:1467   */\n  swap6\n  pop\n    /* \"#utility.yul\":1500:1504   */\n  dup1\n    /* \"#utility.yul\":1496:1505   */\n  not\n    /* \"#utility.yul\":1489:1494   */\n  dup5\n    /* \"#utility.yul\":1485:1506   */\n  and\n    /* \"#utility.yul\":1476:1506   */\n  swap4\n  pop\n    /* \"#utility.yul\":1549:1553   */\n  dup1\n    /* \"#utility.yul\":1539:1547   */\n  dup7\n    /* \"#utility.yul\":1535:1554   */\n  and\n    /* \"#utility.yul\":1528:1533   */\n  dup5\n    /* \"#utility.yul\":1525:1555   */\n  or\n    /* \"#utility.yul\":1515:1555   */\n  swap3\n  pop\n    /* \"#utility.yul\":1244:1561   */\n  pop\n  pop\n    /* \"#utility.yul\":1168:1561   */\n  swap4\n  swap3\n  pop\n  pop\n  pop\n  jump\t// out\n    /* \"#utility.yul\":1567:1644   */\ntag_17:\n    /* \"#utility.yul\":1604:1611   */\n  0x00\n    /* \"#utility.yul\":1633:1638   */\n  dup2\n    /* \"#utility.yul\":1622:1638   */\n  swap1\n  pop\n    /* \"#utility.yul\":1567:1644   */\n  swap2\n  swap1\n  pop\n  jump\t// out\n    /* \"#utility.yul\":1650:1710   */\ntag_18:\n    /* \"#utility.yul\":1678:1681   */\n  0x00\n    /* \"#utility.yul\":1699:1704   */\n  dup2\n    /* \"#utility.yul\":1692:1704   */\n  swap1\n  pop\n    /* \"#utility.yul\":1650:1710   */\n  swap2\n  swap1\n  pop\n  jump\t// out\n    /* \"#utility.yul\":1716:1858   */\ntag_19:\n    /* \"#utility.yul\":1766:1775   */\n  0x00\n    /* \"#utility.yul\":1799:1852   */\n  tag_48\n    /* \"#utility.yul\":1817:1851   */\n  tag_49\n    /* \"#utility.yul\":1826:1850   */\n  tag_50\n    /* \"#utility.yul\":1844:1849   */\n  dup5\n    /* \"#utility.yul\":1826:1850   */\n  tag_17\n  jump\t// in\ntag_50:\n    /* \"#utility.yul\":1817:1851   */\n  tag_18\n  jump\t// in\ntag_49:\n    /* \"#utility.yul\":1799:1852   */\n  tag_17\n  jump\t// in\ntag_48:\n    /* \"#utility.yul\":1786:1852   */\n  swap1\n  pop\n    /* \"#utility.yul\":1716:1858   */\n  swap2\n  swap1\n  pop\n  jump\t// out\n    /* \"#utility.yul\":1864:1939   */\ntag_20:\n    /* \"#utility.yul\":1907:1910   */\n  0x00\n    /* \"#utility.yul\":1928:1933   */\n  dup2\n    /* \"#utility.yul\":1921:1933   */\n  swap1\n  pop\n    /* \"#utility.yul\":1864:1939   */\n  swap2\n  swap1\n  pop\n  jump\t// out\n    /* \"#utility.yul\":1945:2214   */\ntag_21:\n    /* \"#utility.yul\":2055:2094   */\n  tag_53\n    /* \"#utility.yul\":2086:2093   */\n  dup4\n    /* \"#utility.yul\":2055:2094   */\n  tag_19\n  jump\t// in\ntag_53:\n    /* \"#utility.yul\":2116:2207   */\n  tag_54\n    /* \"#utility.yul\":2165:2206   */\n  tag_55\n    /* \"#utility.yul\":2189:2205   */\n  dup3\n    /* \"#utility.yul\":2165:2206   */\n  tag_20\n  jump\t// in\ntag_55:\n    /* \"#utility.yul\":2157:2163   */\n  dup5\n    /* \"#utility.yul\":2150:2154   */\n  dup5\n    /* \"#utility.yul\":2144:2155   */\n  sload\n    /* \"#utility.yul\":2116:2207   */\n  tag_16\n  jump\t// in\ntag_54:\n    /* \"#utility.yul\":2110:2114   */\n  dup3\n    /* \"#utility.yul\":2103:2208   */\n  sstore\n    /* \"#utility.yul\":2021:2214   */\n  pop\n    /* \"#utility.yul\":1945:2214   */\n  pop\n  pop\n  pop\n  jump\t// out\n    /* \"#utility.yul\":2220:2293   */\ntag_22:\n    /* \"#utility.yul\":2265:2268   */\n  0x00\n    /* \"#utility.yul\":2220:2293   */\n  swap1\n  jump\t// out\n    /* \"#utility.yul\":2299:2488   */\ntag_23:\n    /* \"#utility.yul\":2376:2408   */\n  tag_58\n  tag_22\n  jump\t// in\ntag_58:\n    /* \"#utility.yul\":2417:2482   */\n  tag_59\n    /* \"#utility.yul\":2475:2481   */\n  dup2\n    /* \"#utility.yul\":2467:2473   */\n  dup5\n    /* \"#utility.yul\":2461:2465   */\n  dup5\n    /* \"#utility.yul\":2417:2482   */\n  tag_21\n  jump\t// in\ntag_59:\n    /* \"#utility.yul\":2352:2488   */\n  pop\n    /* \"#utility.yul\":2299:2488   */\n  pop\n  pop\n  jump\t// out\n    /* \"#utility.yul\":2494:2680   */\ntag_24:\n    /* \"#utility.yul\":2554:2674   */\ntag_61:\n    /* \"#utility.yul\":2571:2574   */\n  dup2\n    /* \"#utility.yul\":2564:2569   */\n  dup2\n    /* \"#utility.yul\":2561:2575   */\n  lt\n    /* \"#utility.yul\":2554:2674   */\n  iszero\n  tag_63\n  jumpi\n    /* \"#utility.yul\":2625:2664   */\n  tag_64\n    /* \"#utility.yul\":2662:2663   */\n  0x00\n    /* \"#utility.yul\":2655:2660   */\n  dup3\n    /* \"#utility.yul\":2625:2664   */\n  tag_23\n  jump\t// in\ntag_64:\n    /* \"#utility.yul\":2598:2599   */\n  0x01\n    /* \"#utility.yul\":2591:2596   */\n  dup2\n    /* \"#utility.yul\":2587:2600   */\n  add\n    /* \"#utility.yul\":2578:2600   */\n  swap1\n  pop\n    /* \"#utility.yul\":2554:2674   */\n  jump(tag_61)\ntag_63:\n    /* \"#utility.yul\":2494:2680   */\n  pop\n  pop\n  jump\t// out\n    /* \"#utility.yul\":2686:3227   */\ntag_25:\n    /* \"#utility.yul\":2786:2788   */\n  0x1f\n    /* \"#utility.yul\":2781:2784   */\n  dup3\n    /* \"#utility.yul\":2778:2789   */\n  gt\n    /* \"#utility.yul\":2775:3220   */\n  iszero\n  tag_66\n  jumpi\n    /* \"#utility.yul\":2820:2857   */\n  tag_67\n    /* \"#utility.yul\":2851:2856   */\n  dup2\n    /* \"#utility.yul\":2820:2857   */\n  tag_13\n  jump\t// in\ntag_67:\n    /* \"#utility.yul\":2903:2932   */\n  tag_68\n    /* \"#utility.yul\":2921:2931   */\n  dup5\n    /* \"#utility.yul\":2903:2932   */\n  tag_14\n  jump\t// in\ntag_68:\n    /* \"#utility.yul\":2893:2901   */\n  dup2\n    /* \"#utility.yul\":2889:2933   */\n  add\n    /* \"#utility.yul\":3086:3088   */\n  0x20\n    /* \"#utility.yul\":3074:3084   */\n  dup6\n    /* \"#utility.yul\":3071:3089   */\n  lt\n    /* \"#utility.yul\":3068:3117   */\n  iszero\n  tag_69\n  jumpi\n    /* \"#utility.yul\":3107:3115   */\n  dup2\n    /* \"#utility.yul\":3092:3115   */\n  swap1\n  pop\n    /* \"#utility.yul\":3068:3117   */\ntag_69:\n    /* \"#utility.yul\":3130:3210   */\n  tag_70\n    /* \"#utility.yul\":3186:3208   */\n  tag_71\n    /* \"#utility.yul\":3204:3207   */\n  dup6\n    /* \"#utility.yul\":3186:3208   */\n  tag_14\n  jump\t// in\ntag_71:\n    /* \"#utility.yul\":3176:3184   */\n  dup4\n    /* \"#utility.yul\":3172:3209   */\n  add\n    /* \"#utility.yul\":3159:3170   */\n  dup3\n    /* \"#utility.yul\":3130:3210   */\n  tag_24\n  jump\t// in\ntag_70:\n    /* \"#utility.yul\":2790:3220   */\n  pop\n  pop\n    /* \"#utility.yul\":2775:3220   */\ntag_66:\n    /* \"#utility.yul\":2686:3227   */\n  pop\n  pop\n  pop\n  jump\t// out\n    /* \"#utility.yul\":3233:3350   */\ntag_26:\n    /* \"#utility.yul\":3287:3295   */\n  0x00\n    /* \"#utility.yul\":3337:3342   */\n  dup3\n    /* \"#utility.yul\":3331:3335   */\n  dup3\n    /* \"#utility.yul\":3327:3343   */\n  shr\n    /* \"#utility.yul\":3306:3343   */\n  swap1\n  pop\n    /* \"#utility.yul\":3233:3350   */\n  swap3\n  swap2\n  pop\n  pop\n  jump\t// out\n    /* \"#utility.yul\":3356:3525   */\ntag_27:\n    /* \"#utility.yul\":3400:3406   */\n  0x00\n    /* \"#utility.yul\":3433:3484   */\n  tag_74\n    /* \"#utility.yul\":3481:3482   */\n  0x00\n    /* \"#utility.yul\":3477:3483   */\n  not\n    /* \"#utility.yul\":3469:3474   */\n  dup5\n    /* \"#utility.yul\":3466:3467   */\n  0x08\n    /* \"#utility.yul\":3462:3475   */\n  mul\n    /* \"#utility.yul\":3433:3484   */\n  tag_26\n  jump\t// in\ntag_74:\n    /* \"#utility.yul\":3429:3485   */\n  not\n    /* \"#utility.yul\":3514:3518   */\n  dup1\n    /* \"#utility.yul\":3508:3512   */\n  dup4\n    /* \"#utility.yul\":3504:3519   */\n  and\n    /* \"#utility.yul\":3494:3519   */\n  swap2\n  pop\n    /* \"#utility.yul\":3407:3525   */\n  pop\n    /* \"#utility.yul\":3356:3525   */\n  swap3\n  swap2\n  pop\n  pop\n  jump\t// out\n    /* \"#utility.yul\":3530:3825   */\ntag_28:\n    /* \"#utility.yul\":3606:3610   */\n  0x00\n    /* \"#utility.yul\":3752:3781   */\n  tag_76\n    /* \"#utility.yul\":3777:3780   */\n  dup4\n    /* \"#utility.yul\":3771:3775   */\n  dup4\n    /* \"#utility.yul\":3752:3781   */\n  tag_27\n  jump\t// in\ntag_76:\n    /* \"#utility.yul\":3744:3781   */\n  swap2\n  pop\n    /* \"#utility.yul\":3814:3817   */\n  dup3\n    /* \"#utility.yul\":3811:3812   */\n  0x02\n    /* \"#utility.yul\":3807:3818   */\n  mul\n    /* \"#utility.yul\":3801:3805   */\n  dup3\n    /* \"#utility.yul\":3798:3819   */\n  or\n    /* \"#utility.yul\":3790:3819   */\n  swap1\n  pop\n    /* \"#utility.yul\":3530:3825   */\n  swap3\n  swap2\n  pop\n  pop\n  jump\t// out\n    /* \"#utility.yul\":3830:5222   */\ntag_2:\n    /* \"#utility.yul\":3946:3983   */\n  tag_78\n    /* \"#utility.yul\":3979:3982   */\n  dup3\n    /* \"#utility.yul\":3946:3983   */\n  tag_9\n  jump\t// in\ntag_78:\n    /* \"#utility.yul\":4048:4066   */\n  0xffffffffffffffff\n    /* \"#utility.yul\":4040:4046   */\n  dup2\n    /* \"#utility.yul\":4037:4067   */\n  gt\n    /* \"#utility.yul\":4034:4090   */\n  iszero\n  tag_79\n  jumpi\n    /* \"#utility.yul\":4070:4088   */\n  tag_80\n  tag_10\n  jump\t// in\ntag_80:\n    /* \"#utility.yul\":4034:4090   */\ntag_79:\n    /* \"#utility.yul\":4114:4152   */\n  tag_81\n    /* \"#utility.yul\":4146:4150   */\n  dup3\n    /* \"#utility.yul\":4140:4151   */\n  sload\n    /* \"#utility.yul\":4114:4152   */\n  tag_12\n  jump\t// in\ntag_81:\n    /* \"#utility.yul\":4199:4265   */\n  tag_82\n    /* \"#utility.yul\":4258:4264   */\n  dup3\n    /* \"#utility.yul\":4250:4256   */\n  dup3\n    /* \"#utility.yul\":4244:4248   */\n  dup6\n    /* \"#utility.yul\":4199:4265   */\n  tag_25\n  jump\t// in\ntag_82:\n    /* \"#utility.yul\":4292:4293   */\n  0x00\n    /* \"#utility.yul\":4316:4320   */\n  0x20\n    /* \"#utility.yul\":4303:4320   */\n  swap1\n  pop\n    /* \"#utility.yul\":4348:4350   */\n  0x1f\n    /* \"#utility.yul\":4340:4346   */\n  dup4\n    /* \"#utility.yul\":4337:4351   */\n  gt\n    /* \"#utility.yul\":4365:4366   */\n  0x01\n    /* \"#utility.yul\":4360:4977   */\n  dup2\n  eq\n  tag_84\n  jumpi\n    /* \"#utility.yul\":5021:5022   */\n  0x00\n    /* \"#utility.yul\":5038:5044   */\n  dup5\n    /* \"#utility.yul\":5035:5112   */\n  iszero\n  tag_85\n  jumpi\n    /* \"#utility.yul\":5087:5096   */\n  dup3\n    /* \"#utility.yul\":5082:5085   */\n  dup8\n    /* \"#utility.yul\":5078:5097   */\n  add\n    /* \"#utility.yul\":5072:5098   */\n  mload\n    /* \"#utility.yul\":5063:5098   */\n  swap1\n  pop\n    /* \"#utility.yul\":5035:5112   */\ntag_85:\n    /* \"#utility.yul\":5138:5205   */\n  tag_86\n    /* \"#utility.yul\":5198:5204   */\n  dup6\n    /* \"#utility.yul\":5191:5196   */\n  dup3\n    /* \"#utility.yul\":5138:5205   */\n  tag_28\n  jump\t// in\ntag_86:\n    /* \"#utility.yul\":5132:5136   */\n  dup7\n    /* \"#utility.yul\":5125:5206   */\n  sstore\n    /* \"#utility.yul\":4994:5216   */\n  pop\n    /* \"#utility.yul\":4330:5216   */\n  jump(tag_83)\n    /* \"#utility.yul\":4360:4977   */\ntag_84:\n    /* \"#utility.yul\":4412:4416   */\n  0x1f\n    /* \"#utility.yul\":4408:4417   */\n  not\n    /* \"#utility.yul\":4400:4406   */\n  dup5\n    /* \"#utility.yul\":4396:4418   */\n  and\n    /* \"#utility.yul\":4446:4482   */\n  tag_87\n    /* \"#utility.yul\":4477:4481   */\n  dup7\n    /* \"#utility.yul\":4446:4482   */\n  tag_13\n  jump\t// in\ntag_87:\n    /* \"#utility.yul\":4504:4505   */\n  0x00\n    /* \"#utility.yul\":4518:4726   */\ntag_88:\n    /* \"#utility.yul\":4532:4539   */\n  dup3\n    /* \"#utility.yul\":4529:4530   */\n  dup2\n    /* \"#utility.yul\":4526:4540   */\n  lt\n    /* \"#utility.yul\":4518:4726   */\n  iszero\n  tag_90\n  jumpi\n    /* \"#utility.yul\":4611:4620   */\n  dup5\n    /* \"#utility.yul\":4606:4609   */\n  dup10\n    /* \"#utility.yul\":4602:4621   */\n  add\n    /* \"#utility.yul\":4596:4622   */\n  mload\n    /* \"#utility.yul\":4588:4594   */\n  dup3\n    /* \"#utility.yul\":4581:4623   */\n  sstore\n    /* \"#utility.yul\":4662:4663   */\n  0x01\n    /* \"#utility.yul\":4654:4660   */\n  dup3\n    /* \"#utility.yul\":4650:4664   */\n  add\n    /* \"#utility.yul\":4640:4664   */\n  swap2\n  pop\n    /* \"#utility.yul\":4709:4711   */\n  0x20\n    /* \"#utility.yul\":4698:4707   */\n  dup6\n    /* \"#utility.yul\":4694:4712   */\n  add\n    /* \"#utility.yul\":4681:4712   */\n  swap5\n  pop\n    /* \"#utility.yul\":4555:4559   */\n  0x20\n    /* \"#utility.yul\":4552:4553   */\n  dup2\n    /* \"#utility.yul\":4548:4560   */\n  add\n    /* \"#utility.yul\":4543:4560   */\n  swap1\n  pop\n    /* \"#utility.yul\":4518:4726   */\n  jump(tag_88)\ntag_90:\n    /* \"#utility.yul\":4754:4760   */\n  dup7\n    /* \"#utility.yul\":4745:4752   */\n  dup4\n    /* \"#utility.yul\":4742:4761   */\n  lt\n    /* \"#utility.yul\":4739:4918   */\n  iszero\n  tag_91\n  jumpi\n    /* \"#utility.yul\":4812:4821   */\n  dup5\n    /* \"#utility.yul\":4807:4810   */\n  dup10\n    /* \"#utility.yul\":4803:4822   */\n  add\n    /* \"#utility.yul\":4797:4823   */\n  mload\n    /* \"#utility.yul\":4855:4903   */\n  tag_92\n    /* \"#utility.yul\":4897:4901   */\n  0x1f\n    /* \"#utility.yul\":4889:4895   */\n  dup10\n    /* \"#utility.yul\":4885:4902   */\n  and\n    /* \"#utility.yul\":4874:4883   */\n  dup3\n    /* \"#utility.yul\":4855:4903   */\n  tag_27\n  jump\t// in\ntag_92:\n    /* \"#utility.yul\":4847:4853   */\n  dup4\n    /* \"#utility.yul\":4840:4904   */\n  sstore\n    /* \"#utility.yul\":4762:4918   */\n  pop\n    /* \"#utility.yul\":4739:4918   */\ntag_91:\n    /* \"#utility.yul\":4964:4965   */\n  0x01\n    /* \"#utility.yul\":4960:4961   */\n  0x02\n    /* \"#utility.yul\":4952:4958   */\n  dup9\n    /* \"#utility.yul\":4948:4962   */\n  mul\n    /* \"#utility.yul\":4944:4966   */\n  add\n    /* \"#utility.yul\":4938:4942   */\n  dup9\n    /* \"#utility.yul\":4931:4967   */\n  sstore\n    /* \"#utility.yul\":4367:4977   */\n  pop\n  pop\n  pop\n    /* \"#utility.yul\":4330:5216   */\ntag_83:\n  pop\n    /* \"#utility.yul\":3921:5222   */\n  pop\n  pop\n  pop\n    /* \"#utility.yul\":3830:5222   */\n  pop\n  pop\n  jump\t// out\n    /* \"#utility.yul\":5228:5369   */\ntag_29:\n    /* \"#utility.yul\":5277:5281   */\n  0x00\n    /* \"#utility.yul\":5300:5303   */\n  dup2\n    /* \"#utility.yul\":5292:5303   */\n  swap1\n  pop\n    /* \"#utility.yul\":5323:5326   */\n  dup2\n    /* \"#utility.yul\":5320:5321   */\n  0x00\n    /* \"#utility.yul\":5313:5327   */\n  mstore\n    /* \"#utility.yul\":5357:5361   */\n  0x20\n    /* \"#utility.yul\":5354:5355   */\n  0x00\n    /* \"#utility.yul\":5344:5362   */\n  keccak256\n    /* \"#utility.yul\":5336:5362   */\n  swap1\n  pop\n    /* \"#utility.yul\":5228:5369   */\n  swap2\n  swap1\n  pop\n  jump\t// out\n    /* \"#utility.yul\":5375:5918   */\ntag_30:\n    /* \"#utility.yul\":5476:5478   */\n  0x1f\n    /* \"#utility.yul\":5471:5474   */\n  dup3\n    /* \"#utility.yul\":5468:5479   */\n  gt\n    /* \"#utility.yul\":5465:5911   */\n  iszero\n  tag_95\n  jumpi\n    /* \"#utility.yul\":5510:5548   */\n  tag_96\n    /* \"#utility.yul\":5542:5547   */\n  dup2\n    /* \"#utility.yul\":5510:5548   */\n  tag_29\n  jump\t// in\ntag_96:\n    /* \"#utility.yul\":5594:5623   */\n  tag_97\n    /* \"#utility.yul\":5612:5622   */\n  dup5\n    /* \"#utility.yul\":5594:5623   */\n  tag_14\n  jump\t// in\ntag_97:\n    /* \"#utility.yul\":5584:5592   */\n  dup2\n    /* \"#utility.yul\":5580:5624   */\n  add\n    /* \"#utility.yul\":5777:5779   */\n  0x20\n    /* \"#utility.yul\":5765:5775   */\n  dup6\n    /* \"#utility.yul\":5762:5780   */\n  lt\n    /* \"#utility.yul\":5759:5808   */\n  iszero\n  tag_98\n  jumpi\n    /* \"#utility.yul\":5798:5806   */\n  dup2\n    /* \"#utility.yul\":5783:5806   */\n  swap1\n  pop\n    /* \"#utility.yul\":5759:5808   */\ntag_98:\n    /* \"#utility.yul\":5821:5901   */\n  tag_99\n    /* \"#utility.yul\":5877:5899   */\n  tag_100\n    /* \"#utility.yul\":5895:5898   */\n  dup6\n    /* \"#utility.yul\":5877:5899   */\n  tag_14\n  jump\t// in\ntag_100:\n    /* \"#utility.yul\":5867:5875   */\n  dup4\n    /* \"#utility.yul\":5863:5900   */\n  add\n    /* \"#utility.yul\":5850:5861   */\n  dup3\n    /* \"#utility.yul\":5821:5901   */\n  tag_24\n  jump\t// in\ntag_99:\n    /* \"#utility.yul\":5480:5911   */\n  pop\n  pop\n    /* \"#utility.yul\":5465:5911   */\ntag_95:\n    /* \"#utility.yul\":5375:5918   */\n  pop\n  pop\n  pop\n  jump\t// out\n    /* \"#utility.yul\":5924:7319   */\ntag_4:\n    /* \"#utility.yul\":6041:6078   */\n  tag_102\n    /* \"#utility.yul\":6074:6077   */\n  dup3\n    /* \"#utility.yul\":6041:6078   */\n  tag_9\n  jump\t// in\ntag_102:\n    /* \"#utility.yul\":6143:6161   */\n  0xffffffffffffffff\n    /* \"#utility.yul\":6135:6141   */\n  dup2\n    /* \"#utility.yul\":6132:6162   */\n  gt\n    /* \"#utility.yul\":6129:6185   */\n  iszero\n  tag_103\n  jumpi\n    /* \"#utility.yul\":6165:6183   */\n  tag_104\n  tag_10\n  jump\t// in\ntag_104:\n    /* \"#utility.yul\":6129:6185   */\ntag_103:\n    /* \"#utility.yul\":6209:6247   */\n  tag_105\n    /* \"#utility.yul\":6241:6245   */\n  dup3\n    /* \"#utility.yul\":6235:6246   */\n  sload\n    /* \"#utility.yul\":6209:6247   */\n  tag_12\n  jump\t// in\ntag_105:\n    /* \"#utility.yul\":6294:6361   */\n  tag_106\n    /* \"#utility.yul\":6354:6360   */\n  dup3\n    /* \"#utility.yul\":6346:6352   */\n  dup3\n    /* \"#utility.yul\":6340:6344   */\n  dup6\n    /* \"#utility.yul\":6294:6361   */\n  tag_30\n  jump\t// in\ntag_106:\n    /* \"#utility.yul\":6388:6389   */\n  0x00\n    /* \"#utility.yul\":6412:6416   */\n  0x20\n    /* \"#utility.yul\":6399:6416   */\n  swap1\n  pop\n    /* \"#utility.yul\":6444:6446   */\n  0x1f\n    /* \"#utility.yul\":6436:6442   */\n  dup4\n    /* \"#utility.yul\":6433:6447   */\n  gt\n    /* \"#utility.yul\":6461:6462   */\n  0x01\n    /* \"#utility.yul\":6456:7074   */\n  dup2\n  eq\n  tag_108\n  jumpi\n    /* \"#utility.yul\":7118:7119   */\n  0x00\n    /* \"#utility.yul\":7135:7141   */\n  dup5\n    /* \"#utility.yul\":7132:7209   */\n  iszero\n  tag_109\n  jumpi\n    /* \"#utility.yul\":7184:7193   */\n  dup3\n    /* \"#utility.yul\":7179:7182   */\n  dup8\n    /* \"#utility.yul\":7175:7194   */\n  add\n    /* \"#utility.yul\":7169:7195   */\n  mload\n    /* \"#utility.yul\":7160:7195   */\n  swap1\n  pop\n    /* \"#utility.yul\":7132:7209   */\ntag_109:\n    /* \"#utility.yul\":7235:7302   */\n  tag_110\n    /* \"#utility.yul\":7295:7301   */\n  dup6\n    /* \"#utility.yul\":7288:7293   */\n  dup3\n    /* \"#utility.yul\":7235:7302   */\n  tag_28\n  jump\t// in\ntag_110:\n    /* \"#utility.yul\":7229:7233   */\n  dup7\n    /* \"#utility.yul\":7222:7303   */\n  sstore\n    /* \"#utility.yul\":7091:7313   */\n  pop\n    /* \"#utility.yul\":6426:7313   */\n  jump(tag_107)\n    /* \"#utility.yul\":6456:7074   */\ntag_108:\n    /* \"#utility.yul\":6508:6512   */\n  0x1f\n    /* \"#utility.yul\":6504:6513   */\n  not\n    /* \"#utility.yul\":6496:6502   */\n  dup5\n    /* \"#utility.yul\":6492:6514   */\n  and\n    /* \"#utility.yul\":6542:6579   */\n  tag_111\n    /* \"#utility.yul\":6574:6578   */\n  dup7\n    /* \"#utility.yul\":6542:6579   */\n  tag_29\n  jump\t// in\ntag_111:\n    /* \"#utility.yul\":6601:6602   */\n  0x00\n    /* \"#utility.yul\":6615:6823   */\ntag_112:\n    /* \"#utility.yul\":6629:6636   */\n  dup3\n    /* \"#utility.yul\":6626:6627   */\n  dup2\n    /* \"#utility.yul\":6623:6637   */\n  lt\n    /* \"#utility.yul\":6615:6823   */\n  iszero\n  tag_114\n  jumpi\n    /* \"#utility.yul\":6708:6717   */\n  dup5\n    /* \"#utility.yul\":6703:6706   */\n  dup10\n    /* \"#utility.yul\":6699:6718   */\n  add\n    /* \"#utility.yul\":6693:6719   */\n  mload\n    /* \"#utility.yul\":6685:6691   */\n  dup3\n    /* \"#utility.yul\":6678:6720   */\n  sstore\n    /* \"#utility.yul\":6759:6760   */\n  0x01\n    /* \"#utility.yul\":6751:6757   */\n  dup3\n    /* \"#utility.yul\":6747:6761   */\n  add\n    /* \"#utility.yul\":6737:6761   */\n  swap2\n  pop\n    /* \"#utility.yul\":6806:6808   */\n  0x20\n    /* \"#utility.yul\":6795:6804   */\n  dup6\n    /* \"#utility.yul\":6791:6809   */\n  add\n    /* \"#utility.yul\":6778:6809   */\n  swap5\n  pop\n    /* \"#utility.yul\":6652:6656   */\n  0x20\n    /* \"#utility.yul\":6649:6650   */\n  dup2\n    /* \"#utility.yul\":6645:6657   */\n  add\n    /* \"#utility.yul\":6640:6657   */\n  swap1\n  pop\n    /* \"#utility.yul\":6615:6823   */\n  jump(tag_112)\ntag_114:\n    /* \"#utility.yul\":6851:6857   */\n  dup7\n    /* \"#utility.yul\":6842:6849   */\n  dup4\n    /* \"#utility.yul\":6839:6858   */\n  lt\n    /* \"#utility.yul\":6836:7015   */\n  iszero\n  tag_115\n  jumpi\n    /* \"#utility.yul\":6909:6918   */\n  dup5\n    /* \"#utility.yul\":6904:6907   */\n  dup10\n    /* \"#utility.yul\":6900:6919   */\n  add\n    /* \"#utility.yul\":6894:6920   */\n  mload\n    /* \"#utility.yul\":6952:7000   */\n  tag_116\n    /* \"#utility.yul\":6994:6998   */\n  0x1f\n    /* \"#utility.yul\":6986:6992   */\n  dup10\n    /* \"#utility.yul\":6982:6999   */\n  and\n    /* \"#utility.yul\":6971:6980   */\n  dup3\n    /* \"#utility.yul\":6952:7000   */\n  tag_27\n  jump\t// in\ntag_116:\n    /* \"#utility.yul\":6944:6950   */\n  dup4\n    /* \"#utility.yul\":6937:7001   */\n  sstore\n    /* \"#utility.yul\":6859:7015   */\n  pop\n    /* \"#utility.yul\":6836:7015   */\ntag_115:\n    /* \"#utility.yul\":7061:7062   */\n  0x01\n    /* \"#utility.yul\":7057:7058   */\n  0x02\n    /* \"#utility.yul\":7049:7055   */\n  dup9\n    /* \"#utility.yul\":7045:7059   */\n  mul\n    /* \"#utility.yul\":7041:7063   */\n  add\n    /* \"#utility.yul\":7035:7039   */\n  dup9\n    /* \"#utility.yul\":7028:7064   */\n  sstore\n    /* \"#utility.yul\":6463:7074   */\n  pop\n  pop\n  pop\n    /* \"#utility.yul\":6426:7313   */\ntag_107:\n  pop\n    /* \"#utility.yul\":6016:7319   */\n  pop\n  pop\n  pop\n    /* \"#utility.yul\":5924:7319   */\n  pop\n  pop\n  jump\t// out\n    /* \"contracts/1_Storage.sol\":192:1004  contract Storage {... */\ntag_8:\n  dataSize(sub_0)\n  dup1\n  dataOffset(sub_0)\n  0x00\n  codecopy\n  0x00\n  return\nstop\n\nsub_0: assembly {\n        /* \"contracts/1_Storage.sol\":192:1004  contract Storage {... */\n      mstore(0x40, 0x80)\n      callvalue\n      dup1\n      iszero\n      tag_1\n      jumpi\n      0x00\n      dup1\n      revert\n    tag_1:\n      pop\n      jumpi(tag_2, lt(calldatasize, 0x04))\n      shr(0xe0, calldataload(0x00))\n      dup1\n      0x6057361d\n      gt\n      tag_11\n      jumpi\n      dup1\n      0x6057361d\n      eq\n      tag_7\n      jumpi\n      dup1\n      0x6cc014de\n      eq\n      tag_8\n      jumpi\n      dup1\n      0xee495002\n      eq\n      tag_9\n      jumpi\n      dup1\n      0xffac7005\n      eq\n      tag_10\n      jumpi\n      jump(tag_2)\n    tag_11:\n      dup1\n      0x20965255\n      eq\n      tag_3\n      jumpi\n      dup1\n      0x2e64cec1\n      eq\n      tag_4\n      jumpi\n      dup1\n      0x3f2273b3\n      eq\n      tag_5\n      jumpi\n      dup1\n      0x55241077\n      eq\n      tag_6\n      jumpi\n    tag_2:\n      0x00\n      dup1\n      revert\n        /* \"contracts/1_Storage.sol\":766:842  function getValue() public view returns (uint) {... */\n    tag_3:\n      tag_12\n      tag_13\n      jump\t// in\n    tag_12:\n      mload(0x40)\n      tag_14\n      swap2\n      swap1\n      tag_15\n      jump\t// in\n    tag_14:\n      mload(0x40)\n      dup1\n      swap2\n      sub\n      swap1\n      return\n        /* \"contracts/1_Storage.sol\":923:1002  function retrieve() public view returns (uint256){... */\n    tag_4:\n      tag_16\n      tag_17\n      jump\t// in\n    tag_16:\n      mload(0x40)\n      tag_18\n      swap2\n      swap1\n      tag_15\n      jump\t// in\n    tag_18:\n      mload(0x40)\n      dup1\n      swap2\n      sub\n      swap1\n      return\n        /* \"contracts/1_Storage.sol\":413:496  function addElement() public {... */\n    tag_5:\n      tag_19\n      tag_20\n      jump\t// in\n    tag_19:\n      stop\n        /* \"contracts/1_Storage.sol\":674:743  function setValue(uint _value) public {... */\n    tag_6:\n      tag_21\n      0x04\n      dup1\n      calldatasize\n      sub\n      dup2\n      add\n      swap1\n      tag_22\n      swap2\n      swap1\n      tag_23\n      jump\t// in\n    tag_22:\n      tag_24\n      jump\t// in\n    tag_21:\n      stop\n        /* \"contracts/1_Storage.sol\":587:651  function store(uint256 num) public {... */\n    tag_7:\n      tag_25\n      0x04\n      dup1\n      calldatasize\n      sub\n      dup2\n      add\n      swap1\n      tag_26\n      swap2\n      swap1\n      tag_23\n      jump\t// in\n    tag_26:\n      tag_27\n      jump\t// in\n    tag_25:\n      stop\n        /* \"contracts/1_Storage.sol\":287:311  string public s1 = \"abc\" */\n    tag_8:\n      tag_28\n      tag_29\n      jump\t// in\n    tag_28:\n      mload(0x40)\n      tag_30\n      swap2\n      swap1\n      tag_31\n      jump\t// in\n    tag_30:\n      mload(0x40)\n      dup1\n      swap2\n      sub\n      swap1\n      return\n        /* \"contracts/1_Storage.sol\":257:280  bytes public b1 = \"abc\" */\n    tag_9:\n      tag_32\n      tag_33\n      jump\t// in\n    tag_32:\n      mload(0x40)\n      tag_34\n      swap2\n      swap1\n      tag_35\n      jump\t// in\n    tag_34:\n      mload(0x40)\n      dup1\n      swap2\n      sub\n      swap1\n      return\n        /* \"contracts/1_Storage.sol\":317:357  mapping(string => uint) public myMapping */\n    tag_10:\n      tag_36\n      0x04\n      dup1\n      calldatasize\n      sub\n      dup2\n      add\n      swap1\n      tag_37\n      swap2\n      swap1\n      tag_38\n      jump\t// in\n    tag_37:\n      tag_39\n      jump\t// in\n    tag_36:\n      mload(0x40)\n      tag_40\n      swap2\n      swap1\n      tag_15\n      jump\t// in\n    tag_40:\n      mload(0x40)\n      dup1\n      swap2\n      sub\n      swap1\n      return\n        /* \"contracts/1_Storage.sol\":766:842  function getValue() public view returns (uint) {... */\n    tag_13:\n        /* \"contracts/1_Storage.sol\":807:811  uint */\n      0x00\n        /* \"contracts/1_Storage.sol\":830:835  value */\n      sload(0x01)\n        /* \"contracts/1_Storage.sol\":823:835  return value */\n      swap1\n      pop\n        /* \"contracts/1_Storage.sol\":766:842  function getValue() public view returns (uint) {... */\n      swap1\n      jump\t// out\n        /* \"contracts/1_Storage.sol\":923:1002  function retrieve() public view returns (uint256){... */\n    tag_17:\n        /* \"contracts/1_Storage.sol\":964:971  uint256 */\n      0x00\n        /* \"contracts/1_Storage.sol\":989:995  number */\n      dup1\n      sload\n        /* \"contracts/1_Storage.sol\":982:995  return number */\n      swap1\n      pop\n        /* \"contracts/1_Storage.sol\":923:1002  function retrieve() public view returns (uint256){... */\n      swap1\n      jump\t// out\n        /* \"contracts/1_Storage.sol\":413:496  function addElement() public {... */\n    tag_20:\n        /* \"contracts/1_Storage.sol\":452:454  b1 */\n      0x02\n        /* \"contracts/1_Storage.sol\":452:464  b1.push(\"x\") */\n      dup1\n      dup1\n      sload\n      dup1\n      tag_44\n      swap1\n      tag_45\n      jump\t// in\n    tag_44:\n      dup1\n      0x1f\n      dup2\n      sub\n      tag_46\n      jumpi\n      dup4\n      0x00\n      mstore\n      keccak256(0x00, 0x20)\n      not(0xff)\n      dup5\n      and\n      dup2\n      sstore\n      0x3f\n      swap4\n      pop\n      pop\n    tag_46:\n      pop\n      0x02\n      dup3\n      add\n      dup4\n      sstore\n      0x01\n      dup2\n      add\n      swap3\n      pop\n      pop\n      pop\n      0x01\n      swap1\n      sub\n      dup2\n      sload\n      0x01\n      and\n      iszero\n      tag_48\n      jumpi\n      swap1\n      0x00\n      mstore\n      keccak256(0x00, 0x20)\n      swap1\n      0x20\n      swap2\n      dup3\n      dup3\n      div\n      add\n      swap2\n      swap1\n      mod\n    tag_48:\n      0x7800000000000000000000000000000000000000000000000000000000000000\n      swap1\n      swap2\n      swap1\n      swap2\n      0x1f\n      sub\n      0x0100\n      exp\n      dup2\n      sload\n      dup2\n      0xff\n      mul\n      not\n      and\n      swap1\n      0x0100000000000000000000000000000000000000000000000000000000000000\n      dup5\n      div\n      mul\n      or\n      swap1\n      sstore\n      pop\n        /* \"contracts/1_Storage.sol\":413:496  function addElement() public {... */\n      jump\t// out\n        /* \"contracts/1_Storage.sol\":674:743  function setValue(uint _value) public {... */\n    tag_24:\n        /* \"contracts/1_Storage.sol\":730:736  _value */\n      dup1\n        /* \"contracts/1_Storage.sol\":722:727  value */\n      0x01\n        /* \"contracts/1_Storage.sol\":722:736  value = _value */\n      dup2\n      swap1\n      sstore\n      pop\n        /* \"contracts/1_Storage.sol\":674:743  function setValue(uint _value) public {... */\n      pop\n      jump\t// out\n        /* \"contracts/1_Storage.sol\":587:651  function store(uint256 num) public {... */\n    tag_27:\n        /* \"contracts/1_Storage.sol\":641:644  num */\n      dup1\n        /* \"contracts/1_Storage.sol\":632:638  number */\n      0x00\n        /* \"contracts/1_Storage.sol\":632:644  number = num */\n      dup2\n      swap1\n      sstore\n      pop\n        /* \"contracts/1_Storage.sol\":587:651  function store(uint256 num) public {... */\n      pop\n      jump\t// out\n        /* \"contracts/1_Storage.sol\":287:311  string public s1 = \"abc\" */\n    tag_29:\n      0x03\n      dup1\n      sload\n      tag_51\n      swap1\n      tag_45\n      jump\t// in\n    tag_51:\n      dup1\n      0x1f\n      add\n      0x20\n      dup1\n      swap2\n      div\n      mul\n      0x20\n      add\n      mload(0x40)\n      swap1\n      dup2\n      add\n      0x40\n      mstore\n      dup1\n      swap3\n      swap2\n      swap1\n      dup2\n      dup2\n      mstore\n      0x20\n      add\n      dup3\n      dup1\n      sload\n      tag_52\n      swap1\n      tag_45\n      jump\t// in\n    tag_52:\n      dup1\n      iszero\n      tag_53\n      jumpi\n      dup1\n      0x1f\n      lt\n      tag_54\n      jumpi\n      0x0100\n      dup1\n      dup4\n      sload\n      div\n      mul\n      dup4\n      mstore\n      swap2\n      0x20\n      add\n      swap2\n      jump(tag_53)\n    tag_54:\n      dup3\n      add\n      swap2\n      swap1\n      0x00\n      mstore\n      keccak256(0x00, 0x20)\n      swap1\n    tag_55:\n      dup2\n      sload\n      dup2\n      mstore\n      swap1\n      0x01\n      add\n      swap1\n      0x20\n      add\n      dup1\n      dup4\n      gt\n      tag_55\n      jumpi\n      dup3\n      swap1\n      sub\n      0x1f\n      and\n      dup3\n      add\n      swap2\n    tag_53:\n      pop\n      pop\n      pop\n      pop\n      pop\n      dup2\n      jump\t// out\n        /* \"contracts/1_Storage.sol\":257:280  bytes public b1 = \"abc\" */\n    tag_33:\n      0x02\n      dup1\n      sload\n      tag_56\n      swap1\n      tag_45\n      jump\t// in\n    tag_56:\n      dup1\n      0x1f\n      add\n      0x20\n      dup1\n      swap2\n      div\n      mul\n      0x20\n      add\n      mload(0x40)\n      swap1\n      dup2\n      add\n      0x40\n      mstore\n      dup1\n      swap3\n      swap2\n      swap1\n      dup2\n      dup2\n      mstore\n      0x20\n      add\n      dup3\n      dup1\n      sload\n      tag_57\n      swap1\n      tag_45\n      jump\t// in\n    tag_57:\n      dup1\n      iszero\n      tag_58\n      jumpi\n      dup1\n      0x1f\n      lt\n      tag_59\n      jumpi\n      0x0100\n      dup1\n      dup4\n      sload\n      div\n      mul\n      dup4\n      mstore\n      swap2\n      0x20\n      add\n      swap2\n      jump(tag_58)\n    tag_59:\n      dup3\n      add\n      swap2\n      swap1\n      0x00\n      mstore\n      keccak256(0x00, 0x20)\n      swap1\n    tag_60:\n      dup2\n      sload\n      dup2\n      mstore\n      swap1\n      0x01\n      add\n      swap1\n      0x20\n      add\n      dup1\n      dup4\n      gt\n      tag_60\n      jumpi\n      dup3\n      swap1\n      sub\n      0x1f\n      and\n      dup3\n      add\n      swap2\n    tag_58:\n      pop\n      pop\n      pop\n      pop\n      pop\n      dup2\n      jump\t// out\n        /* \"contracts/1_Storage.sol\":317:357  mapping(string => uint) public myMapping */\n    tag_39:\n      0x04\n      dup2\n      dup1\n      mload\n      0x20\n      dup2\n      add\n      dup3\n      add\n      dup1\n      mload\n      dup5\n      dup3\n      mstore\n      0x20\n      dup4\n      add\n      0x20\n      dup6\n      add\n      keccak256\n      dup2\n      dup4\n      mstore\n      dup1\n      swap6\n      pop\n      pop\n      pop\n      pop\n      pop\n      pop\n      0x00\n      swap2\n      pop\n      swap1\n      pop\n      sload\n      dup2\n      jump\t// out\n        /* \"#utility.yul\":7:84   */\n    tag_61:\n        /* \"#utility.yul\":44:51   */\n      0x00\n        /* \"#utility.yul\":73:78   */\n      dup2\n        /* \"#utility.yul\":62:78   */\n      swap1\n      pop\n        /* \"#utility.yul\":7:84   */\n      swap2\n      swap1\n      pop\n      jump\t// out\n        /* \"#utility.yul\":90:208   */\n    tag_62:\n        /* \"#utility.yul\":177:201   */\n      tag_89\n        /* \"#utility.yul\":195:200   */\n      dup2\n        /* \"#utility.yul\":177:201   */\n      tag_61\n      jump\t// in\n    tag_89:\n        /* \"#utility.yul\":172:175   */\n      dup3\n        /* \"#utility.yul\":165:202   */\n      mstore\n        /* \"#utility.yul\":90:208   */\n      pop\n      pop\n      jump\t// out\n        /* \"#utility.yul\":214:436   */\n    tag_15:\n        /* \"#utility.yul\":307:311   */\n      0x00\n        /* \"#utility.yul\":345:347   */\n      0x20\n        /* \"#utility.yul\":334:343   */\n      dup3\n        /* \"#utility.yul\":330:348   */\n      add\n        /* \"#utility.yul\":322:348   */\n      swap1\n      pop\n        /* \"#utility.yul\":358:429   */\n      tag_91\n        /* \"#utility.yul\":426:427   */\n      0x00\n        /* \"#utility.yul\":415:424   */\n      dup4\n        /* \"#utility.yul\":411:428   */\n      add\n        /* \"#utility.yul\":402:408   */\n      dup5\n        /* \"#utility.yul\":358:429   */\n      tag_62\n      jump\t// in\n    tag_91:\n        /* \"#utility.yul\":214:436   */\n      swap3\n      swap2\n      pop\n      pop\n      jump\t// out\n        /* \"#utility.yul\":442:517   */\n    tag_63:\n        /* \"#utility.yul\":475:481   */\n      0x00\n        /* \"#utility.yul\":508:510   */\n      0x40\n        /* \"#utility.yul\":502:511   */\n      mload\n        /* \"#utility.yul\":492:511   */\n      swap1\n      pop\n        /* \"#utility.yul\":442:517   */\n      swap1\n      jump\t// out\n        /* \"#utility.yul\":523:640   */\n    tag_64:\n        /* \"#utility.yul\":632:633   */\n      0x00\n        /* \"#utility.yul\":629:630   */\n      dup1\n        /* \"#utility.yul\":622:634   */\n      revert\n        /* \"#utility.yul\":646:763   */\n    tag_65:\n        /* \"#utility.yul\":755:756   */\n      0x00\n        /* \"#utility.yul\":752:753   */\n      dup1\n        /* \"#utility.yul\":745:757   */\n      revert\n        /* \"#utility.yul\":769:891   */\n    tag_66:\n        /* \"#utility.yul\":842:866   */\n      tag_96\n        /* \"#utility.yul\":860:865   */\n      dup2\n        /* \"#utility.yul\":842:866   */\n      tag_61\n      jump\t// in\n    tag_96:\n        /* \"#utility.yul\":835:840   */\n      dup2\n        /* \"#utility.yul\":832:867   */\n      eq\n        /* \"#utility.yul\":822:885   */\n      tag_97\n      jumpi\n        /* \"#utility.yul\":881:882   */\n      0x00\n        /* \"#utility.yul\":878:879   */\n      dup1\n        /* \"#utility.yul\":871:883   */\n      revert\n        /* \"#utility.yul\":822:885   */\n    tag_97:\n        /* \"#utility.yul\":769:891   */\n      pop\n      jump\t// out\n        /* \"#utility.yul\":897:1036   */\n    tag_67:\n        /* \"#utility.yul\":943:948   */\n      0x00\n        /* \"#utility.yul\":981:987   */\n      dup2\n        /* \"#utility.yul\":968:988   */\n      calldataload\n        /* \"#utility.yul\":959:988   */\n      swap1\n      pop\n        /* \"#utility.yul\":997:1030   */\n      tag_99\n        /* \"#utility.yul\":1024:1029   */\n      dup2\n        /* \"#utility.yul\":997:1030   */\n      tag_66\n      jump\t// in\n    tag_99:\n        /* \"#utility.yul\":897:1036   */\n      swap3\n      swap2\n      pop\n      pop\n      jump\t// out\n        /* \"#utility.yul\":1042:1371   */\n    tag_23:\n        /* \"#utility.yul\":1101:1107   */\n      0x00\n        /* \"#utility.yul\":1150:1152   */\n      0x20\n        /* \"#utility.yul\":1138:1147   */\n      dup3\n        /* \"#utility.yul\":1129:1136   */\n      dup5\n        /* \"#utility.yul\":1125:1148   */\n      sub\n        /* \"#utility.yul\":1121:1153   */\n      slt\n        /* \"#utility.yul\":1118:1237   */\n      iszero\n      tag_101\n      jumpi\n        /* \"#utility.yul\":1156:1235   */\n      tag_102\n      tag_64\n      jump\t// in\n    tag_102:\n        /* \"#utility.yul\":1118:1237   */\n    tag_101:\n        /* \"#utility.yul\":1276:1277   */\n      0x00\n        /* \"#utility.yul\":1301:1354   */\n      tag_103\n        /* \"#utility.yul\":1346:1353   */\n      dup5\n        /* \"#utility.yul\":1337:1343   */\n      dup3\n        /* \"#utility.yul\":1326:1335   */\n      dup6\n        /* \"#utility.yul\":1322:1344   */\n      add\n        /* \"#utility.yul\":1301:1354   */\n      tag_67\n      jump\t// in\n    tag_103:\n        /* \"#utility.yul\":1291:1354   */\n      swap2\n      pop\n        /* \"#utility.yul\":1247:1364   */\n      pop\n        /* \"#utility.yul\":1042:1371   */\n      swap3\n      swap2\n      pop\n      pop\n      jump\t// out\n        /* \"#utility.yul\":1377:1476   */\n    tag_68:\n        /* \"#utility.yul\":1429:1435   */\n      0x00\n        /* \"#utility.yul\":1463:1468   */\n      dup2\n        /* \"#utility.yul\":1457:1469   */\n      mload\n        /* \"#utility.yul\":1447:1469   */\n      swap1\n      pop\n        /* \"#utility.yul\":1377:1476   */\n      swap2\n      swap1\n      pop\n      jump\t// out\n        /* \"#utility.yul\":1482:1651   */\n    tag_69:\n        /* \"#utility.yul\":1566:1577   */\n      0x00\n        /* \"#utility.yul\":1600:1606   */\n      dup3\n        /* \"#utility.yul\":1595:1598   */\n      dup3\n        /* \"#utility.yul\":1588:1607   */\n      mstore\n        /* \"#utility.yul\":1640:1644   */\n      0x20\n        /* \"#utility.yul\":1635:1638   */\n      dup3\n        /* \"#utility.yul\":1631:1645   */\n      add\n        /* \"#utility.yul\":1616:1645   */\n      swap1\n      pop\n        /* \"#utility.yul\":1482:1651   */\n      swap3\n      swap2\n      pop\n      pop\n      jump\t// out\n        /* \"#utility.yul\":1657:1903   */\n    tag_70:\n        /* \"#utility.yul\":1738:1739   */\n      0x00\n        /* \"#utility.yul\":1748:1861   */\n    tag_107:\n        /* \"#utility.yul\":1762:1768   */\n      dup4\n        /* \"#utility.yul\":1759:1760   */\n      dup2\n        /* \"#utility.yul\":1756:1769   */\n      lt\n        /* \"#utility.yul\":1748:1861   */\n      iszero\n      tag_109\n      jumpi\n        /* \"#utility.yul\":1847:1848   */\n      dup1\n        /* \"#utility.yul\":1842:1845   */\n      dup3\n        /* \"#utility.yul\":1838:1849   */\n      add\n        /* \"#utility.yul\":1832:1850   */\n      mload\n        /* \"#utility.yul\":1828:1829   */\n      dup2\n        /* \"#utility.yul\":1823:1826   */\n      dup5\n        /* \"#utility.yul\":1819:1830   */\n      add\n        /* \"#utility.yul\":1812:1851   */\n      mstore\n        /* \"#utility.yul\":1784:1786   */\n      0x20\n        /* \"#utility.yul\":1781:1782   */\n      dup2\n        /* \"#utility.yul\":1777:1787   */\n      add\n        /* \"#utility.yul\":1772:1787   */\n      swap1\n      pop\n        /* \"#utility.yul\":1748:1861   */\n      jump(tag_107)\n    tag_109:\n        /* \"#utility.yul\":1895:1896   */\n      0x00\n        /* \"#utility.yul\":1886:1892   */\n      dup5\n        /* \"#utility.yul\":1881:1884   */\n      dup5\n        /* \"#utility.yul\":1877:1893   */\n      add\n        /* \"#utility.yul\":1870:1897   */\n      mstore\n        /* \"#utility.yul\":1719:1903   */\n      pop\n        /* \"#utility.yul\":1657:1903   */\n      pop\n      pop\n      pop\n      jump\t// out\n        /* \"#utility.yul\":1909:2011   */\n    tag_71:\n        /* \"#utility.yul\":1950:1956   */\n      0x00\n        /* \"#utility.yul\":2001:2003   */\n      0x1f\n        /* \"#utility.yul\":1997:2004   */\n      not\n        /* \"#utility.yul\":1992:1994   */\n      0x1f\n        /* \"#utility.yul\":1985:1990   */\n      dup4\n        /* \"#utility.yul\":1981:1995   */\n      add\n        /* \"#utility.yul\":1977:2005   */\n      and\n        /* \"#utility.yul\":1967:2005   */\n      swap1\n      pop\n        /* \"#utility.yul\":1909:2011   */\n      swap2\n      swap1\n      pop\n      jump\t// out\n        /* \"#utility.yul\":2017:2394   */\n    tag_72:\n        /* \"#utility.yul\":2105:2108   */\n      0x00\n        /* \"#utility.yul\":2133:2172   */\n      tag_112\n        /* \"#utility.yul\":2166:2171   */\n      dup3\n        /* \"#utility.yul\":2133:2172   */\n      tag_68\n      jump\t// in\n    tag_112:\n        /* \"#utility.yul\":2188:2259   */\n      tag_113\n        /* \"#utility.yul\":2252:2258   */\n      dup2\n        /* \"#utility.yul\":2247:2250   */\n      dup6\n        /* \"#utility.yul\":2188:2259   */\n      tag_69\n      jump\t// in\n    tag_113:\n        /* \"#utility.yul\":2181:2259   */\n      swap4\n      pop\n        /* \"#utility.yul\":2268:2333   */\n      tag_114\n        /* \"#utility.yul\":2326:2332   */\n      dup2\n        /* \"#utility.yul\":2321:2324   */\n      dup6\n        /* \"#utility.yul\":2314:2318   */\n      0x20\n        /* \"#utility.yul\":2307:2312   */\n      dup7\n        /* \"#utility.yul\":2303:2319   */\n      add\n        /* \"#utility.yul\":2268:2333   */\n      tag_70\n      jump\t// in\n    tag_114:\n        /* \"#utility.yul\":2358:2387   */\n      tag_115\n        /* \"#utility.yul\":2380:2386   */\n      dup2\n        /* \"#utility.yul\":2358:2387   */\n      tag_71\n      jump\t// in\n    tag_115:\n        /* \"#utility.yul\":2353:2356   */\n      dup5\n        /* \"#utility.yul\":2349:2388   */\n      add\n        /* \"#utility.yul\":2342:2388   */\n      swap2\n      pop\n        /* \"#utility.yul\":2109:2394   */\n      pop\n        /* \"#utility.yul\":2017:2394   */\n      swap3\n      swap2\n      pop\n      pop\n      jump\t// out\n        /* \"#utility.yul\":2400:2713   */\n    tag_31:\n        /* \"#utility.yul\":2513:2517   */\n      0x00\n        /* \"#utility.yul\":2551:2553   */\n      0x20\n        /* \"#utility.yul\":2540:2549   */\n      dup3\n        /* \"#utility.yul\":2536:2554   */\n      add\n        /* \"#utility.yul\":2528:2554   */\n      swap1\n      pop\n        /* \"#utility.yul\":2600:2609   */\n      dup2\n        /* \"#utility.yul\":2594:2598   */\n      dup2\n        /* \"#utility.yul\":2590:2610   */\n      sub\n        /* \"#utility.yul\":2586:2587   */\n      0x00\n        /* \"#utility.yul\":2575:2584   */\n      dup4\n        /* \"#utility.yul\":2571:2588   */\n      add\n        /* \"#utility.yul\":2564:2611   */\n      mstore\n        /* \"#utility.yul\":2628:2706   */\n      tag_117\n        /* \"#utility.yul\":2701:2705   */\n      dup2\n        /* \"#utility.yul\":2692:2698   */\n      dup5\n        /* \"#utility.yul\":2628:2706   */\n      tag_72\n      jump\t// in\n    tag_117:\n        /* \"#utility.yul\":2620:2706   */\n      swap1\n      pop\n        /* \"#utility.yul\":2400:2713   */\n      swap3\n      swap2\n      pop\n      pop\n      jump\t// out\n        /* \"#utility.yul\":2719:2817   */\n    tag_73:\n        /* \"#utility.yul\":2770:2776   */\n      0x00\n        /* \"#utility.yul\":2804:2809   */\n      dup2\n        /* \"#utility.yul\":2798:2810   */\n      mload\n        /* \"#utility.yul\":2788:2810   */\n      swap1\n      pop\n        /* \"#utility.yul\":2719:2817   */\n      swap2\n      swap1\n      pop\n      jump\t// out\n        /* \"#utility.yul\":2823:2991   */\n    tag_74:\n        /* \"#utility.yul\":2906:2917   */\n      0x00\n        /* \"#utility.yul\":2940:2946   */\n      dup3\n        /* \"#utility.yul\":2935:2938   */\n      dup3\n        /* \"#utility.yul\":2928:2947   */\n      mstore\n        /* \"#utility.yul\":2980:2984   */\n      0x20\n        /* \"#utility.yul\":2975:2978   */\n      dup3\n        /* \"#utility.yul\":2971:2985   */\n      add\n        /* \"#utility.yul\":2956:2985   */\n      swap1\n      pop\n        /* \"#utility.yul\":2823:2991   */\n      swap3\n      swap2\n      pop\n      pop\n      jump\t// out\n        /* \"#utility.yul\":2997:3370   */\n    tag_75:\n        /* \"#utility.yul\":3083:3086   */\n      0x00\n        /* \"#utility.yul\":3111:3149   */\n      tag_121\n        /* \"#utility.yul\":3143:3148   */\n      dup3\n        /* \"#utility.yul\":3111:3149   */\n      tag_73\n      jump\t// in\n    tag_121:\n        /* \"#utility.yul\":3165:3235   */\n      tag_122\n        /* \"#utility.yul\":3228:3234   */\n      dup2\n        /* \"#utility.yul\":3223:3226   */\n      dup6\n        /* \"#utility.yul\":3165:3235   */\n      tag_74\n      jump\t// in\n    tag_122:\n        /* \"#utility.yul\":3158:3235   */\n      swap4\n      pop\n        /* \"#utility.yul\":3244:3309   */\n      tag_123\n        /* \"#utility.yul\":3302:3308   */\n      dup2\n        /* \"#utility.yul\":3297:3300   */\n      dup6\n        /* \"#utility.yul\":3290:3294   */\n      0x20\n        /* \"#utility.yul\":3283:3288   */\n      dup7\n        /* \"#utility.yul\":3279:3295   */\n      add\n        /* \"#utility.yul\":3244:3309   */\n      tag_70\n      jump\t// in\n    tag_123:\n        /* \"#utility.yul\":3334:3363   */\n      tag_124\n        /* \"#utility.yul\":3356:3362   */\n      dup2\n        /* \"#utility.yul\":3334:3363   */\n      tag_71\n      jump\t// in\n    tag_124:\n        /* \"#utility.yul\":3329:3332   */\n      dup5\n        /* \"#utility.yul\":3325:3364   */\n      add\n        /* \"#utility.yul\":3318:3364   */\n      swap2\n      pop\n        /* \"#utility.yul\":3087:3370   */\n      pop\n        /* \"#utility.yul\":2997:3370   */\n      swap3\n      swap2\n      pop\n      pop\n      jump\t// out\n        /* \"#utility.yul\":3376:3685   */\n    tag_35:\n        /* \"#utility.yul\":3487:3491   */\n      0x00\n        /* \"#utility.yul\":3525:3527   */\n      0x20\n        /* \"#utility.yul\":3514:3523   */\n      dup3\n        /* \"#utility.yul\":3510:3528   */\n      add\n        /* \"#utility.yul\":3502:3528   */\n      swap1\n      pop\n        /* \"#utility.yul\":3574:3583   */\n      dup2\n        /* \"#utility.yul\":3568:3572   */\n      dup2\n        /* \"#utility.yul\":3564:3584   */\n      sub\n        /* \"#utility.yul\":3560:3561   */\n      0x00\n        /* \"#utility.yul\":3549:3558   */\n      dup4\n        /* \"#utility.yul\":3545:3562   */\n      add\n        /* \"#utility.yul\":3538:3585   */\n      mstore\n        /* \"#utility.yul\":3602:3678   */\n      tag_126\n        /* \"#utility.yul\":3673:3677   */\n      dup2\n        /* \"#utility.yul\":3664:3670   */\n      dup5\n        /* \"#utility.yul\":3602:3678   */\n      tag_75\n      jump\t// in\n    tag_126:\n        /* \"#utility.yul\":3594:3678   */\n      swap1\n      pop\n        /* \"#utility.yul\":3376:3685   */\n      swap3\n      swap2\n      pop\n      pop\n      jump\t// out\n        /* \"#utility.yul\":3691:3808   */\n    tag_76:\n        /* \"#utility.yul\":3800:3801   */\n      0x00\n        /* \"#utility.yul\":3797:3798   */\n      dup1\n        /* \"#utility.yul\":3790:3802   */\n      revert\n        /* \"#utility.yul\":3814:3931   */\n    tag_77:\n        /* \"#utility.yul\":3923:3924   */\n      0x00\n        /* \"#utility.yul\":3920:3921   */\n      dup1\n        /* \"#utility.yul\":3913:3925   */\n      revert\n        /* \"#utility.yul\":3937:4117   */\n    tag_78:\n        /* \"#utility.yul\":3985:4062   */\n      0x4e487b7100000000000000000000000000000000000000000000000000000000\n        /* \"#utility.yul\":3982:3983   */\n      0x00\n        /* \"#utility.yul\":3975:4063   */\n      mstore\n        /* \"#utility.yul\":4082:4086   */\n      0x41\n        /* \"#utility.yul\":4079:4080   */\n      0x04\n        /* \"#utility.yul\":4072:4087   */\n      mstore\n        /* \"#utility.yul\":4106:4110   */\n      0x24\n        /* \"#utility.yul\":4103:4104   */\n      0x00\n        /* \"#utility.yul\":4096:4111   */\n      revert\n        /* \"#utility.yul\":4123:4404   */\n    tag_79:\n        /* \"#utility.yul\":4206:4233   */\n      tag_131\n        /* \"#utility.yul\":4228:4232   */\n      dup3\n        /* \"#utility.yul\":4206:4233   */\n      tag_71\n      jump\t// in\n    tag_131:\n        /* \"#utility.yul\":4198:4204   */\n      dup2\n        /* \"#utility.yul\":4194:4234   */\n      add\n        /* \"#utility.yul\":4336:4342   */\n      dup2\n        /* \"#utility.yul\":4324:4334   */\n      dup2\n        /* \"#utility.yul\":4321:4343   */\n      lt\n        /* \"#utility.yul\":4300:4318   */\n      0xffffffffffffffff\n        /* \"#utility.yul\":4288:4298   */\n      dup3\n        /* \"#utility.yul\":4285:4319   */\n      gt\n        /* \"#utility.yul\":4282:4344   */\n      or\n        /* \"#utility.yul\":4279:4367   */\n      iszero\n      tag_132\n      jumpi\n        /* \"#utility.yul\":4347:4365   */\n      tag_133\n      tag_78\n      jump\t// in\n    tag_133:\n        /* \"#utility.yul\":4279:4367   */\n    tag_132:\n        /* \"#utility.yul\":4387:4397   */\n      dup1\n        /* \"#utility.yul\":4383:4385   */\n      0x40\n        /* \"#utility.yul\":4376:4398   */\n      mstore\n        /* \"#utility.yul\":4166:4404   */\n      pop\n        /* \"#utility.yul\":4123:4404   */\n      pop\n      pop\n      jump\t// out\n        /* \"#utility.yul\":4410:4539   */\n    tag_80:\n        /* \"#utility.yul\":4444:4450   */\n      0x00\n        /* \"#utility.yul\":4471:4491   */\n      tag_135\n      tag_63\n      jump\t// in\n    tag_135:\n        /* \"#utility.yul\":4461:4491   */\n      swap1\n      pop\n        /* \"#utility.yul\":4500:4533   */\n      tag_136\n        /* \"#utility.yul\":4528:4532   */\n      dup3\n        /* \"#utility.yul\":4520:4526   */\n      dup3\n        /* \"#utility.yul\":4500:4533   */\n      tag_79\n      jump\t// in\n    tag_136:\n        /* \"#utility.yul\":4410:4539   */\n      swap2\n      swap1\n      pop\n      jump\t// out\n        /* \"#utility.yul\":4545:4853   */\n    tag_81:\n        /* \"#utility.yul\":4607:4611   */\n      0x00\n        /* \"#utility.yul\":4697:4715   */\n      0xffffffffffffffff\n        /* \"#utility.yul\":4689:4695   */\n      dup3\n        /* \"#utility.yul\":4686:4716   */\n      gt\n        /* \"#utility.yul\":4683:4739   */\n      iszero\n      tag_138\n      jumpi\n        /* \"#utility.yul\":4719:4737   */\n      tag_139\n      tag_78\n      jump\t// in\n    tag_139:\n        /* \"#utility.yul\":4683:4739   */\n    tag_138:\n        /* \"#utility.yul\":4757:4786   */\n      tag_140\n        /* \"#utility.yul\":4779:4785   */\n      dup3\n        /* \"#utility.yul\":4757:4786   */\n      tag_71\n      jump\t// in\n    tag_140:\n        /* \"#utility.yul\":4749:4786   */\n      swap1\n      pop\n        /* \"#utility.yul\":4841:4845   */\n      0x20\n        /* \"#utility.yul\":4835:4839   */\n      dup2\n        /* \"#utility.yul\":4831:4846   */\n      add\n        /* \"#utility.yul\":4823:4846   */\n      swap1\n      pop\n        /* \"#utility.yul\":4545:4853   */\n      swap2\n      swap1\n      pop\n      jump\t// out\n        /* \"#utility.yul\":4859:5005   */\n    tag_82:\n        /* \"#utility.yul\":4956:4962   */\n      dup3\n        /* \"#utility.yul\":4951:4954   */\n      dup2\n        /* \"#utility.yul\":4946:4949   */\n      dup4\n        /* \"#utility.yul\":4933:4963   */\n      calldatacopy\n        /* \"#utility.yul\":4997:4998   */\n      0x00\n        /* \"#utility.yul\":4988:4994   */\n      dup4\n        /* \"#utility.yul\":4983:4986   */\n      dup4\n        /* \"#utility.yul\":4979:4995   */\n      add\n        /* \"#utility.yul\":4972:4999   */\n      mstore\n        /* \"#utility.yul\":4859:5005   */\n      pop\n      pop\n      pop\n      jump\t// out\n        /* \"#utility.yul\":5011:5436   */\n    tag_83:\n        /* \"#utility.yul\":5089:5094   */\n      0x00\n        /* \"#utility.yul\":5114:5180   */\n      tag_143\n        /* \"#utility.yul\":5130:5179   */\n      tag_144\n        /* \"#utility.yul\":5172:5178   */\n      dup5\n        /* \"#utility.yul\":5130:5179   */\n      tag_81\n      jump\t// in\n    tag_144:\n        /* \"#utility.yul\":5114:5180   */\n      tag_80\n      jump\t// in\n    tag_143:\n        /* \"#utility.yul\":5105:5180   */\n      swap1\n      pop\n        /* \"#utility.yul\":5203:5209   */\n      dup3\n        /* \"#utility.yul\":5196:5201   */\n      dup2\n        /* \"#utility.yul\":5189:5210   */\n      mstore\n        /* \"#utility.yul\":5241:5245   */\n      0x20\n        /* \"#utility.yul\":5234:5239   */\n      dup2\n        /* \"#utility.yul\":5230:5246   */\n      add\n        /* \"#utility.yul\":5279:5282   */\n      dup5\n        /* \"#utility.yul\":5270:5276   */\n      dup5\n        /* \"#utility.yul\":5265:5268   */\n      dup5\n        /* \"#utility.yul\":5261:5277   */\n      add\n        /* \"#utility.yul\":5258:5283   */\n      gt\n        /* \"#utility.yul\":5255:5367   */\n      iszero\n      tag_145\n      jumpi\n        /* \"#utility.yul\":5286:5365   */\n      tag_146\n      tag_77\n      jump\t// in\n    tag_146:\n        /* \"#utility.yul\":5255:5367   */\n    tag_145:\n        /* \"#utility.yul\":5376:5430   */\n      tag_147\n        /* \"#utility.yul\":5423:5429   */\n      dup5\n        /* \"#utility.yul\":5418:5421   */\n      dup3\n        /* \"#utility.yul\":5413:5416   */\n      dup6\n        /* \"#utility.yul\":5376:5430   */\n      tag_82\n      jump\t// in\n    tag_147:\n        /* \"#utility.yul\":5095:5436   */\n      pop\n        /* \"#utility.yul\":5011:5436   */\n      swap4\n      swap3\n      pop\n      pop\n      pop\n      jump\t// out\n        /* \"#utility.yul\":5456:5796   */\n    tag_84:\n        /* \"#utility.yul\":5512:5517   */\n      0x00\n        /* \"#utility.yul\":5561:5564   */\n      dup3\n        /* \"#utility.yul\":5554:5558   */\n      0x1f\n        /* \"#utility.yul\":5546:5552   */\n      dup4\n        /* \"#utility.yul\":5542:5559   */\n      add\n        /* \"#utility.yul\":5538:5565   */\n      slt\n        /* \"#utility.yul\":5528:5650   */\n      tag_149\n      jumpi\n        /* \"#utility.yul\":5569:5648   */\n      tag_150\n      tag_76\n      jump\t// in\n    tag_150:\n        /* \"#utility.yul\":5528:5650   */\n    tag_149:\n        /* \"#utility.yul\":5686:5692   */\n      dup2\n        /* \"#utility.yul\":5673:5693   */\n      calldataload\n        /* \"#utility.yul\":5711:5790   */\n      tag_151\n        /* \"#utility.yul\":5786:5789   */\n      dup5\n        /* \"#utility.yul\":5778:5784   */\n      dup3\n        /* \"#utility.yul\":5771:5775   */\n      0x20\n        /* \"#utility.yul\":5763:5769   */\n      dup7\n        /* \"#utility.yul\":5759:5776   */\n      add\n        /* \"#utility.yul\":5711:5790   */\n      tag_83\n      jump\t// in\n    tag_151:\n        /* \"#utility.yul\":5702:5790   */\n      swap2\n      pop\n        /* \"#utility.yul\":5518:5796   */\n      pop\n        /* \"#utility.yul\":5456:5796   */\n      swap3\n      swap2\n      pop\n      pop\n      jump\t// out\n        /* \"#utility.yul\":5802:6311   */\n    tag_38:\n        /* \"#utility.yul\":5871:5877   */\n      0x00\n        /* \"#utility.yul\":5920:5922   */\n      0x20\n        /* \"#utility.yul\":5908:5917   */\n      dup3\n        /* \"#utility.yul\":5899:5906   */\n      dup5\n        /* \"#utility.yul\":5895:5918   */\n      sub\n        /* \"#utility.yul\":5891:5923   */\n      slt\n        /* \"#utility.yul\":5888:6007   */\n      iszero\n      tag_153\n      jumpi\n        /* \"#utility.yul\":5926:6005   */\n      tag_154\n      tag_64\n      jump\t// in\n    tag_154:\n        /* \"#utility.yul\":5888:6007   */\n    tag_153:\n        /* \"#utility.yul\":6074:6075   */\n      0x00\n        /* \"#utility.yul\":6063:6072   */\n      dup3\n        /* \"#utility.yul\":6059:6076   */\n      add\n        /* \"#utility.yul\":6046:6077   */\n      calldataload\n        /* \"#utility.yul\":6104:6122   */\n      0xffffffffffffffff\n        /* \"#utility.yul\":6096:6102   */\n      dup2\n        /* \"#utility.yul\":6093:6123   */\n      gt\n        /* \"#utility.yul\":6090:6207   */\n      iszero\n      tag_155\n      jumpi\n        /* \"#utility.yul\":6126:6205   */\n      tag_156\n      tag_65\n      jump\t// in\n    tag_156:\n        /* \"#utility.yul\":6090:6207   */\n    tag_155:\n        /* \"#utility.yul\":6231:6294   */\n      tag_157\n        /* \"#utility.yul\":6286:6293   */\n      dup5\n        /* \"#utility.yul\":6277:6283   */\n      dup3\n        /* \"#utility.yul\":6266:6275   */\n      dup6\n        /* \"#utility.yul\":6262:6284   */\n      add\n        /* \"#utility.yul\":6231:6294   */\n      tag_84\n      jump\t// in\n    tag_157:\n        /* \"#utility.yul\":6221:6294   */\n      swap2\n      pop\n        /* \"#utility.yul\":6017:6304   */\n      pop\n        /* \"#utility.yul\":5802:6311   */\n      swap3\n      swap2\n      pop\n      pop\n      jump\t// out\n        /* \"#utility.yul\":6317:6497   */\n    tag_85:\n        /* \"#utility.yul\":6365:6442   */\n      0x4e487b7100000000000000000000000000000000000000000000000000000000\n        /* \"#utility.yul\":6362:6363   */\n      0x00\n        /* \"#utility.yul\":6355:6443   */\n      mstore\n        /* \"#utility.yul\":6462:6466   */\n      0x22\n        /* \"#utility.yul\":6459:6460   */\n      0x04\n        /* \"#utility.yul\":6452:6467   */\n      mstore\n        /* \"#utility.yul\":6486:6490   */\n      0x24\n        /* \"#utility.yul\":6483:6484   */\n      0x00\n        /* \"#utility.yul\":6476:6491   */\n      revert\n        /* \"#utility.yul\":6503:6823   */\n    tag_45:\n        /* \"#utility.yul\":6547:6553   */\n      0x00\n        /* \"#utility.yul\":6584:6585   */\n      0x02\n        /* \"#utility.yul\":6578:6582   */\n      dup3\n        /* \"#utility.yul\":6574:6586   */\n      div\n        /* \"#utility.yul\":6564:6586   */\n      swap1\n      pop\n        /* \"#utility.yul\":6631:6632   */\n      0x01\n        /* \"#utility.yul\":6625:6629   */\n      dup3\n        /* \"#utility.yul\":6621:6633   */\n      and\n        /* \"#utility.yul\":6652:6670   */\n      dup1\n        /* \"#utility.yul\":6642:6723   */\n      tag_160\n      jumpi\n        /* \"#utility.yul\":6708:6712   */\n      0x7f\n        /* \"#utility.yul\":6700:6706   */\n      dup3\n        /* \"#utility.yul\":6696:6713   */\n      and\n        /* \"#utility.yul\":6686:6713   */\n      swap2\n      pop\n        /* \"#utility.yul\":6642:6723   */\n    tag_160:\n        /* \"#utility.yul\":6770:6772   */\n      0x20\n        /* \"#utility.yul\":6762:6768   */\n      dup3\n        /* \"#utility.yul\":6759:6773   */\n      lt\n        /* \"#utility.yul\":6739:6757   */\n      dup2\n        /* \"#utility.yul\":6736:6774   */\n      sub\n        /* \"#utility.yul\":6733:6817   */\n      tag_161\n      jumpi\n        /* \"#utility.yul\":6789:6807   */\n      tag_162\n      tag_85\n      jump\t// in\n    tag_162:\n        /* \"#utility.yul\":6733:6817   */\n    tag_161:\n        /* \"#utility.yul\":6554:6823   */\n      pop\n        /* \"#utility.yul\":6503:6823   */\n      swap2\n      swap1\n      pop\n      jump\t// out\n\n    auxdata: 0xa264697066735822122087c0ce0c0f0dac042ea6366a99ee1301a7735c3debc099c6dce0d4875607652064736f6c63430008110033\n}\n",
				"bytecode": {
					"linkReferences": {},
					"object": "60806040526040518060400160405280600381526020017f6162630000000000000000000000000000000000000000000000000000000000815250600290816200004a919062000328565b506040518060400160405280600381526020017f61626300000000000000000000000000000000000000000000000000000000008152506003908162000091919062000474565b503480156200009f57600080fd5b5060646000819055506200055b565b600081519050919050565b7f4e487b7100000000000000000000000000000000000000000000000000000000600052604160045260246000fd5b7f4e487b7100000000000000000000000000000000000000000000000000000000600052602260045260246000fd5b600060028204905060018216806200013057607f821691505b602082108103620001465762000145620000e8565b5b50919050565b60008190508160005260206000209050919050565b60006020601f8301049050919050565b600082821b905092915050565b600060088302620001b07fffffffffffffffffffffffffffffffffffffffffffffffffffffffffffffffff8262000171565b620001bc868362000171565b95508019841693508086168417925050509392505050565b6000819050919050565b6000819050919050565b60006200020962000203620001fd84620001d4565b620001de565b620001d4565b9050919050565b6000819050919050565b6200022583620001e8565b6200023d620002348262000210565b8484546200017e565b825550505050565b600090565b6200025462000245565b620002618184846200021a565b505050565b5b8181101562000289576200027d6000826200024a565b60018101905062000267565b5050565b601f821115620002d857620002a2816200014c565b620002ad8462000161565b81016020851015620002bd578190505b620002d5620002cc8562000161565b83018262000266565b50505b505050565b600082821c905092915050565b6000620002fd60001984600802620002dd565b1980831691505092915050565b6000620003188383620002ea565b9150826002028217905092915050565b6200033382620000ae565b67ffffffffffffffff8111156200034f576200034e620000b9565b5b6200035b825462000117565b620003688282856200028d565b600060209050601f831160018114620003a057600084156200038b578287015190505b6200039785826200030a565b86555062000407565b601f198416620003b0866200014c565b60005b82811015620003da57848901518255600182019150602085019450602081019050620003b3565b86831015620003fa5784890151620003f6601f891682620002ea565b8355505b6001600288020188555050505b505050505050565b60008190508160005260206000209050919050565b601f8211156200046f5762000439816200040f565b620004448462000161565b8101602085101562000454578190505b6200046c620004638562000161565b83018262000266565b50505b505050565b6200047f82620000ae565b67ffffffffffffffff8111156200049b576200049a620000b9565b5b620004a7825462000117565b620004b482828562000424565b600060209050601f831160018114620004ec5760008415620004d7578287015190505b620004e385826200030a565b86555062000553565b601f198416620004fc866200040f565b60005b828110156200052657848901518255600182019150602085019450602081019050620004ff565b8683101562000546578489015162000542601f891682620002ea565b8355505b6001600288020188555050505b505050505050565b610785806200056b6000396000f3fe608060405234801561001057600080fd5b50600436106100885760003560e01c80636057361d1161005b5780636057361d146100ef5780636cc014de1461010b578063ee49500214610129578063ffac70051461014757610088565b8063209652551461008d5780632e64cec1146100ab5780633f2273b3146100c957806355241077146100d3575b600080fd5b610095610177565b6040516100a291906103c0565b60405180910390f35b6100b3610181565b6040516100c091906103c0565b60405180910390f35b6100d161018a565b005b6100ed60048036038101906100e8919061041b565b610249565b005b6101096004803603810190610104919061041b565b610253565b005b61011361025d565b60405161012091906104d8565b60405180910390f35b6101316102eb565b60405161013e919061054f565b60405180910390f35b610161600480360381019061015c91906106a6565b610379565b60405161016e91906103c0565b60405180910390f35b6000600154905090565b60008054905090565b6002808054806101999061071e565b80601f81036101b85783600052602060002060ff1984168155603f9350505b506002820183556001810192505050600190038154600116156101ea5790600052602060002090602091828204019190065b7f780000000000000000000000000000000000000000000000000000000000000090919091601f036101000a81548160ff021916907f010000000000000000000000000000000000000000000000000000000000000084040217905550565b8060018190555050565b8060008190555050565b6003805461026a9061071e565b80601f01602080910402602001604051908101604052809291908181526020018280546102969061071e565b80156102e35780601f106102b8576101008083540402835291602001916102e3565b820191906000526020600020905b8154815290600101906020018083116102c657829003601f168201915b505050505081565b600280546102f89061071e565b80601f01602080910402602001604051908101604052809291908181526020018280546103249061071e565b80156103715780601f1061034657610100808354040283529160200191610371565b820191906000526020600020905b81548152906001019060200180831161035457829003601f168201915b505050505081565b6004818051602081018201805184825260208301602085012081835280955050505050506000915090505481565b6000819050919050565b6103ba816103a7565b82525050565b60006020820190506103d560008301846103b1565b92915050565b6000604051905090565b600080fd5b600080fd5b6103f8816103a7565b811461040357600080fd5b50565b600081359050610415816103ef565b92915050565b600060208284031215610431576104306103e5565b5b600061043f84828501610406565b91505092915050565b600081519050919050565b600082825260208201905092915050565b60005b83811015610482578082015181840152602081019050610467565b60008484015250505050565b6000601f19601f8301169050919050565b60006104aa82610448565b6104b48185610453565b93506104c4818560208601610464565b6104cd8161048e565b840191505092915050565b600060208201905081810360008301526104f2818461049f565b905092915050565b600081519050919050565b600082825260208201905092915050565b6000610521826104fa565b61052b8185610505565b935061053b818560208601610464565b6105448161048e565b840191505092915050565b600060208201905081810360008301526105698184610516565b905092915050565b600080fd5b600080fd5b7f4e487b7100000000000000000000000000000000000000000000000000000000600052604160045260246000fd5b6105b38261048e565b810181811067ffffffffffffffff821117156105d2576105d161057b565b5b80604052505050565b60006105e56103db565b90506105f182826105aa565b919050565b600067ffffffffffffffff8211156106115761061061057b565b5b61061a8261048e565b9050602081019050919050565b82818337600083830152505050565b6000610649610644846105f6565b6105db565b90508281526020810184848401111561066557610664610576565b5b610670848285610627565b509392505050565b600082601f83011261068d5761068c610571565b5b813561069d848260208601610636565b91505092915050565b6000602082840312156106bc576106bb6103e5565b5b600082013567ffffffffffffffff8111156106da576106d96103ea565b5b6106e684828501610678565b91505092915050565b7f4e487b7100000000000000000000000000000000000000000000000000000000600052602260045260246000fd5b6000600282049050600182168061073657607f821691505b602082108103610749576107486106ef565b5b5091905056fea264697066735822122087c0ce0c0f0dac042ea6366a99ee1301a7735c3debc099c6dce0d4875607652064736f6c63430008110033",
					"opcodes": "PUSH1 0x80 PUSH1 0x40 MSTORE PUSH1 0x40 MLOAD DUP1 PUSH1 0x40 ADD PUSH1 0x40 MSTORE DUP1 PUSH1 0x3 DUP2 MSTORE PUSH1 0x20 ADD PUSH32 0x6162630000000000000000000000000000000000000000000000000000000000 DUP2 MSTORE POP PUSH1 0x2 SWAP1 DUP2 PUSH3 0x4A SWAP2 SWAP1 PUSH3 0x328 JUMP JUMPDEST POP PUSH1 0x40 MLOAD DUP1 PUSH1 0x40 ADD PUSH1 0x40 MSTORE DUP1 PUSH1 0x3 DUP2 MSTORE PUSH1 0x20 ADD PUSH32 0x6162630000000000000000000000000000000000000000000000000000000000 DUP2 MSTORE POP PUSH1 0x3 SWAP1 DUP2 PUSH3 0x91 SWAP2 SWAP1 PUSH3 0x474 JUMP JUMPDEST POP CALLVALUE DUP1 ISZERO PUSH3 0x9F JUMPI PUSH1 0x0 DUP1 REVERT JUMPDEST POP PUSH1 0x64 PUSH1 0x0 DUP2 SWAP1 SSTORE POP PUSH3 0x55B JUMP JUMPDEST PUSH1 0x0 DUP2 MLOAD SWAP1 POP SWAP2 SWAP1 POP JUMP JUMPDEST PUSH32 0x4E487B7100000000000000000000000000000000000000000000000000000000 PUSH1 0x0 MSTORE PUSH1 0x41 PUSH1 0x4 MSTORE PUSH1 0x24 PUSH1 0x0 REVERT JUMPDEST PUSH32 0x4E487B7100000000000000000000000000000000000000000000000000000000 PUSH1 0x0 MSTORE PUSH1 0x22 PUSH1 0x4 MSTORE PUSH1 0x24 PUSH1 0x0 REVERT JUMPDEST PUSH1 0x0 PUSH1 0x2 DUP3 DIV SWAP1 POP PUSH1 0x1 DUP3 AND DUP1 PUSH3 0x130 JUMPI PUSH1 0x7F DUP3 AND SWAP2 POP JUMPDEST PUSH1 0x20 DUP3 LT DUP2 SUB PUSH3 0x146 JUMPI PUSH3 0x145 PUSH3 0xE8 JUMP JUMPDEST JUMPDEST POP SWAP2 SWAP1 POP JUMP JUMPDEST PUSH1 0x0 DUP2 SWAP1 POP DUP2 PUSH1 0x0 MSTORE PUSH1 0x20 PUSH1 0x0 KECCAK256 SWAP1 POP SWAP2 SWAP1 POP JUMP JUMPDEST PUSH1 0x0 PUSH1 0x20 PUSH1 0x1F DUP4 ADD DIV SWAP1 POP SWAP2 SWAP1 POP JUMP JUMPDEST PUSH1 0x0 DUP3 DUP3 SHL SWAP1 POP SWAP3 SWAP2 POP POP JUMP JUMPDEST PUSH1 0x0 PUSH1 0x8 DUP4 MUL PUSH3 0x1B0 PUSH32 0xFFFFFFFFFFFFFFFFFFFFFFFFFFFFFFFFFFFFFFFFFFFFFFFFFFFFFFFFFFFFFFFF DUP3 PUSH3 0x171 JUMP JUMPDEST PUSH3 0x1BC DUP7 DUP4 PUSH3 0x171 JUMP JUMPDEST SWAP6 POP DUP1 NOT DUP5 AND SWAP4 POP DUP1 DUP7 AND DUP5 OR SWAP3 POP POP POP SWAP4 SWAP3 POP POP POP JUMP JUMPDEST PUSH1 0x0 DUP2 SWAP1 POP SWAP2 SWAP1 POP JUMP JUMPDEST PUSH1 0x0 DUP2 SWAP1 POP SWAP2 SWAP1 POP JUMP JUMPDEST PUSH1 0x0 PUSH3 0x209 PUSH3 0x203 PUSH3 0x1FD DUP5 PUSH3 0x1D4 JUMP JUMPDEST PUSH3 0x1DE JUMP JUMPDEST PUSH3 0x1D4 JUMP JUMPDEST SWAP1 POP SWAP2 SWAP1 POP JUMP JUMPDEST PUSH1 0x0 DUP2 SWAP1 POP SWAP2 SWAP1 POP JUMP JUMPDEST PUSH3 0x225 DUP4 PUSH3 0x1E8 JUMP JUMPDEST PUSH3 0x23D PUSH3 0x234 DUP3 PUSH3 0x210 JUMP JUMPDEST DUP5 DUP5 SLOAD PUSH3 0x17E JUMP JUMPDEST DUP3 SSTORE POP POP POP POP JUMP JUMPDEST PUSH1 0x0 SWAP1 JUMP JUMPDEST PUSH3 0x254 PUSH3 0x245 JUMP JUMPDEST PUSH3 0x261 DUP2 DUP5 DUP5 PUSH3 0x21A JUMP JUMPDEST POP POP POP JUMP JUMPDEST JUMPDEST DUP2 DUP2 LT ISZERO PUSH3 0x289 JUMPI PUSH3 0x27D PUSH1 0x0 DUP3 PUSH3 0x24A JUMP JUMPDEST PUSH1 0x1 DUP2 ADD SWAP1 POP PUSH3 0x267 JUMP JUMPDEST POP POP JUMP JUMPDEST PUSH1 0x1F DUP3 GT ISZERO PUSH3 0x2D8 JUMPI PUSH3 0x2A2 DUP2 PUSH3 0x14C JUMP JUMPDEST PUSH3 0x2AD DUP5 PUSH3 0x161 JUMP JUMPDEST DUP2 ADD PUSH1 0x20 DUP6 LT ISZERO PUSH3 0x2BD JUMPI DUP2 SWAP1 POP JUMPDEST PUSH3 0x2D5 PUSH3 0x2CC DUP6 PUSH3 0x161 JUMP JUMPDEST DUP4 ADD DUP3 PUSH3 0x266 JUMP JUMPDEST POP POP JUMPDEST POP POP POP JUMP JUMPDEST PUSH1 0x0 DUP3 DUP3 SHR SWAP1 POP SWAP3 SWAP2 POP POP JUMP JUMPDEST PUSH1 0x0 PUSH3 0x2FD PUSH1 0x0 NOT DUP5 PUSH1 0x8 MUL PUSH3 0x2DD JUMP JUMPDEST NOT DUP1 DUP4 AND SWAP2 POP POP SWAP3 SWAP2 POP POP JUMP JUMPDEST PUSH1 0x0 PUSH3 0x318 DUP4 DUP4 PUSH3 0x2EA JUMP JUMPDEST SWAP2 POP DUP3 PUSH1 0x2 MUL DUP3 OR SWAP1 POP SWAP3 SWAP2 POP POP JUMP JUMPDEST PUSH3 0x333 DUP3 PUSH3 0xAE JUMP JUMPDEST PUSH8 0xFFFFFFFFFFFFFFFF DUP2 GT ISZERO PUSH3 0x34F JUMPI PUSH3 0x34E PUSH3 0xB9 JUMP JUMPDEST JUMPDEST PUSH3 0x35B DUP3 SLOAD PUSH3 0x117 JUMP JUMPDEST PUSH3 0x368 DUP3 DUP3 DUP6 PUSH3 0x28D JUMP JUMPDEST PUSH1 0x0 PUSH1 0x20 SWAP1 POP PUSH1 0x1F DUP4 GT PUSH1 0x1 DUP2 EQ PUSH3 0x3A0 JUMPI PUSH1 0x0 DUP5 ISZERO PUSH3 0x38B JUMPI DUP3 DUP8 ADD MLOAD SWAP1 POP JUMPDEST PUSH3 0x397 DUP6 DUP3 PUSH3 0x30A JUMP JUMPDEST DUP7 SSTORE POP PUSH3 0x407 JUMP JUMPDEST PUSH1 0x1F NOT DUP5 AND PUSH3 0x3B0 DUP7 PUSH3 0x14C JUMP JUMPDEST PUSH1 0x0 JUMPDEST DUP3 DUP2 LT ISZERO PUSH3 0x3DA JUMPI DUP5 DUP10 ADD MLOAD DUP3 SSTORE PUSH1 0x1 DUP3 ADD SWAP2 POP PUSH1 0x20 DUP6 ADD SWAP5 POP PUSH1 0x20 DUP2 ADD SWAP1 POP PUSH3 0x3B3 JUMP JUMPDEST DUP7 DUP4 LT ISZERO PUSH3 0x3FA JUMPI DUP5 DUP10 ADD MLOAD PUSH3 0x3F6 PUSH1 0x1F DUP10 AND DUP3 PUSH3 0x2EA JUMP JUMPDEST DUP4 SSTORE POP JUMPDEST PUSH1 0x1 PUSH1 0x2 DUP9 MUL ADD DUP9 SSTORE POP POP POP JUMPDEST POP POP POP POP POP POP JUMP JUMPDEST PUSH1 0x0 DUP2 SWAP1 POP DUP2 PUSH1 0x0 MSTORE PUSH1 0x20 PUSH1 0x0 KECCAK256 SWAP1 POP SWAP2 SWAP1 POP JUMP JUMPDEST PUSH1 0x1F DUP3 GT ISZERO PUSH3 0x46F JUMPI PUSH3 0x439 DUP2 PUSH3 0x40F JUMP JUMPDEST PUSH3 0x444 DUP5 PUSH3 0x161 JUMP JUMPDEST DUP2 ADD PUSH1 0x20 DUP6 LT ISZERO PUSH3 0x454 JUMPI DUP2 SWAP1 POP JUMPDEST PUSH3 0x46C PUSH3 0x463 DUP6 PUSH3 0x161 JUMP JUMPDEST DUP4 ADD DUP3 PUSH3 0x266 JUMP JUMPDEST POP POP JUMPDEST POP POP POP JUMP JUMPDEST PUSH3 0x47F DUP3 PUSH3 0xAE JUMP JUMPDEST PUSH8 0xFFFFFFFFFFFFFFFF DUP2 GT ISZERO PUSH3 0x49B JUMPI PUSH3 0x49A PUSH3 0xB9 JUMP JUMPDEST JUMPDEST PUSH3 0x4A7 DUP3 SLOAD PUSH3 0x117 JUMP JUMPDEST PUSH3 0x4B4 DUP3 DUP3 DUP6 PUSH3 0x424 JUMP JUMPDEST PUSH1 0x0 PUSH1 0x20 SWAP1 POP PUSH1 0x1F DUP4 GT PUSH1 0x1 DUP2 EQ PUSH3 0x4EC JUMPI PUSH1 0x0 DUP5 ISZERO PUSH3 0x4D7 JUMPI DUP3 DUP8 ADD MLOAD SWAP1 POP JUMPDEST PUSH3 0x4E3 DUP6 DUP3 PUSH3 0x30A JUMP JUMPDEST DUP7 SSTORE POP PUSH3 0x553 JUMP JUMPDEST PUSH1 0x1F NOT DUP5 AND PUSH3 0x4FC DUP7 PUSH3 0x40F JUMP JUMPDEST PUSH1 0x0 JUMPDEST DUP3 DUP2 LT ISZERO PUSH3 0x526 JUMPI DUP5 DUP10 ADD MLOAD DUP3 SSTORE PUSH1 0x1 DUP3 ADD SWAP2 POP PUSH1 0x20 DUP6 ADD SWAP5 POP PUSH1 0x20 DUP2 ADD SWAP1 POP PUSH3 0x4FF JUMP JUMPDEST DUP7 DUP4 LT ISZERO PUSH3 0x546 JUMPI DUP5 DUP10 ADD MLOAD PUSH3 0x542 PUSH1 0x1F DUP10 AND DUP3 PUSH3 0x2EA JUMP JUMPDEST DUP4 SSTORE POP JUMPDEST PUSH1 0x1 PUSH1 0x2 DUP9 MUL ADD DUP9 SSTORE POP POP POP JUMPDEST POP POP POP POP POP POP JUMP JUMPDEST PUSH2 0x785 DUP1 PUSH3 0x56B PUSH1 0x0 CODECOPY PUSH1 0x0 RETURN INVALID PUSH1 0x80 PUSH1 0x40 MSTORE CALLVALUE DUP1 ISZERO PUSH2 0x10 JUMPI PUSH1 0x0 DUP1 REVERT JUMPDEST POP PUSH1 0x4 CALLDATASIZE LT PUSH2 0x88 JUMPI PUSH1 0x0 CALLDATALOAD PUSH1 0xE0 SHR DUP1 PUSH4 0x6057361D GT PUSH2 0x5B JUMPI DUP1 PUSH4 0x6057361D EQ PUSH2 0xEF JUMPI DUP1 PUSH4 0x6CC014DE EQ PUSH2 0x10B JUMPI DUP1 PUSH4 0xEE495002 EQ PUSH2 0x129 JUMPI DUP1 PUSH4 0xFFAC7005 EQ PUSH2 0x147 JUMPI PUSH2 0x88 JUMP JUMPDEST DUP1 PUSH4 0x20965255 EQ PUSH2 0x8D JUMPI DUP1 PUSH4 0x2E64CEC1 EQ PUSH2 0xAB JUMPI DUP1 PUSH4 0x3F2273B3 EQ PUSH2 0xC9 JUMPI DUP1 PUSH4 0x55241077 EQ PUSH2 0xD3 JUMPI JUMPDEST PUSH1 0x0 DUP1 REVERT JUMPDEST PUSH2 0x95 PUSH2 0x177 JUMP JUMPDEST PUSH1 0x40 MLOAD PUSH2 0xA2 SWAP2 SWAP1 PUSH2 0x3C0 JUMP JUMPDEST PUSH1 0x40 MLOAD DUP1 SWAP2 SUB SWAP1 RETURN JUMPDEST PUSH2 0xB3 PUSH2 0x181 JUMP JUMPDEST PUSH1 0x40 MLOAD PUSH2 0xC0 SWAP2 SWAP1 PUSH2 0x3C0 JUMP JUMPDEST PUSH1 0x40 MLOAD DUP1 SWAP2 SUB SWAP1 RETURN JUMPDEST PUSH2 0xD1 PUSH2 0x18A JUMP JUMPDEST STOP JUMPDEST PUSH2 0xED PUSH1 0x4 DUP1 CALLDATASIZE SUB DUP2 ADD SWAP1 PUSH2 0xE8 SWAP2 SWAP1 PUSH2 0x41B JUMP JUMPDEST PUSH2 0x249 JUMP JUMPDEST STOP JUMPDEST PUSH2 0x109 PUSH1 0x4 DUP1 CALLDATASIZE SUB DUP2 ADD SWAP1 PUSH2 0x104 SWAP2 SWAP1 PUSH2 0x41B JUMP JUMPDEST PUSH2 0x253 JUMP JUMPDEST STOP JUMPDEST PUSH2 0x113 PUSH2 0x25D JUMP JUMPDEST PUSH1 0x40 MLOAD PUSH2 0x120 SWAP2 SWAP1 PUSH2 0x4D8 JUMP JUMPDEST PUSH1 0x40 MLOAD DUP1 SWAP2 SUB SWAP1 RETURN JUMPDEST PUSH2 0x131 PUSH2 0x2EB JUMP JUMPDEST PUSH1 0x40 MLOAD PUSH2 0x13E SWAP2 SWAP1 PUSH2 0x54F JUMP JUMPDEST PUSH1 0x40 MLOAD DUP1 SWAP2 SUB SWAP1 RETURN JUMPDEST PUSH2 0x161 PUSH1 0x4 DUP1 CALLDATASIZE SUB DUP2 ADD SWAP1 PUSH2 0x15C SWAP2 SWAP1 PUSH2 0x6A6 JUMP JUMPDEST PUSH2 0x379 JUMP JUMPDEST PUSH1 0x40 MLOAD PUSH2 0x16E SWAP2 SWAP1 PUSH2 0x3C0 JUMP JUMPDEST PUSH1 0x40 MLOAD DUP1 SWAP2 SUB SWAP1 RETURN JUMPDEST PUSH1 0x0 PUSH1 0x1 SLOAD SWAP1 POP SWAP1 JUMP JUMPDEST PUSH1 0x0 DUP1 SLOAD SWAP1 POP SWAP1 JUMP JUMPDEST PUSH1 0x2 DUP1 DUP1 SLOAD DUP1 PUSH2 0x199 SWAP1 PUSH2 0x71E JUMP JUMPDEST DUP1 PUSH1 0x1F DUP2 SUB PUSH2 0x1B8 JUMPI DUP4 PUSH1 0x0 MSTORE PUSH1 0x20 PUSH1 0x0 KECCAK256 PUSH1 0xFF NOT DUP5 AND DUP2 SSTORE PUSH1 0x3F SWAP4 POP POP JUMPDEST POP PUSH1 0x2 DUP3 ADD DUP4 SSTORE PUSH1 0x1 DUP2 ADD SWAP3 POP POP POP PUSH1 0x1 SWAP1 SUB DUP2 SLOAD PUSH1 0x1 AND ISZERO PUSH2 0x1EA JUMPI SWAP1 PUSH1 0x0 MSTORE PUSH1 0x20 PUSH1 0x0 KECCAK256 SWAP1 PUSH1 0x20 SWAP2 DUP3 DUP3 DIV ADD SWAP2 SWAP1 MOD JUMPDEST PUSH32 0x7800000000000000000000000000000000000000000000000000000000000000 SWAP1 SWAP2 SWAP1 SWAP2 PUSH1 0x1F SUB PUSH2 0x100 EXP DUP2 SLOAD DUP2 PUSH1 0xFF MUL NOT AND SWAP1 PUSH32 0x100000000000000000000000000000000000000000000000000000000000000 DUP5 DIV MUL OR SWAP1 SSTORE POP JUMP JUMPDEST DUP1 PUSH1 0x1 DUP2 SWAP1 SSTORE POP POP JUMP JUMPDEST DUP1 PUSH1 0x0 DUP2 SWAP1 SSTORE POP POP JUMP JUMPDEST PUSH1 0x3 DUP1 SLOAD PUSH2 0x26A SWAP1 PUSH2 0x71E JUMP JUMPDEST DUP1 PUSH1 0x1F ADD PUSH1 0x20 DUP1 SWAP2 DIV MUL PUSH1 0x20 ADD PUSH1 0x40 MLOAD SWAP1 DUP2 ADD PUSH1 0x40 MSTORE DUP1 SWAP3 SWAP2 SWAP1 DUP2 DUP2 MSTORE PUSH1 0x20 ADD DUP3 DUP1 SLOAD PUSH2 0x296 SWAP1 PUSH2 0x71E JUMP JUMPDEST DUP1 ISZERO PUSH2 0x2E3 JUMPI DUP1 PUSH1 0x1F LT PUSH2 0x2B8 JUMPI PUSH2 0x100 DUP1 DUP4 SLOAD DIV MUL DUP4 MSTORE SWAP2 PUSH1 0x20 ADD SWAP2 PUSH2 0x2E3 JUMP JUMPDEST DUP3 ADD SWAP2 SWAP1 PUSH1 0x0 MSTORE PUSH1 0x20 PUSH1 0x0 KECCAK256 SWAP1 JUMPDEST DUP2 SLOAD DUP2 MSTORE SWAP1 PUSH1 0x1 ADD SWAP1 PUSH1 0x20 ADD DUP1 DUP4 GT PUSH2 0x2C6 JUMPI DUP3 SWAP1 SUB PUSH1 0x1F AND DUP3 ADD SWAP2 JUMPDEST POP POP POP POP POP DUP2 JUMP JUMPDEST PUSH1 0x2 DUP1 SLOAD PUSH2 0x2F8 SWAP1 PUSH2 0x71E JUMP JUMPDEST DUP1 PUSH1 0x1F ADD PUSH1 0x20 DUP1 SWAP2 DIV MUL PUSH1 0x20 ADD PUSH1 0x40 MLOAD SWAP1 DUP2 ADD PUSH1 0x40 MSTORE DUP1 SWAP3 SWAP2 SWAP1 DUP2 DUP2 MSTORE PUSH1 0x20 ADD DUP3 DUP1 SLOAD PUSH2 0x324 SWAP1 PUSH2 0x71E JUMP JUMPDEST DUP1 ISZERO PUSH2 0x371 JUMPI DUP1 PUSH1 0x1F LT PUSH2 0x346 JUMPI PUSH2 0x100 DUP1 DUP4 SLOAD DIV MUL DUP4 MSTORE SWAP2 PUSH1 0x20 ADD SWAP2 PUSH2 0x371 JUMP JUMPDEST DUP3 ADD SWAP2 SWAP1 PUSH1 0x0 MSTORE PUSH1 0x20 PUSH1 0x0 KECCAK256 SWAP1 JUMPDEST DUP2 SLOAD DUP2 MSTORE SWAP1 PUSH1 0x1 ADD SWAP1 PUSH1 0x20 ADD DUP1 DUP4 GT PUSH2 0x354 JUMPI DUP3 SWAP1 SUB PUSH1 0x1F AND DUP3 ADD SWAP2 JUMPDEST POP POP POP POP POP DUP2 JUMP JUMPDEST PUSH1 0x4 DUP2 DUP1 MLOAD PUSH1 0x20 DUP2 ADD DUP3 ADD DUP1 MLOAD DUP5 DUP3 MSTORE PUSH1 0x20 DUP4 ADD PUSH1 0x20 DUP6 ADD KECCAK256 DUP2 DUP4 MSTORE DUP1 SWAP6 POP POP POP POP POP POP PUSH1 0x0 SWAP2 POP SWAP1 POP SLOAD DUP2 JUMP JUMPDEST PUSH1 0x0 DUP2 SWAP1 POP SWAP2 SWAP1 POP JUMP JUMPDEST PUSH2 0x3BA DUP2 PUSH2 0x3A7 JUMP JUMPDEST DUP3 MSTORE POP POP JUMP JUMPDEST PUSH1 0x0 PUSH1 0x20 DUP3 ADD SWAP1 POP PUSH2 0x3D5 PUSH1 0x0 DUP4 ADD DUP5 PUSH2 0x3B1 JUMP JUMPDEST SWAP3 SWAP2 POP POP JUMP JUMPDEST PUSH1 0x0 PUSH1 0x40 MLOAD SWAP1 POP SWAP1 JUMP JUMPDEST PUSH1 0x0 DUP1 REVERT JUMPDEST PUSH1 0x0 DUP1 REVERT JUMPDEST PUSH2 0x3F8 DUP2 PUSH2 0x3A7 JUMP JUMPDEST DUP2 EQ PUSH2 0x403 JUMPI PUSH1 0x0 DUP1 REVERT JUMPDEST POP JUMP JUMPDEST PUSH1 0x0 DUP2 CALLDATALOAD SWAP1 POP PUSH2 0x415 DUP2 PUSH2 0x3EF JUMP JUMPDEST SWAP3 SWAP2 POP POP JUMP JUMPDEST PUSH1 0x0 PUSH1 0x20 DUP3 DUP5 SUB SLT ISZERO PUSH2 0x431 JUMPI PUSH2 0x430 PUSH2 0x3E5 JUMP JUMPDEST JUMPDEST PUSH1 0x0 PUSH2 0x43F DUP5 DUP3 DUP6 ADD PUSH2 0x406 JUMP JUMPDEST SWAP2 POP POP SWAP3 SWAP2 POP POP JUMP JUMPDEST PUSH1 0x0 DUP2 MLOAD SWAP1 POP SWAP2 SWAP1 POP JUMP JUMPDEST PUSH1 0x0 DUP3 DUP3 MSTORE PUSH1 0x20 DUP3 ADD SWAP1 POP SWAP3 SWAP2 POP POP JUMP JUMPDEST PUSH1 0x0 JUMPDEST DUP4 DUP2 LT ISZERO PUSH2 0x482 JUMPI DUP1 DUP3 ADD MLOAD DUP2 DUP5 ADD MSTORE PUSH1 0x20 DUP2 ADD SWAP1 POP PUSH2 0x467 JUMP JUMPDEST PUSH1 0x0 DUP5 DUP5 ADD MSTORE POP POP POP POP JUMP JUMPDEST PUSH1 0x0 PUSH1 0x1F NOT PUSH1 0x1F DUP4 ADD AND SWAP1 POP SWAP2 SWAP1 POP JUMP JUMPDEST PUSH1 0x0 PUSH2 0x4AA DUP3 PUSH2 0x448 JUMP JUMPDEST PUSH2 0x4B4 DUP2 DUP6 PUSH2 0x453 JUMP JUMPDEST SWAP4 POP PUSH2 0x4C4 DUP2 DUP6 PUSH1 0x20 DUP7 ADD PUSH2 0x464 JUMP JUMPDEST PUSH2 0x4CD DUP2 PUSH2 0x48E JUMP JUMPDEST DUP5 ADD SWAP2 POP POP SWAP3 SWAP2 POP POP JUMP JUMPDEST PUSH1 0x0 PUSH1 0x20 DUP3 ADD SWAP1 POP DUP2 DUP2 SUB PUSH1 0x0 DUP4 ADD MSTORE PUSH2 0x4F2 DUP2 DUP5 PUSH2 0x49F JUMP JUMPDEST SWAP1 POP SWAP3 SWAP2 POP POP JUMP JUMPDEST PUSH1 0x0 DUP2 MLOAD SWAP1 POP SWAP2 SWAP1 POP JUMP JUMPDEST PUSH1 0x0 DUP3 DUP3 MSTORE PUSH1 0x20 DUP3 ADD SWAP1 POP SWAP3 SWAP2 POP POP JUMP JUMPDEST PUSH1 0x0 PUSH2 0x521 DUP3 PUSH2 0x4FA JUMP JUMPDEST PUSH2 0x52B DUP2 DUP6 PUSH2 0x505 JUMP JUMPDEST SWAP4 POP PUSH2 0x53B DUP2 DUP6 PUSH1 0x20 DUP7 ADD PUSH2 0x464 JUMP JUMPDEST PUSH2 0x544 DUP2 PUSH2 0x48E JUMP JUMPDEST DUP5 ADD SWAP2 POP POP SWAP3 SWAP2 POP POP JUMP JUMPDEST PUSH1 0x0 PUSH1 0x20 DUP3 ADD SWAP1 POP DUP2 DUP2 SUB PUSH1 0x0 DUP4 ADD MSTORE PUSH2 0x569 DUP2 DUP5 PUSH2 0x516 JUMP JUMPDEST SWAP1 POP SWAP3 SWAP2 POP POP JUMP JUMPDEST PUSH1 0x0 DUP1 REVERT JUMPDEST PUSH1 0x0 DUP1 REVERT JUMPDEST PUSH32 0x4E487B7100000000000000000000000000000000000000000000000000000000 PUSH1 0x0 MSTORE PUSH1 0x41 PUSH1 0x4 MSTORE PUSH1 0x24 PUSH1 0x0 REVERT JUMPDEST PUSH2 0x5B3 DUP3 PUSH2 0x48E JUMP JUMPDEST DUP2 ADD DUP2 DUP2 LT PUSH8 0xFFFFFFFFFFFFFFFF DUP3 GT OR ISZERO PUSH2 0x5D2 JUMPI PUSH2 0x5D1 PUSH2 0x57B JUMP JUMPDEST JUMPDEST DUP1 PUSH1 0x40 MSTORE POP POP POP JUMP JUMPDEST PUSH1 0x0 PUSH2 0x5E5 PUSH2 0x3DB JUMP JUMPDEST SWAP1 POP PUSH2 0x5F1 DUP3 DUP3 PUSH2 0x5AA JUMP JUMPDEST SWAP2 SWAP1 POP JUMP JUMPDEST PUSH1 0x0 PUSH8 0xFFFFFFFFFFFFFFFF DUP3 GT ISZERO PUSH2 0x611 JUMPI PUSH2 0x610 PUSH2 0x57B JUMP JUMPDEST JUMPDEST PUSH2 0x61A DUP3 PUSH2 0x48E JUMP JUMPDEST SWAP1 POP PUSH1 0x20 DUP2 ADD SWAP1 POP SWAP2 SWAP1 POP JUMP JUMPDEST DUP3 DUP2 DUP4 CALLDATACOPY PUSH1 0x0 DUP4 DUP4 ADD MSTORE POP POP POP JUMP JUMPDEST PUSH1 0x0 PUSH2 0x649 PUSH2 0x644 DUP5 PUSH2 0x5F6 JUMP JUMPDEST PUSH2 0x5DB JUMP JUMPDEST SWAP1 POP DUP3 DUP2 MSTORE PUSH1 0x20 DUP2 ADD DUP5 DUP5 DUP5 ADD GT ISZERO PUSH2 0x665 JUMPI PUSH2 0x664 PUSH2 0x576 JUMP JUMPDEST JUMPDEST PUSH2 0x670 DUP5 DUP3 DUP6 PUSH2 0x627 JUMP JUMPDEST POP SWAP4 SWAP3 POP POP POP JUMP JUMPDEST PUSH1 0x0 DUP3 PUSH1 0x1F DUP4 ADD SLT PUSH2 0x68D JUMPI PUSH2 0x68C PUSH2 0x571 JUMP JUMPDEST JUMPDEST DUP2 CALLDATALOAD PUSH2 0x69D DUP5 DUP3 PUSH1 0x20 DUP7 ADD PUSH2 0x636 JUMP JUMPDEST SWAP2 POP POP SWAP3 SWAP2 POP POP JUMP JUMPDEST PUSH1 0x0 PUSH1 0x20 DUP3 DUP5 SUB SLT ISZERO PUSH2 0x6BC JUMPI PUSH2 0x6BB PUSH2 0x3E5 JUMP JUMPDEST JUMPDEST PUSH1 0x0 DUP3 ADD CALLDATALOAD PUSH8 0xFFFFFFFFFFFFFFFF DUP2 GT ISZERO PUSH2 0x6DA JUMPI PUSH2 0x6D9 PUSH2 0x3EA JUMP JUMPDEST JUMPDEST PUSH2 0x6E6 DUP5 DUP3 DUP6 ADD PUSH2 0x678 JUMP JUMPDEST SWAP2 POP POP SWAP3 SWAP2 POP POP JUMP JUMPDEST PUSH32 0x4E487B7100000000000000000000000000000000000000000000000000000000 PUSH1 0x0 MSTORE PUSH1 0x22 PUSH1 0x4 MSTORE PUSH1 0x24 PUSH1 0x0 REVERT JUMPDEST PUSH1 0x0 PUSH1 0x2 DUP3 DIV SWAP1 POP PUSH1 0x1 DUP3 AND DUP1 PUSH2 0x736 JUMPI PUSH1 0x7F DUP3 AND SWAP2 POP JUMPDEST PUSH1 0x20 DUP3 LT DUP2 SUB PUSH2 0x749 JUMPI PUSH2 0x748 PUSH2 0x6EF JUMP JUMPDEST JUMPDEST POP SWAP2 SWAP1 POP JUMP INVALID LOG2 PUSH5 0x6970667358 0x22 SLT KECCAK256 DUP8 0xC0 0xCE 0xC 0xF 0xD 0xAC DIV 0x2E 0xA6 CALLDATASIZE PUSH11 0x99EE1301A7735C3DEBC099 0xC6 0xDC 0xE0 0xD4 DUP8 JUMP SMOD PUSH6 0x2064736F6C63 NUMBER STOP ADDMOD GT STOP CALLER "
				},
				"gasEstimates": {
					"creation": {
						"codeDepositCost": "385000",
						"executionCost": "infinite",
						"totalCost": "infinite"
					},
					"external": {
						"addElement()": "74861",
						"b1()": "infinite",
						"getValue()": "2438",
						"myMapping(string)": "infinite",
						"retrieve()": "2460",
						"s1()": "infinite",
						"setValue(uint256)": "22587",
						"store(uint256)": "22520"
					}
				},
				"methodIdentifiers": {
					"addElement()": "3f2273b3",
					"b1()": "ee495002",
					"getValue()": "20965255",
					"myMapping(string)": "ffac7005",
					"retrieve()": "2e64cec1",
					"s1()": "6cc014de",
					"setValue(uint256)": "55241077",
					"store(uint256)": "6057361d"
				}
			},
			"storageLayout": {
				"storage": [
					{
						"astId": 4,
						"contract": "contracts/1_Storage.sol:Storage",
						"label": "number",
						"offset": 0,
						"slot": "0",
						"type": "t_uint256"
					},
					{
						"astId": 6,
						"contract": "contracts/1_Storage.sol:Storage",
						"label": "value",
						"offset": 0,
						"slot": "1",
						"type": "t_uint256"
					},
					{
						"astId": 9,
						"contract": "contracts/1_Storage.sol:Storage",
						"label": "b1",
						"offset": 0,
						"slot": "2",
						"type": "t_bytes_storage"
					},
					{
						"astId": 12,
						"contract": "contracts/1_Storage.sol:Storage",
						"label": "s1",
						"offset": 0,
						"slot": "3",
						"type": "t_string_storage"
					},
					{
						"astId": 16,
						"contract": "contracts/1_Storage.sol:Storage",
						"label": "myMapping",
						"offset": 0,
						"slot": "4",
						"type": "t_mapping(t_string_memory_ptr,t_uint256)"
					}
				],
				"types": {
					"t_bytes_storage": {
						"encoding": "bytes",
						"label": "bytes",
						"numberOfBytes": "32"
					},
					"t_mapping(t_string_memory_ptr,t_uint256)": {
						"encoding": "mapping",
						"key": "t_string_memory_ptr",
						"label": "mapping(string => uint256)",
						"numberOfBytes": "32",
						"value": "t_uint256"
					},
					"t_string_memory_ptr": {
						"encoding": "bytes",
						"label": "string",
						"numberOfBytes": "32"
					},
					"t_string_storage": {
						"encoding": "bytes",
						"label": "string",
						"numberOfBytes": "32"
					},
					"t_uint256": {
						"encoding": "inplace",
						"label": "uint256",
						"numberOfBytes": "32"
					}
				}
			},
			"userdoc": {
				"kind": "user",
				"methods": {},
				"version": 1
			}
		}
	}
}