{
	"contracts/1_Storage.sol": {
		"Storage": {
			"abi": [
				{
					"inputs": [],
					"stateMutability": "nonpayable",
					"type": "constructor"
				},
				{
					"inputs": [],
					"name": "addElement",
					"outputs": [],
					"stateMutability": "nonpayable",
					"type": "function"
				},
				{
					"inputs": [],
					"name": "b1",
					"outputs": [
						{
							"internalType": "bytes",
							"name": "",
							"type": "bytes"
						}
					],
					"stateMutability": "view",
					"type": "function"
				},
				{
					"inputs": [],
					"name": "getValue",
					"outputs": [
						{
							"internalType": "uint256",
							"name": "",
							"type": "uint256"
						}
					],
					"stateMutability": "view",
					"type": "function"
				},
				{
					"inputs": [
						{
							"internalType": "string",
							"name": "",
							"type": "string"
						}
					],
					"name": "myMapping",
					"outputs": [
						{
							"internalType": "uint256",
							"name": "",
							"type": "uint256"
						}
					],
					"stateMutability": "view",
					"type": "function"
				},
				{
					"inputs": [
						{
							"internalType": "uint256",
							"name": "",
							"type": "uint256"
						}
					],
					"name": "players",
					"outputs": [
						{
							"internalType": "string",
							"name": "name",
							"type": "string"
						},
						{
							"internalType": "uint256",
							"name": "level",
							"type": "uint256"
						},
						{
							"internalType": "uint256",
							"name": "score",
							"type": "uint256"
						}
					],
					"stateMutability": "view",
					"type": "function"
				},
				{
					"inputs": [],
					"name": "retrieve",
					"outputs": [
						{
							"internalType": "uint256",
							"name": "",
							"type": "uint256"
						}
					],
					"stateMutability": "view",
					"type": "function"
				},
				{
					"inputs": [],
					"name": "s1",
					"outputs": [
						{
							"internalType": "string",
							"name": "",
							"type": "string"
						}
					],
					"stateMutability": "view",
					"type": "function"
				},
				{
					"inputs": [
						{
							"internalType": "uint256",
							"name": "_id",
							"type": "uint256"
						},
						{
							"internalType": "string",
							"name": "_name",
							"type": "string"
						},
						{
							"internalType": "uint256",
							"name": "_level",
							"type": "uint256"
						},
						{
							"internalType": "uint256",
							"name": "_score",
							"type": "uint256"
						}
					],
					"name": "setMapping",
					"outputs": [],
					"stateMutability": "nonpayable",
					"type": "function"
				},
				{
					"inputs": [
						{
							"internalType": "uint256",
							"name": "_value",
							"type": "uint256"
						}
					],
					"name": "setValue",
					"outputs": [],
					"stateMutability": "nonpayable",
					"type": "function"
				},
				{
					"inputs": [
						{
							"internalType": "uint256",
							"name": "num",
							"type": "uint256"
						}
					],
					"name": "store",
					"outputs": [],
					"stateMutability": "nonpayable",
					"type": "function"
				}
			],
			"devdoc": {
				"custom:dev-run-script": "./scripts/deploy_with_ethers.ts",
				"details": "Store & retrieve value in a variable",
				"kind": "dev",
				"methods": {
					"retrieve()": {
						"details": "Return value ",
						"returns": {
							"_0": "value of 'number'"
						}
					},
					"store(uint256)": {
						"details": "Store value in variable",
						"params": {
							"num": "value to store"
						}
					}
				},
				"title": "Storage",
				"version": 1
			},
			"evm": {
				"assembly": "    /* \"contracts/1_Storage.sol\":192:1302  contract Storage {... */\n  mstore(0x40, 0x80)\n    /* \"contracts/1_Storage.sol\":257:280  bytes public b1 = \"abc\" */\n  mload(0x40)\n  dup1\n  0x40\n  add\n  0x40\n  mstore\n  dup1\n  0x03\n  dup2\n  mstore\n  0x20\n  add\n  0x6162630000000000000000000000000000000000000000000000000000000000\n  dup2\n  mstore\n  pop\n  0x02\n  swap1\n  dup2\n  tag_1\n  swap2\n  swap1\n  tag_2\n  jump\t// in\ntag_1:\n  pop\n    /* \"contracts/1_Storage.sol\":287:311  string public s1 = \"abc\" */\n  mload(0x40)\n  dup1\n  0x40\n  add\n  0x40\n  mstore\n  dup1\n  0x03\n  dup2\n  mstore\n  0x20\n  add\n  0x6162630000000000000000000000000000000000000000000000000000000000\n  dup2\n  mstore\n  pop\n  0x03\n  swap1\n  dup2\n  tag_3\n  swap2\n  swap1\n  tag_4\n  jump\t// in\ntag_3:\n  pop\n    /* \"contracts/1_Storage.sol\":508:551  constructor() {... */\n  callvalue\n  dup1\n  iszero\n  tag_5\n  jumpi\n  0x00\n  dup1\n  revert\ntag_5:\n  pop\n    /* \"contracts/1_Storage.sol\":541:544  100 */\n  0x64\n    /* \"contracts/1_Storage.sol\":532:538  number */\n  0x00\n    /* \"contracts/1_Storage.sol\":532:544  number = 100 */\n  dup2\n  swap1\n  sstore\n  pop\n    /* \"contracts/1_Storage.sol\":192:1302  contract Storage {... */\n  jump(tag_8)\n    /* \"#utility.yul\":7:106   */\ntag_9:\n    /* \"#utility.yul\":59:65   */\n  0x00\n    /* \"#utility.yul\":93:98   */\n  dup2\n    /* \"#utility.yul\":87:99   */\n  mload\n    /* \"#utility.yul\":77:99   */\n  swap1\n  pop\n    /* \"#utility.yul\":7:106   */\n  swap2\n  swap1\n  pop\n  jump\t// out\n    /* \"#utility.yul\":112:292   */\ntag_10:\n    /* \"#utility.yul\":160:237   */\n  0x4e487b7100000000000000000000000000000000000000000000000000000000\n    /* \"#utility.yul\":157:158   */\n  0x00\n    /* \"#utility.yul\":150:238   */\n  mstore\n    /* \"#utility.yul\":257:261   */\n  0x41\n    /* \"#utility.yul\":254:255   */\n  0x04\n    /* \"#utility.yul\":247:262   */\n  mstore\n    /* \"#utility.yul\":281:285   */\n  0x24\n    /* \"#utility.yul\":278:279   */\n  0x00\n    /* \"#utility.yul\":271:286   */\n  revert\n    /* \"#utility.yul\":298:478   */\ntag_11:\n    /* \"#utility.yul\":346:423   */\n  0x4e487b7100000000000000000000000000000000000000000000000000000000\n    /* \"#utility.yul\":343:344   */\n  0x00\n    /* \"#utility.yul\":336:424   */\n  mstore\n    /* \"#utility.yul\":443:447   */\n  0x22\n    /* \"#utility.yul\":440:441   */\n  0x04\n    /* \"#utility.yul\":433:448   */\n  mstore\n    /* \"#utility.yul\":467:471   */\n  0x24\n    /* \"#utility.yul\":464:465   */\n  0x00\n    /* \"#utility.yul\":457:472   */\n  revert\n    /* \"#utility.yul\":484:804   */\ntag_12:\n    /* \"#utility.yul\":528:534   */\n  0x00\n    /* \"#utility.yul\":565:566   */\n  0x02\n    /* \"#utility.yul\":559:563   */\n  dup3\n    /* \"#utility.yul\":555:567   */\n  div\n    /* \"#utility.yul\":545:567   */\n  swap1\n  pop\n    /* \"#utility.yul\":612:613   */\n  0x01\n    /* \"#utility.yul\":606:610   */\n  dup3\n    /* \"#utility.yul\":602:614   */\n  and\n    /* \"#utility.yul\":633:651   */\n  dup1\n    /* \"#utility.yul\":623:704   */\n  tag_36\n  jumpi\n    /* \"#utility.yul\":689:693   */\n  0x7f\n    /* \"#utility.yul\":681:687   */\n  dup3\n    /* \"#utility.yul\":677:694   */\n  and\n    /* \"#utility.yul\":667:694   */\n  swap2\n  pop\n    /* \"#utility.yul\":623:704   */\ntag_36:\n    /* \"#utility.yul\":751:753   */\n  0x20\n    /* \"#utility.yul\":743:749   */\n  dup3\n    /* \"#utility.yul\":740:754   */\n  lt\n    /* \"#utility.yul\":720:738   */\n  dup2\n    /* \"#utility.yul\":717:755   */\n  sub\n    /* \"#utility.yul\":714:798   */\n  tag_37\n  jumpi\n    /* \"#utility.yul\":770:788   */\n  tag_38\n  tag_11\n  jump\t// in\ntag_38:\n    /* \"#utility.yul\":714:798   */\ntag_37:\n    /* \"#utility.yul\":535:804   */\n  pop\n    /* \"#utility.yul\":484:804   */\n  swap2\n  swap1\n  pop\n  jump\t// out\n    /* \"#utility.yul\":810:950   */\ntag_13:\n    /* \"#utility.yul\":858:862   */\n  0x00\n    /* \"#utility.yul\":881:884   */\n  dup2\n    /* \"#utility.yul\":873:884   */\n  swap1\n  pop\n    /* \"#utility.yul\":904:907   */\n  dup2\n    /* \"#utility.yul\":901:902   */\n  0x00\n    /* \"#utility.yul\":894:908   */\n  mstore\n    /* \"#utility.yul\":938:942   */\n  0x20\n    /* \"#utility.yul\":935:936   */\n  0x00\n    /* \"#utility.yul\":925:943   */\n  keccak256\n    /* \"#utility.yul\":917:943   */\n  swap1\n  pop\n    /* \"#utility.yul\":810:950   */\n  swap2\n  swap1\n  pop\n  jump\t// out\n    /* \"#utility.yul\":956:1049   */\ntag_14:\n    /* \"#utility.yul\":993:999   */\n  0x00\n    /* \"#utility.yul\":1040:1042   */\n  0x20\n    /* \"#utility.yul\":1035:1037   */\n  0x1f\n    /* \"#utility.yul\":1028:1033   */\n  dup4\n    /* \"#utility.yul\":1024:1038   */\n  add\n    /* \"#utility.yul\":1020:1043   */\n  div\n    /* \"#utility.yul\":1010:1043   */\n  swap1\n  pop\n    /* \"#utility.yul\":956:1049   */\n  swap2\n  swap1\n  pop\n  jump\t// out\n    /* \"#utility.yul\":1055:1162   */\ntag_15:\n    /* \"#utility.yul\":1099:1107   */\n  0x00\n    /* \"#utility.yul\":1149:1154   */\n  dup3\n    /* \"#utility.yul\":1143:1147   */\n  dup3\n    /* \"#utility.yul\":1139:1155   */\n  shl\n    /* \"#utility.yul\":1118:1155   */\n  swap1\n  pop\n    /* \"#utility.yul\":1055:1162   */\n  swap3\n  swap2\n  pop\n  pop\n  jump\t// out\n    /* \"#utility.yul\":1168:1561   */\ntag_16:\n    /* \"#utility.yul\":1237:1243   */\n  0x00\n    /* \"#utility.yul\":1287:1288   */\n  0x08\n    /* \"#utility.yul\":1275:1285   */\n  dup4\n    /* \"#utility.yul\":1271:1289   */\n  mul\n    /* \"#utility.yul\":1310:1407   */\n  tag_43\n    /* \"#utility.yul\":1340:1406   */\n  0xffffffffffffffffffffffffffffffffffffffffffffffffffffffffffffffff\n    /* \"#utility.yul\":1329:1338   */\n  dup3\n    /* \"#utility.yul\":1310:1407   */\n  tag_15\n  jump\t// in\ntag_43:\n    /* \"#utility.yul\":1428:1467   */\n  tag_44\n    /* \"#utility.yul\":1458:1466   */\n  dup7\n    /* \"#utility.yul\":1447:1456   */\n  dup4\n    /* \"#utility.yul\":1428:1467   */\n  tag_15\n  jump\t// in\ntag_44:\n    /* \"#utility.yul\":1416:1467   */\n  swap6\n  pop\n    /* \"#utility.yul\":1500:1504   */\n  dup1\n    /* \"#utility.yul\":1496:1505   */\n  not\n    /* \"#utility.yul\":1489:1494   */\n  dup5\n    /* \"#utility.yul\":1485:1506   */\n  and\n    /* \"#utility.yul\":1476:1506   */\n  swap4\n  pop\n    /* \"#utility.yul\":1549:1553   */\n  dup1\n    /* \"#utility.yul\":1539:1547   */\n  dup7\n    /* \"#utility.yul\":1535:1554   */\n  and\n    /* \"#utility.yul\":1528:1533   */\n  dup5\n    /* \"#utility.yul\":1525:1555   */\n  or\n    /* \"#utility.yul\":1515:1555   */\n  swap3\n  pop\n    /* \"#utility.yul\":1244:1561   */\n  pop\n  pop\n    /* \"#utility.yul\":1168:1561   */\n  swap4\n  swap3\n  pop\n  pop\n  pop\n  jump\t// out\n    /* \"#utility.yul\":1567:1644   */\ntag_17:\n    /* \"#utility.yul\":1604:1611   */\n  0x00\n    /* \"#utility.yul\":1633:1638   */\n  dup2\n    /* \"#utility.yul\":1622:1638   */\n  swap1\n  pop\n    /* \"#utility.yul\":1567:1644   */\n  swap2\n  swap1\n  pop\n  jump\t// out\n    /* \"#utility.yul\":1650:1710   */\ntag_18:\n    /* \"#utility.yul\":1678:1681   */\n  0x00\n    /* \"#utility.yul\":1699:1704   */\n  dup2\n    /* \"#utility.yul\":1692:1704   */\n  swap1\n  pop\n    /* \"#utility.yul\":1650:1710   */\n  swap2\n  swap1\n  pop\n  jump\t// out\n    /* \"#utility.yul\":1716:1858   */\ntag_19:\n    /* \"#utility.yul\":1766:1775   */\n  0x00\n    /* \"#utility.yul\":1799:1852   */\n  tag_48\n    /* \"#utility.yul\":1817:1851   */\n  tag_49\n    /* \"#utility.yul\":1826:1850   */\n  tag_50\n    /* \"#utility.yul\":1844:1849   */\n  dup5\n    /* \"#utility.yul\":1826:1850   */\n  tag_17\n  jump\t// in\ntag_50:\n    /* \"#utility.yul\":1817:1851   */\n  tag_18\n  jump\t// in\ntag_49:\n    /* \"#utility.yul\":1799:1852   */\n  tag_17\n  jump\t// in\ntag_48:\n    /* \"#utility.yul\":1786:1852   */\n  swap1\n  pop\n    /* \"#utility.yul\":1716:1858   */\n  swap2\n  swap1\n  pop\n  jump\t// out\n    /* \"#utility.yul\":1864:1939   */\ntag_20:\n    /* \"#utility.yul\":1907:1910   */\n  0x00\n    /* \"#utility.yul\":1928:1933   */\n  dup2\n    /* \"#utility.yul\":1921:1933   */\n  swap1\n  pop\n    /* \"#utility.yul\":1864:1939   */\n  swap2\n  swap1\n  pop\n  jump\t// out\n    /* \"#utility.yul\":1945:2214   */\ntag_21:\n    /* \"#utility.yul\":2055:2094   */\n  tag_53\n    /* \"#utility.yul\":2086:2093   */\n  dup4\n    /* \"#utility.yul\":2055:2094   */\n  tag_19\n  jump\t// in\ntag_53:\n    /* \"#utility.yul\":2116:2207   */\n  tag_54\n    /* \"#utility.yul\":2165:2206   */\n  tag_55\n    /* \"#utility.yul\":2189:2205   */\n  dup3\n    /* \"#utility.yul\":2165:2206   */\n  tag_20\n  jump\t// in\ntag_55:\n    /* \"#utility.yul\":2157:2163   */\n  dup5\n    /* \"#utility.yul\":2150:2154   */\n  dup5\n    /* \"#utility.yul\":2144:2155   */\n  sload\n    /* \"#utility.yul\":2116:2207   */\n  tag_16\n  jump\t// in\ntag_54:\n    /* \"#utility.yul\":2110:2114   */\n  dup3\n    /* \"#utility.yul\":2103:2208   */\n  sstore\n    /* \"#utility.yul\":2021:2214   */\n  pop\n    /* \"#utility.yul\":1945:2214   */\n  pop\n  pop\n  pop\n  jump\t// out\n    /* \"#utility.yul\":2220:2293   */\ntag_22:\n    /* \"#utility.yul\":2265:2268   */\n  0x00\n    /* \"#utility.yul\":2220:2293   */\n  swap1\n  jump\t// out\n    /* \"#utility.yul\":2299:2488   */\ntag_23:\n    /* \"#utility.yul\":2376:2408   */\n  tag_58\n  tag_22\n  jump\t// in\ntag_58:\n    /* \"#utility.yul\":2417:2482   */\n  tag_59\n    /* \"#utility.yul\":2475:2481   */\n  dup2\n    /* \"#utility.yul\":2467:2473   */\n  dup5\n    /* \"#utility.yul\":2461:2465   */\n  dup5\n    /* \"#utility.yul\":2417:2482   */\n  tag_21\n  jump\t// in\ntag_59:\n    /* \"#utility.yul\":2352:2488   */\n  pop\n    /* \"#utility.yul\":2299:2488   */\n  pop\n  pop\n  jump\t// out\n    /* \"#utility.yul\":2494:2680   */\ntag_24:\n    /* \"#utility.yul\":2554:2674   */\ntag_61:\n    /* \"#utility.yul\":2571:2574   */\n  dup2\n    /* \"#utility.yul\":2564:2569   */\n  dup2\n    /* \"#utility.yul\":2561:2575   */\n  lt\n    /* \"#utility.yul\":2554:2674   */\n  iszero\n  tag_63\n  jumpi\n    /* \"#utility.yul\":2625:2664   */\n  tag_64\n    /* \"#utility.yul\":2662:2663   */\n  0x00\n    /* \"#utility.yul\":2655:2660   */\n  dup3\n    /* \"#utility.yul\":2625:2664   */\n  tag_23\n  jump\t// in\ntag_64:\n    /* \"#utility.yul\":2598:2599   */\n  0x01\n    /* \"#utility.yul\":2591:2596   */\n  dup2\n    /* \"#utility.yul\":2587:2600   */\n  add\n    /* \"#utility.yul\":2578:2600   */\n  swap1\n  pop\n    /* \"#utility.yul\":2554:2674   */\n  jump(tag_61)\ntag_63:\n    /* \"#utility.yul\":2494:2680   */\n  pop\n  pop\n  jump\t// out\n    /* \"#utility.yul\":2686:3227   */\ntag_25:\n    /* \"#utility.yul\":2786:2788   */\n  0x1f\n    /* \"#utility.yul\":2781:2784   */\n  dup3\n    /* \"#utility.yul\":2778:2789   */\n  gt\n    /* \"#utility.yul\":2775:3220   */\n  iszero\n  tag_66\n  jumpi\n    /* \"#utility.yul\":2820:2857   */\n  tag_67\n    /* \"#utility.yul\":2851:2856   */\n  dup2\n    /* \"#utility.yul\":2820:2857   */\n  tag_13\n  jump\t// in\ntag_67:\n    /* \"#utility.yul\":2903:2932   */\n  tag_68\n    /* \"#utility.yul\":2921:2931   */\n  dup5\n    /* \"#utility.yul\":2903:2932   */\n  tag_14\n  jump\t// in\ntag_68:\n    /* \"#utility.yul\":2893:2901   */\n  dup2\n    /* \"#utility.yul\":2889:2933   */\n  add\n    /* \"#utility.yul\":3086:3088   */\n  0x20\n    /* \"#utility.yul\":3074:3084   */\n  dup6\n    /* \"#utility.yul\":3071:3089   */\n  lt\n    /* \"#utility.yul\":3068:3117   */\n  iszero\n  tag_69\n  jumpi\n    /* \"#utility.yul\":3107:3115   */\n  dup2\n    /* \"#utility.yul\":3092:3115   */\n  swap1\n  pop\n    /* \"#utility.yul\":3068:3117   */\ntag_69:\n    /* \"#utility.yul\":3130:3210   */\n  tag_70\n    /* \"#utility.yul\":3186:3208   */\n  tag_71\n    /* \"#utility.yul\":3204:3207   */\n  dup6\n    /* \"#utility.yul\":3186:3208   */\n  tag_14\n  jump\t// in\ntag_71:\n    /* \"#utility.yul\":3176:3184   */\n  dup4\n    /* \"#utility.yul\":3172:3209   */\n  add\n    /* \"#utility.yul\":3159:3170   */\n  dup3\n    /* \"#utility.yul\":3130:3210   */\n  tag_24\n  jump\t// in\ntag_70:\n    /* \"#utility.yul\":2790:3220   */\n  pop\n  pop\n    /* \"#utility.yul\":2775:3220   */\ntag_66:\n    /* \"#utility.yul\":2686:3227   */\n  pop\n  pop\n  pop\n  jump\t// out\n    /* \"#utility.yul\":3233:3350   */\ntag_26:\n    /* \"#utility.yul\":3287:3295   */\n  0x00\n    /* \"#utility.yul\":3337:3342   */\n  dup3\n    /* \"#utility.yul\":3331:3335   */\n  dup3\n    /* \"#utility.yul\":3327:3343   */\n  shr\n    /* \"#utility.yul\":3306:3343   */\n  swap1\n  pop\n    /* \"#utility.yul\":3233:3350   */\n  swap3\n  swap2\n  pop\n  pop\n  jump\t// out\n    /* \"#utility.yul\":3356:3525   */\ntag_27:\n    /* \"#utility.yul\":3400:3406   */\n  0x00\n    /* \"#utility.yul\":3433:3484   */\n  tag_74\n    /* \"#utility.yul\":3481:3482   */\n  0x00\n    /* \"#utility.yul\":3477:3483   */\n  not\n    /* \"#utility.yul\":3469:3474   */\n  dup5\n    /* \"#utility.yul\":3466:3467   */\n  0x08\n    /* \"#utility.yul\":3462:3475   */\n  mul\n    /* \"#utility.yul\":3433:3484   */\n  tag_26\n  jump\t// in\ntag_74:\n    /* \"#utility.yul\":3429:3485   */\n  not\n    /* \"#utility.yul\":3514:3518   */\n  dup1\n    /* \"#utility.yul\":3508:3512   */\n  dup4\n    /* \"#utility.yul\":3504:3519   */\n  and\n    /* \"#utility.yul\":3494:3519   */\n  swap2\n  pop\n    /* \"#utility.yul\":3407:3525   */\n  pop\n    /* \"#utility.yul\":3356:3525   */\n  swap3\n  swap2\n  pop\n  pop\n  jump\t// out\n    /* \"#utility.yul\":3530:3825   */\ntag_28:\n    /* \"#utility.yul\":3606:3610   */\n  0x00\n    /* \"#utility.yul\":3752:3781   */\n  tag_76\n    /* \"#utility.yul\":3777:3780   */\n  dup4\n    /* \"#utility.yul\":3771:3775   */\n  dup4\n    /* \"#utility.yul\":3752:3781   */\n  tag_27\n  jump\t// in\ntag_76:\n    /* \"#utility.yul\":3744:3781   */\n  swap2\n  pop\n    /* \"#utility.yul\":3814:3817   */\n  dup3\n    /* \"#utility.yul\":3811:3812   */\n  0x02\n    /* \"#utility.yul\":3807:3818   */\n  mul\n    /* \"#utility.yul\":3801:3805   */\n  dup3\n    /* \"#utility.yul\":3798:3819   */\n  or\n    /* \"#utility.yul\":3790:3819   */\n  swap1\n  pop\n    /* \"#utility.yul\":3530:3825   */\n  swap3\n  swap2\n  pop\n  pop\n  jump\t// out\n    /* \"#utility.yul\":3830:5222   */\ntag_2:\n    /* \"#utility.yul\":3946:3983   */\n  tag_78\n    /* \"#utility.yul\":3979:3982   */\n  dup3\n    /* \"#utility.yul\":3946:3983   */\n  tag_9\n  jump\t// in\ntag_78:\n    /* \"#utility.yul\":4048:4066   */\n  0xffffffffffffffff\n    /* \"#utility.yul\":4040:4046   */\n  dup2\n    /* \"#utility.yul\":4037:4067   */\n  gt\n    /* \"#utility.yul\":4034:4090   */\n  iszero\n  tag_79\n  jumpi\n    /* \"#utility.yul\":4070:4088   */\n  tag_80\n  tag_10\n  jump\t// in\ntag_80:\n    /* \"#utility.yul\":4034:4090   */\ntag_79:\n    /* \"#utility.yul\":4114:4152   */\n  tag_81\n    /* \"#utility.yul\":4146:4150   */\n  dup3\n    /* \"#utility.yul\":4140:4151   */\n  sload\n    /* \"#utility.yul\":4114:4152   */\n  tag_12\n  jump\t// in\ntag_81:\n    /* \"#utility.yul\":4199:4265   */\n  tag_82\n    /* \"#utility.yul\":4258:4264   */\n  dup3\n    /* \"#utility.yul\":4250:4256   */\n  dup3\n    /* \"#utility.yul\":4244:4248   */\n  dup6\n    /* \"#utility.yul\":4199:4265   */\n  tag_25\n  jump\t// in\ntag_82:\n    /* \"#utility.yul\":4292:4293   */\n  0x00\n    /* \"#utility.yul\":4316:4320   */\n  0x20\n    /* \"#utility.yul\":4303:4320   */\n  swap1\n  pop\n    /* \"#utility.yul\":4348:4350   */\n  0x1f\n    /* \"#utility.yul\":4340:4346   */\n  dup4\n    /* \"#utility.yul\":4337:4351   */\n  gt\n    /* \"#utility.yul\":4365:4366   */\n  0x01\n    /* \"#utility.yul\":4360:4977   */\n  dup2\n  eq\n  tag_84\n  jumpi\n    /* \"#utility.yul\":5021:5022   */\n  0x00\n    /* \"#utility.yul\":5038:5044   */\n  dup5\n    /* \"#utility.yul\":5035:5112   */\n  iszero\n  tag_85\n  jumpi\n    /* \"#utility.yul\":5087:5096   */\n  dup3\n    /* \"#utility.yul\":5082:5085   */\n  dup8\n    /* \"#utility.yul\":5078:5097   */\n  add\n    /* \"#utility.yul\":5072:5098   */\n  mload\n    /* \"#utility.yul\":5063:5098   */\n  swap1\n  pop\n    /* \"#utility.yul\":5035:5112   */\ntag_85:\n    /* \"#utility.yul\":5138:5205   */\n  tag_86\n    /* \"#utility.yul\":5198:5204   */\n  dup6\n    /* \"#utility.yul\":5191:5196   */\n  dup3\n    /* \"#utility.yul\":5138:5205   */\n  tag_28\n  jump\t// in\ntag_86:\n    /* \"#utility.yul\":5132:5136   */\n  dup7\n    /* \"#utility.yul\":5125:5206   */\n  sstore\n    /* \"#utility.yul\":4994:5216   */\n  pop\n    /* \"#utility.yul\":4330:5216   */\n  jump(tag_83)\n    /* \"#utility.yul\":4360:4977   */\ntag_84:\n    /* \"#utility.yul\":4412:4416   */\n  0x1f\n    /* \"#utility.yul\":4408:4417   */\n  not\n    /* \"#utility.yul\":4400:4406   */\n  dup5\n    /* \"#utility.yul\":4396:4418   */\n  and\n    /* \"#utility.yul\":4446:4482   */\n  tag_87\n    /* \"#utility.yul\":4477:4481   */\n  dup7\n    /* \"#utility.yul\":4446:4482   */\n  tag_13\n  jump\t// in\ntag_87:\n    /* \"#utility.yul\":4504:4505   */\n  0x00\n    /* \"#utility.yul\":4518:4726   */\ntag_88:\n    /* \"#utility.yul\":4532:4539   */\n  dup3\n    /* \"#utility.yul\":4529:4530   */\n  dup2\n    /* \"#utility.yul\":4526:4540   */\n  lt\n    /* \"#utility.yul\":4518:4726   */\n  iszero\n  tag_90\n  jumpi\n    /* \"#utility.yul\":4611:4620   */\n  dup5\n    /* \"#utility.yul\":4606:4609   */\n  dup10\n    /* \"#utility.yul\":4602:4621   */\n  add\n    /* \"#utility.yul\":4596:4622   */\n  mload\n    /* \"#utility.yul\":4588:4594   */\n  dup3\n    /* \"#utility.yul\":4581:4623   */\n  sstore\n    /* \"#utility.yul\":4662:4663   */\n  0x01\n    /* \"#utility.yul\":4654:4660   */\n  dup3\n    /* \"#utility.yul\":4650:4664   */\n  add\n    /* \"#utility.yul\":4640:4664   */\n  swap2\n  pop\n    /* \"#utility.yul\":4709:4711   */\n  0x20\n    /* \"#utility.yul\":4698:4707   */\n  dup6\n    /* \"#utility.yul\":4694:4712   */\n  add\n    /* \"#utility.yul\":4681:4712   */\n  swap5\n  pop\n    /* \"#utility.yul\":4555:4559   */\n  0x20\n    /* \"#utility.yul\":4552:4553   */\n  dup2\n    /* \"#utility.yul\":4548:4560   */\n  add\n    /* \"#utility.yul\":4543:4560   */\n  swap1\n  pop\n    /* \"#utility.yul\":4518:4726   */\n  jump(tag_88)\ntag_90:\n    /* \"#utility.yul\":4754:4760   */\n  dup7\n    /* \"#utility.yul\":4745:4752   */\n  dup4\n    /* \"#utility.yul\":4742:4761   */\n  lt\n    /* \"#utility.yul\":4739:4918   */\n  iszero\n  tag_91\n  jumpi\n    /* \"#utility.yul\":4812:4821   */\n  dup5\n    /* \"#utility.yul\":4807:4810   */\n  dup10\n    /* \"#utility.yul\":4803:4822   */\n  add\n    /* \"#utility.yul\":4797:4823   */\n  mload\n    /* \"#utility.yul\":4855:4903   */\n  tag_92\n    /* \"#utility.yul\":4897:4901   */\n  0x1f\n    /* \"#utility.yul\":4889:4895   */\n  dup10\n    /* \"#utility.yul\":4885:4902   */\n  and\n    /* \"#utility.yul\":4874:4883   */\n  dup3\n    /* \"#utility.yul\":4855:4903   */\n  tag_27\n  jump\t// in\ntag_92:\n    /* \"#utility.yul\":4847:4853   */\n  dup4\n    /* \"#utility.yul\":4840:4904   */\n  sstore\n    /* \"#utility.yul\":4762:4918   */\n  pop\n    /* \"#utility.yul\":4739:4918   */\ntag_91:\n    /* \"#utility.yul\":4964:4965   */\n  0x01\n    /* \"#utility.yul\":4960:4961   */\n  0x02\n    /* \"#utility.yul\":4952:4958   */\n  dup9\n    /* \"#utility.yul\":4948:4962   */\n  mul\n    /* \"#utility.yul\":4944:4966   */\n  add\n    /* \"#utility.yul\":4938:4942   */\n  dup9\n    /* \"#utility.yul\":4931:4967   */\n  sstore\n    /* \"#utility.yul\":4367:4977   */\n  pop\n  pop\n  pop\n    /* \"#utility.yul\":4330:5216   */\ntag_83:\n  pop\n    /* \"#utility.yul\":3921:5222   */\n  pop\n  pop\n  pop\n    /* \"#utility.yul\":3830:5222   */\n  pop\n  pop\n  jump\t// out\n    /* \"#utility.yul\":5228:5369   */\ntag_29:\n    /* \"#utility.yul\":5277:5281   */\n  0x00\n    /* \"#utility.yul\":5300:5303   */\n  dup2\n    /* \"#utility.yul\":5292:5303   */\n  swap1\n  pop\n    /* \"#utility.yul\":5323:5326   */\n  dup2\n    /* \"#utility.yul\":5320:5321   */\n  0x00\n    /* \"#utility.yul\":5313:5327   */\n  mstore\n    /* \"#utility.yul\":5357:5361   */\n  0x20\n    /* \"#utility.yul\":5354:5355   */\n  0x00\n    /* \"#utility.yul\":5344:5362   */\n  keccak256\n    /* \"#utility.yul\":5336:5362   */\n  swap1\n  pop\n    /* \"#utility.yul\":5228:5369   */\n  swap2\n  swap1\n  pop\n  jump\t// out\n    /* \"#utility.yul\":5375:5918   */\ntag_30:\n    /* \"#utility.yul\":5476:5478   */\n  0x1f\n    /* \"#utility.yul\":5471:5474   */\n  dup3\n    /* \"#utility.yul\":5468:5479   */\n  gt\n    /* \"#utility.yul\":5465:5911   */\n  iszero\n  tag_95\n  jumpi\n    /* \"#utility.yul\":5510:5548   */\n  tag_96\n    /* \"#utility.yul\":5542:5547   */\n  dup2\n    /* \"#utility.yul\":5510:5548   */\n  tag_29\n  jump\t// in\ntag_96:\n    /* \"#utility.yul\":5594:5623   */\n  tag_97\n    /* \"#utility.yul\":5612:5622   */\n  dup5\n    /* \"#utility.yul\":5594:5623   */\n  tag_14\n  jump\t// in\ntag_97:\n    /* \"#utility.yul\":5584:5592   */\n  dup2\n    /* \"#utility.yul\":5580:5624   */\n  add\n    /* \"#utility.yul\":5777:5779   */\n  0x20\n    /* \"#utility.yul\":5765:5775   */\n  dup6\n    /* \"#utility.yul\":5762:5780   */\n  lt\n    /* \"#utility.yul\":5759:5808   */\n  iszero\n  tag_98\n  jumpi\n    /* \"#utility.yul\":5798:5806   */\n  dup2\n    /* \"#utility.yul\":5783:5806   */\n  swap1\n  pop\n    /* \"#utility.yul\":5759:5808   */\ntag_98:\n    /* \"#utility.yul\":5821:5901   */\n  tag_99\n    /* \"#utility.yul\":5877:5899   */\n  tag_100\n    /* \"#utility.yul\":5895:5898   */\n  dup6\n    /* \"#utility.yul\":5877:5899   */\n  tag_14\n  jump\t// in\ntag_100:\n    /* \"#utility.yul\":5867:5875   */\n  dup4\n    /* \"#utility.yul\":5863:5900   */\n  add\n    /* \"#utility.yul\":5850:5861   */\n  dup3\n    /* \"#utility.yul\":5821:5901   */\n  tag_24\n  jump\t// in\ntag_99:\n    /* \"#utility.yul\":5480:5911   */\n  pop\n  pop\n    /* \"#utility.yul\":5465:5911   */\ntag_95:\n    /* \"#utility.yul\":5375:5918   */\n  pop\n  pop\n  pop\n  jump\t// out\n    /* \"#utility.yul\":5924:7319   */\ntag_4:\n    /* \"#utility.yul\":6041:6078   */\n  tag_102\n    /* \"#utility.yul\":6074:6077   */\n  dup3\n    /* \"#utility.yul\":6041:6078   */\n  tag_9\n  jump\t// in\ntag_102:\n    /* \"#utility.yul\":6143:6161   */\n  0xffffffffffffffff\n    /* \"#utility.yul\":6135:6141   */\n  dup2\n    /* \"#utility.yul\":6132:6162   */\n  gt\n    /* \"#utility.yul\":6129:6185   */\n  iszero\n  tag_103\n  jumpi\n    /* \"#utility.yul\":6165:6183   */\n  tag_104\n  tag_10\n  jump\t// in\ntag_104:\n    /* \"#utility.yul\":6129:6185   */\ntag_103:\n    /* \"#utility.yul\":6209:6247   */\n  tag_105\n    /* \"#utility.yul\":6241:6245   */\n  dup3\n    /* \"#utility.yul\":6235:6246   */\n  sload\n    /* \"#utility.yul\":6209:6247   */\n  tag_12\n  jump\t// in\ntag_105:\n    /* \"#utility.yul\":6294:6361   */\n  tag_106\n    /* \"#utility.yul\":6354:6360   */\n  dup3\n    /* \"#utility.yul\":6346:6352   */\n  dup3\n    /* \"#utility.yul\":6340:6344   */\n  dup6\n    /* \"#utility.yul\":6294:6361   */\n  tag_30\n  jump\t// in\ntag_106:\n    /* \"#utility.yul\":6388:6389   */\n  0x00\n    /* \"#utility.yul\":6412:6416   */\n  0x20\n    /* \"#utility.yul\":6399:6416   */\n  swap1\n  pop\n    /* \"#utility.yul\":6444:6446   */\n  0x1f\n    /* \"#utility.yul\":6436:6442   */\n  dup4\n    /* \"#utility.yul\":6433:6447   */\n  gt\n    /* \"#utility.yul\":6461:6462   */\n  0x01\n    /* \"#utility.yul\":6456:7074   */\n  dup2\n  eq\n  tag_108\n  jumpi\n    /* \"#utility.yul\":7118:7119   */\n  0x00\n    /* \"#utility.yul\":7135:7141   */\n  dup5\n    /* \"#utility.yul\":7132:7209   */\n  iszero\n  tag_109\n  jumpi\n    /* \"#utility.yul\":7184:7193   */\n  dup3\n    /* \"#utility.yul\":7179:7182   */\n  dup8\n    /* \"#utility.yul\":7175:7194   */\n  add\n    /* \"#utility.yul\":7169:7195   */\n  mload\n    /* \"#utility.yul\":7160:7195   */\n  swap1\n  pop\n    /* \"#utility.yul\":7132:7209   */\ntag_109:\n    /* \"#utility.yul\":7235:7302   */\n  tag_110\n    /* \"#utility.yul\":7295:7301   */\n  dup6\n    /* \"#utility.yul\":7288:7293   */\n  dup3\n    /* \"#utility.yul\":7235:7302   */\n  tag_28\n  jump\t// in\ntag_110:\n    /* \"#utility.yul\":7229:7233   */\n  dup7\n    /* \"#utility.yul\":7222:7303   */\n  sstore\n    /* \"#utility.yul\":7091:7313   */\n  pop\n    /* \"#utility.yul\":6426:7313   */\n  jump(tag_107)\n    /* \"#utility.yul\":6456:7074   */\ntag_108:\n    /* \"#utility.yul\":6508:6512   */\n  0x1f\n    /* \"#utility.yul\":6504:6513   */\n  not\n    /* \"#utility.yul\":6496:6502   */\n  dup5\n    /* \"#utility.yul\":6492:6514   */\n  and\n    /* \"#utility.yul\":6542:6579   */\n  tag_111\n    /* \"#utility.yul\":6574:6578   */\n  dup7\n    /* \"#utility.yul\":6542:6579   */\n  tag_29\n  jump\t// in\ntag_111:\n    /* \"#utility.yul\":6601:6602   */\n  0x00\n    /* \"#utility.yul\":6615:6823   */\ntag_112:\n    /* \"#utility.yul\":6629:6636   */\n  dup3\n    /* \"#utility.yul\":6626:6627   */\n  dup2\n    /* \"#utility.yul\":6623:6637   */\n  lt\n    /* \"#utility.yul\":6615:6823   */\n  iszero\n  tag_114\n  jumpi\n    /* \"#utility.yul\":6708:6717   */\n  dup5\n    /* \"#utility.yul\":6703:6706   */\n  dup10\n    /* \"#utility.yul\":6699:6718   */\n  add\n    /* \"#utility.yul\":6693:6719   */\n  mload\n    /* \"#utility.yul\":6685:6691   */\n  dup3\n    /* \"#utility.yul\":6678:6720   */\n  sstore\n    /* \"#utility.yul\":6759:6760   */\n  0x01\n    /* \"#utility.yul\":6751:6757   */\n  dup3\n    /* \"#utility.yul\":6747:6761   */\n  add\n    /* \"#utility.yul\":6737:6761   */\n  swap2\n  pop\n    /* \"#utility.yul\":6806:6808   */\n  0x20\n    /* \"#utility.yul\":6795:6804   */\n  dup6\n    /* \"#utility.yul\":6791:6809   */\n  add\n    /* \"#utility.yul\":6778:6809   */\n  swap5\n  pop\n    /* \"#utility.yul\":6652:6656   */\n  0x20\n    /* \"#utility.yul\":6649:6650   */\n  dup2\n    /* \"#utility.yul\":6645:6657   */\n  add\n    /* \"#utility.yul\":6640:6657   */\n  swap1\n  pop\n    /* \"#utility.yul\":6615:6823   */\n  jump(tag_112)\ntag_114:\n    /* \"#utility.yul\":6851:6857   */\n  dup7\n    /* \"#utility.yul\":6842:6849   */\n  dup4\n    /* \"#utility.yul\":6839:6858   */\n  lt\n    /* \"#utility.yul\":6836:7015   */\n  iszero\n  tag_115\n  jumpi\n    /* \"#utility.yul\":6909:6918   */\n  dup5\n    /* \"#utility.yul\":6904:6907   */\n  dup10\n    /* \"#utility.yul\":6900:6919   */\n  add\n    /* \"#utility.yul\":6894:6920   */\n  mload\n    /* \"#utility.yul\":6952:7000   */\n  tag_116\n    /* \"#utility.yul\":6994:6998   */\n  0x1f\n    /* \"#utility.yul\":6986:6992   */\n  dup10\n    /* \"#utility.yul\":6982:6999   */\n  and\n    /* \"#utility.yul\":6971:6980   */\n  dup3\n    /* \"#utility.yul\":6952:7000   */\n  tag_27\n  jump\t// in\ntag_116:\n    /* \"#utility.yul\":6944:6950   */\n  dup4\n    /* \"#utility.yul\":6937:7001   */\n  sstore\n    /* \"#utility.yul\":6859:7015   */\n  pop\n    /* \"#utility.yul\":6836:7015   */\ntag_115:\n    /* \"#utility.yul\":7061:7062   */\n  0x01\n    /* \"#utility.yul\":7057:7058   */\n  0x02\n    /* \"#utility.yul\":7049:7055   */\n  dup9\n    /* \"#utility.yul\":7045:7059   */\n  mul\n    /* \"#utility.yul\":7041:7063   */\n  add\n    /* \"#utility.yul\":7035:7039   */\n  dup9\n    /* \"#utility.yul\":7028:7064   */\n  sstore\n    /* \"#utility.yul\":6463:7074   */\n  pop\n  pop\n  pop\n    /* \"#utility.yul\":6426:7313   */\ntag_107:\n  pop\n    /* \"#utility.yul\":6016:7319   */\n  pop\n  pop\n  pop\n    /* \"#utility.yul\":5924:7319   */\n  pop\n  pop\n  jump\t// out\n    /* \"contracts/1_Storage.sol\":192:1302  contract Storage {... */\ntag_8:\n  dataSize(sub_0)\n  dup1\n  dataOffset(sub_0)\n  0x00\n  codecopy\n  0x00\n  return\nstop\n\nsub_0: assembly {\n        /* \"contracts/1_Storage.sol\":192:1302  contract Storage {... */\n      mstore(0x40, 0x80)\n      callvalue\n      dup1\n      iszero\n      tag_1\n      jumpi\n      0x00\n      dup1\n      revert\n    tag_1:\n      pop\n      jumpi(tag_2, lt(calldatasize, 0x04))\n      shr(0xe0, calldataload(0x00))\n      dup1\n      0x6057361d\n      gt\n      tag_13\n      jumpi\n      dup1\n      0x6057361d\n      eq\n      tag_8\n      jumpi\n      dup1\n      0x6cc014de\n      eq\n      tag_9\n      jumpi\n      dup1\n      0xee495002\n      eq\n      tag_10\n      jumpi\n      dup1\n      0xf71d96cb\n      eq\n      tag_11\n      jumpi\n      dup1\n      0xffac7005\n      eq\n      tag_12\n      jumpi\n      jump(tag_2)\n    tag_13:\n      dup1\n      0x1d74220e\n      eq\n      tag_3\n      jumpi\n      dup1\n      0x20965255\n      eq\n      tag_4\n      jumpi\n      dup1\n      0x2e64cec1\n      eq\n      tag_5\n      jumpi\n      dup1\n      0x3f2273b3\n      eq\n      tag_6\n      jumpi\n      dup1\n      0x55241077\n      eq\n      tag_7\n      jumpi\n    tag_2:\n      0x00\n      dup1\n      revert\n        /* \"contracts/1_Storage.sol\":557:702  function setMapping(uint _id, string memory _name, uint _level, uint _score) public {... */\n    tag_3:\n      tag_14\n      0x04\n      dup1\n      calldatasize\n      sub\n      dup2\n      add\n      swap1\n      tag_15\n      swap2\n      swap1\n      tag_16\n      jump\t// in\n    tag_15:\n      tag_17\n      jump\t// in\n    tag_14:\n      stop\n        /* \"contracts/1_Storage.sol\":1064:1140  function getValue() public view returns (uint) {... */\n    tag_4:\n      tag_18\n      tag_19\n      jump\t// in\n    tag_18:\n      mload(0x40)\n      tag_20\n      swap2\n      swap1\n      tag_21\n      jump\t// in\n    tag_20:\n      mload(0x40)\n      dup1\n      swap2\n      sub\n      swap1\n      return\n        /* \"contracts/1_Storage.sol\":1221:1300  function retrieve() public view returns (uint256){... */\n    tag_5:\n      tag_22\n      tag_23\n      jump\t// in\n    tag_22:\n      mload(0x40)\n      tag_24\n      swap2\n      swap1\n      tag_21\n      jump\t// in\n    tag_24:\n      mload(0x40)\n      dup1\n      swap2\n      sub\n      swap1\n      return\n        /* \"contracts/1_Storage.sol\":711:794  function addElement() public {... */\n    tag_6:\n      tag_25\n      tag_26\n      jump\t// in\n    tag_25:\n      stop\n        /* \"contracts/1_Storage.sol\":972:1041  function setValue(uint _value) public {... */\n    tag_7:\n      tag_27\n      0x04\n      dup1\n      calldatasize\n      sub\n      dup2\n      add\n      swap1\n      tag_28\n      swap2\n      swap1\n      tag_29\n      jump\t// in\n    tag_28:\n      tag_30\n      jump\t// in\n    tag_27:\n      stop\n        /* \"contracts/1_Storage.sol\":885:949  function store(uint256 num) public {... */\n    tag_8:\n      tag_31\n      0x04\n      dup1\n      calldatasize\n      sub\n      dup2\n      add\n      swap1\n      tag_32\n      swap2\n      swap1\n      tag_29\n      jump\t// in\n    tag_32:\n      tag_33\n      jump\t// in\n    tag_31:\n      stop\n        /* \"contracts/1_Storage.sol\":287:311  string public s1 = \"abc\" */\n    tag_9:\n      tag_34\n      tag_35\n      jump\t// in\n    tag_34:\n      mload(0x40)\n      tag_36\n      swap2\n      swap1\n      tag_37\n      jump\t// in\n    tag_36:\n      mload(0x40)\n      dup1\n      swap2\n      sub\n      swap1\n      return\n        /* \"contracts/1_Storage.sol\":257:280  bytes public b1 = \"abc\" */\n    tag_10:\n      tag_38\n      tag_39\n      jump\t// in\n    tag_38:\n      mload(0x40)\n      tag_40\n      swap2\n      swap1\n      tag_41\n      jump\t// in\n    tag_40:\n      mload(0x40)\n      dup1\n      swap2\n      sub\n      swap1\n      return\n        /* \"contracts/1_Storage.sol\":457:495  mapping(uint => Player) public players */\n    tag_11:\n      tag_42\n      0x04\n      dup1\n      calldatasize\n      sub\n      dup2\n      add\n      swap1\n      tag_43\n      swap2\n      swap1\n      tag_29\n      jump\t// in\n    tag_43:\n      tag_44\n      jump\t// in\n    tag_42:\n      mload(0x40)\n      tag_45\n      swap4\n      swap3\n      swap2\n      swap1\n      tag_46\n      jump\t// in\n    tag_45:\n      mload(0x40)\n      dup1\n      swap2\n      sub\n      swap1\n      return\n        /* \"contracts/1_Storage.sol\":317:357  mapping(string => uint) public myMapping */\n    tag_12:\n      tag_47\n      0x04\n      dup1\n      calldatasize\n      sub\n      dup2\n      add\n      swap1\n      tag_48\n      swap2\n      swap1\n      tag_49\n      jump\t// in\n    tag_48:\n      tag_50\n      jump\t// in\n    tag_47:\n      mload(0x40)\n      tag_51\n      swap2\n      swap1\n      tag_21\n      jump\t// in\n    tag_51:\n      mload(0x40)\n      dup1\n      swap2\n      sub\n      swap1\n      return\n        /* \"contracts/1_Storage.sol\":557:702  function setMapping(uint _id, string memory _name, uint _level, uint _score) public {... */\n    tag_17:\n        /* \"contracts/1_Storage.sol\":666:695  Player(_name, _level, _score) */\n      mload(0x40)\n      dup1\n      0x60\n      add\n      0x40\n      mstore\n      dup1\n        /* \"contracts/1_Storage.sol\":673:678  _name */\n      dup5\n        /* \"contracts/1_Storage.sol\":666:695  Player(_name, _level, _score) */\n      dup2\n      mstore\n      0x20\n      add\n        /* \"contracts/1_Storage.sol\":680:686  _level */\n      dup4\n        /* \"contracts/1_Storage.sol\":666:695  Player(_name, _level, _score) */\n      dup2\n      mstore\n      0x20\n      add\n        /* \"contracts/1_Storage.sol\":688:694  _score */\n      dup3\n        /* \"contracts/1_Storage.sol\":666:695  Player(_name, _level, _score) */\n      dup2\n      mstore\n      pop\n        /* \"contracts/1_Storage.sol\":651:658  players */\n      0x05\n        /* \"contracts/1_Storage.sol\":651:663  players[_id] */\n      0x00\n        /* \"contracts/1_Storage.sol\":659:662  _id */\n      dup7\n        /* \"contracts/1_Storage.sol\":651:663  players[_id] */\n      dup2\n      mstore\n      0x20\n      add\n      swap1\n      dup2\n      mstore\n      0x20\n      add\n      0x00\n      keccak256\n        /* \"contracts/1_Storage.sol\":651:695  players[_id] = Player(_name, _level, _score) */\n      0x00\n      dup3\n      add\n      mload\n      dup2\n      0x00\n      add\n      swap1\n      dup2\n      tag_53\n      swap2\n      swap1\n      tag_54\n      jump\t// in\n    tag_53:\n      pop\n      0x20\n      dup3\n      add\n      mload\n      dup2\n      0x01\n      add\n      sstore\n      0x40\n      dup3\n      add\n      mload\n      dup2\n      0x02\n      add\n      sstore\n      swap1\n      pop\n      pop\n        /* \"contracts/1_Storage.sol\":557:702  function setMapping(uint _id, string memory _name, uint _level, uint _score) public {... */\n      pop\n      pop\n      pop\n      pop\n      jump\t// out\n        /* \"contracts/1_Storage.sol\":1064:1140  function getValue() public view returns (uint) {... */\n    tag_19:\n        /* \"contracts/1_Storage.sol\":1105:1109  uint */\n      0x00\n        /* \"contracts/1_Storage.sol\":1128:1133  value */\n      sload(0x01)\n        /* \"contracts/1_Storage.sol\":1121:1133  return value */\n      swap1\n      pop\n        /* \"contracts/1_Storage.sol\":1064:1140  function getValue() public view returns (uint) {... */\n      swap1\n      jump\t// out\n        /* \"contracts/1_Storage.sol\":1221:1300  function retrieve() public view returns (uint256){... */\n    tag_23:\n        /* \"contracts/1_Storage.sol\":1262:1269  uint256 */\n      0x00\n        /* \"contracts/1_Storage.sol\":1287:1293  number */\n      dup1\n      sload\n        /* \"contracts/1_Storage.sol\":1280:1293  return number */\n      swap1\n      pop\n        /* \"contracts/1_Storage.sol\":1221:1300  function retrieve() public view returns (uint256){... */\n      swap1\n      jump\t// out\n        /* \"contracts/1_Storage.sol\":711:794  function addElement() public {... */\n    tag_26:\n        /* \"contracts/1_Storage.sol\":750:752  b1 */\n      0x02\n        /* \"contracts/1_Storage.sol\":750:762  b1.push(\"x\") */\n      dup1\n      dup1\n      sload\n      dup1\n      tag_58\n      swap1\n      tag_59\n      jump\t// in\n    tag_58:\n      dup1\n      0x1f\n      dup2\n      sub\n      tag_60\n      jumpi\n      dup4\n      0x00\n      mstore\n      keccak256(0x00, 0x20)\n      not(0xff)\n      dup5\n      and\n      dup2\n      sstore\n      0x3f\n      swap4\n      pop\n      pop\n    tag_60:\n      pop\n      0x02\n      dup3\n      add\n      dup4\n      sstore\n      0x01\n      dup2\n      add\n      swap3\n      pop\n      pop\n      pop\n      0x01\n      swap1\n      sub\n      dup2\n      sload\n      0x01\n      and\n      iszero\n      tag_62\n      jumpi\n      swap1\n      0x00\n      mstore\n      keccak256(0x00, 0x20)\n      swap1\n      0x20\n      swap2\n      dup3\n      dup3\n      div\n      add\n      swap2\n      swap1\n      mod\n    tag_62:\n      0x7800000000000000000000000000000000000000000000000000000000000000\n      swap1\n      swap2\n      swap1\n      swap2\n      0x1f\n      sub\n      0x0100\n      exp\n      dup2\n      sload\n      dup2\n      0xff\n      mul\n      not\n      and\n      swap1\n      0x0100000000000000000000000000000000000000000000000000000000000000\n      dup5\n      div\n      mul\n      or\n      swap1\n      sstore\n      pop\n        /* \"contracts/1_Storage.sol\":711:794  function addElement() public {... */\n      jump\t// out\n        /* \"contracts/1_Storage.sol\":972:1041  function setValue(uint _value) public {... */\n    tag_30:\n        /* \"contracts/1_Storage.sol\":1028:1034  _value */\n      dup1\n        /* \"contracts/1_Storage.sol\":1020:1025  value */\n      0x01\n        /* \"contracts/1_Storage.sol\":1020:1034  value = _value */\n      dup2\n      swap1\n      sstore\n      pop\n        /* \"contracts/1_Storage.sol\":972:1041  function setValue(uint _value) public {... */\n      pop\n      jump\t// out\n        /* \"contracts/1_Storage.sol\":885:949  function store(uint256 num) public {... */\n    tag_33:\n        /* \"contracts/1_Storage.sol\":939:942  num */\n      dup1\n        /* \"contracts/1_Storage.sol\":930:936  number */\n      0x00\n        /* \"contracts/1_Storage.sol\":930:942  number = num */\n      dup2\n      swap1\n      sstore\n      pop\n        /* \"contracts/1_Storage.sol\":885:949  function store(uint256 num) public {... */\n      pop\n      jump\t// out\n        /* \"contracts/1_Storage.sol\":287:311  string public s1 = \"abc\" */\n    tag_35:\n      0x03\n      dup1\n      sload\n      tag_65\n      swap1\n      tag_59\n      jump\t// in\n    tag_65:\n      dup1\n      0x1f\n      add\n      0x20\n      dup1\n      swap2\n      div\n      mul\n      0x20\n      add\n      mload(0x40)\n      swap1\n      dup2\n      add\n      0x40\n      mstore\n      dup1\n      swap3\n      swap2\n      swap1\n      dup2\n      dup2\n      mstore\n      0x20\n      add\n      dup3\n      dup1\n      sload\n      tag_66\n      swap1\n      tag_59\n      jump\t// in\n    tag_66:\n      dup1\n      iszero\n      tag_67\n      jumpi\n      dup1\n      0x1f\n      lt\n      tag_68\n      jumpi\n      0x0100\n      dup1\n      dup4\n      sload\n      div\n      mul\n      dup4\n      mstore\n      swap2\n      0x20\n      add\n      swap2\n      jump(tag_67)\n    tag_68:\n      dup3\n      add\n      swap2\n      swap1\n      0x00\n      mstore\n      keccak256(0x00, 0x20)\n      swap1\n    tag_69:\n      dup2\n      sload\n      dup2\n      mstore\n      swap1\n      0x01\n      add\n      swap1\n      0x20\n      add\n      dup1\n      dup4\n      gt\n      tag_69\n      jumpi\n      dup3\n      swap1\n      sub\n      0x1f\n      and\n      dup3\n      add\n      swap2\n    tag_67:\n      pop\n      pop\n      pop\n      pop\n      pop\n      dup2\n      jump\t// out\n        /* \"contracts/1_Storage.sol\":257:280  bytes public b1 = \"abc\" */\n    tag_39:\n      0x02\n      dup1\n      sload\n      tag_70\n      swap1\n      tag_59\n      jump\t// in\n    tag_70:\n      dup1\n      0x1f\n      add\n      0x20\n      dup1\n      swap2\n      div\n      mul\n      0x20\n      add\n      mload(0x40)\n      swap1\n      dup2\n      add\n      0x40\n      mstore\n      dup1\n      swap3\n      swap2\n      swap1\n      dup2\n      dup2\n      mstore\n      0x20\n      add\n      dup3\n      dup1\n      sload\n      tag_71\n      swap1\n      tag_59\n      jump\t// in\n    tag_71:\n      dup1\n      iszero\n      tag_72\n      jumpi\n      dup1\n      0x1f\n      lt\n      tag_73\n      jumpi\n      0x0100\n      dup1\n      dup4\n      sload\n      div\n      mul\n      dup4\n      mstore\n      swap2\n      0x20\n      add\n      swap2\n      jump(tag_72)\n    tag_73:\n      dup3\n      add\n      swap2\n      swap1\n      0x00\n      mstore\n      keccak256(0x00, 0x20)\n      swap1\n    tag_74:\n      dup2\n      sload\n      dup2\n      mstore\n      swap1\n      0x01\n      add\n      swap1\n      0x20\n      add\n      dup1\n      dup4\n      gt\n      tag_74\n      jumpi\n      dup3\n      swap1\n      sub\n      0x1f\n      and\n      dup3\n      add\n      swap2\n    tag_72:\n      pop\n      pop\n      pop\n      pop\n      pop\n      dup2\n      jump\t// out\n        /* \"contracts/1_Storage.sol\":457:495  mapping(uint => Player) public players */\n    tag_44:\n      mstore(0x20, 0x05)\n      dup1\n      0x00\n      mstore\n      keccak256(0x00, 0x40)\n      0x00\n      swap2\n      pop\n      swap1\n      pop\n      dup1\n      0x00\n      add\n      dup1\n      sload\n      tag_75\n      swap1\n      tag_59\n      jump\t// in\n    tag_75:\n      dup1\n      0x1f\n      add\n      0x20\n      dup1\n      swap2\n      div\n      mul\n      0x20\n      add\n      mload(0x40)\n      swap1\n      dup2\n      add\n      0x40\n      mstore\n      dup1\n      swap3\n      swap2\n      swap1\n      dup2\n      dup2\n      mstore\n      0x20\n      add\n      dup3\n      dup1\n      sload\n      tag_76\n      swap1\n      tag_59\n      jump\t// in\n    tag_76:\n      dup1\n      iszero\n      tag_77\n      jumpi\n      dup1\n      0x1f\n      lt\n      tag_78\n      jumpi\n      0x0100\n      dup1\n      dup4\n      sload\n      div\n      mul\n      dup4\n      mstore\n      swap2\n      0x20\n      add\n      swap2\n      jump(tag_77)\n    tag_78:\n      dup3\n      add\n      swap2\n      swap1\n      0x00\n      mstore\n      keccak256(0x00, 0x20)\n      swap1\n    tag_79:\n      dup2\n      sload\n      dup2\n      mstore\n      swap1\n      0x01\n      add\n      swap1\n      0x20\n      add\n      dup1\n      dup4\n      gt\n      tag_79\n      jumpi\n      dup3\n      swap1\n      sub\n      0x1f\n      and\n      dup3\n      add\n      swap2\n    tag_77:\n      pop\n      pop\n      pop\n      pop\n      pop\n      swap1\n      dup1\n      0x01\n      add\n      sload\n      swap1\n      dup1\n      0x02\n      add\n      sload\n      swap1\n      pop\n      dup4\n      jump\t// out\n        /* \"contracts/1_Storage.sol\":317:357  mapping(string => uint) public myMapping */\n    tag_50:\n      0x04\n      dup2\n      dup1\n      mload\n      0x20\n      dup2\n      add\n      dup3\n      add\n      dup1\n      mload\n      dup5\n      dup3\n      mstore\n      0x20\n      dup4\n      add\n      0x20\n      dup6\n      add\n      keccak256\n      dup2\n      dup4\n      mstore\n      dup1\n      swap6\n      pop\n      pop\n      pop\n      pop\n      pop\n      pop\n      0x00\n      swap2\n      pop\n      swap1\n      pop\n      sload\n      dup2\n      jump\t// out\n        /* \"#utility.yul\":7:82   */\n    tag_80:\n        /* \"#utility.yul\":40:46   */\n      0x00\n        /* \"#utility.yul\":73:75   */\n      0x40\n        /* \"#utility.yul\":67:76   */\n      mload\n        /* \"#utility.yul\":57:76   */\n      swap1\n      pop\n        /* \"#utility.yul\":7:82   */\n      swap1\n      jump\t// out\n        /* \"#utility.yul\":88:205   */\n    tag_81:\n        /* \"#utility.yul\":197:198   */\n      0x00\n        /* \"#utility.yul\":194:195   */\n      dup1\n        /* \"#utility.yul\":187:199   */\n      revert\n        /* \"#utility.yul\":211:328   */\n    tag_82:\n        /* \"#utility.yul\":320:321   */\n      0x00\n        /* \"#utility.yul\":317:318   */\n      dup1\n        /* \"#utility.yul\":310:322   */\n      revert\n        /* \"#utility.yul\":334:411   */\n    tag_83:\n        /* \"#utility.yul\":371:378   */\n      0x00\n        /* \"#utility.yul\":400:405   */\n      dup2\n        /* \"#utility.yul\":389:405   */\n      swap1\n      pop\n        /* \"#utility.yul\":334:411   */\n      swap2\n      swap1\n      pop\n      jump\t// out\n        /* \"#utility.yul\":417:539   */\n    tag_84:\n        /* \"#utility.yul\":490:514   */\n      tag_126\n        /* \"#utility.yul\":508:513   */\n      dup2\n        /* \"#utility.yul\":490:514   */\n      tag_83\n      jump\t// in\n    tag_126:\n        /* \"#utility.yul\":483:488   */\n      dup2\n        /* \"#utility.yul\":480:515   */\n      eq\n        /* \"#utility.yul\":470:533   */\n      tag_127\n      jumpi\n        /* \"#utility.yul\":529:530   */\n      0x00\n        /* \"#utility.yul\":526:527   */\n      dup1\n        /* \"#utility.yul\":519:531   */\n      revert\n        /* \"#utility.yul\":470:533   */\n    tag_127:\n        /* \"#utility.yul\":417:539   */\n      pop\n      jump\t// out\n        /* \"#utility.yul\":545:684   */\n    tag_85:\n        /* \"#utility.yul\":591:596   */\n      0x00\n        /* \"#utility.yul\":629:635   */\n      dup2\n        /* \"#utility.yul\":616:636   */\n      calldataload\n        /* \"#utility.yul\":607:636   */\n      swap1\n      pop\n        /* \"#utility.yul\":645:678   */\n      tag_129\n        /* \"#utility.yul\":672:677   */\n      dup2\n        /* \"#utility.yul\":645:678   */\n      tag_84\n      jump\t// in\n    tag_129:\n        /* \"#utility.yul\":545:684   */\n      swap3\n      swap2\n      pop\n      pop\n      jump\t// out\n        /* \"#utility.yul\":690:807   */\n    tag_86:\n        /* \"#utility.yul\":799:800   */\n      0x00\n        /* \"#utility.yul\":796:797   */\n      dup1\n        /* \"#utility.yul\":789:801   */\n      revert\n        /* \"#utility.yul\":813:930   */\n    tag_87:\n        /* \"#utility.yul\":922:923   */\n      0x00\n        /* \"#utility.yul\":919:920   */\n      dup1\n        /* \"#utility.yul\":912:924   */\n      revert\n        /* \"#utility.yul\":936:1038   */\n    tag_88:\n        /* \"#utility.yul\":977:983   */\n      0x00\n        /* \"#utility.yul\":1028:1030   */\n      0x1f\n        /* \"#utility.yul\":1024:1031   */\n      not\n        /* \"#utility.yul\":1019:1021   */\n      0x1f\n        /* \"#utility.yul\":1012:1017   */\n      dup4\n        /* \"#utility.yul\":1008:1022   */\n      add\n        /* \"#utility.yul\":1004:1032   */\n      and\n        /* \"#utility.yul\":994:1032   */\n      swap1\n      pop\n        /* \"#utility.yul\":936:1038   */\n      swap2\n      swap1\n      pop\n      jump\t// out\n        /* \"#utility.yul\":1044:1224   */\n    tag_89:\n        /* \"#utility.yul\":1092:1169   */\n      0x4e487b7100000000000000000000000000000000000000000000000000000000\n        /* \"#utility.yul\":1089:1090   */\n      0x00\n        /* \"#utility.yul\":1082:1170   */\n      mstore\n        /* \"#utility.yul\":1189:1193   */\n      0x41\n        /* \"#utility.yul\":1186:1187   */\n      0x04\n        /* \"#utility.yul\":1179:1194   */\n      mstore\n        /* \"#utility.yul\":1213:1217   */\n      0x24\n        /* \"#utility.yul\":1210:1211   */\n      0x00\n        /* \"#utility.yul\":1203:1218   */\n      revert\n        /* \"#utility.yul\":1230:1511   */\n    tag_90:\n        /* \"#utility.yul\":1313:1340   */\n      tag_135\n        /* \"#utility.yul\":1335:1339   */\n      dup3\n        /* \"#utility.yul\":1313:1340   */\n      tag_88\n      jump\t// in\n    tag_135:\n        /* \"#utility.yul\":1305:1311   */\n      dup2\n        /* \"#utility.yul\":1301:1341   */\n      add\n        /* \"#utility.yul\":1443:1449   */\n      dup2\n        /* \"#utility.yul\":1431:1441   */\n      dup2\n        /* \"#utility.yul\":1428:1450   */\n      lt\n        /* \"#utility.yul\":1407:1425   */\n      0xffffffffffffffff\n        /* \"#utility.yul\":1395:1405   */\n      dup3\n        /* \"#utility.yul\":1392:1426   */\n      gt\n        /* \"#utility.yul\":1389:1451   */\n      or\n        /* \"#utility.yul\":1386:1474   */\n      iszero\n      tag_136\n      jumpi\n        /* \"#utility.yul\":1454:1472   */\n      tag_137\n      tag_89\n      jump\t// in\n    tag_137:\n        /* \"#utility.yul\":1386:1474   */\n    tag_136:\n        /* \"#utility.yul\":1494:1504   */\n      dup1\n        /* \"#utility.yul\":1490:1492   */\n      0x40\n        /* \"#utility.yul\":1483:1505   */\n      mstore\n        /* \"#utility.yul\":1273:1511   */\n      pop\n        /* \"#utility.yul\":1230:1511   */\n      pop\n      pop\n      jump\t// out\n        /* \"#utility.yul\":1517:1646   */\n    tag_91:\n        /* \"#utility.yul\":1551:1557   */\n      0x00\n        /* \"#utility.yul\":1578:1598   */\n      tag_139\n      tag_80\n      jump\t// in\n    tag_139:\n        /* \"#utility.yul\":1568:1598   */\n      swap1\n      pop\n        /* \"#utility.yul\":1607:1640   */\n      tag_140\n        /* \"#utility.yul\":1635:1639   */\n      dup3\n        /* \"#utility.yul\":1627:1633   */\n      dup3\n        /* \"#utility.yul\":1607:1640   */\n      tag_90\n      jump\t// in\n    tag_140:\n        /* \"#utility.yul\":1517:1646   */\n      swap2\n      swap1\n      pop\n      jump\t// out\n        /* \"#utility.yul\":1652:1960   */\n    tag_92:\n        /* \"#utility.yul\":1714:1718   */\n      0x00\n        /* \"#utility.yul\":1804:1822   */\n      0xffffffffffffffff\n        /* \"#utility.yul\":1796:1802   */\n      dup3\n        /* \"#utility.yul\":1793:1823   */\n      gt\n        /* \"#utility.yul\":1790:1846   */\n      iszero\n      tag_142\n      jumpi\n        /* \"#utility.yul\":1826:1844   */\n      tag_143\n      tag_89\n      jump\t// in\n    tag_143:\n        /* \"#utility.yul\":1790:1846   */\n    tag_142:\n        /* \"#utility.yul\":1864:1893   */\n      tag_144\n        /* \"#utility.yul\":1886:1892   */\n      dup3\n        /* \"#utility.yul\":1864:1893   */\n      tag_88\n      jump\t// in\n    tag_144:\n        /* \"#utility.yul\":1856:1893   */\n      swap1\n      pop\n        /* \"#utility.yul\":1948:1952   */\n      0x20\n        /* \"#utility.yul\":1942:1946   */\n      dup2\n        /* \"#utility.yul\":1938:1953   */\n      add\n        /* \"#utility.yul\":1930:1953   */\n      swap1\n      pop\n        /* \"#utility.yul\":1652:1960   */\n      swap2\n      swap1\n      pop\n      jump\t// out\n        /* \"#utility.yul\":1966:2112   */\n    tag_93:\n        /* \"#utility.yul\":2063:2069   */\n      dup3\n        /* \"#utility.yul\":2058:2061   */\n      dup2\n        /* \"#utility.yul\":2053:2056   */\n      dup4\n        /* \"#utility.yul\":2040:2070   */\n      calldatacopy\n        /* \"#utility.yul\":2104:2105   */\n      0x00\n        /* \"#utility.yul\":2095:2101   */\n      dup4\n        /* \"#utility.yul\":2090:2093   */\n      dup4\n        /* \"#utility.yul\":2086:2102   */\n      add\n        /* \"#utility.yul\":2079:2106   */\n      mstore\n        /* \"#utility.yul\":1966:2112   */\n      pop\n      pop\n      pop\n      jump\t// out\n        /* \"#utility.yul\":2118:2543   */\n    tag_94:\n        /* \"#utility.yul\":2196:2201   */\n      0x00\n        /* \"#utility.yul\":2221:2287   */\n      tag_147\n        /* \"#utility.yul\":2237:2286   */\n      tag_148\n        /* \"#utility.yul\":2279:2285   */\n      dup5\n        /* \"#utility.yul\":2237:2286   */\n      tag_92\n      jump\t// in\n    tag_148:\n        /* \"#utility.yul\":2221:2287   */\n      tag_91\n      jump\t// in\n    tag_147:\n        /* \"#utility.yul\":2212:2287   */\n      swap1\n      pop\n        /* \"#utility.yul\":2310:2316   */\n      dup3\n        /* \"#utility.yul\":2303:2308   */\n      dup2\n        /* \"#utility.yul\":2296:2317   */\n      mstore\n        /* \"#utility.yul\":2348:2352   */\n      0x20\n        /* \"#utility.yul\":2341:2346   */\n      dup2\n        /* \"#utility.yul\":2337:2353   */\n      add\n        /* \"#utility.yul\":2386:2389   */\n      dup5\n        /* \"#utility.yul\":2377:2383   */\n      dup5\n        /* \"#utility.yul\":2372:2375   */\n      dup5\n        /* \"#utility.yul\":2368:2384   */\n      add\n        /* \"#utility.yul\":2365:2390   */\n      gt\n        /* \"#utility.yul\":2362:2474   */\n      iszero\n      tag_149\n      jumpi\n        /* \"#utility.yul\":2393:2472   */\n      tag_150\n      tag_87\n      jump\t// in\n    tag_150:\n        /* \"#utility.yul\":2362:2474   */\n    tag_149:\n        /* \"#utility.yul\":2483:2537   */\n      tag_151\n        /* \"#utility.yul\":2530:2536   */\n      dup5\n        /* \"#utility.yul\":2525:2528   */\n      dup3\n        /* \"#utility.yul\":2520:2523   */\n      dup6\n        /* \"#utility.yul\":2483:2537   */\n      tag_93\n      jump\t// in\n    tag_151:\n        /* \"#utility.yul\":2202:2543   */\n      pop\n        /* \"#utility.yul\":2118:2543   */\n      swap4\n      swap3\n      pop\n      pop\n      pop\n      jump\t// out\n        /* \"#utility.yul\":2563:2903   */\n    tag_95:\n        /* \"#utility.yul\":2619:2624   */\n      0x00\n        /* \"#utility.yul\":2668:2671   */\n      dup3\n        /* \"#utility.yul\":2661:2665   */\n      0x1f\n        /* \"#utility.yul\":2653:2659   */\n      dup4\n        /* \"#utility.yul\":2649:2666   */\n      add\n        /* \"#utility.yul\":2645:2672   */\n      slt\n        /* \"#utility.yul\":2635:2757   */\n      tag_153\n      jumpi\n        /* \"#utility.yul\":2676:2755   */\n      tag_154\n      tag_86\n      jump\t// in\n    tag_154:\n        /* \"#utility.yul\":2635:2757   */\n    tag_153:\n        /* \"#utility.yul\":2793:2799   */\n      dup2\n        /* \"#utility.yul\":2780:2800   */\n      calldataload\n        /* \"#utility.yul\":2818:2897   */\n      tag_155\n        /* \"#utility.yul\":2893:2896   */\n      dup5\n        /* \"#utility.yul\":2885:2891   */\n      dup3\n        /* \"#utility.yul\":2878:2882   */\n      0x20\n        /* \"#utility.yul\":2870:2876   */\n      dup7\n        /* \"#utility.yul\":2866:2883   */\n      add\n        /* \"#utility.yul\":2818:2897   */\n      tag_94\n      jump\t// in\n    tag_155:\n        /* \"#utility.yul\":2809:2897   */\n      swap2\n      pop\n        /* \"#utility.yul\":2625:2903   */\n      pop\n        /* \"#utility.yul\":2563:2903   */\n      swap3\n      swap2\n      pop\n      pop\n      jump\t// out\n        /* \"#utility.yul\":2909:3854   */\n    tag_16:\n        /* \"#utility.yul\":3005:3011   */\n      0x00\n        /* \"#utility.yul\":3013:3019   */\n      dup1\n        /* \"#utility.yul\":3021:3027   */\n      0x00\n        /* \"#utility.yul\":3029:3035   */\n      dup1\n        /* \"#utility.yul\":3078:3081   */\n      0x80\n        /* \"#utility.yul\":3066:3075   */\n      dup6\n        /* \"#utility.yul\":3057:3064   */\n      dup8\n        /* \"#utility.yul\":3053:3076   */\n      sub\n        /* \"#utility.yul\":3049:3082   */\n      slt\n        /* \"#utility.yul\":3046:3166   */\n      iszero\n      tag_157\n      jumpi\n        /* \"#utility.yul\":3085:3164   */\n      tag_158\n      tag_81\n      jump\t// in\n    tag_158:\n        /* \"#utility.yul\":3046:3166   */\n    tag_157:\n        /* \"#utility.yul\":3205:3206   */\n      0x00\n        /* \"#utility.yul\":3230:3283   */\n      tag_159\n        /* \"#utility.yul\":3275:3282   */\n      dup8\n        /* \"#utility.yul\":3266:3272   */\n      dup3\n        /* \"#utility.yul\":3255:3264   */\n      dup9\n        /* \"#utility.yul\":3251:3273   */\n      add\n        /* \"#utility.yul\":3230:3283   */\n      tag_85\n      jump\t// in\n    tag_159:\n        /* \"#utility.yul\":3220:3283   */\n      swap5\n      pop\n        /* \"#utility.yul\":3176:3293   */\n      pop\n        /* \"#utility.yul\":3360:3362   */\n      0x20\n        /* \"#utility.yul\":3349:3358   */\n      dup6\n        /* \"#utility.yul\":3345:3363   */\n      add\n        /* \"#utility.yul\":3332:3364   */\n      calldataload\n        /* \"#utility.yul\":3391:3409   */\n      0xffffffffffffffff\n        /* \"#utility.yul\":3383:3389   */\n      dup2\n        /* \"#utility.yul\":3380:3410   */\n      gt\n        /* \"#utility.yul\":3377:3494   */\n      iszero\n      tag_160\n      jumpi\n        /* \"#utility.yul\":3413:3492   */\n      tag_161\n      tag_82\n      jump\t// in\n    tag_161:\n        /* \"#utility.yul\":3377:3494   */\n    tag_160:\n        /* \"#utility.yul\":3518:3581   */\n      tag_162\n        /* \"#utility.yul\":3573:3580   */\n      dup8\n        /* \"#utility.yul\":3564:3570   */\n      dup3\n        /* \"#utility.yul\":3553:3562   */\n      dup9\n        /* \"#utility.yul\":3549:3571   */\n      add\n        /* \"#utility.yul\":3518:3581   */\n      tag_95\n      jump\t// in\n    tag_162:\n        /* \"#utility.yul\":3508:3581   */\n      swap4\n      pop\n        /* \"#utility.yul\":3303:3591   */\n      pop\n        /* \"#utility.yul\":3630:3632   */\n      0x40\n        /* \"#utility.yul\":3656:3709   */\n      tag_163\n        /* \"#utility.yul\":3701:3708   */\n      dup8\n        /* \"#utility.yul\":3692:3698   */\n      dup3\n        /* \"#utility.yul\":3681:3690   */\n      dup9\n        /* \"#utility.yul\":3677:3699   */\n      add\n        /* \"#utility.yul\":3656:3709   */\n      tag_85\n      jump\t// in\n    tag_163:\n        /* \"#utility.yul\":3646:3709   */\n      swap3\n      pop\n        /* \"#utility.yul\":3601:3719   */\n      pop\n        /* \"#utility.yul\":3758:3760   */\n      0x60\n        /* \"#utility.yul\":3784:3837   */\n      tag_164\n        /* \"#utility.yul\":3829:3836   */\n      dup8\n        /* \"#utility.yul\":3820:3826   */\n      dup3\n        /* \"#utility.yul\":3809:3818   */\n      dup9\n        /* \"#utility.yul\":3805:3827   */\n      add\n        /* \"#utility.yul\":3784:3837   */\n      tag_85\n      jump\t// in\n    tag_164:\n        /* \"#utility.yul\":3774:3837   */\n      swap2\n      pop\n        /* \"#utility.yul\":3729:3847   */\n      pop\n        /* \"#utility.yul\":2909:3854   */\n      swap3\n      swap6\n      swap2\n      swap5\n      pop\n      swap3\n      pop\n      jump\t// out\n        /* \"#utility.yul\":3860:3978   */\n    tag_96:\n        /* \"#utility.yul\":3947:3971   */\n      tag_166\n        /* \"#utility.yul\":3965:3970   */\n      dup2\n        /* \"#utility.yul\":3947:3971   */\n      tag_83\n      jump\t// in\n    tag_166:\n        /* \"#utility.yul\":3942:3945   */\n      dup3\n        /* \"#utility.yul\":3935:3972   */\n      mstore\n        /* \"#utility.yul\":3860:3978   */\n      pop\n      pop\n      jump\t// out\n        /* \"#utility.yul\":3984:4206   */\n    tag_21:\n        /* \"#utility.yul\":4077:4081   */\n      0x00\n        /* \"#utility.yul\":4115:4117   */\n      0x20\n        /* \"#utility.yul\":4104:4113   */\n      dup3\n        /* \"#utility.yul\":4100:4118   */\n      add\n        /* \"#utility.yul\":4092:4118   */\n      swap1\n      pop\n        /* \"#utility.yul\":4128:4199   */\n      tag_168\n        /* \"#utility.yul\":4196:4197   */\n      0x00\n        /* \"#utility.yul\":4185:4194   */\n      dup4\n        /* \"#utility.yul\":4181:4198   */\n      add\n        /* \"#utility.yul\":4172:4178   */\n      dup5\n        /* \"#utility.yul\":4128:4199   */\n      tag_96\n      jump\t// in\n    tag_168:\n        /* \"#utility.yul\":3984:4206   */\n      swap3\n      swap2\n      pop\n      pop\n      jump\t// out\n        /* \"#utility.yul\":4212:4541   */\n    tag_29:\n        /* \"#utility.yul\":4271:4277   */\n      0x00\n        /* \"#utility.yul\":4320:4322   */\n      0x20\n        /* \"#utility.yul\":4308:4317   */\n      dup3\n        /* \"#utility.yul\":4299:4306   */\n      dup5\n        /* \"#utility.yul\":4295:4318   */\n      sub\n        /* \"#utility.yul\":4291:4323   */\n      slt\n        /* \"#utility.yul\":4288:4407   */\n      iszero\n      tag_170\n      jumpi\n        /* \"#utility.yul\":4326:4405   */\n      tag_171\n      tag_81\n      jump\t// in\n    tag_171:\n        /* \"#utility.yul\":4288:4407   */\n    tag_170:\n        /* \"#utility.yul\":4446:4447   */\n      0x00\n        /* \"#utility.yul\":4471:4524   */\n      tag_172\n        /* \"#utility.yul\":4516:4523   */\n      dup5\n        /* \"#utility.yul\":4507:4513   */\n      dup3\n        /* \"#utility.yul\":4496:4505   */\n      dup6\n        /* \"#utility.yul\":4492:4514   */\n      add\n        /* \"#utility.yul\":4471:4524   */\n      tag_85\n      jump\t// in\n    tag_172:\n        /* \"#utility.yul\":4461:4524   */\n      swap2\n      pop\n        /* \"#utility.yul\":4417:4534   */\n      pop\n        /* \"#utility.yul\":4212:4541   */\n      swap3\n      swap2\n      pop\n      pop\n      jump\t// out\n        /* \"#utility.yul\":4547:4646   */\n    tag_97:\n        /* \"#utility.yul\":4599:4605   */\n      0x00\n        /* \"#utility.yul\":4633:4638   */\n      dup2\n        /* \"#utility.yul\":4627:4639   */\n      mload\n        /* \"#utility.yul\":4617:4639   */\n      swap1\n      pop\n        /* \"#utility.yul\":4547:4646   */\n      swap2\n      swap1\n      pop\n      jump\t// out\n        /* \"#utility.yul\":4652:4821   */\n    tag_98:\n        /* \"#utility.yul\":4736:4747   */\n      0x00\n        /* \"#utility.yul\":4770:4776   */\n      dup3\n        /* \"#utility.yul\":4765:4768   */\n      dup3\n        /* \"#utility.yul\":4758:4777   */\n      mstore\n        /* \"#utility.yul\":4810:4814   */\n      0x20\n        /* \"#utility.yul\":4805:4808   */\n      dup3\n        /* \"#utility.yul\":4801:4815   */\n      add\n        /* \"#utility.yul\":4786:4815   */\n      swap1\n      pop\n        /* \"#utility.yul\":4652:4821   */\n      swap3\n      swap2\n      pop\n      pop\n      jump\t// out\n        /* \"#utility.yul\":4827:5073   */\n    tag_99:\n        /* \"#utility.yul\":4908:4909   */\n      0x00\n        /* \"#utility.yul\":4918:5031   */\n    tag_176:\n        /* \"#utility.yul\":4932:4938   */\n      dup4\n        /* \"#utility.yul\":4929:4930   */\n      dup2\n        /* \"#utility.yul\":4926:4939   */\n      lt\n        /* \"#utility.yul\":4918:5031   */\n      iszero\n      tag_178\n      jumpi\n        /* \"#utility.yul\":5017:5018   */\n      dup1\n        /* \"#utility.yul\":5012:5015   */\n      dup3\n        /* \"#utility.yul\":5008:5019   */\n      add\n        /* \"#utility.yul\":5002:5020   */\n      mload\n        /* \"#utility.yul\":4998:4999   */\n      dup2\n        /* \"#utility.yul\":4993:4996   */\n      dup5\n        /* \"#utility.yul\":4989:5000   */\n      add\n        /* \"#utility.yul\":4982:5021   */\n      mstore\n        /* \"#utility.yul\":4954:4956   */\n      0x20\n        /* \"#utility.yul\":4951:4952   */\n      dup2\n        /* \"#utility.yul\":4947:4957   */\n      add\n        /* \"#utility.yul\":4942:4957   */\n      swap1\n      pop\n        /* \"#utility.yul\":4918:5031   */\n      jump(tag_176)\n    tag_178:\n        /* \"#utility.yul\":5065:5066   */\n      0x00\n        /* \"#utility.yul\":5056:5062   */\n      dup5\n        /* \"#utility.yul\":5051:5054   */\n      dup5\n        /* \"#utility.yul\":5047:5063   */\n      add\n        /* \"#utility.yul\":5040:5067   */\n      mstore\n        /* \"#utility.yul\":4889:5073   */\n      pop\n        /* \"#utility.yul\":4827:5073   */\n      pop\n      pop\n      pop\n      jump\t// out\n        /* \"#utility.yul\":5079:5456   */\n    tag_100:\n        /* \"#utility.yul\":5167:5170   */\n      0x00\n        /* \"#utility.yul\":5195:5234   */\n      tag_180\n        /* \"#utility.yul\":5228:5233   */\n      dup3\n        /* \"#utility.yul\":5195:5234   */\n      tag_97\n      jump\t// in\n    tag_180:\n        /* \"#utility.yul\":5250:5321   */\n      tag_181\n        /* \"#utility.yul\":5314:5320   */\n      dup2\n        /* \"#utility.yul\":5309:5312   */\n      dup6\n        /* \"#utility.yul\":5250:5321   */\n      tag_98\n      jump\t// in\n    tag_181:\n        /* \"#utility.yul\":5243:5321   */\n      swap4\n      pop\n        /* \"#utility.yul\":5330:5395   */\n      tag_182\n        /* \"#utility.yul\":5388:5394   */\n      dup2\n        /* \"#utility.yul\":5383:5386   */\n      dup6\n        /* \"#utility.yul\":5376:5380   */\n      0x20\n        /* \"#utility.yul\":5369:5374   */\n      dup7\n        /* \"#utility.yul\":5365:5381   */\n      add\n        /* \"#utility.yul\":5330:5395   */\n      tag_99\n      jump\t// in\n    tag_182:\n        /* \"#utility.yul\":5420:5449   */\n      tag_183\n        /* \"#utility.yul\":5442:5448   */\n      dup2\n        /* \"#utility.yul\":5420:5449   */\n      tag_88\n      jump\t// in\n    tag_183:\n        /* \"#utility.yul\":5415:5418   */\n      dup5\n        /* \"#utility.yul\":5411:5450   */\n      add\n        /* \"#utility.yul\":5404:5450   */\n      swap2\n      pop\n        /* \"#utility.yul\":5171:5456   */\n      pop\n        /* \"#utility.yul\":5079:5456   */\n      swap3\n      swap2\n      pop\n      pop\n      jump\t// out\n        /* \"#utility.yul\":5462:5775   */\n    tag_37:\n        /* \"#utility.yul\":5575:5579   */\n      0x00\n        /* \"#utility.yul\":5613:5615   */\n      0x20\n        /* \"#utility.yul\":5602:5611   */\n      dup3\n        /* \"#utility.yul\":5598:5616   */\n      add\n        /* \"#utility.yul\":5590:5616   */\n      swap1\n      pop\n        /* \"#utility.yul\":5662:5671   */\n      dup2\n        /* \"#utility.yul\":5656:5660   */\n      dup2\n        /* \"#utility.yul\":5652:5672   */\n      sub\n        /* \"#utility.yul\":5648:5649   */\n      0x00\n        /* \"#utility.yul\":5637:5646   */\n      dup4\n        /* \"#utility.yul\":5633:5650   */\n      add\n        /* \"#utility.yul\":5626:5673   */\n      mstore\n        /* \"#utility.yul\":5690:5768   */\n      tag_185\n        /* \"#utility.yul\":5763:5767   */\n      dup2\n        /* \"#utility.yul\":5754:5760   */\n      dup5\n        /* \"#utility.yul\":5690:5768   */\n      tag_100\n      jump\t// in\n    tag_185:\n        /* \"#utility.yul\":5682:5768   */\n      swap1\n      pop\n        /* \"#utility.yul\":5462:5775   */\n      swap3\n      swap2\n      pop\n      pop\n      jump\t// out\n        /* \"#utility.yul\":5781:5879   */\n    tag_101:\n        /* \"#utility.yul\":5832:5838   */\n      0x00\n        /* \"#utility.yul\":5866:5871   */\n      dup2\n        /* \"#utility.yul\":5860:5872   */\n      mload\n        /* \"#utility.yul\":5850:5872   */\n      swap1\n      pop\n        /* \"#utility.yul\":5781:5879   */\n      swap2\n      swap1\n      pop\n      jump\t// out\n        /* \"#utility.yul\":5885:6053   */\n    tag_102:\n        /* \"#utility.yul\":5968:5979   */\n      0x00\n        /* \"#utility.yul\":6002:6008   */\n      dup3\n        /* \"#utility.yul\":5997:6000   */\n      dup3\n        /* \"#utility.yul\":5990:6009   */\n      mstore\n        /* \"#utility.yul\":6042:6046   */\n      0x20\n        /* \"#utility.yul\":6037:6040   */\n      dup3\n        /* \"#utility.yul\":6033:6047   */\n      add\n        /* \"#utility.yul\":6018:6047   */\n      swap1\n      pop\n        /* \"#utility.yul\":5885:6053   */\n      swap3\n      swap2\n      pop\n      pop\n      jump\t// out\n        /* \"#utility.yul\":6059:6432   */\n    tag_103:\n        /* \"#utility.yul\":6145:6148   */\n      0x00\n        /* \"#utility.yul\":6173:6211   */\n      tag_189\n        /* \"#utility.yul\":6205:6210   */\n      dup3\n        /* \"#utility.yul\":6173:6211   */\n      tag_101\n      jump\t// in\n    tag_189:\n        /* \"#utility.yul\":6227:6297   */\n      tag_190\n        /* \"#utility.yul\":6290:6296   */\n      dup2\n        /* \"#utility.yul\":6285:6288   */\n      dup6\n        /* \"#utility.yul\":6227:6297   */\n      tag_102\n      jump\t// in\n    tag_190:\n        /* \"#utility.yul\":6220:6297   */\n      swap4\n      pop\n        /* \"#utility.yul\":6306:6371   */\n      tag_191\n        /* \"#utility.yul\":6364:6370   */\n      dup2\n        /* \"#utility.yul\":6359:6362   */\n      dup6\n        /* \"#utility.yul\":6352:6356   */\n      0x20\n        /* \"#utility.yul\":6345:6350   */\n      dup7\n        /* \"#utility.yul\":6341:6357   */\n      add\n        /* \"#utility.yul\":6306:6371   */\n      tag_99\n      jump\t// in\n    tag_191:\n        /* \"#utility.yul\":6396:6425   */\n      tag_192\n        /* \"#utility.yul\":6418:6424   */\n      dup2\n        /* \"#utility.yul\":6396:6425   */\n      tag_88\n      jump\t// in\n    tag_192:\n        /* \"#utility.yul\":6391:6394   */\n      dup5\n        /* \"#utility.yul\":6387:6426   */\n      add\n        /* \"#utility.yul\":6380:6426   */\n      swap2\n      pop\n        /* \"#utility.yul\":6149:6432   */\n      pop\n        /* \"#utility.yul\":6059:6432   */\n      swap3\n      swap2\n      pop\n      pop\n      jump\t// out\n        /* \"#utility.yul\":6438:6747   */\n    tag_41:\n        /* \"#utility.yul\":6549:6553   */\n      0x00\n        /* \"#utility.yul\":6587:6589   */\n      0x20\n        /* \"#utility.yul\":6576:6585   */\n      dup3\n        /* \"#utility.yul\":6572:6590   */\n      add\n        /* \"#utility.yul\":6564:6590   */\n      swap1\n      pop\n        /* \"#utility.yul\":6636:6645   */\n      dup2\n        /* \"#utility.yul\":6630:6634   */\n      dup2\n        /* \"#utility.yul\":6626:6646   */\n      sub\n        /* \"#utility.yul\":6622:6623   */\n      0x00\n        /* \"#utility.yul\":6611:6620   */\n      dup4\n        /* \"#utility.yul\":6607:6624   */\n      add\n        /* \"#utility.yul\":6600:6647   */\n      mstore\n        /* \"#utility.yul\":6664:6740   */\n      tag_194\n        /* \"#utility.yul\":6735:6739   */\n      dup2\n        /* \"#utility.yul\":6726:6732   */\n      dup5\n        /* \"#utility.yul\":6664:6740   */\n      tag_103\n      jump\t// in\n    tag_194:\n        /* \"#utility.yul\":6656:6740   */\n      swap1\n      pop\n        /* \"#utility.yul\":6438:6747   */\n      swap3\n      swap2\n      pop\n      pop\n      jump\t// out\n        /* \"#utility.yul\":6753:7286   */\n    tag_46:\n        /* \"#utility.yul\":6922:6926   */\n      0x00\n        /* \"#utility.yul\":6960:6962   */\n      0x60\n        /* \"#utility.yul\":6949:6958   */\n      dup3\n        /* \"#utility.yul\":6945:6963   */\n      add\n        /* \"#utility.yul\":6937:6963   */\n      swap1\n      pop\n        /* \"#utility.yul\":7009:7018   */\n      dup2\n        /* \"#utility.yul\":7003:7007   */\n      dup2\n        /* \"#utility.yul\":6999:7019   */\n      sub\n        /* \"#utility.yul\":6995:6996   */\n      0x00\n        /* \"#utility.yul\":6984:6993   */\n      dup4\n        /* \"#utility.yul\":6980:6997   */\n      add\n        /* \"#utility.yul\":6973:7020   */\n      mstore\n        /* \"#utility.yul\":7037:7115   */\n      tag_196\n        /* \"#utility.yul\":7110:7114   */\n      dup2\n        /* \"#utility.yul\":7101:7107   */\n      dup7\n        /* \"#utility.yul\":7037:7115   */\n      tag_100\n      jump\t// in\n    tag_196:\n        /* \"#utility.yul\":7029:7115   */\n      swap1\n      pop\n        /* \"#utility.yul\":7125:7197   */\n      tag_197\n        /* \"#utility.yul\":7193:7195   */\n      0x20\n        /* \"#utility.yul\":7182:7191   */\n      dup4\n        /* \"#utility.yul\":7178:7196   */\n      add\n        /* \"#utility.yul\":7169:7175   */\n      dup6\n        /* \"#utility.yul\":7125:7197   */\n      tag_96\n      jump\t// in\n    tag_197:\n        /* \"#utility.yul\":7207:7279   */\n      tag_198\n        /* \"#utility.yul\":7275:7277   */\n      0x40\n        /* \"#utility.yul\":7264:7273   */\n      dup4\n        /* \"#utility.yul\":7260:7278   */\n      add\n        /* \"#utility.yul\":7251:7257   */\n      dup5\n        /* \"#utility.yul\":7207:7279   */\n      tag_96\n      jump\t// in\n    tag_198:\n        /* \"#utility.yul\":6753:7286   */\n      swap5\n      swap4\n      pop\n      pop\n      pop\n      pop\n      jump\t// out\n        /* \"#utility.yul\":7292:7801   */\n    tag_49:\n        /* \"#utility.yul\":7361:7367   */\n      0x00\n        /* \"#utility.yul\":7410:7412   */\n      0x20\n        /* \"#utility.yul\":7398:7407   */\n      dup3\n        /* \"#utility.yul\":7389:7396   */\n      dup5\n        /* \"#utility.yul\":7385:7408   */\n      sub\n        /* \"#utility.yul\":7381:7413   */\n      slt\n        /* \"#utility.yul\":7378:7497   */\n      iszero\n      tag_200\n      jumpi\n        /* \"#utility.yul\":7416:7495   */\n      tag_201\n      tag_81\n      jump\t// in\n    tag_201:\n        /* \"#utility.yul\":7378:7497   */\n    tag_200:\n        /* \"#utility.yul\":7564:7565   */\n      0x00\n        /* \"#utility.yul\":7553:7562   */\n      dup3\n        /* \"#utility.yul\":7549:7566   */\n      add\n        /* \"#utility.yul\":7536:7567   */\n      calldataload\n        /* \"#utility.yul\":7594:7612   */\n      0xffffffffffffffff\n        /* \"#utility.yul\":7586:7592   */\n      dup2\n        /* \"#utility.yul\":7583:7613   */\n      gt\n        /* \"#utility.yul\":7580:7697   */\n      iszero\n      tag_202\n      jumpi\n        /* \"#utility.yul\":7616:7695   */\n      tag_203\n      tag_82\n      jump\t// in\n    tag_203:\n        /* \"#utility.yul\":7580:7697   */\n    tag_202:\n        /* \"#utility.yul\":7721:7784   */\n      tag_204\n        /* \"#utility.yul\":7776:7783   */\n      dup5\n        /* \"#utility.yul\":7767:7773   */\n      dup3\n        /* \"#utility.yul\":7756:7765   */\n      dup6\n        /* \"#utility.yul\":7752:7774   */\n      add\n        /* \"#utility.yul\":7721:7784   */\n      tag_95\n      jump\t// in\n    tag_204:\n        /* \"#utility.yul\":7711:7784   */\n      swap2\n      pop\n        /* \"#utility.yul\":7507:7794   */\n      pop\n        /* \"#utility.yul\":7292:7801   */\n      swap3\n      swap2\n      pop\n      pop\n      jump\t// out\n        /* \"#utility.yul\":7807:7987   */\n    tag_104:\n        /* \"#utility.yul\":7855:7932   */\n      0x4e487b7100000000000000000000000000000000000000000000000000000000\n        /* \"#utility.yul\":7852:7853   */\n      0x00\n        /* \"#utility.yul\":7845:7933   */\n      mstore\n        /* \"#utility.yul\":7952:7956   */\n      0x22\n        /* \"#utility.yul\":7949:7950   */\n      0x04\n        /* \"#utility.yul\":7942:7957   */\n      mstore\n        /* \"#utility.yul\":7976:7980   */\n      0x24\n        /* \"#utility.yul\":7973:7974   */\n      0x00\n        /* \"#utility.yul\":7966:7981   */\n      revert\n        /* \"#utility.yul\":7993:8313   */\n    tag_59:\n        /* \"#utility.yul\":8037:8043   */\n      0x00\n        /* \"#utility.yul\":8074:8075   */\n      0x02\n        /* \"#utility.yul\":8068:8072   */\n      dup3\n        /* \"#utility.yul\":8064:8076   */\n      div\n        /* \"#utility.yul\":8054:8076   */\n      swap1\n      pop\n        /* \"#utility.yul\":8121:8122   */\n      0x01\n        /* \"#utility.yul\":8115:8119   */\n      dup3\n        /* \"#utility.yul\":8111:8123   */\n      and\n        /* \"#utility.yul\":8142:8160   */\n      dup1\n        /* \"#utility.yul\":8132:8213   */\n      tag_207\n      jumpi\n        /* \"#utility.yul\":8198:8202   */\n      0x7f\n        /* \"#utility.yul\":8190:8196   */\n      dup3\n        /* \"#utility.yul\":8186:8203   */\n      and\n        /* \"#utility.yul\":8176:8203   */\n      swap2\n      pop\n        /* \"#utility.yul\":8132:8213   */\n    tag_207:\n        /* \"#utility.yul\":8260:8262   */\n      0x20\n        /* \"#utility.yul\":8252:8258   */\n      dup3\n        /* \"#utility.yul\":8249:8263   */\n      lt\n        /* \"#utility.yul\":8229:8247   */\n      dup2\n        /* \"#utility.yul\":8226:8264   */\n      sub\n        /* \"#utility.yul\":8223:8307   */\n      tag_208\n      jumpi\n        /* \"#utility.yul\":8279:8297   */\n      tag_209\n      tag_104\n      jump\t// in\n    tag_209:\n        /* \"#utility.yul\":8223:8307   */\n    tag_208:\n        /* \"#utility.yul\":8044:8313   */\n      pop\n        /* \"#utility.yul\":7993:8313   */\n      swap2\n      swap1\n      pop\n      jump\t// out\n        /* \"#utility.yul\":8319:8460   */\n    tag_105:\n        /* \"#utility.yul\":8368:8372   */\n      0x00\n        /* \"#utility.yul\":8391:8394   */\n      dup2\n        /* \"#utility.yul\":8383:8394   */\n      swap1\n      pop\n        /* \"#utility.yul\":8414:8417   */\n      dup2\n        /* \"#utility.yul\":8411:8412   */\n      0x00\n        /* \"#utility.yul\":8404:8418   */\n      mstore\n        /* \"#utility.yul\":8448:8452   */\n      0x20\n        /* \"#utility.yul\":8445:8446   */\n      0x00\n        /* \"#utility.yul\":8435:8453   */\n      keccak256\n        /* \"#utility.yul\":8427:8453   */\n      swap1\n      pop\n        /* \"#utility.yul\":8319:8460   */\n      swap2\n      swap1\n      pop\n      jump\t// out\n        /* \"#utility.yul\":8466:8559   */\n    tag_106:\n        /* \"#utility.yul\":8503:8509   */\n      0x00\n        /* \"#utility.yul\":8550:8552   */\n      0x20\n        /* \"#utility.yul\":8545:8547   */\n      0x1f\n        /* \"#utility.yul\":8538:8543   */\n      dup4\n        /* \"#utility.yul\":8534:8548   */\n      add\n        /* \"#utility.yul\":8530:8553   */\n      div\n        /* \"#utility.yul\":8520:8553   */\n      swap1\n      pop\n        /* \"#utility.yul\":8466:8559   */\n      swap2\n      swap1\n      pop\n      jump\t// out\n        /* \"#utility.yul\":8565:8672   */\n    tag_107:\n        /* \"#utility.yul\":8609:8617   */\n      0x00\n        /* \"#utility.yul\":8659:8664   */\n      dup3\n        /* \"#utility.yul\":8653:8657   */\n      dup3\n        /* \"#utility.yul\":8649:8665   */\n      shl\n        /* \"#utility.yul\":8628:8665   */\n      swap1\n      pop\n        /* \"#utility.yul\":8565:8672   */\n      swap3\n      swap2\n      pop\n      pop\n      jump\t// out\n        /* \"#utility.yul\":8678:9071   */\n    tag_108:\n        /* \"#utility.yul\":8747:8753   */\n      0x00\n        /* \"#utility.yul\":8797:8798   */\n      0x08\n        /* \"#utility.yul\":8785:8795   */\n      dup4\n        /* \"#utility.yul\":8781:8799   */\n      mul\n        /* \"#utility.yul\":8820:8917   */\n      tag_214\n        /* \"#utility.yul\":8850:8916   */\n      0xffffffffffffffffffffffffffffffffffffffffffffffffffffffffffffffff\n        /* \"#utility.yul\":8839:8848   */\n      dup3\n        /* \"#utility.yul\":8820:8917   */\n      tag_107\n      jump\t// in\n    tag_214:\n        /* \"#utility.yul\":8938:8977   */\n      tag_215\n        /* \"#utility.yul\":8968:8976   */\n      dup7\n        /* \"#utility.yul\":8957:8966   */\n      dup4\n        /* \"#utility.yul\":8938:8977   */\n      tag_107\n      jump\t// in\n    tag_215:\n        /* \"#utility.yul\":8926:8977   */\n      swap6\n      pop\n        /* \"#utility.yul\":9010:9014   */\n      dup1\n        /* \"#utility.yul\":9006:9015   */\n      not\n        /* \"#utility.yul\":8999:9004   */\n      dup5\n        /* \"#utility.yul\":8995:9016   */\n      and\n        /* \"#utility.yul\":8986:9016   */\n      swap4\n      pop\n        /* \"#utility.yul\":9059:9063   */\n      dup1\n        /* \"#utility.yul\":9049:9057   */\n      dup7\n        /* \"#utility.yul\":9045:9064   */\n      and\n        /* \"#utility.yul\":9038:9043   */\n      dup5\n        /* \"#utility.yul\":9035:9065   */\n      or\n        /* \"#utility.yul\":9025:9065   */\n      swap3\n      pop\n        /* \"#utility.yul\":8754:9071   */\n      pop\n      pop\n        /* \"#utility.yul\":8678:9071   */\n      swap4\n      swap3\n      pop\n      pop\n      pop\n      jump\t// out\n        /* \"#utility.yul\":9077:9137   */\n    tag_109:\n        /* \"#utility.yul\":9105:9108   */\n      0x00\n        /* \"#utility.yul\":9126:9131   */\n      dup2\n        /* \"#utility.yul\":9119:9131   */\n      swap1\n      pop\n        /* \"#utility.yul\":9077:9137   */\n      swap2\n      swap1\n      pop\n      jump\t// out\n        /* \"#utility.yul\":9143:9285   */\n    tag_110:\n        /* \"#utility.yul\":9193:9202   */\n      0x00\n        /* \"#utility.yul\":9226:9279   */\n      tag_218\n        /* \"#utility.yul\":9244:9278   */\n      tag_219\n        /* \"#utility.yul\":9253:9277   */\n      tag_220\n        /* \"#utility.yul\":9271:9276   */\n      dup5\n        /* \"#utility.yul\":9253:9277   */\n      tag_83\n      jump\t// in\n    tag_220:\n        /* \"#utility.yul\":9244:9278   */\n      tag_109\n      jump\t// in\n    tag_219:\n        /* \"#utility.yul\":9226:9279   */\n      tag_83\n      jump\t// in\n    tag_218:\n        /* \"#utility.yul\":9213:9279   */\n      swap1\n      pop\n        /* \"#utility.yul\":9143:9285   */\n      swap2\n      swap1\n      pop\n      jump\t// out\n        /* \"#utility.yul\":9291:9366   */\n    tag_111:\n        /* \"#utility.yul\":9334:9337   */\n      0x00\n        /* \"#utility.yul\":9355:9360   */\n      dup2\n        /* \"#utility.yul\":9348:9360   */\n      swap1\n      pop\n        /* \"#utility.yul\":9291:9366   */\n      swap2\n      swap1\n      pop\n      jump\t// out\n        /* \"#utility.yul\":9372:9641   */\n    tag_112:\n        /* \"#utility.yul\":9482:9521   */\n      tag_223\n        /* \"#utility.yul\":9513:9520   */\n      dup4\n        /* \"#utility.yul\":9482:9521   */\n      tag_110\n      jump\t// in\n    tag_223:\n        /* \"#utility.yul\":9543:9634   */\n      tag_224\n        /* \"#utility.yul\":9592:9633   */\n      tag_225\n        /* \"#utility.yul\":9616:9632   */\n      dup3\n        /* \"#utility.yul\":9592:9633   */\n      tag_111\n      jump\t// in\n    tag_225:\n        /* \"#utility.yul\":9584:9590   */\n      dup5\n        /* \"#utility.yul\":9577:9581   */\n      dup5\n        /* \"#utility.yul\":9571:9582   */\n      sload\n        /* \"#utility.yul\":9543:9634   */\n      tag_108\n      jump\t// in\n    tag_224:\n        /* \"#utility.yul\":9537:9541   */\n      dup3\n        /* \"#utility.yul\":9530:9635   */\n      sstore\n        /* \"#utility.yul\":9448:9641   */\n      pop\n        /* \"#utility.yul\":9372:9641   */\n      pop\n      pop\n      pop\n      jump\t// out\n        /* \"#utility.yul\":9647:9720   */\n    tag_113:\n        /* \"#utility.yul\":9692:9695   */\n      0x00\n        /* \"#utility.yul\":9647:9720   */\n      swap1\n      jump\t// out\n        /* \"#utility.yul\":9726:9915   */\n    tag_114:\n        /* \"#utility.yul\":9803:9835   */\n      tag_228\n      tag_113\n      jump\t// in\n    tag_228:\n        /* \"#utility.yul\":9844:9909   */\n      tag_229\n        /* \"#utility.yul\":9902:9908   */\n      dup2\n        /* \"#utility.yul\":9894:9900   */\n      dup5\n        /* \"#utility.yul\":9888:9892   */\n      dup5\n        /* \"#utility.yul\":9844:9909   */\n      tag_112\n      jump\t// in\n    tag_229:\n        /* \"#utility.yul\":9779:9915   */\n      pop\n        /* \"#utility.yul\":9726:9915   */\n      pop\n      pop\n      jump\t// out\n        /* \"#utility.yul\":9921:10107   */\n    tag_115:\n        /* \"#utility.yul\":9981:10101   */\n    tag_231:\n        /* \"#utility.yul\":9998:10001   */\n      dup2\n        /* \"#utility.yul\":9991:9996   */\n      dup2\n        /* \"#utility.yul\":9988:10002   */\n      lt\n        /* \"#utility.yul\":9981:10101   */\n      iszero\n      tag_233\n      jumpi\n        /* \"#utility.yul\":10052:10091   */\n      tag_234\n        /* \"#utility.yul\":10089:10090   */\n      0x00\n        /* \"#utility.yul\":10082:10087   */\n      dup3\n        /* \"#utility.yul\":10052:10091   */\n      tag_114\n      jump\t// in\n    tag_234:\n        /* \"#utility.yul\":10025:10026   */\n      0x01\n        /* \"#utility.yul\":10018:10023   */\n      dup2\n        /* \"#utility.yul\":10014:10027   */\n      add\n        /* \"#utility.yul\":10005:10027   */\n      swap1\n      pop\n        /* \"#utility.yul\":9981:10101   */\n      jump(tag_231)\n    tag_233:\n        /* \"#utility.yul\":9921:10107   */\n      pop\n      pop\n      jump\t// out\n        /* \"#utility.yul\":10113:10656   */\n    tag_116:\n        /* \"#utility.yul\":10214:10216   */\n      0x1f\n        /* \"#utility.yul\":10209:10212   */\n      dup3\n        /* \"#utility.yul\":10206:10217   */\n      gt\n        /* \"#utility.yul\":10203:10649   */\n      iszero\n      tag_236\n      jumpi\n        /* \"#utility.yul\":10248:10286   */\n      tag_237\n        /* \"#utility.yul\":10280:10285   */\n      dup2\n        /* \"#utility.yul\":10248:10286   */\n      tag_105\n      jump\t// in\n    tag_237:\n        /* \"#utility.yul\":10332:10361   */\n      tag_238\n        /* \"#utility.yul\":10350:10360   */\n      dup5\n        /* \"#utility.yul\":10332:10361   */\n      tag_106\n      jump\t// in\n    tag_238:\n        /* \"#utility.yul\":10322:10330   */\n      dup2\n        /* \"#utility.yul\":10318:10362   */\n      add\n        /* \"#utility.yul\":10515:10517   */\n      0x20\n        /* \"#utility.yul\":10503:10513   */\n      dup6\n        /* \"#utility.yul\":10500:10518   */\n      lt\n        /* \"#utility.yul\":10497:10546   */\n      iszero\n      tag_239\n      jumpi\n        /* \"#utility.yul\":10536:10544   */\n      dup2\n        /* \"#utility.yul\":10521:10544   */\n      swap1\n      pop\n        /* \"#utility.yul\":10497:10546   */\n    tag_239:\n        /* \"#utility.yul\":10559:10639   */\n      tag_240\n        /* \"#utility.yul\":10615:10637   */\n      tag_241\n        /* \"#utility.yul\":10633:10636   */\n      dup6\n        /* \"#utility.yul\":10615:10637   */\n      tag_106\n      jump\t// in\n    tag_241:\n        /* \"#utility.yul\":10605:10613   */\n      dup4\n        /* \"#utility.yul\":10601:10638   */\n      add\n        /* \"#utility.yul\":10588:10599   */\n      dup3\n        /* \"#utility.yul\":10559:10639   */\n      tag_115\n      jump\t// in\n    tag_240:\n        /* \"#utility.yul\":10218:10649   */\n      pop\n      pop\n        /* \"#utility.yul\":10203:10649   */\n    tag_236:\n        /* \"#utility.yul\":10113:10656   */\n      pop\n      pop\n      pop\n      jump\t// out\n        /* \"#utility.yul\":10662:10779   */\n    tag_117:\n        /* \"#utility.yul\":10716:10724   */\n      0x00\n        /* \"#utility.yul\":10766:10771   */\n      dup3\n        /* \"#utility.yul\":10760:10764   */\n      dup3\n        /* \"#utility.yul\":10756:10772   */\n      shr\n        /* \"#utility.yul\":10735:10772   */\n      swap1\n      pop\n        /* \"#utility.yul\":10662:10779   */\n      swap3\n      swap2\n      pop\n      pop\n      jump\t// out\n        /* \"#utility.yul\":10785:10954   */\n    tag_118:\n        /* \"#utility.yul\":10829:10835   */\n      0x00\n        /* \"#utility.yul\":10862:10913   */\n      tag_244\n        /* \"#utility.yul\":10910:10911   */\n      0x00\n        /* \"#utility.yul\":10906:10912   */\n      not\n        /* \"#utility.yul\":10898:10903   */\n      dup5\n        /* \"#utility.yul\":10895:10896   */\n      0x08\n        /* \"#utility.yul\":10891:10904   */\n      mul\n        /* \"#utility.yul\":10862:10913   */\n      tag_117\n      jump\t// in\n    tag_244:\n        /* \"#utility.yul\":10858:10914   */\n      not\n        /* \"#utility.yul\":10943:10947   */\n      dup1\n        /* \"#utility.yul\":10937:10941   */\n      dup4\n        /* \"#utility.yul\":10933:10948   */\n      and\n        /* \"#utility.yul\":10923:10948   */\n      swap2\n      pop\n        /* \"#utility.yul\":10836:10954   */\n      pop\n        /* \"#utility.yul\":10785:10954   */\n      swap3\n      swap2\n      pop\n      pop\n      jump\t// out\n        /* \"#utility.yul\":10959:11254   */\n    tag_119:\n        /* \"#utility.yul\":11035:11039   */\n      0x00\n        /* \"#utility.yul\":11181:11210   */\n      tag_246\n        /* \"#utility.yul\":11206:11209   */\n      dup4\n        /* \"#utility.yul\":11200:11204   */\n      dup4\n        /* \"#utility.yul\":11181:11210   */\n      tag_118\n      jump\t// in\n    tag_246:\n        /* \"#utility.yul\":11173:11210   */\n      swap2\n      pop\n        /* \"#utility.yul\":11243:11246   */\n      dup3\n        /* \"#utility.yul\":11240:11241   */\n      0x02\n        /* \"#utility.yul\":11236:11247   */\n      mul\n        /* \"#utility.yul\":11230:11234   */\n      dup3\n        /* \"#utility.yul\":11227:11248   */\n      or\n        /* \"#utility.yul\":11219:11248   */\n      swap1\n      pop\n        /* \"#utility.yul\":10959:11254   */\n      swap3\n      swap2\n      pop\n      pop\n      jump\t// out\n        /* \"#utility.yul\":11259:12654   */\n    tag_54:\n        /* \"#utility.yul\":11376:11413   */\n      tag_248\n        /* \"#utility.yul\":11409:11412   */\n      dup3\n        /* \"#utility.yul\":11376:11413   */\n      tag_97\n      jump\t// in\n    tag_248:\n        /* \"#utility.yul\":11478:11496   */\n      0xffffffffffffffff\n        /* \"#utility.yul\":11470:11476   */\n      dup2\n        /* \"#utility.yul\":11467:11497   */\n      gt\n        /* \"#utility.yul\":11464:11520   */\n      iszero\n      tag_249\n      jumpi\n        /* \"#utility.yul\":11500:11518   */\n      tag_250\n      tag_89\n      jump\t// in\n    tag_250:\n        /* \"#utility.yul\":11464:11520   */\n    tag_249:\n        /* \"#utility.yul\":11544:11582   */\n      tag_251\n        /* \"#utility.yul\":11576:11580   */\n      dup3\n        /* \"#utility.yul\":11570:11581   */\n      sload\n        /* \"#utility.yul\":11544:11582   */\n      tag_59\n      jump\t// in\n    tag_251:\n        /* \"#utility.yul\":11629:11696   */\n      tag_252\n        /* \"#utility.yul\":11689:11695   */\n      dup3\n        /* \"#utility.yul\":11681:11687   */\n      dup3\n        /* \"#utility.yul\":11675:11679   */\n      dup6\n        /* \"#utility.yul\":11629:11696   */\n      tag_116\n      jump\t// in\n    tag_252:\n        /* \"#utility.yul\":11723:11724   */\n      0x00\n        /* \"#utility.yul\":11747:11751   */\n      0x20\n        /* \"#utility.yul\":11734:11751   */\n      swap1\n      pop\n        /* \"#utility.yul\":11779:11781   */\n      0x1f\n        /* \"#utility.yul\":11771:11777   */\n      dup4\n        /* \"#utility.yul\":11768:11782   */\n      gt\n        /* \"#utility.yul\":11796:11797   */\n      0x01\n        /* \"#utility.yul\":11791:12409   */\n      dup2\n      eq\n      tag_254\n      jumpi\n        /* \"#utility.yul\":12453:12454   */\n      0x00\n        /* \"#utility.yul\":12470:12476   */\n      dup5\n        /* \"#utility.yul\":12467:12544   */\n      iszero\n      tag_255\n      jumpi\n        /* \"#utility.yul\":12519:12528   */\n      dup3\n        /* \"#utility.yul\":12514:12517   */\n      dup8\n        /* \"#utility.yul\":12510:12529   */\n      add\n        /* \"#utility.yul\":12504:12530   */\n      mload\n        /* \"#utility.yul\":12495:12530   */\n      swap1\n      pop\n        /* \"#utility.yul\":12467:12544   */\n    tag_255:\n        /* \"#utility.yul\":12570:12637   */\n      tag_256\n        /* \"#utility.yul\":12630:12636   */\n      dup6\n        /* \"#utility.yul\":12623:12628   */\n      dup3\n        /* \"#utility.yul\":12570:12637   */\n      tag_119\n      jump\t// in\n    tag_256:\n        /* \"#utility.yul\":12564:12568   */\n      dup7\n        /* \"#utility.yul\":12557:12638   */\n      sstore\n        /* \"#utility.yul\":12426:12648   */\n      pop\n        /* \"#utility.yul\":11761:12648   */\n      jump(tag_253)\n        /* \"#utility.yul\":11791:12409   */\n    tag_254:\n        /* \"#utility.yul\":11843:11847   */\n      0x1f\n        /* \"#utility.yul\":11839:11848   */\n      not\n        /* \"#utility.yul\":11831:11837   */\n      dup5\n        /* \"#utility.yul\":11827:11849   */\n      and\n        /* \"#utility.yul\":11877:11914   */\n      tag_257\n        /* \"#utility.yul\":11909:11913   */\n      dup7\n        /* \"#utility.yul\":11877:11914   */\n      tag_105\n      jump\t// in\n    tag_257:\n        /* \"#utility.yul\":11936:11937   */\n      0x00\n        /* \"#utility.yul\":11950:12158   */\n    tag_258:\n        /* \"#utility.yul\":11964:11971   */\n      dup3\n        /* \"#utility.yul\":11961:11962   */\n      dup2\n        /* \"#utility.yul\":11958:11972   */\n      lt\n        /* \"#utility.yul\":11950:12158   */\n      iszero\n      tag_260\n      jumpi\n        /* \"#utility.yul\":12043:12052   */\n      dup5\n        /* \"#utility.yul\":12038:12041   */\n      dup10\n        /* \"#utility.yul\":12034:12053   */\n      add\n        /* \"#utility.yul\":12028:12054   */\n      mload\n        /* \"#utility.yul\":12020:12026   */\n      dup3\n        /* \"#utility.yul\":12013:12055   */\n      sstore\n        /* \"#utility.yul\":12094:12095   */\n      0x01\n        /* \"#utility.yul\":12086:12092   */\n      dup3\n        /* \"#utility.yul\":12082:12096   */\n      add\n        /* \"#utility.yul\":12072:12096   */\n      swap2\n      pop\n        /* \"#utility.yul\":12141:12143   */\n      0x20\n        /* \"#utility.yul\":12130:12139   */\n      dup6\n        /* \"#utility.yul\":12126:12144   */\n      add\n        /* \"#utility.yul\":12113:12144   */\n      swap5\n      pop\n        /* \"#utility.yul\":11987:11991   */\n      0x20\n        /* \"#utility.yul\":11984:11985   */\n      dup2\n        /* \"#utility.yul\":11980:11992   */\n      add\n        /* \"#utility.yul\":11975:11992   */\n      swap1\n      pop\n        /* \"#utility.yul\":11950:12158   */\n      jump(tag_258)\n    tag_260:\n        /* \"#utility.yul\":12186:12192   */\n      dup7\n        /* \"#utility.yul\":12177:12184   */\n      dup4\n        /* \"#utility.yul\":12174:12193   */\n      lt\n        /* \"#utility.yul\":12171:12350   */\n      iszero\n      tag_261\n      jumpi\n        /* \"#utility.yul\":12244:12253   */\n      dup5\n        /* \"#utility.yul\":12239:12242   */\n      dup10\n        /* \"#utility.yul\":12235:12254   */\n      add\n        /* \"#utility.yul\":12229:12255   */\n      mload\n        /* \"#utility.yul\":12287:12335   */\n      tag_262\n        /* \"#utility.yul\":12329:12333   */\n      0x1f\n        /* \"#utility.yul\":12321:12327   */\n      dup10\n        /* \"#utility.yul\":12317:12334   */\n      and\n        /* \"#utility.yul\":12306:12315   */\n      dup3\n        /* \"#utility.yul\":12287:12335   */\n      tag_118\n      jump\t// in\n    tag_262:\n        /* \"#utility.yul\":12279:12285   */\n      dup4\n        /* \"#utility.yul\":12272:12336   */\n      sstore\n        /* \"#utility.yul\":12194:12350   */\n      pop\n        /* \"#utility.yul\":12171:12350   */\n    tag_261:\n        /* \"#utility.yul\":12396:12397   */\n      0x01\n        /* \"#utility.yul\":12392:12393   */\n      0x02\n        /* \"#utility.yul\":12384:12390   */\n      dup9\n        /* \"#utility.yul\":12380:12394   */\n      mul\n        /* \"#utility.yul\":12376:12398   */\n      add\n        /* \"#utility.yul\":12370:12374   */\n      dup9\n        /* \"#utility.yul\":12363:12399   */\n      sstore\n        /* \"#utility.yul\":11798:12409   */\n      pop\n      pop\n      pop\n        /* \"#utility.yul\":11761:12648   */\n    tag_253:\n      pop\n        /* \"#utility.yul\":11351:12654   */\n      pop\n      pop\n      pop\n        /* \"#utility.yul\":11259:12654   */\n      pop\n      pop\n      jump\t// out\n\n    auxdata: 0xa2646970667358221220205e55e02ca369e84f573e5b71e6e713a58081c6e125a295d96c2960906eb6ff64736f6c63430008110033\n}\n",
				"bytecode": {
					"linkReferences": {},
					"object": "60806040526040518060400160405280600381526020017f6162630000000000000000000000000000000000000000000000000000000000815250600290816200004a919062000328565b506040518060400160405280600381526020017f61626300000000000000000000000000000000000000000000000000000000008152506003908162000091919062000474565b503480156200009f57600080fd5b5060646000819055506200055b565b600081519050919050565b7f4e487b7100000000000000000000000000000000000000000000000000000000600052604160045260246000fd5b7f4e487b7100000000000000000000000000000000000000000000000000000000600052602260045260246000fd5b600060028204905060018216806200013057607f821691505b602082108103620001465762000145620000e8565b5b50919050565b60008190508160005260206000209050919050565b60006020601f8301049050919050565b600082821b905092915050565b600060088302620001b07fffffffffffffffffffffffffffffffffffffffffffffffffffffffffffffffff8262000171565b620001bc868362000171565b95508019841693508086168417925050509392505050565b6000819050919050565b6000819050919050565b60006200020962000203620001fd84620001d4565b620001de565b620001d4565b9050919050565b6000819050919050565b6200022583620001e8565b6200023d620002348262000210565b8484546200017e565b825550505050565b600090565b6200025462000245565b620002618184846200021a565b505050565b5b8181101562000289576200027d6000826200024a565b60018101905062000267565b5050565b601f821115620002d857620002a2816200014c565b620002ad8462000161565b81016020851015620002bd578190505b620002d5620002cc8562000161565b83018262000266565b50505b505050565b600082821c905092915050565b6000620002fd60001984600802620002dd565b1980831691505092915050565b6000620003188383620002ea565b9150826002028217905092915050565b6200033382620000ae565b67ffffffffffffffff8111156200034f576200034e620000b9565b5b6200035b825462000117565b620003688282856200028d565b600060209050601f831160018114620003a057600084156200038b578287015190505b6200039785826200030a565b86555062000407565b601f198416620003b0866200014c565b60005b82811015620003da57848901518255600182019150602085019450602081019050620003b3565b86831015620003fa5784890151620003f6601f891682620002ea565b8355505b6001600288020188555050505b505050505050565b60008190508160005260206000209050919050565b601f8211156200046f5762000439816200040f565b620004448462000161565b8101602085101562000454578190505b6200046c620004638562000161565b83018262000266565b50505b505050565b6200047f82620000ae565b67ffffffffffffffff8111156200049b576200049a620000b9565b5b620004a7825462000117565b620004b482828562000424565b600060209050601f831160018114620004ec5760008415620004d7578287015190505b620004e385826200030a565b86555062000553565b601f198416620004fc866200040f565b60005b828110156200052657848901518255600182019150602085019450602081019050620004ff565b8683101562000546578489015162000542601f891682620002ea565b8355505b6001600288020188555050505b505050505050565b610c3b806200056b6000396000f3fe608060405234801561001057600080fd5b506004361061009e5760003560e01c80636057361d116100665780636057361d146101215780636cc014de1461013d578063ee4950021461015b578063f71d96cb14610179578063ffac7005146101ab5761009e565b80631d74220e146100a357806320965255146100bf5780632e64cec1146100dd5780633f2273b3146100fb5780635524107714610105575b600080fd5b6100bd60048036038101906100b891906106ae565b6101db565b005b6100c761023c565b6040516100d49190610740565b60405180910390f35b6100e5610246565b6040516100f29190610740565b60405180910390f35b61010361024f565b005b61011f600480360381019061011a919061075b565b61030e565b005b61013b6004803603810190610136919061075b565b610318565b005b610145610322565b6040516101529190610807565b60405180910390f35b6101636103b0565b604051610170919061087e565b60405180910390f35b610193600480360381019061018e919061075b565b61043e565b6040516101a2939291906108a0565b60405180910390f35b6101c560048036038101906101c091906108de565b6104f0565b6040516101d29190610740565b60405180910390f35b60405180606001604052808481526020018381526020018281525060056000868152602001908152602001600020600082015181600001908161021e9190610b33565b50602082015181600101556040820151816002015590505050505050565b6000600154905090565b60008054905090565b60028080548061025e90610956565b80601f810361027d5783600052602060002060ff1984168155603f9350505b506002820183556001810192505050600190038154600116156102af5790600052602060002090602091828204019190065b7f780000000000000000000000000000000000000000000000000000000000000090919091601f036101000a81548160ff021916907f010000000000000000000000000000000000000000000000000000000000000084040217905550565b8060018190555050565b8060008190555050565b6003805461032f90610956565b80601f016020809104026020016040519081016040528092919081815260200182805461035b90610956565b80156103a85780601f1061037d576101008083540402835291602001916103a8565b820191906000526020600020905b81548152906001019060200180831161038b57829003601f168201915b505050505081565b600280546103bd90610956565b80601f01602080910402602001604051908101604052809291908181526020018280546103e990610956565b80156104365780601f1061040b57610100808354040283529160200191610436565b820191906000526020600020905b81548152906001019060200180831161041957829003601f168201915b505050505081565b600560205280600052604060002060009150905080600001805461046190610956565b80601f016020809104026020016040519081016040528092919081815260200182805461048d90610956565b80156104da5780601f106104af576101008083540402835291602001916104da565b820191906000526020600020905b8154815290600101906020018083116104bd57829003601f168201915b5050505050908060010154908060020154905083565b6004818051602081018201805184825260208301602085012081835280955050505050506000915090505481565b6000604051905090565b600080fd5b600080fd5b6000819050919050565b61054581610532565b811461055057600080fd5b50565b6000813590506105628161053c565b92915050565b600080fd5b600080fd5b6000601f19601f8301169050919050565b7f4e487b7100000000000000000000000000000000000000000000000000000000600052604160045260246000fd5b6105bb82610572565b810181811067ffffffffffffffff821117156105da576105d9610583565b5b80604052505050565b60006105ed61051e565b90506105f982826105b2565b919050565b600067ffffffffffffffff82111561061957610618610583565b5b61062282610572565b9050602081019050919050565b82818337600083830152505050565b600061065161064c846105fe565b6105e3565b90508281526020810184848401111561066d5761066c61056d565b5b61067884828561062f565b509392505050565b600082601f83011261069557610694610568565b5b81356106a584826020860161063e565b91505092915050565b600080600080608085870312156106c8576106c7610528565b5b60006106d687828801610553565b945050602085013567ffffffffffffffff8111156106f7576106f661052d565b5b61070387828801610680565b935050604061071487828801610553565b925050606061072587828801610553565b91505092959194509250565b61073a81610532565b82525050565b60006020820190506107556000830184610731565b92915050565b60006020828403121561077157610770610528565b5b600061077f84828501610553565b91505092915050565b600081519050919050565b600082825260208201905092915050565b60005b838110156107c25780820151818401526020810190506107a7565b60008484015250505050565b60006107d982610788565b6107e38185610793565b93506107f38185602086016107a4565b6107fc81610572565b840191505092915050565b6000602082019050818103600083015261082181846107ce565b905092915050565b600081519050919050565b600082825260208201905092915050565b600061085082610829565b61085a8185610834565b935061086a8185602086016107a4565b61087381610572565b840191505092915050565b600060208201905081810360008301526108988184610845565b905092915050565b600060608201905081810360008301526108ba81866107ce565b90506108c96020830185610731565b6108d66040830184610731565b949350505050565b6000602082840312156108f4576108f3610528565b5b600082013567ffffffffffffffff8111156109125761091161052d565b5b61091e84828501610680565b91505092915050565b7f4e487b7100000000000000000000000000000000000000000000000000000000600052602260045260246000fd5b6000600282049050600182168061096e57607f821691505b60208210810361098157610980610927565b5b50919050565b60008190508160005260206000209050919050565b60006020601f8301049050919050565b600082821b905092915050565b6000600883026109e97fffffffffffffffffffffffffffffffffffffffffffffffffffffffffffffffff826109ac565b6109f386836109ac565b95508019841693508086168417925050509392505050565b6000819050919050565b6000610a30610a2b610a2684610532565b610a0b565b610532565b9050919050565b6000819050919050565b610a4a83610a15565b610a5e610a5682610a37565b8484546109b9565b825550505050565b600090565b610a73610a66565b610a7e818484610a41565b505050565b5b81811015610aa257610a97600082610a6b565b600181019050610a84565b5050565b601f821115610ae757610ab881610987565b610ac18461099c565b81016020851015610ad0578190505b610ae4610adc8561099c565b830182610a83565b50505b505050565b600082821c905092915050565b6000610b0a60001984600802610aec565b1980831691505092915050565b6000610b238383610af9565b9150826002028217905092915050565b610b3c82610788565b67ffffffffffffffff811115610b5557610b54610583565b5b610b5f8254610956565b610b6a828285610aa6565b600060209050601f831160018114610b9d5760008415610b8b578287015190505b610b958582610b17565b865550610bfd565b601f198416610bab86610987565b60005b82811015610bd357848901518255600182019150602085019450602081019050610bae565b86831015610bf05784890151610bec601f891682610af9565b8355505b6001600288020188555050505b50505050505056fea2646970667358221220205e55e02ca369e84f573e5b71e6e713a58081c6e125a295d96c2960906eb6ff64736f6c63430008110033",
					"opcodes": "PUSH1 0x80 PUSH1 0x40 MSTORE PUSH1 0x40 MLOAD DUP1 PUSH1 0x40 ADD PUSH1 0x40 MSTORE DUP1 PUSH1 0x3 DUP2 MSTORE PUSH1 0x20 ADD PUSH32 0x6162630000000000000000000000000000000000000000000000000000000000 DUP2 MSTORE POP PUSH1 0x2 SWAP1 DUP2 PUSH3 0x4A SWAP2 SWAP1 PUSH3 0x328 JUMP JUMPDEST POP PUSH1 0x40 MLOAD DUP1 PUSH1 0x40 ADD PUSH1 0x40 MSTORE DUP1 PUSH1 0x3 DUP2 MSTORE PUSH1 0x20 ADD PUSH32 0x6162630000000000000000000000000000000000000000000000000000000000 DUP2 MSTORE POP PUSH1 0x3 SWAP1 DUP2 PUSH3 0x91 SWAP2 SWAP1 PUSH3 0x474 JUMP JUMPDEST POP CALLVALUE DUP1 ISZERO PUSH3 0x9F JUMPI PUSH1 0x0 DUP1 REVERT JUMPDEST POP PUSH1 0x64 PUSH1 0x0 DUP2 SWAP1 SSTORE POP PUSH3 0x55B JUMP JUMPDEST PUSH1 0x0 DUP2 MLOAD SWAP1 POP SWAP2 SWAP1 POP JUMP JUMPDEST PUSH32 0x4E487B7100000000000000000000000000000000000000000000000000000000 PUSH1 0x0 MSTORE PUSH1 0x41 PUSH1 0x4 MSTORE PUSH1 0x24 PUSH1 0x0 REVERT JUMPDEST PUSH32 0x4E487B7100000000000000000000000000000000000000000000000000000000 PUSH1 0x0 MSTORE PUSH1 0x22 PUSH1 0x4 MSTORE PUSH1 0x24 PUSH1 0x0 REVERT JUMPDEST PUSH1 0x0 PUSH1 0x2 DUP3 DIV SWAP1 POP PUSH1 0x1 DUP3 AND DUP1 PUSH3 0x130 JUMPI PUSH1 0x7F DUP3 AND SWAP2 POP JUMPDEST PUSH1 0x20 DUP3 LT DUP2 SUB PUSH3 0x146 JUMPI PUSH3 0x145 PUSH3 0xE8 JUMP JUMPDEST JUMPDEST POP SWAP2 SWAP1 POP JUMP JUMPDEST PUSH1 0x0 DUP2 SWAP1 POP DUP2 PUSH1 0x0 MSTORE PUSH1 0x20 PUSH1 0x0 KECCAK256 SWAP1 POP SWAP2 SWAP1 POP JUMP JUMPDEST PUSH1 0x0 PUSH1 0x20 PUSH1 0x1F DUP4 ADD DIV SWAP1 POP SWAP2 SWAP1 POP JUMP JUMPDEST PUSH1 0x0 DUP3 DUP3 SHL SWAP1 POP SWAP3 SWAP2 POP POP JUMP JUMPDEST PUSH1 0x0 PUSH1 0x8 DUP4 MUL PUSH3 0x1B0 PUSH32 0xFFFFFFFFFFFFFFFFFFFFFFFFFFFFFFFFFFFFFFFFFFFFFFFFFFFFFFFFFFFFFFFF DUP3 PUSH3 0x171 JUMP JUMPDEST PUSH3 0x1BC DUP7 DUP4 PUSH3 0x171 JUMP JUMPDEST SWAP6 POP DUP1 NOT DUP5 AND SWAP4 POP DUP1 DUP7 AND DUP5 OR SWAP3 POP POP POP SWAP4 SWAP3 POP POP POP JUMP JUMPDEST PUSH1 0x0 DUP2 SWAP1 POP SWAP2 SWAP1 POP JUMP JUMPDEST PUSH1 0x0 DUP2 SWAP1 POP SWAP2 SWAP1 POP JUMP JUMPDEST PUSH1 0x0 PUSH3 0x209 PUSH3 0x203 PUSH3 0x1FD DUP5 PUSH3 0x1D4 JUMP JUMPDEST PUSH3 0x1DE JUMP JUMPDEST PUSH3 0x1D4 JUMP JUMPDEST SWAP1 POP SWAP2 SWAP1 POP JUMP JUMPDEST PUSH1 0x0 DUP2 SWAP1 POP SWAP2 SWAP1 POP JUMP JUMPDEST PUSH3 0x225 DUP4 PUSH3 0x1E8 JUMP JUMPDEST PUSH3 0x23D PUSH3 0x234 DUP3 PUSH3 0x210 JUMP JUMPDEST DUP5 DUP5 SLOAD PUSH3 0x17E JUMP JUMPDEST DUP3 SSTORE POP POP POP POP JUMP JUMPDEST PUSH1 0x0 SWAP1 JUMP JUMPDEST PUSH3 0x254 PUSH3 0x245 JUMP JUMPDEST PUSH3 0x261 DUP2 DUP5 DUP5 PUSH3 0x21A JUMP JUMPDEST POP POP POP JUMP JUMPDEST JUMPDEST DUP2 DUP2 LT ISZERO PUSH3 0x289 JUMPI PUSH3 0x27D PUSH1 0x0 DUP3 PUSH3 0x24A JUMP JUMPDEST PUSH1 0x1 DUP2 ADD SWAP1 POP PUSH3 0x267 JUMP JUMPDEST POP POP JUMP JUMPDEST PUSH1 0x1F DUP3 GT ISZERO PUSH3 0x2D8 JUMPI PUSH3 0x2A2 DUP2 PUSH3 0x14C JUMP JUMPDEST PUSH3 0x2AD DUP5 PUSH3 0x161 JUMP JUMPDEST DUP2 ADD PUSH1 0x20 DUP6 LT ISZERO PUSH3 0x2BD JUMPI DUP2 SWAP1 POP JUMPDEST PUSH3 0x2D5 PUSH3 0x2CC DUP6 PUSH3 0x161 JUMP JUMPDEST DUP4 ADD DUP3 PUSH3 0x266 JUMP JUMPDEST POP POP JUMPDEST POP POP POP JUMP JUMPDEST PUSH1 0x0 DUP3 DUP3 SHR SWAP1 POP SWAP3 SWAP2 POP POP JUMP JUMPDEST PUSH1 0x0 PUSH3 0x2FD PUSH1 0x0 NOT DUP5 PUSH1 0x8 MUL PUSH3 0x2DD JUMP JUMPDEST NOT DUP1 DUP4 AND SWAP2 POP POP SWAP3 SWAP2 POP POP JUMP JUMPDEST PUSH1 0x0 PUSH3 0x318 DUP4 DUP4 PUSH3 0x2EA JUMP JUMPDEST SWAP2 POP DUP3 PUSH1 0x2 MUL DUP3 OR SWAP1 POP SWAP3 SWAP2 POP POP JUMP JUMPDEST PUSH3 0x333 DUP3 PUSH3 0xAE JUMP JUMPDEST PUSH8 0xFFFFFFFFFFFFFFFF DUP2 GT ISZERO PUSH3 0x34F JUMPI PUSH3 0x34E PUSH3 0xB9 JUMP JUMPDEST JUMPDEST PUSH3 0x35B DUP3 SLOAD PUSH3 0x117 JUMP JUMPDEST PUSH3 0x368 DUP3 DUP3 DUP6 PUSH3 0x28D JUMP JUMPDEST PUSH1 0x0 PUSH1 0x20 SWAP1 POP PUSH1 0x1F DUP4 GT PUSH1 0x1 DUP2 EQ PUSH3 0x3A0 JUMPI PUSH1 0x0 DUP5 ISZERO PUSH3 0x38B JUMPI DUP3 DUP8 ADD MLOAD SWAP1 POP JUMPDEST PUSH3 0x397 DUP6 DUP3 PUSH3 0x30A JUMP JUMPDEST DUP7 SSTORE POP PUSH3 0x407 JUMP JUMPDEST PUSH1 0x1F NOT DUP5 AND PUSH3 0x3B0 DUP7 PUSH3 0x14C JUMP JUMPDEST PUSH1 0x0 JUMPDEST DUP3 DUP2 LT ISZERO PUSH3 0x3DA JUMPI DUP5 DUP10 ADD MLOAD DUP3 SSTORE PUSH1 0x1 DUP3 ADD SWAP2 POP PUSH1 0x20 DUP6 ADD SWAP5 POP PUSH1 0x20 DUP2 ADD SWAP1 POP PUSH3 0x3B3 JUMP JUMPDEST DUP7 DUP4 LT ISZERO PUSH3 0x3FA JUMPI DUP5 DUP10 ADD MLOAD PUSH3 0x3F6 PUSH1 0x1F DUP10 AND DUP3 PUSH3 0x2EA JUMP JUMPDEST DUP4 SSTORE POP JUMPDEST PUSH1 0x1 PUSH1 0x2 DUP9 MUL ADD DUP9 SSTORE POP POP POP JUMPDEST POP POP POP POP POP POP JUMP JUMPDEST PUSH1 0x0 DUP2 SWAP1 POP DUP2 PUSH1 0x0 MSTORE PUSH1 0x20 PUSH1 0x0 KECCAK256 SWAP1 POP SWAP2 SWAP1 POP JUMP JUMPDEST PUSH1 0x1F DUP3 GT ISZERO PUSH3 0x46F JUMPI PUSH3 0x439 DUP2 PUSH3 0x40F JUMP JUMPDEST PUSH3 0x444 DUP5 PUSH3 0x161 JUMP JUMPDEST DUP2 ADD PUSH1 0x20 DUP6 LT ISZERO PUSH3 0x454 JUMPI DUP2 SWAP1 POP JUMPDEST PUSH3 0x46C PUSH3 0x463 DUP6 PUSH3 0x161 JUMP JUMPDEST DUP4 ADD DUP3 PUSH3 0x266 JUMP JUMPDEST POP POP JUMPDEST POP POP POP JUMP JUMPDEST PUSH3 0x47F DUP3 PUSH3 0xAE JUMP JUMPDEST PUSH8 0xFFFFFFFFFFFFFFFF DUP2 GT ISZERO PUSH3 0x49B JUMPI PUSH3 0x49A PUSH3 0xB9 JUMP JUMPDEST JUMPDEST PUSH3 0x4A7 DUP3 SLOAD PUSH3 0x117 JUMP JUMPDEST PUSH3 0x4B4 DUP3 DUP3 DUP6 PUSH3 0x424 JUMP JUMPDEST PUSH1 0x0 PUSH1 0x20 SWAP1 POP PUSH1 0x1F DUP4 GT PUSH1 0x1 DUP2 EQ PUSH3 0x4EC JUMPI PUSH1 0x0 DUP5 ISZERO PUSH3 0x4D7 JUMPI DUP3 DUP8 ADD MLOAD SWAP1 POP JUMPDEST PUSH3 0x4E3 DUP6 DUP3 PUSH3 0x30A JUMP JUMPDEST DUP7 SSTORE POP PUSH3 0x553 JUMP JUMPDEST PUSH1 0x1F NOT DUP5 AND PUSH3 0x4FC DUP7 PUSH3 0x40F JUMP JUMPDEST PUSH1 0x0 JUMPDEST DUP3 DUP2 LT ISZERO PUSH3 0x526 JUMPI DUP5 DUP10 ADD MLOAD DUP3 SSTORE PUSH1 0x1 DUP3 ADD SWAP2 POP PUSH1 0x20 DUP6 ADD SWAP5 POP PUSH1 0x20 DUP2 ADD SWAP1 POP PUSH3 0x4FF JUMP JUMPDEST DUP7 DUP4 LT ISZERO PUSH3 0x546 JUMPI DUP5 DUP10 ADD MLOAD PUSH3 0x542 PUSH1 0x1F DUP10 AND DUP3 PUSH3 0x2EA JUMP JUMPDEST DUP4 SSTORE POP JUMPDEST PUSH1 0x1 PUSH1 0x2 DUP9 MUL ADD DUP9 SSTORE POP POP POP JUMPDEST POP POP POP POP POP POP JUMP JUMPDEST PUSH2 0xC3B DUP1 PUSH3 0x56B PUSH1 0x0 CODECOPY PUSH1 0x0 RETURN INVALID PUSH1 0x80 PUSH1 0x40 MSTORE CALLVALUE DUP1 ISZERO PUSH2 0x10 JUMPI PUSH1 0x0 DUP1 REVERT JUMPDEST POP PUSH1 0x4 CALLDATASIZE LT PUSH2 0x9E JUMPI PUSH1 0x0 CALLDATALOAD PUSH1 0xE0 SHR DUP1 PUSH4 0x6057361D GT PUSH2 0x66 JUMPI DUP1 PUSH4 0x6057361D EQ PUSH2 0x121 JUMPI DUP1 PUSH4 0x6CC014DE EQ PUSH2 0x13D JUMPI DUP1 PUSH4 0xEE495002 EQ PUSH2 0x15B JUMPI DUP1 PUSH4 0xF71D96CB EQ PUSH2 0x179 JUMPI DUP1 PUSH4 0xFFAC7005 EQ PUSH2 0x1AB JUMPI PUSH2 0x9E JUMP JUMPDEST DUP1 PUSH4 0x1D74220E EQ PUSH2 0xA3 JUMPI DUP1 PUSH4 0x20965255 EQ PUSH2 0xBF JUMPI DUP1 PUSH4 0x2E64CEC1 EQ PUSH2 0xDD JUMPI DUP1 PUSH4 0x3F2273B3 EQ PUSH2 0xFB JUMPI DUP1 PUSH4 0x55241077 EQ PUSH2 0x105 JUMPI JUMPDEST PUSH1 0x0 DUP1 REVERT JUMPDEST PUSH2 0xBD PUSH1 0x4 DUP1 CALLDATASIZE SUB DUP2 ADD SWAP1 PUSH2 0xB8 SWAP2 SWAP1 PUSH2 0x6AE JUMP JUMPDEST PUSH2 0x1DB JUMP JUMPDEST STOP JUMPDEST PUSH2 0xC7 PUSH2 0x23C JUMP JUMPDEST PUSH1 0x40 MLOAD PUSH2 0xD4 SWAP2 SWAP1 PUSH2 0x740 JUMP JUMPDEST PUSH1 0x40 MLOAD DUP1 SWAP2 SUB SWAP1 RETURN JUMPDEST PUSH2 0xE5 PUSH2 0x246 JUMP JUMPDEST PUSH1 0x40 MLOAD PUSH2 0xF2 SWAP2 SWAP1 PUSH2 0x740 JUMP JUMPDEST PUSH1 0x40 MLOAD DUP1 SWAP2 SUB SWAP1 RETURN JUMPDEST PUSH2 0x103 PUSH2 0x24F JUMP JUMPDEST STOP JUMPDEST PUSH2 0x11F PUSH1 0x4 DUP1 CALLDATASIZE SUB DUP2 ADD SWAP1 PUSH2 0x11A SWAP2 SWAP1 PUSH2 0x75B JUMP JUMPDEST PUSH2 0x30E JUMP JUMPDEST STOP JUMPDEST PUSH2 0x13B PUSH1 0x4 DUP1 CALLDATASIZE SUB DUP2 ADD SWAP1 PUSH2 0x136 SWAP2 SWAP1 PUSH2 0x75B JUMP JUMPDEST PUSH2 0x318 JUMP JUMPDEST STOP JUMPDEST PUSH2 0x145 PUSH2 0x322 JUMP JUMPDEST PUSH1 0x40 MLOAD PUSH2 0x152 SWAP2 SWAP1 PUSH2 0x807 JUMP JUMPDEST PUSH1 0x40 MLOAD DUP1 SWAP2 SUB SWAP1 RETURN JUMPDEST PUSH2 0x163 PUSH2 0x3B0 JUMP JUMPDEST PUSH1 0x40 MLOAD PUSH2 0x170 SWAP2 SWAP1 PUSH2 0x87E JUMP JUMPDEST PUSH1 0x40 MLOAD DUP1 SWAP2 SUB SWAP1 RETURN JUMPDEST PUSH2 0x193 PUSH1 0x4 DUP1 CALLDATASIZE SUB DUP2 ADD SWAP1 PUSH2 0x18E SWAP2 SWAP1 PUSH2 0x75B JUMP JUMPDEST PUSH2 0x43E JUMP JUMPDEST PUSH1 0x40 MLOAD PUSH2 0x1A2 SWAP4 SWAP3 SWAP2 SWAP1 PUSH2 0x8A0 JUMP JUMPDEST PUSH1 0x40 MLOAD DUP1 SWAP2 SUB SWAP1 RETURN JUMPDEST PUSH2 0x1C5 PUSH1 0x4 DUP1 CALLDATASIZE SUB DUP2 ADD SWAP1 PUSH2 0x1C0 SWAP2 SWAP1 PUSH2 0x8DE JUMP JUMPDEST PUSH2 0x4F0 JUMP JUMPDEST PUSH1 0x40 MLOAD PUSH2 0x1D2 SWAP2 SWAP1 PUSH2 0x740 JUMP JUMPDEST PUSH1 0x40 MLOAD DUP1 SWAP2 SUB SWAP1 RETURN JUMPDEST PUSH1 0x40 MLOAD DUP1 PUSH1 0x60 ADD PUSH1 0x40 MSTORE DUP1 DUP5 DUP2 MSTORE PUSH1 0x20 ADD DUP4 DUP2 MSTORE PUSH1 0x20 ADD DUP3 DUP2 MSTORE POP PUSH1 0x5 PUSH1 0x0 DUP7 DUP2 MSTORE PUSH1 0x20 ADD SWAP1 DUP2 MSTORE PUSH1 0x20 ADD PUSH1 0x0 KECCAK256 PUSH1 0x0 DUP3 ADD MLOAD DUP2 PUSH1 0x0 ADD SWAP1 DUP2 PUSH2 0x21E SWAP2 SWAP1 PUSH2 0xB33 JUMP JUMPDEST POP PUSH1 0x20 DUP3 ADD MLOAD DUP2 PUSH1 0x1 ADD SSTORE PUSH1 0x40 DUP3 ADD MLOAD DUP2 PUSH1 0x2 ADD SSTORE SWAP1 POP POP POP POP POP POP JUMP JUMPDEST PUSH1 0x0 PUSH1 0x1 SLOAD SWAP1 POP SWAP1 JUMP JUMPDEST PUSH1 0x0 DUP1 SLOAD SWAP1 POP SWAP1 JUMP JUMPDEST PUSH1 0x2 DUP1 DUP1 SLOAD DUP1 PUSH2 0x25E SWAP1 PUSH2 0x956 JUMP JUMPDEST DUP1 PUSH1 0x1F DUP2 SUB PUSH2 0x27D JUMPI DUP4 PUSH1 0x0 MSTORE PUSH1 0x20 PUSH1 0x0 KECCAK256 PUSH1 0xFF NOT DUP5 AND DUP2 SSTORE PUSH1 0x3F SWAP4 POP POP JUMPDEST POP PUSH1 0x2 DUP3 ADD DUP4 SSTORE PUSH1 0x1 DUP2 ADD SWAP3 POP POP POP PUSH1 0x1 SWAP1 SUB DUP2 SLOAD PUSH1 0x1 AND ISZERO PUSH2 0x2AF JUMPI SWAP1 PUSH1 0x0 MSTORE PUSH1 0x20 PUSH1 0x0 KECCAK256 SWAP1 PUSH1 0x20 SWAP2 DUP3 DUP3 DIV ADD SWAP2 SWAP1 MOD JUMPDEST PUSH32 0x7800000000000000000000000000000000000000000000000000000000000000 SWAP1 SWAP2 SWAP1 SWAP2 PUSH1 0x1F SUB PUSH2 0x100 EXP DUP2 SLOAD DUP2 PUSH1 0xFF MUL NOT AND SWAP1 PUSH32 0x100000000000000000000000000000000000000000000000000000000000000 DUP5 DIV MUL OR SWAP1 SSTORE POP JUMP JUMPDEST DUP1 PUSH1 0x1 DUP2 SWAP1 SSTORE POP POP JUMP JUMPDEST DUP1 PUSH1 0x0 DUP2 SWAP1 SSTORE POP POP JUMP JUMPDEST PUSH1 0x3 DUP1 SLOAD PUSH2 0x32F SWAP1 PUSH2 0x956 JUMP JUMPDEST DUP1 PUSH1 0x1F ADD PUSH1 0x20 DUP1 SWAP2 DIV MUL PUSH1 0x20 ADD PUSH1 0x40 MLOAD SWAP1 DUP2 ADD PUSH1 0x40 MSTORE DUP1 SWAP3 SWAP2 SWAP1 DUP2 DUP2 MSTORE PUSH1 0x20 ADD DUP3 DUP1 SLOAD PUSH2 0x35B SWAP1 PUSH2 0x956 JUMP JUMPDEST DUP1 ISZERO PUSH2 0x3A8 JUMPI DUP1 PUSH1 0x1F LT PUSH2 0x37D JUMPI PUSH2 0x100 DUP1 DUP4 SLOAD DIV MUL DUP4 MSTORE SWAP2 PUSH1 0x20 ADD SWAP2 PUSH2 0x3A8 JUMP JUMPDEST DUP3 ADD SWAP2 SWAP1 PUSH1 0x0 MSTORE PUSH1 0x20 PUSH1 0x0 KECCAK256 SWAP1 JUMPDEST DUP2 SLOAD DUP2 MSTORE SWAP1 PUSH1 0x1 ADD SWAP1 PUSH1 0x20 ADD DUP1 DUP4 GT PUSH2 0x38B JUMPI DUP3 SWAP1 SUB PUSH1 0x1F AND DUP3 ADD SWAP2 JUMPDEST POP POP POP POP POP DUP2 JUMP JUMPDEST PUSH1 0x2 DUP1 SLOAD PUSH2 0x3BD SWAP1 PUSH2 0x956 JUMP JUMPDEST DUP1 PUSH1 0x1F ADD PUSH1 0x20 DUP1 SWAP2 DIV MUL PUSH1 0x20 ADD PUSH1 0x40 MLOAD SWAP1 DUP2 ADD PUSH1 0x40 MSTORE DUP1 SWAP3 SWAP2 SWAP1 DUP2 DUP2 MSTORE PUSH1 0x20 ADD DUP3 DUP1 SLOAD PUSH2 0x3E9 SWAP1 PUSH2 0x956 JUMP JUMPDEST DUP1 ISZERO PUSH2 0x436 JUMPI DUP1 PUSH1 0x1F LT PUSH2 0x40B JUMPI PUSH2 0x100 DUP1 DUP4 SLOAD DIV MUL DUP4 MSTORE SWAP2 PUSH1 0x20 ADD SWAP2 PUSH2 0x436 JUMP JUMPDEST DUP3 ADD SWAP2 SWAP1 PUSH1 0x0 MSTORE PUSH1 0x20 PUSH1 0x0 KECCAK256 SWAP1 JUMPDEST DUP2 SLOAD DUP2 MSTORE SWAP1 PUSH1 0x1 ADD SWAP1 PUSH1 0x20 ADD DUP1 DUP4 GT PUSH2 0x419 JUMPI DUP3 SWAP1 SUB PUSH1 0x1F AND DUP3 ADD SWAP2 JUMPDEST POP POP POP POP POP DUP2 JUMP JUMPDEST PUSH1 0x5 PUSH1 0x20 MSTORE DUP1 PUSH1 0x0 MSTORE PUSH1 0x40 PUSH1 0x0 KECCAK256 PUSH1 0x0 SWAP2 POP SWAP1 POP DUP1 PUSH1 0x0 ADD DUP1 SLOAD PUSH2 0x461 SWAP1 PUSH2 0x956 JUMP JUMPDEST DUP1 PUSH1 0x1F ADD PUSH1 0x20 DUP1 SWAP2 DIV MUL PUSH1 0x20 ADD PUSH1 0x40 MLOAD SWAP1 DUP2 ADD PUSH1 0x40 MSTORE DUP1 SWAP3 SWAP2 SWAP1 DUP2 DUP2 MSTORE PUSH1 0x20 ADD DUP3 DUP1 SLOAD PUSH2 0x48D SWAP1 PUSH2 0x956 JUMP JUMPDEST DUP1 ISZERO PUSH2 0x4DA JUMPI DUP1 PUSH1 0x1F LT PUSH2 0x4AF JUMPI PUSH2 0x100 DUP1 DUP4 SLOAD DIV MUL DUP4 MSTORE SWAP2 PUSH1 0x20 ADD SWAP2 PUSH2 0x4DA JUMP JUMPDEST DUP3 ADD SWAP2 SWAP1 PUSH1 0x0 MSTORE PUSH1 0x20 PUSH1 0x0 KECCAK256 SWAP1 JUMPDEST DUP2 SLOAD DUP2 MSTORE SWAP1 PUSH1 0x1 ADD SWAP1 PUSH1 0x20 ADD DUP1 DUP4 GT PUSH2 0x4BD JUMPI DUP3 SWAP1 SUB PUSH1 0x1F AND DUP3 ADD SWAP2 JUMPDEST POP POP POP POP POP SWAP1 DUP1 PUSH1 0x1 ADD SLOAD SWAP1 DUP1 PUSH1 0x2 ADD SLOAD SWAP1 POP DUP4 JUMP JUMPDEST PUSH1 0x4 DUP2 DUP1 MLOAD PUSH1 0x20 DUP2 ADD DUP3 ADD DUP1 MLOAD DUP5 DUP3 MSTORE PUSH1 0x20 DUP4 ADD PUSH1 0x20 DUP6 ADD KECCAK256 DUP2 DUP4 MSTORE DUP1 SWAP6 POP POP POP POP POP POP PUSH1 0x0 SWAP2 POP SWAP1 POP SLOAD DUP2 JUMP JUMPDEST PUSH1 0x0 PUSH1 0x40 MLOAD SWAP1 POP SWAP1 JUMP JUMPDEST PUSH1 0x0 DUP1 REVERT JUMPDEST PUSH1 0x0 DUP1 REVERT JUMPDEST PUSH1 0x0 DUP2 SWAP1 POP SWAP2 SWAP1 POP JUMP JUMPDEST PUSH2 0x545 DUP2 PUSH2 0x532 JUMP JUMPDEST DUP2 EQ PUSH2 0x550 JUMPI PUSH1 0x0 DUP1 REVERT JUMPDEST POP JUMP JUMPDEST PUSH1 0x0 DUP2 CALLDATALOAD SWAP1 POP PUSH2 0x562 DUP2 PUSH2 0x53C JUMP JUMPDEST SWAP3 SWAP2 POP POP JUMP JUMPDEST PUSH1 0x0 DUP1 REVERT JUMPDEST PUSH1 0x0 DUP1 REVERT JUMPDEST PUSH1 0x0 PUSH1 0x1F NOT PUSH1 0x1F DUP4 ADD AND SWAP1 POP SWAP2 SWAP1 POP JUMP JUMPDEST PUSH32 0x4E487B7100000000000000000000000000000000000000000000000000000000 PUSH1 0x0 MSTORE PUSH1 0x41 PUSH1 0x4 MSTORE PUSH1 0x24 PUSH1 0x0 REVERT JUMPDEST PUSH2 0x5BB DUP3 PUSH2 0x572 JUMP JUMPDEST DUP2 ADD DUP2 DUP2 LT PUSH8 0xFFFFFFFFFFFFFFFF DUP3 GT OR ISZERO PUSH2 0x5DA JUMPI PUSH2 0x5D9 PUSH2 0x583 JUMP JUMPDEST JUMPDEST DUP1 PUSH1 0x40 MSTORE POP POP POP JUMP JUMPDEST PUSH1 0x0 PUSH2 0x5ED PUSH2 0x51E JUMP JUMPDEST SWAP1 POP PUSH2 0x5F9 DUP3 DUP3 PUSH2 0x5B2 JUMP JUMPDEST SWAP2 SWAP1 POP JUMP JUMPDEST PUSH1 0x0 PUSH8 0xFFFFFFFFFFFFFFFF DUP3 GT ISZERO PUSH2 0x619 JUMPI PUSH2 0x618 PUSH2 0x583 JUMP JUMPDEST JUMPDEST PUSH2 0x622 DUP3 PUSH2 0x572 JUMP JUMPDEST SWAP1 POP PUSH1 0x20 DUP2 ADD SWAP1 POP SWAP2 SWAP1 POP JUMP JUMPDEST DUP3 DUP2 DUP4 CALLDATACOPY PUSH1 0x0 DUP4 DUP4 ADD MSTORE POP POP POP JUMP JUMPDEST PUSH1 0x0 PUSH2 0x651 PUSH2 0x64C DUP5 PUSH2 0x5FE JUMP JUMPDEST PUSH2 0x5E3 JUMP JUMPDEST SWAP1 POP DUP3 DUP2 MSTORE PUSH1 0x20 DUP2 ADD DUP5 DUP5 DUP5 ADD GT ISZERO PUSH2 0x66D JUMPI PUSH2 0x66C PUSH2 0x56D JUMP JUMPDEST JUMPDEST PUSH2 0x678 DUP5 DUP3 DUP6 PUSH2 0x62F JUMP JUMPDEST POP SWAP4 SWAP3 POP POP POP JUMP JUMPDEST PUSH1 0x0 DUP3 PUSH1 0x1F DUP4 ADD SLT PUSH2 0x695 JUMPI PUSH2 0x694 PUSH2 0x568 JUMP JUMPDEST JUMPDEST DUP2 CALLDATALOAD PUSH2 0x6A5 DUP5 DUP3 PUSH1 0x20 DUP7 ADD PUSH2 0x63E JUMP JUMPDEST SWAP2 POP POP SWAP3 SWAP2 POP POP JUMP JUMPDEST PUSH1 0x0 DUP1 PUSH1 0x0 DUP1 PUSH1 0x80 DUP6 DUP8 SUB SLT ISZERO PUSH2 0x6C8 JUMPI PUSH2 0x6C7 PUSH2 0x528 JUMP JUMPDEST JUMPDEST PUSH1 0x0 PUSH2 0x6D6 DUP8 DUP3 DUP9 ADD PUSH2 0x553 JUMP JUMPDEST SWAP5 POP POP PUSH1 0x20 DUP6 ADD CALLDATALOAD PUSH8 0xFFFFFFFFFFFFFFFF DUP2 GT ISZERO PUSH2 0x6F7 JUMPI PUSH2 0x6F6 PUSH2 0x52D JUMP JUMPDEST JUMPDEST PUSH2 0x703 DUP8 DUP3 DUP9 ADD PUSH2 0x680 JUMP JUMPDEST SWAP4 POP POP PUSH1 0x40 PUSH2 0x714 DUP8 DUP3 DUP9 ADD PUSH2 0x553 JUMP JUMPDEST SWAP3 POP POP PUSH1 0x60 PUSH2 0x725 DUP8 DUP3 DUP9 ADD PUSH2 0x553 JUMP JUMPDEST SWAP2 POP POP SWAP3 SWAP6 SWAP2 SWAP5 POP SWAP3 POP JUMP JUMPDEST PUSH2 0x73A DUP2 PUSH2 0x532 JUMP JUMPDEST DUP3 MSTORE POP POP JUMP JUMPDEST PUSH1 0x0 PUSH1 0x20 DUP3 ADD SWAP1 POP PUSH2 0x755 PUSH1 0x0 DUP4 ADD DUP5 PUSH2 0x731 JUMP JUMPDEST SWAP3 SWAP2 POP POP JUMP JUMPDEST PUSH1 0x0 PUSH1 0x20 DUP3 DUP5 SUB SLT ISZERO PUSH2 0x771 JUMPI PUSH2 0x770 PUSH2 0x528 JUMP JUMPDEST JUMPDEST PUSH1 0x0 PUSH2 0x77F DUP5 DUP3 DUP6 ADD PUSH2 0x553 JUMP JUMPDEST SWAP2 POP POP SWAP3 SWAP2 POP POP JUMP JUMPDEST PUSH1 0x0 DUP2 MLOAD SWAP1 POP SWAP2 SWAP1 POP JUMP JUMPDEST PUSH1 0x0 DUP3 DUP3 MSTORE PUSH1 0x20 DUP3 ADD SWAP1 POP SWAP3 SWAP2 POP POP JUMP JUMPDEST PUSH1 0x0 JUMPDEST DUP4 DUP2 LT ISZERO PUSH2 0x7C2 JUMPI DUP1 DUP3 ADD MLOAD DUP2 DUP5 ADD MSTORE PUSH1 0x20 DUP2 ADD SWAP1 POP PUSH2 0x7A7 JUMP JUMPDEST PUSH1 0x0 DUP5 DUP5 ADD MSTORE POP POP POP POP JUMP JUMPDEST PUSH1 0x0 PUSH2 0x7D9 DUP3 PUSH2 0x788 JUMP JUMPDEST PUSH2 0x7E3 DUP2 DUP6 PUSH2 0x793 JUMP JUMPDEST SWAP4 POP PUSH2 0x7F3 DUP2 DUP6 PUSH1 0x20 DUP7 ADD PUSH2 0x7A4 JUMP JUMPDEST PUSH2 0x7FC DUP2 PUSH2 0x572 JUMP JUMPDEST DUP5 ADD SWAP2 POP POP SWAP3 SWAP2 POP POP JUMP JUMPDEST PUSH1 0x0 PUSH1 0x20 DUP3 ADD SWAP1 POP DUP2 DUP2 SUB PUSH1 0x0 DUP4 ADD MSTORE PUSH2 0x821 DUP2 DUP5 PUSH2 0x7CE JUMP JUMPDEST SWAP1 POP SWAP3 SWAP2 POP POP JUMP JUMPDEST PUSH1 0x0 DUP2 MLOAD SWAP1 POP SWAP2 SWAP1 POP JUMP JUMPDEST PUSH1 0x0 DUP3 DUP3 MSTORE PUSH1 0x20 DUP3 ADD SWAP1 POP SWAP3 SWAP2 POP POP JUMP JUMPDEST PUSH1 0x0 PUSH2 0x850 DUP3 PUSH2 0x829 JUMP JUMPDEST PUSH2 0x85A DUP2 DUP6 PUSH2 0x834 JUMP JUMPDEST SWAP4 POP PUSH2 0x86A DUP2 DUP6 PUSH1 0x20 DUP7 ADD PUSH2 0x7A4 JUMP JUMPDEST PUSH2 0x873 DUP2 PUSH2 0x572 JUMP JUMPDEST DUP5 ADD SWAP2 POP POP SWAP3 SWAP2 POP POP JUMP JUMPDEST PUSH1 0x0 PUSH1 0x20 DUP3 ADD SWAP1 POP DUP2 DUP2 SUB PUSH1 0x0 DUP4 ADD MSTORE PUSH2 0x898 DUP2 DUP5 PUSH2 0x845 JUMP JUMPDEST SWAP1 POP SWAP3 SWAP2 POP POP JUMP JUMPDEST PUSH1 0x0 PUSH1 0x60 DUP3 ADD SWAP1 POP DUP2 DUP2 SUB PUSH1 0x0 DUP4 ADD MSTORE PUSH2 0x8BA DUP2 DUP7 PUSH2 0x7CE JUMP JUMPDEST SWAP1 POP PUSH2 0x8C9 PUSH1 0x20 DUP4 ADD DUP6 PUSH2 0x731 JUMP JUMPDEST PUSH2 0x8D6 PUSH1 0x40 DUP4 ADD DUP5 PUSH2 0x731 JUMP JUMPDEST SWAP5 SWAP4 POP POP POP POP JUMP JUMPDEST PUSH1 0x0 PUSH1 0x20 DUP3 DUP5 SUB SLT ISZERO PUSH2 0x8F4 JUMPI PUSH2 0x8F3 PUSH2 0x528 JUMP JUMPDEST JUMPDEST PUSH1 0x0 DUP3 ADD CALLDATALOAD PUSH8 0xFFFFFFFFFFFFFFFF DUP2 GT ISZERO PUSH2 0x912 JUMPI PUSH2 0x911 PUSH2 0x52D JUMP JUMPDEST JUMPDEST PUSH2 0x91E DUP5 DUP3 DUP6 ADD PUSH2 0x680 JUMP JUMPDEST SWAP2 POP POP SWAP3 SWAP2 POP POP JUMP JUMPDEST PUSH32 0x4E487B7100000000000000000000000000000000000000000000000000000000 PUSH1 0x0 MSTORE PUSH1 0x22 PUSH1 0x4 MSTORE PUSH1 0x24 PUSH1 0x0 REVERT JUMPDEST PUSH1 0x0 PUSH1 0x2 DUP3 DIV SWAP1 POP PUSH1 0x1 DUP3 AND DUP1 PUSH2 0x96E JUMPI PUSH1 0x7F DUP3 AND SWAP2 POP JUMPDEST PUSH1 0x20 DUP3 LT DUP2 SUB PUSH2 0x981 JUMPI PUSH2 0x980 PUSH2 0x927 JUMP JUMPDEST JUMPDEST POP SWAP2 SWAP1 POP JUMP JUMPDEST PUSH1 0x0 DUP2 SWAP1 POP DUP2 PUSH1 0x0 MSTORE PUSH1 0x20 PUSH1 0x0 KECCAK256 SWAP1 POP SWAP2 SWAP1 POP JUMP JUMPDEST PUSH1 0x0 PUSH1 0x20 PUSH1 0x1F DUP4 ADD DIV SWAP1 POP SWAP2 SWAP1 POP JUMP JUMPDEST PUSH1 0x0 DUP3 DUP3 SHL SWAP1 POP SWAP3 SWAP2 POP POP JUMP JUMPDEST PUSH1 0x0 PUSH1 0x8 DUP4 MUL PUSH2 0x9E9 PUSH32 0xFFFFFFFFFFFFFFFFFFFFFFFFFFFFFFFFFFFFFFFFFFFFFFFFFFFFFFFFFFFFFFFF DUP3 PUSH2 0x9AC JUMP JUMPDEST PUSH2 0x9F3 DUP7 DUP4 PUSH2 0x9AC JUMP JUMPDEST SWAP6 POP DUP1 NOT DUP5 AND SWAP4 POP DUP1 DUP7 AND DUP5 OR SWAP3 POP POP POP SWAP4 SWAP3 POP POP POP JUMP JUMPDEST PUSH1 0x0 DUP2 SWAP1 POP SWAP2 SWAP1 POP JUMP JUMPDEST PUSH1 0x0 PUSH2 0xA30 PUSH2 0xA2B PUSH2 0xA26 DUP5 PUSH2 0x532 JUMP JUMPDEST PUSH2 0xA0B JUMP JUMPDEST PUSH2 0x532 JUMP JUMPDEST SWAP1 POP SWAP2 SWAP1 POP JUMP JUMPDEST PUSH1 0x0 DUP2 SWAP1 POP SWAP2 SWAP1 POP JUMP JUMPDEST PUSH2 0xA4A DUP4 PUSH2 0xA15 JUMP JUMPDEST PUSH2 0xA5E PUSH2 0xA56 DUP3 PUSH2 0xA37 JUMP JUMPDEST DUP5 DUP5 SLOAD PUSH2 0x9B9 JUMP JUMPDEST DUP3 SSTORE POP POP POP POP JUMP JUMPDEST PUSH1 0x0 SWAP1 JUMP JUMPDEST PUSH2 0xA73 PUSH2 0xA66 JUMP JUMPDEST PUSH2 0xA7E DUP2 DUP5 DUP5 PUSH2 0xA41 JUMP JUMPDEST POP POP POP JUMP JUMPDEST JUMPDEST DUP2 DUP2 LT ISZERO PUSH2 0xAA2 JUMPI PUSH2 0xA97 PUSH1 0x0 DUP3 PUSH2 0xA6B JUMP JUMPDEST PUSH1 0x1 DUP2 ADD SWAP1 POP PUSH2 0xA84 JUMP JUMPDEST POP POP JUMP JUMPDEST PUSH1 0x1F DUP3 GT ISZERO PUSH2 0xAE7 JUMPI PUSH2 0xAB8 DUP2 PUSH2 0x987 JUMP JUMPDEST PUSH2 0xAC1 DUP5 PUSH2 0x99C JUMP JUMPDEST DUP2 ADD PUSH1 0x20 DUP6 LT ISZERO PUSH2 0xAD0 JUMPI DUP2 SWAP1 POP JUMPDEST PUSH2 0xAE4 PUSH2 0xADC DUP6 PUSH2 0x99C JUMP JUMPDEST DUP4 ADD DUP3 PUSH2 0xA83 JUMP JUMPDEST POP POP JUMPDEST POP POP POP JUMP JUMPDEST PUSH1 0x0 DUP3 DUP3 SHR SWAP1 POP SWAP3 SWAP2 POP POP JUMP JUMPDEST PUSH1 0x0 PUSH2 0xB0A PUSH1 0x0 NOT DUP5 PUSH1 0x8 MUL PUSH2 0xAEC JUMP JUMPDEST NOT DUP1 DUP4 AND SWAP2 POP POP SWAP3 SWAP2 POP POP JUMP JUMPDEST PUSH1 0x0 PUSH2 0xB23 DUP4 DUP4 PUSH2 0xAF9 JUMP JUMPDEST SWAP2 POP DUP3 PUSH1 0x2 MUL DUP3 OR SWAP1 POP SWAP3 SWAP2 POP POP JUMP JUMPDEST PUSH2 0xB3C DUP3 PUSH2 0x788 JUMP JUMPDEST PUSH8 0xFFFFFFFFFFFFFFFF DUP2 GT ISZERO PUSH2 0xB55 JUMPI PUSH2 0xB54 PUSH2 0x583 JUMP JUMPDEST JUMPDEST PUSH2 0xB5F DUP3 SLOAD PUSH2 0x956 JUMP JUMPDEST PUSH2 0xB6A DUP3 DUP3 DUP6 PUSH2 0xAA6 JUMP JUMPDEST PUSH1 0x0 PUSH1 0x20 SWAP1 POP PUSH1 0x1F DUP4 GT PUSH1 0x1 DUP2 EQ PUSH2 0xB9D JUMPI PUSH1 0x0 DUP5 ISZERO PUSH2 0xB8B JUMPI DUP3 DUP8 ADD MLOAD SWAP1 POP JUMPDEST PUSH2 0xB95 DUP6 DUP3 PUSH2 0xB17 JUMP JUMPDEST DUP7 SSTORE POP PUSH2 0xBFD JUMP JUMPDEST PUSH1 0x1F NOT DUP5 AND PUSH2 0xBAB DUP7 PUSH2 0x987 JUMP JUMPDEST PUSH1 0x0 JUMPDEST DUP3 DUP2 LT ISZERO PUSH2 0xBD3 JUMPI DUP5 DUP10 ADD MLOAD DUP3 SSTORE PUSH1 0x1 DUP3 ADD SWAP2 POP PUSH1 0x20 DUP6 ADD SWAP5 POP PUSH1 0x20 DUP2 ADD SWAP1 POP PUSH2 0xBAE JUMP JUMPDEST DUP7 DUP4 LT ISZERO PUSH2 0xBF0 JUMPI DUP5 DUP10 ADD MLOAD PUSH2 0xBEC PUSH1 0x1F DUP10 AND DUP3 PUSH2 0xAF9 JUMP JUMPDEST DUP4 SSTORE POP JUMPDEST PUSH1 0x1 PUSH1 0x2 DUP9 MUL ADD DUP9 SSTORE POP POP POP JUMPDEST POP POP POP POP POP POP JUMP INVALID LOG2 PUSH5 0x6970667358 0x22 SLT KECCAK256 KECCAK256 0x5E SSTORE 0xE0 0x2C LOG3 PUSH10 0xE84F573E5B71E6E713A5 DUP1 DUP2 0xC6 0xE1 0x25 LOG2 SWAP6 0xD9 PUSH13 0x2960906EB6FF64736F6C634300 ADDMOD GT STOP CALLER "
				},
				"gasEstimates": {
					"creation": {
						"codeDepositCost": "626200",
						"executionCost": "infinite",
						"totalCost": "infinite"
					},
					"external": {
						"addElement()": "74883",
						"b1()": "infinite",
						"getValue()": "2460",
						"myMapping(string)": "infinite",
						"players(uint256)": "infinite",
						"retrieve()": "2482",
						"s1()": "infinite",
						"setMapping(uint256,string,uint256,uint256)": "infinite",
						"setValue(uint256)": "22609",
						"store(uint256)": "22520"
					}
				},
				"methodIdentifiers": {
					"addElement()": "3f2273b3",
					"b1()": "ee495002",
					"getValue()": "20965255",
					"myMapping(string)": "ffac7005",
					"players(uint256)": "f71d96cb",
					"retrieve()": "2e64cec1",
					"s1()": "6cc014de",
					"setMapping(uint256,string,uint256,uint256)": "1d74220e",
					"setValue(uint256)": "55241077",
					"store(uint256)": "6057361d"
				}
			},
			"storageLayout": {
				"storage": [
					{
						"astId": 4,
						"contract": "contracts/1_Storage.sol:Storage",
						"label": "number",
						"offset": 0,
						"slot": "0",
						"type": "t_uint256"
					},
					{
						"astId": 6,
						"contract": "contracts/1_Storage.sol:Storage",
						"label": "value",
						"offset": 0,
						"slot": "1",
						"type": "t_uint256"
					},
					{
						"astId": 9,
						"contract": "contracts/1_Storage.sol:Storage",
						"label": "b1",
						"offset": 0,
						"slot": "2",
						"type": "t_bytes_storage"
					},
					{
						"astId": 12,
						"contract": "contracts/1_Storage.sol:Storage",
						"label": "s1",
						"offset": 0,
						"slot": "3",
						"type": "t_string_storage"
					},
					{
						"astId": 16,
						"contract": "contracts/1_Storage.sol:Storage",
						"label": "myMapping",
						"offset": 0,
						"slot": "4",
						"type": "t_mapping(t_string_memory_ptr,t_uint256)"
					},
					{
						"astId": 28,
						"contract": "contracts/1_Storage.sol:Storage",
						"label": "players",
						"offset": 0,
						"slot": "5",
						"type": "t_mapping(t_uint256,t_struct(Player)23_storage)"
					}
				],
				"types": {
					"t_bytes_storage": {
						"encoding": "bytes",
						"label": "bytes",
						"numberOfBytes": "32"
					},
					"t_mapping(t_string_memory_ptr,t_uint256)": {
						"encoding": "mapping",
						"key": "t_string_memory_ptr",
						"label": "mapping(string => uint256)",
						"numberOfBytes": "32",
						"value": "t_uint256"
					},
					"t_mapping(t_uint256,t_struct(Player)23_storage)": {
						"encoding": "mapping",
						"key": "t_uint256",
						"label": "mapping(uint256 => struct Storage.Player)",
						"numberOfBytes": "32",
						"value": "t_struct(Player)23_storage"
					},
					"t_string_memory_ptr": {
						"encoding": "bytes",
						"label": "string",
						"numberOfBytes": "32"
					},
					"t_string_storage": {
						"encoding": "bytes",
						"label": "string",
						"numberOfBytes": "32"
					},
					"t_struct(Player)23_storage": {
						"encoding": "inplace",
						"label": "struct Storage.Player",
						"members": [
							{
								"astId": 18,
								"contract": "contracts/1_Storage.sol:Storage",
								"label": "name",
								"offset": 0,
								"slot": "0",
								"type": "t_string_storage"
							},
							{
								"astId": 20,
								"contract": "contracts/1_Storage.sol:Storage",
								"label": "level",
								"offset": 0,
								"slot": "1",
								"type": "t_uint256"
							},
							{
								"astId": 22,
								"contract": "contracts/1_Storage.sol:Storage",
								"label": "score",
								"offset": 0,
								"slot": "2",
								"type": "t_uint256"
							}
						],
						"numberOfBytes": "96"
					},
					"t_uint256": {
						"encoding": "inplace",
						"label": "uint256",
						"numberOfBytes": "32"
					}
				}
			},
			"userdoc": {
				"kind": "user",
				"methods": {},
				"version": 1
			}
		}
	}
}