{
	"contracts/myContract.sol": {
		"myContractB": {
			"abi": [
				{
					"inputs": [
						{
							"internalType": "string",
							"name": "_name",
							"type": "string"
						}
					],
					"name": "makeCharacter",
					"outputs": [
						{
							"internalType": "bool",
							"name": "",
							"type": "bool"
						}
					],
					"stateMutability": "payable",
					"type": "function"
				},
				{
					"inputs": [
						{
							"internalType": "address",
							"name": "",
							"type": "address"
						}
					],
					"name": "players",
					"outputs": [
						{
							"internalType": "string",
							"name": "name",
							"type": "string"
						},
						{
							"internalType": "uint256",
							"name": "amount",
							"type": "uint256"
						},
						{
							"internalType": "bool",
							"name": "created",
							"type": "bool"
						}
					],
					"stateMutability": "view",
					"type": "function"
				}
			],
			"devdoc": {
				"kind": "dev",
				"methods": {},
				"version": 1
			},
			"evm": {
				"assembly": "    /* \"contracts/myContract.sol\":543:1035  contract myContractB {... */\n  mstore(0x40, 0x80)\n  callvalue\n  dup1\n  iszero\n  tag_1\n  jumpi\n  0x00\n  dup1\n  revert\ntag_1:\n  pop\n  dataSize(sub_0)\n  dup1\n  dataOffset(sub_0)\n  0x00\n  codecopy\n  0x00\n  return\nstop\n\nsub_0: assembly {\n        /* \"contracts/myContract.sol\":543:1035  contract myContractB {... */\n      mstore(0x40, 0x80)\n      jumpi(tag_1, lt(calldatasize, 0x04))\n      shr(0xe0, calldataload(0x00))\n      dup1\n      0x101df88e\n      eq\n      tag_2\n      jumpi\n      dup1\n      0xe2eb41ff\n      eq\n      tag_3\n      jumpi\n    tag_1:\n      0x00\n      dup1\n      revert\n        /* \"contracts/myContract.sol\":720:1032  function makeCharacter(string memory _name) public payable returns (bool) {... */\n    tag_2:\n      tag_4\n      0x04\n      dup1\n      calldatasize\n      sub\n      dup2\n      add\n      swap1\n      tag_5\n      swap2\n      swap1\n      tag_6\n      jump\t// in\n    tag_5:\n      tag_7\n      jump\t// in\n    tag_4:\n      mload(0x40)\n      tag_8\n      swap2\n      swap1\n      tag_9\n      jump\t// in\n    tag_8:\n      mload(0x40)\n      dup1\n      swap2\n      sub\n      swap1\n      return\n        /* \"contracts/myContract.sol\":668:709  mapping(address => Player) public players */\n    tag_3:\n      callvalue\n      dup1\n      iszero\n      tag_10\n      jumpi\n      0x00\n      dup1\n      revert\n    tag_10:\n      pop\n      tag_11\n      0x04\n      dup1\n      calldatasize\n      sub\n      dup2\n      add\n      swap1\n      tag_12\n      swap2\n      swap1\n      tag_13\n      jump\t// in\n    tag_12:\n      tag_14\n      jump\t// in\n    tag_11:\n      mload(0x40)\n      tag_15\n      swap4\n      swap3\n      swap2\n      swap1\n      tag_16\n      jump\t// in\n    tag_15:\n      mload(0x40)\n      dup1\n      swap2\n      sub\n      swap1\n      return\n        /* \"contracts/myContract.sol\":720:1032  function makeCharacter(string memory _name) public payable returns (bool) {... */\n    tag_7:\n        /* \"contracts/myContract.sol\":788:792  bool */\n      0x00\n        /* \"contracts/myContract.sol\":826:834  10 ether */\n      0x8ac7230489e80000\n        /* \"contracts/myContract.sol\":813:822  msg.value */\n      callvalue\n        /* \"contracts/myContract.sol\":813:834  msg.value == 10 ether */\n      eq\n        /* \"contracts/myContract.sol\":805:835  require(msg.value == 10 ether) */\n      tag_18\n      jumpi\n      0x00\n      dup1\n      revert\n    tag_18:\n        /* \"contracts/myContract.sol\":855:862  players */\n      0x00\n        /* \"contracts/myContract.sol\":855:874  players[msg.sender] */\n      dup1\n        /* \"contracts/myContract.sol\":863:873  msg.sender */\n      caller\n        /* \"contracts/myContract.sol\":855:874  players[msg.sender] */\n      0xffffffffffffffffffffffffffffffffffffffff\n      and\n      0xffffffffffffffffffffffffffffffffffffffff\n      and\n      dup2\n      mstore\n      0x20\n      add\n      swap1\n      dup2\n      mstore\n      0x20\n      add\n      0x00\n      keccak256\n        /* \"contracts/myContract.sol\":855:882  players[msg.sender].created */\n      0x02\n      add\n      0x00\n      swap1\n      sload\n      swap1\n      0x0100\n      exp\n      swap1\n      div\n      0xff\n      and\n        /* \"contracts/myContract.sol\":854:882  !players[msg.sender].created */\n      iszero\n        /* \"contracts/myContract.sol\":846:903  require(!players[msg.sender].created, \"1 Character only\") */\n      tag_19\n      jumpi\n      mload(0x40)\n      0x08c379a000000000000000000000000000000000000000000000000000000000\n      dup2\n      mstore\n      0x04\n      add\n      tag_20\n      swap1\n      tag_21\n      jump\t// in\n    tag_20:\n      mload(0x40)\n      dup1\n      swap2\n      sub\n      swap1\n      revert\n    tag_19:\n        /* \"contracts/myContract.sol\":969:999  Player(_name, msg.value, true) */\n      mload(0x40)\n      dup1\n      0x60\n      add\n      0x40\n      mstore\n      dup1\n        /* \"contracts/myContract.sol\":976:981  _name */\n      dup4\n        /* \"contracts/myContract.sol\":969:999  Player(_name, msg.value, true) */\n      dup2\n      mstore\n      0x20\n      add\n        /* \"contracts/myContract.sol\":983:992  msg.value */\n      callvalue\n        /* \"contracts/myContract.sol\":969:999  Player(_name, msg.value, true) */\n      dup2\n      mstore\n      0x20\n      add\n        /* \"contracts/myContract.sol\":994:998  true */\n      0x01\n        /* \"contracts/myContract.sol\":969:999  Player(_name, msg.value, true) */\n      iszero\n      iszero\n      dup2\n      mstore\n      pop\n        /* \"contracts/myContract.sol\":947:954  players */\n      0x00\n        /* \"contracts/myContract.sol\":947:966  players[msg.sender] */\n      dup1\n        /* \"contracts/myContract.sol\":955:965  msg.sender */\n      caller\n        /* \"contracts/myContract.sol\":947:966  players[msg.sender] */\n      0xffffffffffffffffffffffffffffffffffffffff\n      and\n      0xffffffffffffffffffffffffffffffffffffffff\n      and\n      dup2\n      mstore\n      0x20\n      add\n      swap1\n      dup2\n      mstore\n      0x20\n      add\n      0x00\n      keccak256\n        /* \"contracts/myContract.sol\":947:999  players[msg.sender] = Player(_name, msg.value, true) */\n      0x00\n      dup3\n      add\n      mload\n      dup2\n      0x00\n      add\n      swap1\n      dup2\n      tag_22\n      swap2\n      swap1\n      tag_23\n      jump\t// in\n    tag_22:\n      pop\n      0x20\n      dup3\n      add\n      mload\n      dup2\n      0x01\n      add\n      sstore\n      0x40\n      dup3\n      add\n      mload\n      dup2\n      0x02\n      add\n      exp(0x0100, 0x00)\n      dup2\n      sload\n      dup2\n      0xff\n      mul\n      not\n      and\n      swap1\n      dup4\n      iszero\n      iszero\n      mul\n      or\n      swap1\n      sstore\n      pop\n      swap1\n      pop\n      pop\n        /* \"contracts/myContract.sol\":1020:1024  true */\n      0x01\n        /* \"contracts/myContract.sol\":1013:1024  return true */\n      swap1\n      pop\n        /* \"contracts/myContract.sol\":720:1032  function makeCharacter(string memory _name) public payable returns (bool) {... */\n      swap2\n      swap1\n      pop\n      jump\t// out\n        /* \"contracts/myContract.sol\":668:709  mapping(address => Player) public players */\n    tag_14:\n      mstore(0x20, 0x00)\n      dup1\n      0x00\n      mstore\n      keccak256(0x00, 0x40)\n      0x00\n      swap2\n      pop\n      swap1\n      pop\n      dup1\n      0x00\n      add\n      dup1\n      sload\n      tag_24\n      swap1\n      tag_25\n      jump\t// in\n    tag_24:\n      dup1\n      0x1f\n      add\n      0x20\n      dup1\n      swap2\n      div\n      mul\n      0x20\n      add\n      mload(0x40)\n      swap1\n      dup2\n      add\n      0x40\n      mstore\n      dup1\n      swap3\n      swap2\n      swap1\n      dup2\n      dup2\n      mstore\n      0x20\n      add\n      dup3\n      dup1\n      sload\n      tag_26\n      swap1\n      tag_25\n      jump\t// in\n    tag_26:\n      dup1\n      iszero\n      tag_27\n      jumpi\n      dup1\n      0x1f\n      lt\n      tag_28\n      jumpi\n      0x0100\n      dup1\n      dup4\n      sload\n      div\n      mul\n      dup4\n      mstore\n      swap2\n      0x20\n      add\n      swap2\n      jump(tag_27)\n    tag_28:\n      dup3\n      add\n      swap2\n      swap1\n      0x00\n      mstore\n      keccak256(0x00, 0x20)\n      swap1\n    tag_29:\n      dup2\n      sload\n      dup2\n      mstore\n      swap1\n      0x01\n      add\n      swap1\n      0x20\n      add\n      dup1\n      dup4\n      gt\n      tag_29\n      jumpi\n      dup3\n      swap1\n      sub\n      0x1f\n      and\n      dup3\n      add\n      swap2\n    tag_27:\n      pop\n      pop\n      pop\n      pop\n      pop\n      swap1\n      dup1\n      0x01\n      add\n      sload\n      swap1\n      dup1\n      0x02\n      add\n      0x00\n      swap1\n      sload\n      swap1\n      0x0100\n      exp\n      swap1\n      div\n      0xff\n      and\n      swap1\n      pop\n      dup4\n      jump\t// out\n        /* \"#utility.yul\":7:82   */\n    tag_30:\n        /* \"#utility.yul\":40:46   */\n      0x00\n        /* \"#utility.yul\":73:75   */\n      0x40\n        /* \"#utility.yul\":67:76   */\n      mload\n        /* \"#utility.yul\":57:76   */\n      swap1\n      pop\n        /* \"#utility.yul\":7:82   */\n      swap1\n      jump\t// out\n        /* \"#utility.yul\":88:205   */\n    tag_31:\n        /* \"#utility.yul\":197:198   */\n      0x00\n        /* \"#utility.yul\":194:195   */\n      dup1\n        /* \"#utility.yul\":187:199   */\n      revert\n        /* \"#utility.yul\":211:328   */\n    tag_32:\n        /* \"#utility.yul\":320:321   */\n      0x00\n        /* \"#utility.yul\":317:318   */\n      dup1\n        /* \"#utility.yul\":310:322   */\n      revert\n        /* \"#utility.yul\":334:451   */\n    tag_33:\n        /* \"#utility.yul\":443:444   */\n      0x00\n        /* \"#utility.yul\":440:441   */\n      dup1\n        /* \"#utility.yul\":433:445   */\n      revert\n        /* \"#utility.yul\":457:574   */\n    tag_34:\n        /* \"#utility.yul\":566:567   */\n      0x00\n        /* \"#utility.yul\":563:564   */\n      dup1\n        /* \"#utility.yul\":556:568   */\n      revert\n        /* \"#utility.yul\":580:682   */\n    tag_35:\n        /* \"#utility.yul\":621:627   */\n      0x00\n        /* \"#utility.yul\":672:674   */\n      0x1f\n        /* \"#utility.yul\":668:675   */\n      not\n        /* \"#utility.yul\":663:665   */\n      0x1f\n        /* \"#utility.yul\":656:661   */\n      dup4\n        /* \"#utility.yul\":652:666   */\n      add\n        /* \"#utility.yul\":648:676   */\n      and\n        /* \"#utility.yul\":638:676   */\n      swap1\n      pop\n        /* \"#utility.yul\":580:682   */\n      swap2\n      swap1\n      pop\n      jump\t// out\n        /* \"#utility.yul\":688:868   */\n    tag_36:\n        /* \"#utility.yul\":736:813   */\n      0x4e487b7100000000000000000000000000000000000000000000000000000000\n        /* \"#utility.yul\":733:734   */\n      0x00\n        /* \"#utility.yul\":726:814   */\n      mstore\n        /* \"#utility.yul\":833:837   */\n      0x41\n        /* \"#utility.yul\":830:831   */\n      0x04\n        /* \"#utility.yul\":823:838   */\n      mstore\n        /* \"#utility.yul\":857:861   */\n      0x24\n        /* \"#utility.yul\":854:855   */\n      0x00\n        /* \"#utility.yul\":847:862   */\n      revert\n        /* \"#utility.yul\":874:1155   */\n    tag_37:\n        /* \"#utility.yul\":957:984   */\n      tag_82\n        /* \"#utility.yul\":979:983   */\n      dup3\n        /* \"#utility.yul\":957:984   */\n      tag_35\n      jump\t// in\n    tag_82:\n        /* \"#utility.yul\":949:955   */\n      dup2\n        /* \"#utility.yul\":945:985   */\n      add\n        /* \"#utility.yul\":1087:1093   */\n      dup2\n        /* \"#utility.yul\":1075:1085   */\n      dup2\n        /* \"#utility.yul\":1072:1094   */\n      lt\n        /* \"#utility.yul\":1051:1069   */\n      0xffffffffffffffff\n        /* \"#utility.yul\":1039:1049   */\n      dup3\n        /* \"#utility.yul\":1036:1070   */\n      gt\n        /* \"#utility.yul\":1033:1095   */\n      or\n        /* \"#utility.yul\":1030:1118   */\n      iszero\n      tag_83\n      jumpi\n        /* \"#utility.yul\":1098:1116   */\n      tag_84\n      tag_36\n      jump\t// in\n    tag_84:\n        /* \"#utility.yul\":1030:1118   */\n    tag_83:\n        /* \"#utility.yul\":1138:1148   */\n      dup1\n        /* \"#utility.yul\":1134:1136   */\n      0x40\n        /* \"#utility.yul\":1127:1149   */\n      mstore\n        /* \"#utility.yul\":917:1155   */\n      pop\n        /* \"#utility.yul\":874:1155   */\n      pop\n      pop\n      jump\t// out\n        /* \"#utility.yul\":1161:1290   */\n    tag_38:\n        /* \"#utility.yul\":1195:1201   */\n      0x00\n        /* \"#utility.yul\":1222:1242   */\n      tag_86\n      tag_30\n      jump\t// in\n    tag_86:\n        /* \"#utility.yul\":1212:1242   */\n      swap1\n      pop\n        /* \"#utility.yul\":1251:1284   */\n      tag_87\n        /* \"#utility.yul\":1279:1283   */\n      dup3\n        /* \"#utility.yul\":1271:1277   */\n      dup3\n        /* \"#utility.yul\":1251:1284   */\n      tag_37\n      jump\t// in\n    tag_87:\n        /* \"#utility.yul\":1161:1290   */\n      swap2\n      swap1\n      pop\n      jump\t// out\n        /* \"#utility.yul\":1296:1604   */\n    tag_39:\n        /* \"#utility.yul\":1358:1362   */\n      0x00\n        /* \"#utility.yul\":1448:1466   */\n      0xffffffffffffffff\n        /* \"#utility.yul\":1440:1446   */\n      dup3\n        /* \"#utility.yul\":1437:1467   */\n      gt\n        /* \"#utility.yul\":1434:1490   */\n      iszero\n      tag_89\n      jumpi\n        /* \"#utility.yul\":1470:1488   */\n      tag_90\n      tag_36\n      jump\t// in\n    tag_90:\n        /* \"#utility.yul\":1434:1490   */\n    tag_89:\n        /* \"#utility.yul\":1508:1537   */\n      tag_91\n        /* \"#utility.yul\":1530:1536   */\n      dup3\n        /* \"#utility.yul\":1508:1537   */\n      tag_35\n      jump\t// in\n    tag_91:\n        /* \"#utility.yul\":1500:1537   */\n      swap1\n      pop\n        /* \"#utility.yul\":1592:1596   */\n      0x20\n        /* \"#utility.yul\":1586:1590   */\n      dup2\n        /* \"#utility.yul\":1582:1597   */\n      add\n        /* \"#utility.yul\":1574:1597   */\n      swap1\n      pop\n        /* \"#utility.yul\":1296:1604   */\n      swap2\n      swap1\n      pop\n      jump\t// out\n        /* \"#utility.yul\":1610:1756   */\n    tag_40:\n        /* \"#utility.yul\":1707:1713   */\n      dup3\n        /* \"#utility.yul\":1702:1705   */\n      dup2\n        /* \"#utility.yul\":1697:1700   */\n      dup4\n        /* \"#utility.yul\":1684:1714   */\n      calldatacopy\n        /* \"#utility.yul\":1748:1749   */\n      0x00\n        /* \"#utility.yul\":1739:1745   */\n      dup4\n        /* \"#utility.yul\":1734:1737   */\n      dup4\n        /* \"#utility.yul\":1730:1746   */\n      add\n        /* \"#utility.yul\":1723:1750   */\n      mstore\n        /* \"#utility.yul\":1610:1756   */\n      pop\n      pop\n      pop\n      jump\t// out\n        /* \"#utility.yul\":1762:2187   */\n    tag_41:\n        /* \"#utility.yul\":1840:1845   */\n      0x00\n        /* \"#utility.yul\":1865:1931   */\n      tag_94\n        /* \"#utility.yul\":1881:1930   */\n      tag_95\n        /* \"#utility.yul\":1923:1929   */\n      dup5\n        /* \"#utility.yul\":1881:1930   */\n      tag_39\n      jump\t// in\n    tag_95:\n        /* \"#utility.yul\":1865:1931   */\n      tag_38\n      jump\t// in\n    tag_94:\n        /* \"#utility.yul\":1856:1931   */\n      swap1\n      pop\n        /* \"#utility.yul\":1954:1960   */\n      dup3\n        /* \"#utility.yul\":1947:1952   */\n      dup2\n        /* \"#utility.yul\":1940:1961   */\n      mstore\n        /* \"#utility.yul\":1992:1996   */\n      0x20\n        /* \"#utility.yul\":1985:1990   */\n      dup2\n        /* \"#utility.yul\":1981:1997   */\n      add\n        /* \"#utility.yul\":2030:2033   */\n      dup5\n        /* \"#utility.yul\":2021:2027   */\n      dup5\n        /* \"#utility.yul\":2016:2019   */\n      dup5\n        /* \"#utility.yul\":2012:2028   */\n      add\n        /* \"#utility.yul\":2009:2034   */\n      gt\n        /* \"#utility.yul\":2006:2118   */\n      iszero\n      tag_96\n      jumpi\n        /* \"#utility.yul\":2037:2116   */\n      tag_97\n      tag_34\n      jump\t// in\n    tag_97:\n        /* \"#utility.yul\":2006:2118   */\n    tag_96:\n        /* \"#utility.yul\":2127:2181   */\n      tag_98\n        /* \"#utility.yul\":2174:2180   */\n      dup5\n        /* \"#utility.yul\":2169:2172   */\n      dup3\n        /* \"#utility.yul\":2164:2167   */\n      dup6\n        /* \"#utility.yul\":2127:2181   */\n      tag_40\n      jump\t// in\n    tag_98:\n        /* \"#utility.yul\":1846:2187   */\n      pop\n        /* \"#utility.yul\":1762:2187   */\n      swap4\n      swap3\n      pop\n      pop\n      pop\n      jump\t// out\n        /* \"#utility.yul\":2207:2547   */\n    tag_42:\n        /* \"#utility.yul\":2263:2268   */\n      0x00\n        /* \"#utility.yul\":2312:2315   */\n      dup3\n        /* \"#utility.yul\":2305:2309   */\n      0x1f\n        /* \"#utility.yul\":2297:2303   */\n      dup4\n        /* \"#utility.yul\":2293:2310   */\n      add\n        /* \"#utility.yul\":2289:2316   */\n      slt\n        /* \"#utility.yul\":2279:2401   */\n      tag_100\n      jumpi\n        /* \"#utility.yul\":2320:2399   */\n      tag_101\n      tag_33\n      jump\t// in\n    tag_101:\n        /* \"#utility.yul\":2279:2401   */\n    tag_100:\n        /* \"#utility.yul\":2437:2443   */\n      dup2\n        /* \"#utility.yul\":2424:2444   */\n      calldataload\n        /* \"#utility.yul\":2462:2541   */\n      tag_102\n        /* \"#utility.yul\":2537:2540   */\n      dup5\n        /* \"#utility.yul\":2529:2535   */\n      dup3\n        /* \"#utility.yul\":2522:2526   */\n      0x20\n        /* \"#utility.yul\":2514:2520   */\n      dup7\n        /* \"#utility.yul\":2510:2527   */\n      add\n        /* \"#utility.yul\":2462:2541   */\n      tag_41\n      jump\t// in\n    tag_102:\n        /* \"#utility.yul\":2453:2541   */\n      swap2\n      pop\n        /* \"#utility.yul\":2269:2547   */\n      pop\n        /* \"#utility.yul\":2207:2547   */\n      swap3\n      swap2\n      pop\n      pop\n      jump\t// out\n        /* \"#utility.yul\":2553:3062   */\n    tag_6:\n        /* \"#utility.yul\":2622:2628   */\n      0x00\n        /* \"#utility.yul\":2671:2673   */\n      0x20\n        /* \"#utility.yul\":2659:2668   */\n      dup3\n        /* \"#utility.yul\":2650:2657   */\n      dup5\n        /* \"#utility.yul\":2646:2669   */\n      sub\n        /* \"#utility.yul\":2642:2674   */\n      slt\n        /* \"#utility.yul\":2639:2758   */\n      iszero\n      tag_104\n      jumpi\n        /* \"#utility.yul\":2677:2756   */\n      tag_105\n      tag_31\n      jump\t// in\n    tag_105:\n        /* \"#utility.yul\":2639:2758   */\n    tag_104:\n        /* \"#utility.yul\":2825:2826   */\n      0x00\n        /* \"#utility.yul\":2814:2823   */\n      dup3\n        /* \"#utility.yul\":2810:2827   */\n      add\n        /* \"#utility.yul\":2797:2828   */\n      calldataload\n        /* \"#utility.yul\":2855:2873   */\n      0xffffffffffffffff\n        /* \"#utility.yul\":2847:2853   */\n      dup2\n        /* \"#utility.yul\":2844:2874   */\n      gt\n        /* \"#utility.yul\":2841:2958   */\n      iszero\n      tag_106\n      jumpi\n        /* \"#utility.yul\":2877:2956   */\n      tag_107\n      tag_32\n      jump\t// in\n    tag_107:\n        /* \"#utility.yul\":2841:2958   */\n    tag_106:\n        /* \"#utility.yul\":2982:3045   */\n      tag_108\n        /* \"#utility.yul\":3037:3044   */\n      dup5\n        /* \"#utility.yul\":3028:3034   */\n      dup3\n        /* \"#utility.yul\":3017:3026   */\n      dup6\n        /* \"#utility.yul\":3013:3035   */\n      add\n        /* \"#utility.yul\":2982:3045   */\n      tag_42\n      jump\t// in\n    tag_108:\n        /* \"#utility.yul\":2972:3045   */\n      swap2\n      pop\n        /* \"#utility.yul\":2768:3055   */\n      pop\n        /* \"#utility.yul\":2553:3062   */\n      swap3\n      swap2\n      pop\n      pop\n      jump\t// out\n        /* \"#utility.yul\":3068:3158   */\n    tag_43:\n        /* \"#utility.yul\":3102:3109   */\n      0x00\n        /* \"#utility.yul\":3145:3150   */\n      dup2\n        /* \"#utility.yul\":3138:3151   */\n      iszero\n        /* \"#utility.yul\":3131:3152   */\n      iszero\n        /* \"#utility.yul\":3120:3152   */\n      swap1\n      pop\n        /* \"#utility.yul\":3068:3158   */\n      swap2\n      swap1\n      pop\n      jump\t// out\n        /* \"#utility.yul\":3164:3273   */\n    tag_44:\n        /* \"#utility.yul\":3245:3266   */\n      tag_111\n        /* \"#utility.yul\":3260:3265   */\n      dup2\n        /* \"#utility.yul\":3245:3266   */\n      tag_43\n      jump\t// in\n    tag_111:\n        /* \"#utility.yul\":3240:3243   */\n      dup3\n        /* \"#utility.yul\":3233:3267   */\n      mstore\n        /* \"#utility.yul\":3164:3273   */\n      pop\n      pop\n      jump\t// out\n        /* \"#utility.yul\":3279:3489   */\n    tag_9:\n        /* \"#utility.yul\":3366:3370   */\n      0x00\n        /* \"#utility.yul\":3404:3406   */\n      0x20\n        /* \"#utility.yul\":3393:3402   */\n      dup3\n        /* \"#utility.yul\":3389:3407   */\n      add\n        /* \"#utility.yul\":3381:3407   */\n      swap1\n      pop\n        /* \"#utility.yul\":3417:3482   */\n      tag_113\n        /* \"#utility.yul\":3479:3480   */\n      0x00\n        /* \"#utility.yul\":3468:3477   */\n      dup4\n        /* \"#utility.yul\":3464:3481   */\n      add\n        /* \"#utility.yul\":3455:3461   */\n      dup5\n        /* \"#utility.yul\":3417:3482   */\n      tag_44\n      jump\t// in\n    tag_113:\n        /* \"#utility.yul\":3279:3489   */\n      swap3\n      swap2\n      pop\n      pop\n      jump\t// out\n        /* \"#utility.yul\":3495:3621   */\n    tag_45:\n        /* \"#utility.yul\":3532:3539   */\n      0x00\n        /* \"#utility.yul\":3572:3614   */\n      0xffffffffffffffffffffffffffffffffffffffff\n        /* \"#utility.yul\":3565:3570   */\n      dup3\n        /* \"#utility.yul\":3561:3615   */\n      and\n        /* \"#utility.yul\":3550:3615   */\n      swap1\n      pop\n        /* \"#utility.yul\":3495:3621   */\n      swap2\n      swap1\n      pop\n      jump\t// out\n        /* \"#utility.yul\":3627:3723   */\n    tag_46:\n        /* \"#utility.yul\":3664:3671   */\n      0x00\n        /* \"#utility.yul\":3693:3717   */\n      tag_116\n        /* \"#utility.yul\":3711:3716   */\n      dup3\n        /* \"#utility.yul\":3693:3717   */\n      tag_45\n      jump\t// in\n    tag_116:\n        /* \"#utility.yul\":3682:3717   */\n      swap1\n      pop\n        /* \"#utility.yul\":3627:3723   */\n      swap2\n      swap1\n      pop\n      jump\t// out\n        /* \"#utility.yul\":3729:3851   */\n    tag_47:\n        /* \"#utility.yul\":3802:3826   */\n      tag_118\n        /* \"#utility.yul\":3820:3825   */\n      dup2\n        /* \"#utility.yul\":3802:3826   */\n      tag_46\n      jump\t// in\n    tag_118:\n        /* \"#utility.yul\":3795:3800   */\n      dup2\n        /* \"#utility.yul\":3792:3827   */\n      eq\n        /* \"#utility.yul\":3782:3845   */\n      tag_119\n      jumpi\n        /* \"#utility.yul\":3841:3842   */\n      0x00\n        /* \"#utility.yul\":3838:3839   */\n      dup1\n        /* \"#utility.yul\":3831:3843   */\n      revert\n        /* \"#utility.yul\":3782:3845   */\n    tag_119:\n        /* \"#utility.yul\":3729:3851   */\n      pop\n      jump\t// out\n        /* \"#utility.yul\":3857:3996   */\n    tag_48:\n        /* \"#utility.yul\":3903:3908   */\n      0x00\n        /* \"#utility.yul\":3941:3947   */\n      dup2\n        /* \"#utility.yul\":3928:3948   */\n      calldataload\n        /* \"#utility.yul\":3919:3948   */\n      swap1\n      pop\n        /* \"#utility.yul\":3957:3990   */\n      tag_121\n        /* \"#utility.yul\":3984:3989   */\n      dup2\n        /* \"#utility.yul\":3957:3990   */\n      tag_47\n      jump\t// in\n    tag_121:\n        /* \"#utility.yul\":3857:3996   */\n      swap3\n      swap2\n      pop\n      pop\n      jump\t// out\n        /* \"#utility.yul\":4002:4331   */\n    tag_13:\n        /* \"#utility.yul\":4061:4067   */\n      0x00\n        /* \"#utility.yul\":4110:4112   */\n      0x20\n        /* \"#utility.yul\":4098:4107   */\n      dup3\n        /* \"#utility.yul\":4089:4096   */\n      dup5\n        /* \"#utility.yul\":4085:4108   */\n      sub\n        /* \"#utility.yul\":4081:4113   */\n      slt\n        /* \"#utility.yul\":4078:4197   */\n      iszero\n      tag_123\n      jumpi\n        /* \"#utility.yul\":4116:4195   */\n      tag_124\n      tag_31\n      jump\t// in\n    tag_124:\n        /* \"#utility.yul\":4078:4197   */\n    tag_123:\n        /* \"#utility.yul\":4236:4237   */\n      0x00\n        /* \"#utility.yul\":4261:4314   */\n      tag_125\n        /* \"#utility.yul\":4306:4313   */\n      dup5\n        /* \"#utility.yul\":4297:4303   */\n      dup3\n        /* \"#utility.yul\":4286:4295   */\n      dup6\n        /* \"#utility.yul\":4282:4304   */\n      add\n        /* \"#utility.yul\":4261:4314   */\n      tag_48\n      jump\t// in\n    tag_125:\n        /* \"#utility.yul\":4251:4314   */\n      swap2\n      pop\n        /* \"#utility.yul\":4207:4324   */\n      pop\n        /* \"#utility.yul\":4002:4331   */\n      swap3\n      swap2\n      pop\n      pop\n      jump\t// out\n        /* \"#utility.yul\":4337:4436   */\n    tag_49:\n        /* \"#utility.yul\":4389:4395   */\n      0x00\n        /* \"#utility.yul\":4423:4428   */\n      dup2\n        /* \"#utility.yul\":4417:4429   */\n      mload\n        /* \"#utility.yul\":4407:4429   */\n      swap1\n      pop\n        /* \"#utility.yul\":4337:4436   */\n      swap2\n      swap1\n      pop\n      jump\t// out\n        /* \"#utility.yul\":4442:4611   */\n    tag_50:\n        /* \"#utility.yul\":4526:4537   */\n      0x00\n        /* \"#utility.yul\":4560:4566   */\n      dup3\n        /* \"#utility.yul\":4555:4558   */\n      dup3\n        /* \"#utility.yul\":4548:4567   */\n      mstore\n        /* \"#utility.yul\":4600:4604   */\n      0x20\n        /* \"#utility.yul\":4595:4598   */\n      dup3\n        /* \"#utility.yul\":4591:4605   */\n      add\n        /* \"#utility.yul\":4576:4605   */\n      swap1\n      pop\n        /* \"#utility.yul\":4442:4611   */\n      swap3\n      swap2\n      pop\n      pop\n      jump\t// out\n        /* \"#utility.yul\":4617:4863   */\n    tag_51:\n        /* \"#utility.yul\":4698:4699   */\n      0x00\n        /* \"#utility.yul\":4708:4821   */\n    tag_129:\n        /* \"#utility.yul\":4722:4728   */\n      dup4\n        /* \"#utility.yul\":4719:4720   */\n      dup2\n        /* \"#utility.yul\":4716:4729   */\n      lt\n        /* \"#utility.yul\":4708:4821   */\n      iszero\n      tag_131\n      jumpi\n        /* \"#utility.yul\":4807:4808   */\n      dup1\n        /* \"#utility.yul\":4802:4805   */\n      dup3\n        /* \"#utility.yul\":4798:4809   */\n      add\n        /* \"#utility.yul\":4792:4810   */\n      mload\n        /* \"#utility.yul\":4788:4789   */\n      dup2\n        /* \"#utility.yul\":4783:4786   */\n      dup5\n        /* \"#utility.yul\":4779:4790   */\n      add\n        /* \"#utility.yul\":4772:4811   */\n      mstore\n        /* \"#utility.yul\":4744:4746   */\n      0x20\n        /* \"#utility.yul\":4741:4742   */\n      dup2\n        /* \"#utility.yul\":4737:4747   */\n      add\n        /* \"#utility.yul\":4732:4747   */\n      swap1\n      pop\n        /* \"#utility.yul\":4708:4821   */\n      jump(tag_129)\n    tag_131:\n        /* \"#utility.yul\":4855:4856   */\n      0x00\n        /* \"#utility.yul\":4846:4852   */\n      dup5\n        /* \"#utility.yul\":4841:4844   */\n      dup5\n        /* \"#utility.yul\":4837:4853   */\n      add\n        /* \"#utility.yul\":4830:4857   */\n      mstore\n        /* \"#utility.yul\":4679:4863   */\n      pop\n        /* \"#utility.yul\":4617:4863   */\n      pop\n      pop\n      pop\n      jump\t// out\n        /* \"#utility.yul\":4869:5246   */\n    tag_52:\n        /* \"#utility.yul\":4957:4960   */\n      0x00\n        /* \"#utility.yul\":4985:5024   */\n      tag_133\n        /* \"#utility.yul\":5018:5023   */\n      dup3\n        /* \"#utility.yul\":4985:5024   */\n      tag_49\n      jump\t// in\n    tag_133:\n        /* \"#utility.yul\":5040:5111   */\n      tag_134\n        /* \"#utility.yul\":5104:5110   */\n      dup2\n        /* \"#utility.yul\":5099:5102   */\n      dup6\n        /* \"#utility.yul\":5040:5111   */\n      tag_50\n      jump\t// in\n    tag_134:\n        /* \"#utility.yul\":5033:5111   */\n      swap4\n      pop\n        /* \"#utility.yul\":5120:5185   */\n      tag_135\n        /* \"#utility.yul\":5178:5184   */\n      dup2\n        /* \"#utility.yul\":5173:5176   */\n      dup6\n        /* \"#utility.yul\":5166:5170   */\n      0x20\n        /* \"#utility.yul\":5159:5164   */\n      dup7\n        /* \"#utility.yul\":5155:5171   */\n      add\n        /* \"#utility.yul\":5120:5185   */\n      tag_51\n      jump\t// in\n    tag_135:\n        /* \"#utility.yul\":5210:5239   */\n      tag_136\n        /* \"#utility.yul\":5232:5238   */\n      dup2\n        /* \"#utility.yul\":5210:5239   */\n      tag_35\n      jump\t// in\n    tag_136:\n        /* \"#utility.yul\":5205:5208   */\n      dup5\n        /* \"#utility.yul\":5201:5240   */\n      add\n        /* \"#utility.yul\":5194:5240   */\n      swap2\n      pop\n        /* \"#utility.yul\":4961:5246   */\n      pop\n        /* \"#utility.yul\":4869:5246   */\n      swap3\n      swap2\n      pop\n      pop\n      jump\t// out\n        /* \"#utility.yul\":5252:5329   */\n    tag_53:\n        /* \"#utility.yul\":5289:5296   */\n      0x00\n        /* \"#utility.yul\":5318:5323   */\n      dup2\n        /* \"#utility.yul\":5307:5323   */\n      swap1\n      pop\n        /* \"#utility.yul\":5252:5329   */\n      swap2\n      swap1\n      pop\n      jump\t// out\n        /* \"#utility.yul\":5335:5453   */\n    tag_54:\n        /* \"#utility.yul\":5422:5446   */\n      tag_139\n        /* \"#utility.yul\":5440:5445   */\n      dup2\n        /* \"#utility.yul\":5422:5446   */\n      tag_53\n      jump\t// in\n    tag_139:\n        /* \"#utility.yul\":5417:5420   */\n      dup3\n        /* \"#utility.yul\":5410:5447   */\n      mstore\n        /* \"#utility.yul\":5335:5453   */\n      pop\n      pop\n      jump\t// out\n        /* \"#utility.yul\":5459:5980   */\n    tag_16:\n        /* \"#utility.yul\":5622:5626   */\n      0x00\n        /* \"#utility.yul\":5660:5662   */\n      0x60\n        /* \"#utility.yul\":5649:5658   */\n      dup3\n        /* \"#utility.yul\":5645:5663   */\n      add\n        /* \"#utility.yul\":5637:5663   */\n      swap1\n      pop\n        /* \"#utility.yul\":5709:5718   */\n      dup2\n        /* \"#utility.yul\":5703:5707   */\n      dup2\n        /* \"#utility.yul\":5699:5719   */\n      sub\n        /* \"#utility.yul\":5695:5696   */\n      0x00\n        /* \"#utility.yul\":5684:5693   */\n      dup4\n        /* \"#utility.yul\":5680:5697   */\n      add\n        /* \"#utility.yul\":5673:5720   */\n      mstore\n        /* \"#utility.yul\":5737:5815   */\n      tag_141\n        /* \"#utility.yul\":5810:5814   */\n      dup2\n        /* \"#utility.yul\":5801:5807   */\n      dup7\n        /* \"#utility.yul\":5737:5815   */\n      tag_52\n      jump\t// in\n    tag_141:\n        /* \"#utility.yul\":5729:5815   */\n      swap1\n      pop\n        /* \"#utility.yul\":5825:5897   */\n      tag_142\n        /* \"#utility.yul\":5893:5895   */\n      0x20\n        /* \"#utility.yul\":5882:5891   */\n      dup4\n        /* \"#utility.yul\":5878:5896   */\n      add\n        /* \"#utility.yul\":5869:5875   */\n      dup6\n        /* \"#utility.yul\":5825:5897   */\n      tag_54\n      jump\t// in\n    tag_142:\n        /* \"#utility.yul\":5907:5973   */\n      tag_143\n        /* \"#utility.yul\":5969:5971   */\n      0x40\n        /* \"#utility.yul\":5958:5967   */\n      dup4\n        /* \"#utility.yul\":5954:5972   */\n      add\n        /* \"#utility.yul\":5945:5951   */\n      dup5\n        /* \"#utility.yul\":5907:5973   */\n      tag_44\n      jump\t// in\n    tag_143:\n        /* \"#utility.yul\":5459:5980   */\n      swap5\n      swap4\n      pop\n      pop\n      pop\n      pop\n      jump\t// out\n        /* \"#utility.yul\":5986:6152   */\n    tag_55:\n        /* \"#utility.yul\":6126:6144   */\n      0x3120436861726163746572206f6e6c7900000000000000000000000000000000\n        /* \"#utility.yul\":6122:6123   */\n      0x00\n        /* \"#utility.yul\":6114:6120   */\n      dup3\n        /* \"#utility.yul\":6110:6124   */\n      add\n        /* \"#utility.yul\":6103:6145   */\n      mstore\n        /* \"#utility.yul\":5986:6152   */\n      pop\n      jump\t// out\n        /* \"#utility.yul\":6158:6524   */\n    tag_56:\n        /* \"#utility.yul\":6300:6303   */\n      0x00\n        /* \"#utility.yul\":6321:6388   */\n      tag_146\n        /* \"#utility.yul\":6385:6387   */\n      0x10\n        /* \"#utility.yul\":6380:6383   */\n      dup4\n        /* \"#utility.yul\":6321:6388   */\n      tag_50\n      jump\t// in\n    tag_146:\n        /* \"#utility.yul\":6314:6388   */\n      swap2\n      pop\n        /* \"#utility.yul\":6397:6490   */\n      tag_147\n        /* \"#utility.yul\":6486:6489   */\n      dup3\n        /* \"#utility.yul\":6397:6490   */\n      tag_55\n      jump\t// in\n    tag_147:\n        /* \"#utility.yul\":6515:6517   */\n      0x20\n        /* \"#utility.yul\":6510:6513   */\n      dup3\n        /* \"#utility.yul\":6506:6518   */\n      add\n        /* \"#utility.yul\":6499:6518   */\n      swap1\n      pop\n        /* \"#utility.yul\":6158:6524   */\n      swap2\n      swap1\n      pop\n      jump\t// out\n        /* \"#utility.yul\":6530:6949   */\n    tag_21:\n        /* \"#utility.yul\":6696:6700   */\n      0x00\n        /* \"#utility.yul\":6734:6736   */\n      0x20\n        /* \"#utility.yul\":6723:6732   */\n      dup3\n        /* \"#utility.yul\":6719:6737   */\n      add\n        /* \"#utility.yul\":6711:6737   */\n      swap1\n      pop\n        /* \"#utility.yul\":6783:6792   */\n      dup2\n        /* \"#utility.yul\":6777:6781   */\n      dup2\n        /* \"#utility.yul\":6773:6793   */\n      sub\n        /* \"#utility.yul\":6769:6770   */\n      0x00\n        /* \"#utility.yul\":6758:6767   */\n      dup4\n        /* \"#utility.yul\":6754:6771   */\n      add\n        /* \"#utility.yul\":6747:6794   */\n      mstore\n        /* \"#utility.yul\":6811:6942   */\n      tag_149\n        /* \"#utility.yul\":6937:6941   */\n      dup2\n        /* \"#utility.yul\":6811:6942   */\n      tag_56\n      jump\t// in\n    tag_149:\n        /* \"#utility.yul\":6803:6942   */\n      swap1\n      pop\n        /* \"#utility.yul\":6530:6949   */\n      swap2\n      swap1\n      pop\n      jump\t// out\n        /* \"#utility.yul\":6955:7135   */\n    tag_57:\n        /* \"#utility.yul\":7003:7080   */\n      0x4e487b7100000000000000000000000000000000000000000000000000000000\n        /* \"#utility.yul\":7000:7001   */\n      0x00\n        /* \"#utility.yul\":6993:7081   */\n      mstore\n        /* \"#utility.yul\":7100:7104   */\n      0x22\n        /* \"#utility.yul\":7097:7098   */\n      0x04\n        /* \"#utility.yul\":7090:7105   */\n      mstore\n        /* \"#utility.yul\":7124:7128   */\n      0x24\n        /* \"#utility.yul\":7121:7122   */\n      0x00\n        /* \"#utility.yul\":7114:7129   */\n      revert\n        /* \"#utility.yul\":7141:7461   */\n    tag_25:\n        /* \"#utility.yul\":7185:7191   */\n      0x00\n        /* \"#utility.yul\":7222:7223   */\n      0x02\n        /* \"#utility.yul\":7216:7220   */\n      dup3\n        /* \"#utility.yul\":7212:7224   */\n      div\n        /* \"#utility.yul\":7202:7224   */\n      swap1\n      pop\n        /* \"#utility.yul\":7269:7270   */\n      0x01\n        /* \"#utility.yul\":7263:7267   */\n      dup3\n        /* \"#utility.yul\":7259:7271   */\n      and\n        /* \"#utility.yul\":7290:7308   */\n      dup1\n        /* \"#utility.yul\":7280:7361   */\n      tag_152\n      jumpi\n        /* \"#utility.yul\":7346:7350   */\n      0x7f\n        /* \"#utility.yul\":7338:7344   */\n      dup3\n        /* \"#utility.yul\":7334:7351   */\n      and\n        /* \"#utility.yul\":7324:7351   */\n      swap2\n      pop\n        /* \"#utility.yul\":7280:7361   */\n    tag_152:\n        /* \"#utility.yul\":7408:7410   */\n      0x20\n        /* \"#utility.yul\":7400:7406   */\n      dup3\n        /* \"#utility.yul\":7397:7411   */\n      lt\n        /* \"#utility.yul\":7377:7395   */\n      dup2\n        /* \"#utility.yul\":7374:7412   */\n      sub\n        /* \"#utility.yul\":7371:7455   */\n      tag_153\n      jumpi\n        /* \"#utility.yul\":7427:7445   */\n      tag_154\n      tag_57\n      jump\t// in\n    tag_154:\n        /* \"#utility.yul\":7371:7455   */\n    tag_153:\n        /* \"#utility.yul\":7192:7461   */\n      pop\n        /* \"#utility.yul\":7141:7461   */\n      swap2\n      swap1\n      pop\n      jump\t// out\n        /* \"#utility.yul\":7467:7608   */\n    tag_58:\n        /* \"#utility.yul\":7516:7520   */\n      0x00\n        /* \"#utility.yul\":7539:7542   */\n      dup2\n        /* \"#utility.yul\":7531:7542   */\n      swap1\n      pop\n        /* \"#utility.yul\":7562:7565   */\n      dup2\n        /* \"#utility.yul\":7559:7560   */\n      0x00\n        /* \"#utility.yul\":7552:7566   */\n      mstore\n        /* \"#utility.yul\":7596:7600   */\n      0x20\n        /* \"#utility.yul\":7593:7594   */\n      0x00\n        /* \"#utility.yul\":7583:7601   */\n      keccak256\n        /* \"#utility.yul\":7575:7601   */\n      swap1\n      pop\n        /* \"#utility.yul\":7467:7608   */\n      swap2\n      swap1\n      pop\n      jump\t// out\n        /* \"#utility.yul\":7614:7707   */\n    tag_59:\n        /* \"#utility.yul\":7651:7657   */\n      0x00\n        /* \"#utility.yul\":7698:7700   */\n      0x20\n        /* \"#utility.yul\":7693:7695   */\n      0x1f\n        /* \"#utility.yul\":7686:7691   */\n      dup4\n        /* \"#utility.yul\":7682:7696   */\n      add\n        /* \"#utility.yul\":7678:7701   */\n      div\n        /* \"#utility.yul\":7668:7701   */\n      swap1\n      pop\n        /* \"#utility.yul\":7614:7707   */\n      swap2\n      swap1\n      pop\n      jump\t// out\n        /* \"#utility.yul\":7713:7820   */\n    tag_60:\n        /* \"#utility.yul\":7757:7765   */\n      0x00\n        /* \"#utility.yul\":7807:7812   */\n      dup3\n        /* \"#utility.yul\":7801:7805   */\n      dup3\n        /* \"#utility.yul\":7797:7813   */\n      shl\n        /* \"#utility.yul\":7776:7813   */\n      swap1\n      pop\n        /* \"#utility.yul\":7713:7820   */\n      swap3\n      swap2\n      pop\n      pop\n      jump\t// out\n        /* \"#utility.yul\":7826:8219   */\n    tag_61:\n        /* \"#utility.yul\":7895:7901   */\n      0x00\n        /* \"#utility.yul\":7945:7946   */\n      0x08\n        /* \"#utility.yul\":7933:7943   */\n      dup4\n        /* \"#utility.yul\":7929:7947   */\n      mul\n        /* \"#utility.yul\":7968:8065   */\n      tag_159\n        /* \"#utility.yul\":7998:8064   */\n      0xffffffffffffffffffffffffffffffffffffffffffffffffffffffffffffffff\n        /* \"#utility.yul\":7987:7996   */\n      dup3\n        /* \"#utility.yul\":7968:8065   */\n      tag_60\n      jump\t// in\n    tag_159:\n        /* \"#utility.yul\":8086:8125   */\n      tag_160\n        /* \"#utility.yul\":8116:8124   */\n      dup7\n        /* \"#utility.yul\":8105:8114   */\n      dup4\n        /* \"#utility.yul\":8086:8125   */\n      tag_60\n      jump\t// in\n    tag_160:\n        /* \"#utility.yul\":8074:8125   */\n      swap6\n      pop\n        /* \"#utility.yul\":8158:8162   */\n      dup1\n        /* \"#utility.yul\":8154:8163   */\n      not\n        /* \"#utility.yul\":8147:8152   */\n      dup5\n        /* \"#utility.yul\":8143:8164   */\n      and\n        /* \"#utility.yul\":8134:8164   */\n      swap4\n      pop\n        /* \"#utility.yul\":8207:8211   */\n      dup1\n        /* \"#utility.yul\":8197:8205   */\n      dup7\n        /* \"#utility.yul\":8193:8212   */\n      and\n        /* \"#utility.yul\":8186:8191   */\n      dup5\n        /* \"#utility.yul\":8183:8213   */\n      or\n        /* \"#utility.yul\":8173:8213   */\n      swap3\n      pop\n        /* \"#utility.yul\":7902:8219   */\n      pop\n      pop\n        /* \"#utility.yul\":7826:8219   */\n      swap4\n      swap3\n      pop\n      pop\n      pop\n      jump\t// out\n        /* \"#utility.yul\":8225:8285   */\n    tag_62:\n        /* \"#utility.yul\":8253:8256   */\n      0x00\n        /* \"#utility.yul\":8274:8279   */\n      dup2\n        /* \"#utility.yul\":8267:8279   */\n      swap1\n      pop\n        /* \"#utility.yul\":8225:8285   */\n      swap2\n      swap1\n      pop\n      jump\t// out\n        /* \"#utility.yul\":8291:8433   */\n    tag_63:\n        /* \"#utility.yul\":8341:8350   */\n      0x00\n        /* \"#utility.yul\":8374:8427   */\n      tag_163\n        /* \"#utility.yul\":8392:8426   */\n      tag_164\n        /* \"#utility.yul\":8401:8425   */\n      tag_165\n        /* \"#utility.yul\":8419:8424   */\n      dup5\n        /* \"#utility.yul\":8401:8425   */\n      tag_53\n      jump\t// in\n    tag_165:\n        /* \"#utility.yul\":8392:8426   */\n      tag_62\n      jump\t// in\n    tag_164:\n        /* \"#utility.yul\":8374:8427   */\n      tag_53\n      jump\t// in\n    tag_163:\n        /* \"#utility.yul\":8361:8427   */\n      swap1\n      pop\n        /* \"#utility.yul\":8291:8433   */\n      swap2\n      swap1\n      pop\n      jump\t// out\n        /* \"#utility.yul\":8439:8514   */\n    tag_64:\n        /* \"#utility.yul\":8482:8485   */\n      0x00\n        /* \"#utility.yul\":8503:8508   */\n      dup2\n        /* \"#utility.yul\":8496:8508   */\n      swap1\n      pop\n        /* \"#utility.yul\":8439:8514   */\n      swap2\n      swap1\n      pop\n      jump\t// out\n        /* \"#utility.yul\":8520:8789   */\n    tag_65:\n        /* \"#utility.yul\":8630:8669   */\n      tag_168\n        /* \"#utility.yul\":8661:8668   */\n      dup4\n        /* \"#utility.yul\":8630:8669   */\n      tag_63\n      jump\t// in\n    tag_168:\n        /* \"#utility.yul\":8691:8782   */\n      tag_169\n        /* \"#utility.yul\":8740:8781   */\n      tag_170\n        /* \"#utility.yul\":8764:8780   */\n      dup3\n        /* \"#utility.yul\":8740:8781   */\n      tag_64\n      jump\t// in\n    tag_170:\n        /* \"#utility.yul\":8732:8738   */\n      dup5\n        /* \"#utility.yul\":8725:8729   */\n      dup5\n        /* \"#utility.yul\":8719:8730   */\n      sload\n        /* \"#utility.yul\":8691:8782   */\n      tag_61\n      jump\t// in\n    tag_169:\n        /* \"#utility.yul\":8685:8689   */\n      dup3\n        /* \"#utility.yul\":8678:8783   */\n      sstore\n        /* \"#utility.yul\":8596:8789   */\n      pop\n        /* \"#utility.yul\":8520:8789   */\n      pop\n      pop\n      pop\n      jump\t// out\n        /* \"#utility.yul\":8795:8868   */\n    tag_66:\n        /* \"#utility.yul\":8840:8843   */\n      0x00\n        /* \"#utility.yul\":8795:8868   */\n      swap1\n      jump\t// out\n        /* \"#utility.yul\":8874:9063   */\n    tag_67:\n        /* \"#utility.yul\":8951:8983   */\n      tag_173\n      tag_66\n      jump\t// in\n    tag_173:\n        /* \"#utility.yul\":8992:9057   */\n      tag_174\n        /* \"#utility.yul\":9050:9056   */\n      dup2\n        /* \"#utility.yul\":9042:9048   */\n      dup5\n        /* \"#utility.yul\":9036:9040   */\n      dup5\n        /* \"#utility.yul\":8992:9057   */\n      tag_65\n      jump\t// in\n    tag_174:\n        /* \"#utility.yul\":8927:9063   */\n      pop\n        /* \"#utility.yul\":8874:9063   */\n      pop\n      pop\n      jump\t// out\n        /* \"#utility.yul\":9069:9255   */\n    tag_68:\n        /* \"#utility.yul\":9129:9249   */\n    tag_176:\n        /* \"#utility.yul\":9146:9149   */\n      dup2\n        /* \"#utility.yul\":9139:9144   */\n      dup2\n        /* \"#utility.yul\":9136:9150   */\n      lt\n        /* \"#utility.yul\":9129:9249   */\n      iszero\n      tag_178\n      jumpi\n        /* \"#utility.yul\":9200:9239   */\n      tag_179\n        /* \"#utility.yul\":9237:9238   */\n      0x00\n        /* \"#utility.yul\":9230:9235   */\n      dup3\n        /* \"#utility.yul\":9200:9239   */\n      tag_67\n      jump\t// in\n    tag_179:\n        /* \"#utility.yul\":9173:9174   */\n      0x01\n        /* \"#utility.yul\":9166:9171   */\n      dup2\n        /* \"#utility.yul\":9162:9175   */\n      add\n        /* \"#utility.yul\":9153:9175   */\n      swap1\n      pop\n        /* \"#utility.yul\":9129:9249   */\n      jump(tag_176)\n    tag_178:\n        /* \"#utility.yul\":9069:9255   */\n      pop\n      pop\n      jump\t// out\n        /* \"#utility.yul\":9261:9804   */\n    tag_69:\n        /* \"#utility.yul\":9362:9364   */\n      0x1f\n        /* \"#utility.yul\":9357:9360   */\n      dup3\n        /* \"#utility.yul\":9354:9365   */\n      gt\n        /* \"#utility.yul\":9351:9797   */\n      iszero\n      tag_181\n      jumpi\n        /* \"#utility.yul\":9396:9434   */\n      tag_182\n        /* \"#utility.yul\":9428:9433   */\n      dup2\n        /* \"#utility.yul\":9396:9434   */\n      tag_58\n      jump\t// in\n    tag_182:\n        /* \"#utility.yul\":9480:9509   */\n      tag_183\n        /* \"#utility.yul\":9498:9508   */\n      dup5\n        /* \"#utility.yul\":9480:9509   */\n      tag_59\n      jump\t// in\n    tag_183:\n        /* \"#utility.yul\":9470:9478   */\n      dup2\n        /* \"#utility.yul\":9466:9510   */\n      add\n        /* \"#utility.yul\":9663:9665   */\n      0x20\n        /* \"#utility.yul\":9651:9661   */\n      dup6\n        /* \"#utility.yul\":9648:9666   */\n      lt\n        /* \"#utility.yul\":9645:9694   */\n      iszero\n      tag_184\n      jumpi\n        /* \"#utility.yul\":9684:9692   */\n      dup2\n        /* \"#utility.yul\":9669:9692   */\n      swap1\n      pop\n        /* \"#utility.yul\":9645:9694   */\n    tag_184:\n        /* \"#utility.yul\":9707:9787   */\n      tag_185\n        /* \"#utility.yul\":9763:9785   */\n      tag_186\n        /* \"#utility.yul\":9781:9784   */\n      dup6\n        /* \"#utility.yul\":9763:9785   */\n      tag_59\n      jump\t// in\n    tag_186:\n        /* \"#utility.yul\":9753:9761   */\n      dup4\n        /* \"#utility.yul\":9749:9786   */\n      add\n        /* \"#utility.yul\":9736:9747   */\n      dup3\n        /* \"#utility.yul\":9707:9787   */\n      tag_68\n      jump\t// in\n    tag_185:\n        /* \"#utility.yul\":9366:9797   */\n      pop\n      pop\n        /* \"#utility.yul\":9351:9797   */\n    tag_181:\n        /* \"#utility.yul\":9261:9804   */\n      pop\n      pop\n      pop\n      jump\t// out\n        /* \"#utility.yul\":9810:9927   */\n    tag_70:\n        /* \"#utility.yul\":9864:9872   */\n      0x00\n        /* \"#utility.yul\":9914:9919   */\n      dup3\n        /* \"#utility.yul\":9908:9912   */\n      dup3\n        /* \"#utility.yul\":9904:9920   */\n      shr\n        /* \"#utility.yul\":9883:9920   */\n      swap1\n      pop\n        /* \"#utility.yul\":9810:9927   */\n      swap3\n      swap2\n      pop\n      pop\n      jump\t// out\n        /* \"#utility.yul\":9933:10102   */\n    tag_71:\n        /* \"#utility.yul\":9977:9983   */\n      0x00\n        /* \"#utility.yul\":10010:10061   */\n      tag_189\n        /* \"#utility.yul\":10058:10059   */\n      0x00\n        /* \"#utility.yul\":10054:10060   */\n      not\n        /* \"#utility.yul\":10046:10051   */\n      dup5\n        /* \"#utility.yul\":10043:10044   */\n      0x08\n        /* \"#utility.yul\":10039:10052   */\n      mul\n        /* \"#utility.yul\":10010:10061   */\n      tag_70\n      jump\t// in\n    tag_189:\n        /* \"#utility.yul\":10006:10062   */\n      not\n        /* \"#utility.yul\":10091:10095   */\n      dup1\n        /* \"#utility.yul\":10085:10089   */\n      dup4\n        /* \"#utility.yul\":10081:10096   */\n      and\n        /* \"#utility.yul\":10071:10096   */\n      swap2\n      pop\n        /* \"#utility.yul\":9984:10102   */\n      pop\n        /* \"#utility.yul\":9933:10102   */\n      swap3\n      swap2\n      pop\n      pop\n      jump\t// out\n        /* \"#utility.yul\":10107:10402   */\n    tag_72:\n        /* \"#utility.yul\":10183:10187   */\n      0x00\n        /* \"#utility.yul\":10329:10358   */\n      tag_191\n        /* \"#utility.yul\":10354:10357   */\n      dup4\n        /* \"#utility.yul\":10348:10352   */\n      dup4\n        /* \"#utility.yul\":10329:10358   */\n      tag_71\n      jump\t// in\n    tag_191:\n        /* \"#utility.yul\":10321:10358   */\n      swap2\n      pop\n        /* \"#utility.yul\":10391:10394   */\n      dup3\n        /* \"#utility.yul\":10388:10389   */\n      0x02\n        /* \"#utility.yul\":10384:10395   */\n      mul\n        /* \"#utility.yul\":10378:10382   */\n      dup3\n        /* \"#utility.yul\":10375:10396   */\n      or\n        /* \"#utility.yul\":10367:10396   */\n      swap1\n      pop\n        /* \"#utility.yul\":10107:10402   */\n      swap3\n      swap2\n      pop\n      pop\n      jump\t// out\n        /* \"#utility.yul\":10407:11802   */\n    tag_23:\n        /* \"#utility.yul\":10524:10561   */\n      tag_193\n        /* \"#utility.yul\":10557:10560   */\n      dup3\n        /* \"#utility.yul\":10524:10561   */\n      tag_49\n      jump\t// in\n    tag_193:\n        /* \"#utility.yul\":10626:10644   */\n      0xffffffffffffffff\n        /* \"#utility.yul\":10618:10624   */\n      dup2\n        /* \"#utility.yul\":10615:10645   */\n      gt\n        /* \"#utility.yul\":10612:10668   */\n      iszero\n      tag_194\n      jumpi\n        /* \"#utility.yul\":10648:10666   */\n      tag_195\n      tag_36\n      jump\t// in\n    tag_195:\n        /* \"#utility.yul\":10612:10668   */\n    tag_194:\n        /* \"#utility.yul\":10692:10730   */\n      tag_196\n        /* \"#utility.yul\":10724:10728   */\n      dup3\n        /* \"#utility.yul\":10718:10729   */\n      sload\n        /* \"#utility.yul\":10692:10730   */\n      tag_25\n      jump\t// in\n    tag_196:\n        /* \"#utility.yul\":10777:10844   */\n      tag_197\n        /* \"#utility.yul\":10837:10843   */\n      dup3\n        /* \"#utility.yul\":10829:10835   */\n      dup3\n        /* \"#utility.yul\":10823:10827   */\n      dup6\n        /* \"#utility.yul\":10777:10844   */\n      tag_69\n      jump\t// in\n    tag_197:\n        /* \"#utility.yul\":10871:10872   */\n      0x00\n        /* \"#utility.yul\":10895:10899   */\n      0x20\n        /* \"#utility.yul\":10882:10899   */\n      swap1\n      pop\n        /* \"#utility.yul\":10927:10929   */\n      0x1f\n        /* \"#utility.yul\":10919:10925   */\n      dup4\n        /* \"#utility.yul\":10916:10930   */\n      gt\n        /* \"#utility.yul\":10944:10945   */\n      0x01\n        /* \"#utility.yul\":10939:11557   */\n      dup2\n      eq\n      tag_199\n      jumpi\n        /* \"#utility.yul\":11601:11602   */\n      0x00\n        /* \"#utility.yul\":11618:11624   */\n      dup5\n        /* \"#utility.yul\":11615:11692   */\n      iszero\n      tag_200\n      jumpi\n        /* \"#utility.yul\":11667:11676   */\n      dup3\n        /* \"#utility.yul\":11662:11665   */\n      dup8\n        /* \"#utility.yul\":11658:11677   */\n      add\n        /* \"#utility.yul\":11652:11678   */\n      mload\n        /* \"#utility.yul\":11643:11678   */\n      swap1\n      pop\n        /* \"#utility.yul\":11615:11692   */\n    tag_200:\n        /* \"#utility.yul\":11718:11785   */\n      tag_201\n        /* \"#utility.yul\":11778:11784   */\n      dup6\n        /* \"#utility.yul\":11771:11776   */\n      dup3\n        /* \"#utility.yul\":11718:11785   */\n      tag_72\n      jump\t// in\n    tag_201:\n        /* \"#utility.yul\":11712:11716   */\n      dup7\n        /* \"#utility.yul\":11705:11786   */\n      sstore\n        /* \"#utility.yul\":11574:11796   */\n      pop\n        /* \"#utility.yul\":10909:11796   */\n      jump(tag_198)\n        /* \"#utility.yul\":10939:11557   */\n    tag_199:\n        /* \"#utility.yul\":10991:10995   */\n      0x1f\n        /* \"#utility.yul\":10987:10996   */\n      not\n        /* \"#utility.yul\":10979:10985   */\n      dup5\n        /* \"#utility.yul\":10975:10997   */\n      and\n        /* \"#utility.yul\":11025:11062   */\n      tag_202\n        /* \"#utility.yul\":11057:11061   */\n      dup7\n        /* \"#utility.yul\":11025:11062   */\n      tag_58\n      jump\t// in\n    tag_202:\n        /* \"#utility.yul\":11084:11085   */\n      0x00\n        /* \"#utility.yul\":11098:11306   */\n    tag_203:\n        /* \"#utility.yul\":11112:11119   */\n      dup3\n        /* \"#utility.yul\":11109:11110   */\n      dup2\n        /* \"#utility.yul\":11106:11120   */\n      lt\n        /* \"#utility.yul\":11098:11306   */\n      iszero\n      tag_205\n      jumpi\n        /* \"#utility.yul\":11191:11200   */\n      dup5\n        /* \"#utility.yul\":11186:11189   */\n      dup10\n        /* \"#utility.yul\":11182:11201   */\n      add\n        /* \"#utility.yul\":11176:11202   */\n      mload\n        /* \"#utility.yul\":11168:11174   */\n      dup3\n        /* \"#utility.yul\":11161:11203   */\n      sstore\n        /* \"#utility.yul\":11242:11243   */\n      0x01\n        /* \"#utility.yul\":11234:11240   */\n      dup3\n        /* \"#utility.yul\":11230:11244   */\n      add\n        /* \"#utility.yul\":11220:11244   */\n      swap2\n      pop\n        /* \"#utility.yul\":11289:11291   */\n      0x20\n        /* \"#utility.yul\":11278:11287   */\n      dup6\n        /* \"#utility.yul\":11274:11292   */\n      add\n        /* \"#utility.yul\":11261:11292   */\n      swap5\n      pop\n        /* \"#utility.yul\":11135:11139   */\n      0x20\n        /* \"#utility.yul\":11132:11133   */\n      dup2\n        /* \"#utility.yul\":11128:11140   */\n      add\n        /* \"#utility.yul\":11123:11140   */\n      swap1\n      pop\n        /* \"#utility.yul\":11098:11306   */\n      jump(tag_203)\n    tag_205:\n        /* \"#utility.yul\":11334:11340   */\n      dup7\n        /* \"#utility.yul\":11325:11332   */\n      dup4\n        /* \"#utility.yul\":11322:11341   */\n      lt\n        /* \"#utility.yul\":11319:11498   */\n      iszero\n      tag_206\n      jumpi\n        /* \"#utility.yul\":11392:11401   */\n      dup5\n        /* \"#utility.yul\":11387:11390   */\n      dup10\n        /* \"#utility.yul\":11383:11402   */\n      add\n        /* \"#utility.yul\":11377:11403   */\n      mload\n        /* \"#utility.yul\":11435:11483   */\n      tag_207\n        /* \"#utility.yul\":11477:11481   */\n      0x1f\n        /* \"#utility.yul\":11469:11475   */\n      dup10\n        /* \"#utility.yul\":11465:11482   */\n      and\n        /* \"#utility.yul\":11454:11463   */\n      dup3\n        /* \"#utility.yul\":11435:11483   */\n      tag_71\n      jump\t// in\n    tag_207:\n        /* \"#utility.yul\":11427:11433   */\n      dup4\n        /* \"#utility.yul\":11420:11484   */\n      sstore\n        /* \"#utility.yul\":11342:11498   */\n      pop\n        /* \"#utility.yul\":11319:11498   */\n    tag_206:\n        /* \"#utility.yul\":11544:11545   */\n      0x01\n        /* \"#utility.yul\":11540:11541   */\n      0x02\n        /* \"#utility.yul\":11532:11538   */\n      dup9\n        /* \"#utility.yul\":11528:11542   */\n      mul\n        /* \"#utility.yul\":11524:11546   */\n      add\n        /* \"#utility.yul\":11518:11522   */\n      dup9\n        /* \"#utility.yul\":11511:11547   */\n      sstore\n        /* \"#utility.yul\":10946:11557   */\n      pop\n      pop\n      pop\n        /* \"#utility.yul\":10909:11796   */\n    tag_198:\n      pop\n        /* \"#utility.yul\":10499:11802   */\n      pop\n      pop\n      pop\n        /* \"#utility.yul\":10407:11802   */\n      pop\n      pop\n      jump\t// out\n\n    auxdata: 0xa2646970667358221220fe2e07a9e079b327ec9741e2d9813ee50d4aa116fde3e675022096e1b31fc72364736f6c63430008110033\n}\n",
				"bytecode": {
					"linkReferences": {},
					"object": "608060405234801561001057600080fd5b50610963806100206000396000f3fe6080604052600436106100295760003560e01c8063101df88e1461002e578063e2eb41ff1461005e575b600080fd5b61004860048036038101906100439190610403565b61009d565b6040516100559190610467565b60405180910390f35b34801561006a57600080fd5b50610085600480360381019061008091906104e0565b6101ea565b604051610094939291906105a5565b60405180910390f35b6000678ac7230489e8000034146100b357600080fd5b6000803373ffffffffffffffffffffffffffffffffffffffff1673ffffffffffffffffffffffffffffffffffffffff16815260200190815260200160002060020160009054906101000a900460ff1615610142576040517f08c379a00000000000000000000000000000000000000000000000000000000081526004016101399061062f565b60405180910390fd5b6040518060600160405280838152602001348152602001600115158152506000803373ffffffffffffffffffffffffffffffffffffffff1673ffffffffffffffffffffffffffffffffffffffff16815260200190815260200160002060008201518160000190816101b3919061085b565b506020820151816001015560408201518160020160006101000a81548160ff02191690831515021790555090505060019050919050565b600060205280600052604060002060009150905080600001805461020d9061067e565b80601f01602080910402602001604051908101604052809291908181526020018280546102399061067e565b80156102865780601f1061025b57610100808354040283529160200191610286565b820191906000526020600020905b81548152906001019060200180831161026957829003601f168201915b5050505050908060010154908060020160009054906101000a900460ff16905083565b6000604051905090565b600080fd5b600080fd5b600080fd5b600080fd5b6000601f19601f8301169050919050565b7f4e487b7100000000000000000000000000000000000000000000000000000000600052604160045260246000fd5b610310826102c7565b810181811067ffffffffffffffff8211171561032f5761032e6102d8565b5b80604052505050565b60006103426102a9565b905061034e8282610307565b919050565b600067ffffffffffffffff82111561036e5761036d6102d8565b5b610377826102c7565b9050602081019050919050565b82818337600083830152505050565b60006103a66103a184610353565b610338565b9050828152602081018484840111156103c2576103c16102c2565b5b6103cd848285610384565b509392505050565b600082601f8301126103ea576103e96102bd565b5b81356103fa848260208601610393565b91505092915050565b600060208284031215610419576104186102b3565b5b600082013567ffffffffffffffff811115610437576104366102b8565b5b610443848285016103d5565b91505092915050565b60008115159050919050565b6104618161044c565b82525050565b600060208201905061047c6000830184610458565b92915050565b600073ffffffffffffffffffffffffffffffffffffffff82169050919050565b60006104ad82610482565b9050919050565b6104bd816104a2565b81146104c857600080fd5b50565b6000813590506104da816104b4565b92915050565b6000602082840312156104f6576104f56102b3565b5b6000610504848285016104cb565b91505092915050565b600081519050919050565b600082825260208201905092915050565b60005b8381101561054757808201518184015260208101905061052c565b60008484015250505050565b600061055e8261050d565b6105688185610518565b9350610578818560208601610529565b610581816102c7565b840191505092915050565b6000819050919050565b61059f8161058c565b82525050565b600060608201905081810360008301526105bf8186610553565b90506105ce6020830185610596565b6105db6040830184610458565b949350505050565b7f3120436861726163746572206f6e6c7900000000000000000000000000000000600082015250565b6000610619601083610518565b9150610624826105e3565b602082019050919050565b600060208201905081810360008301526106488161060c565b9050919050565b7f4e487b7100000000000000000000000000000000000000000000000000000000600052602260045260246000fd5b6000600282049050600182168061069657607f821691505b6020821081036106a9576106a861064f565b5b50919050565b60008190508160005260206000209050919050565b60006020601f8301049050919050565b600082821b905092915050565b6000600883026107117fffffffffffffffffffffffffffffffffffffffffffffffffffffffffffffffff826106d4565b61071b86836106d4565b95508019841693508086168417925050509392505050565b6000819050919050565b600061075861075361074e8461058c565b610733565b61058c565b9050919050565b6000819050919050565b6107728361073d565b61078661077e8261075f565b8484546106e1565b825550505050565b600090565b61079b61078e565b6107a6818484610769565b505050565b5b818110156107ca576107bf600082610793565b6001810190506107ac565b5050565b601f82111561080f576107e0816106af565b6107e9846106c4565b810160208510156107f8578190505b61080c610804856106c4565b8301826107ab565b50505b505050565b600082821c905092915050565b600061083260001984600802610814565b1980831691505092915050565b600061084b8383610821565b9150826002028217905092915050565b6108648261050d565b67ffffffffffffffff81111561087d5761087c6102d8565b5b610887825461067e565b6108928282856107ce565b600060209050601f8311600181146108c557600084156108b3578287015190505b6108bd858261083f565b865550610925565b601f1984166108d3866106af565b60005b828110156108fb578489015182556001820191506020850194506020810190506108d6565b868310156109185784890151610914601f891682610821565b8355505b6001600288020188555050505b50505050505056fea2646970667358221220fe2e07a9e079b327ec9741e2d9813ee50d4aa116fde3e675022096e1b31fc72364736f6c63430008110033",
					"opcodes": "PUSH1 0x80 PUSH1 0x40 MSTORE CALLVALUE DUP1 ISZERO PUSH2 0x10 JUMPI PUSH1 0x0 DUP1 REVERT JUMPDEST POP PUSH2 0x963 DUP1 PUSH2 0x20 PUSH1 0x0 CODECOPY PUSH1 0x0 RETURN INVALID PUSH1 0x80 PUSH1 0x40 MSTORE PUSH1 0x4 CALLDATASIZE LT PUSH2 0x29 JUMPI PUSH1 0x0 CALLDATALOAD PUSH1 0xE0 SHR DUP1 PUSH4 0x101DF88E EQ PUSH2 0x2E JUMPI DUP1 PUSH4 0xE2EB41FF EQ PUSH2 0x5E JUMPI JUMPDEST PUSH1 0x0 DUP1 REVERT JUMPDEST PUSH2 0x48 PUSH1 0x4 DUP1 CALLDATASIZE SUB DUP2 ADD SWAP1 PUSH2 0x43 SWAP2 SWAP1 PUSH2 0x403 JUMP JUMPDEST PUSH2 0x9D JUMP JUMPDEST PUSH1 0x40 MLOAD PUSH2 0x55 SWAP2 SWAP1 PUSH2 0x467 JUMP JUMPDEST PUSH1 0x40 MLOAD DUP1 SWAP2 SUB SWAP1 RETURN JUMPDEST CALLVALUE DUP1 ISZERO PUSH2 0x6A JUMPI PUSH1 0x0 DUP1 REVERT JUMPDEST POP PUSH2 0x85 PUSH1 0x4 DUP1 CALLDATASIZE SUB DUP2 ADD SWAP1 PUSH2 0x80 SWAP2 SWAP1 PUSH2 0x4E0 JUMP JUMPDEST PUSH2 0x1EA JUMP JUMPDEST PUSH1 0x40 MLOAD PUSH2 0x94 SWAP4 SWAP3 SWAP2 SWAP1 PUSH2 0x5A5 JUMP JUMPDEST PUSH1 0x40 MLOAD DUP1 SWAP2 SUB SWAP1 RETURN JUMPDEST PUSH1 0x0 PUSH8 0x8AC7230489E80000 CALLVALUE EQ PUSH2 0xB3 JUMPI PUSH1 0x0 DUP1 REVERT JUMPDEST PUSH1 0x0 DUP1 CALLER PUSH20 0xFFFFFFFFFFFFFFFFFFFFFFFFFFFFFFFFFFFFFFFF AND PUSH20 0xFFFFFFFFFFFFFFFFFFFFFFFFFFFFFFFFFFFFFFFF AND DUP2 MSTORE PUSH1 0x20 ADD SWAP1 DUP2 MSTORE PUSH1 0x20 ADD PUSH1 0x0 KECCAK256 PUSH1 0x2 ADD PUSH1 0x0 SWAP1 SLOAD SWAP1 PUSH2 0x100 EXP SWAP1 DIV PUSH1 0xFF AND ISZERO PUSH2 0x142 JUMPI PUSH1 0x40 MLOAD PUSH32 0x8C379A000000000000000000000000000000000000000000000000000000000 DUP2 MSTORE PUSH1 0x4 ADD PUSH2 0x139 SWAP1 PUSH2 0x62F JUMP JUMPDEST PUSH1 0x40 MLOAD DUP1 SWAP2 SUB SWAP1 REVERT JUMPDEST PUSH1 0x40 MLOAD DUP1 PUSH1 0x60 ADD PUSH1 0x40 MSTORE DUP1 DUP4 DUP2 MSTORE PUSH1 0x20 ADD CALLVALUE DUP2 MSTORE PUSH1 0x20 ADD PUSH1 0x1 ISZERO ISZERO DUP2 MSTORE POP PUSH1 0x0 DUP1 CALLER PUSH20 0xFFFFFFFFFFFFFFFFFFFFFFFFFFFFFFFFFFFFFFFF AND PUSH20 0xFFFFFFFFFFFFFFFFFFFFFFFFFFFFFFFFFFFFFFFF AND DUP2 MSTORE PUSH1 0x20 ADD SWAP1 DUP2 MSTORE PUSH1 0x20 ADD PUSH1 0x0 KECCAK256 PUSH1 0x0 DUP3 ADD MLOAD DUP2 PUSH1 0x0 ADD SWAP1 DUP2 PUSH2 0x1B3 SWAP2 SWAP1 PUSH2 0x85B JUMP JUMPDEST POP PUSH1 0x20 DUP3 ADD MLOAD DUP2 PUSH1 0x1 ADD SSTORE PUSH1 0x40 DUP3 ADD MLOAD DUP2 PUSH1 0x2 ADD PUSH1 0x0 PUSH2 0x100 EXP DUP2 SLOAD DUP2 PUSH1 0xFF MUL NOT AND SWAP1 DUP4 ISZERO ISZERO MUL OR SWAP1 SSTORE POP SWAP1 POP POP PUSH1 0x1 SWAP1 POP SWAP2 SWAP1 POP JUMP JUMPDEST PUSH1 0x0 PUSH1 0x20 MSTORE DUP1 PUSH1 0x0 MSTORE PUSH1 0x40 PUSH1 0x0 KECCAK256 PUSH1 0x0 SWAP2 POP SWAP1 POP DUP1 PUSH1 0x0 ADD DUP1 SLOAD PUSH2 0x20D SWAP1 PUSH2 0x67E JUMP JUMPDEST DUP1 PUSH1 0x1F ADD PUSH1 0x20 DUP1 SWAP2 DIV MUL PUSH1 0x20 ADD PUSH1 0x40 MLOAD SWAP1 DUP2 ADD PUSH1 0x40 MSTORE DUP1 SWAP3 SWAP2 SWAP1 DUP2 DUP2 MSTORE PUSH1 0x20 ADD DUP3 DUP1 SLOAD PUSH2 0x239 SWAP1 PUSH2 0x67E JUMP JUMPDEST DUP1 ISZERO PUSH2 0x286 JUMPI DUP1 PUSH1 0x1F LT PUSH2 0x25B JUMPI PUSH2 0x100 DUP1 DUP4 SLOAD DIV MUL DUP4 MSTORE SWAP2 PUSH1 0x20 ADD SWAP2 PUSH2 0x286 JUMP JUMPDEST DUP3 ADD SWAP2 SWAP1 PUSH1 0x0 MSTORE PUSH1 0x20 PUSH1 0x0 KECCAK256 SWAP1 JUMPDEST DUP2 SLOAD DUP2 MSTORE SWAP1 PUSH1 0x1 ADD SWAP1 PUSH1 0x20 ADD DUP1 DUP4 GT PUSH2 0x269 JUMPI DUP3 SWAP1 SUB PUSH1 0x1F AND DUP3 ADD SWAP2 JUMPDEST POP POP POP POP POP SWAP1 DUP1 PUSH1 0x1 ADD SLOAD SWAP1 DUP1 PUSH1 0x2 ADD PUSH1 0x0 SWAP1 SLOAD SWAP1 PUSH2 0x100 EXP SWAP1 DIV PUSH1 0xFF AND SWAP1 POP DUP4 JUMP JUMPDEST PUSH1 0x0 PUSH1 0x40 MLOAD SWAP1 POP SWAP1 JUMP JUMPDEST PUSH1 0x0 DUP1 REVERT JUMPDEST PUSH1 0x0 DUP1 REVERT JUMPDEST PUSH1 0x0 DUP1 REVERT JUMPDEST PUSH1 0x0 DUP1 REVERT JUMPDEST PUSH1 0x0 PUSH1 0x1F NOT PUSH1 0x1F DUP4 ADD AND SWAP1 POP SWAP2 SWAP1 POP JUMP JUMPDEST PUSH32 0x4E487B7100000000000000000000000000000000000000000000000000000000 PUSH1 0x0 MSTORE PUSH1 0x41 PUSH1 0x4 MSTORE PUSH1 0x24 PUSH1 0x0 REVERT JUMPDEST PUSH2 0x310 DUP3 PUSH2 0x2C7 JUMP JUMPDEST DUP2 ADD DUP2 DUP2 LT PUSH8 0xFFFFFFFFFFFFFFFF DUP3 GT OR ISZERO PUSH2 0x32F JUMPI PUSH2 0x32E PUSH2 0x2D8 JUMP JUMPDEST JUMPDEST DUP1 PUSH1 0x40 MSTORE POP POP POP JUMP JUMPDEST PUSH1 0x0 PUSH2 0x342 PUSH2 0x2A9 JUMP JUMPDEST SWAP1 POP PUSH2 0x34E DUP3 DUP3 PUSH2 0x307 JUMP JUMPDEST SWAP2 SWAP1 POP JUMP JUMPDEST PUSH1 0x0 PUSH8 0xFFFFFFFFFFFFFFFF DUP3 GT ISZERO PUSH2 0x36E JUMPI PUSH2 0x36D PUSH2 0x2D8 JUMP JUMPDEST JUMPDEST PUSH2 0x377 DUP3 PUSH2 0x2C7 JUMP JUMPDEST SWAP1 POP PUSH1 0x20 DUP2 ADD SWAP1 POP SWAP2 SWAP1 POP JUMP JUMPDEST DUP3 DUP2 DUP4 CALLDATACOPY PUSH1 0x0 DUP4 DUP4 ADD MSTORE POP POP POP JUMP JUMPDEST PUSH1 0x0 PUSH2 0x3A6 PUSH2 0x3A1 DUP5 PUSH2 0x353 JUMP JUMPDEST PUSH2 0x338 JUMP JUMPDEST SWAP1 POP DUP3 DUP2 MSTORE PUSH1 0x20 DUP2 ADD DUP5 DUP5 DUP5 ADD GT ISZERO PUSH2 0x3C2 JUMPI PUSH2 0x3C1 PUSH2 0x2C2 JUMP JUMPDEST JUMPDEST PUSH2 0x3CD DUP5 DUP3 DUP6 PUSH2 0x384 JUMP JUMPDEST POP SWAP4 SWAP3 POP POP POP JUMP JUMPDEST PUSH1 0x0 DUP3 PUSH1 0x1F DUP4 ADD SLT PUSH2 0x3EA JUMPI PUSH2 0x3E9 PUSH2 0x2BD JUMP JUMPDEST JUMPDEST DUP2 CALLDATALOAD PUSH2 0x3FA DUP5 DUP3 PUSH1 0x20 DUP7 ADD PUSH2 0x393 JUMP JUMPDEST SWAP2 POP POP SWAP3 SWAP2 POP POP JUMP JUMPDEST PUSH1 0x0 PUSH1 0x20 DUP3 DUP5 SUB SLT ISZERO PUSH2 0x419 JUMPI PUSH2 0x418 PUSH2 0x2B3 JUMP JUMPDEST JUMPDEST PUSH1 0x0 DUP3 ADD CALLDATALOAD PUSH8 0xFFFFFFFFFFFFFFFF DUP2 GT ISZERO PUSH2 0x437 JUMPI PUSH2 0x436 PUSH2 0x2B8 JUMP JUMPDEST JUMPDEST PUSH2 0x443 DUP5 DUP3 DUP6 ADD PUSH2 0x3D5 JUMP JUMPDEST SWAP2 POP POP SWAP3 SWAP2 POP POP JUMP JUMPDEST PUSH1 0x0 DUP2 ISZERO ISZERO SWAP1 POP SWAP2 SWAP1 POP JUMP JUMPDEST PUSH2 0x461 DUP2 PUSH2 0x44C JUMP JUMPDEST DUP3 MSTORE POP POP JUMP JUMPDEST PUSH1 0x0 PUSH1 0x20 DUP3 ADD SWAP1 POP PUSH2 0x47C PUSH1 0x0 DUP4 ADD DUP5 PUSH2 0x458 JUMP JUMPDEST SWAP3 SWAP2 POP POP JUMP JUMPDEST PUSH1 0x0 PUSH20 0xFFFFFFFFFFFFFFFFFFFFFFFFFFFFFFFFFFFFFFFF DUP3 AND SWAP1 POP SWAP2 SWAP1 POP JUMP JUMPDEST PUSH1 0x0 PUSH2 0x4AD DUP3 PUSH2 0x482 JUMP JUMPDEST SWAP1 POP SWAP2 SWAP1 POP JUMP JUMPDEST PUSH2 0x4BD DUP2 PUSH2 0x4A2 JUMP JUMPDEST DUP2 EQ PUSH2 0x4C8 JUMPI PUSH1 0x0 DUP1 REVERT JUMPDEST POP JUMP JUMPDEST PUSH1 0x0 DUP2 CALLDATALOAD SWAP1 POP PUSH2 0x4DA DUP2 PUSH2 0x4B4 JUMP JUMPDEST SWAP3 SWAP2 POP POP JUMP JUMPDEST PUSH1 0x0 PUSH1 0x20 DUP3 DUP5 SUB SLT ISZERO PUSH2 0x4F6 JUMPI PUSH2 0x4F5 PUSH2 0x2B3 JUMP JUMPDEST JUMPDEST PUSH1 0x0 PUSH2 0x504 DUP5 DUP3 DUP6 ADD PUSH2 0x4CB JUMP JUMPDEST SWAP2 POP POP SWAP3 SWAP2 POP POP JUMP JUMPDEST PUSH1 0x0 DUP2 MLOAD SWAP1 POP SWAP2 SWAP1 POP JUMP JUMPDEST PUSH1 0x0 DUP3 DUP3 MSTORE PUSH1 0x20 DUP3 ADD SWAP1 POP SWAP3 SWAP2 POP POP JUMP JUMPDEST PUSH1 0x0 JUMPDEST DUP4 DUP2 LT ISZERO PUSH2 0x547 JUMPI DUP1 DUP3 ADD MLOAD DUP2 DUP5 ADD MSTORE PUSH1 0x20 DUP2 ADD SWAP1 POP PUSH2 0x52C JUMP JUMPDEST PUSH1 0x0 DUP5 DUP5 ADD MSTORE POP POP POP POP JUMP JUMPDEST PUSH1 0x0 PUSH2 0x55E DUP3 PUSH2 0x50D JUMP JUMPDEST PUSH2 0x568 DUP2 DUP6 PUSH2 0x518 JUMP JUMPDEST SWAP4 POP PUSH2 0x578 DUP2 DUP6 PUSH1 0x20 DUP7 ADD PUSH2 0x529 JUMP JUMPDEST PUSH2 0x581 DUP2 PUSH2 0x2C7 JUMP JUMPDEST DUP5 ADD SWAP2 POP POP SWAP3 SWAP2 POP POP JUMP JUMPDEST PUSH1 0x0 DUP2 SWAP1 POP SWAP2 SWAP1 POP JUMP JUMPDEST PUSH2 0x59F DUP2 PUSH2 0x58C JUMP JUMPDEST DUP3 MSTORE POP POP JUMP JUMPDEST PUSH1 0x0 PUSH1 0x60 DUP3 ADD SWAP1 POP DUP2 DUP2 SUB PUSH1 0x0 DUP4 ADD MSTORE PUSH2 0x5BF DUP2 DUP7 PUSH2 0x553 JUMP JUMPDEST SWAP1 POP PUSH2 0x5CE PUSH1 0x20 DUP4 ADD DUP6 PUSH2 0x596 JUMP JUMPDEST PUSH2 0x5DB PUSH1 0x40 DUP4 ADD DUP5 PUSH2 0x458 JUMP JUMPDEST SWAP5 SWAP4 POP POP POP POP JUMP JUMPDEST PUSH32 0x3120436861726163746572206F6E6C7900000000000000000000000000000000 PUSH1 0x0 DUP3 ADD MSTORE POP JUMP JUMPDEST PUSH1 0x0 PUSH2 0x619 PUSH1 0x10 DUP4 PUSH2 0x518 JUMP JUMPDEST SWAP2 POP PUSH2 0x624 DUP3 PUSH2 0x5E3 JUMP JUMPDEST PUSH1 0x20 DUP3 ADD SWAP1 POP SWAP2 SWAP1 POP JUMP JUMPDEST PUSH1 0x0 PUSH1 0x20 DUP3 ADD SWAP1 POP DUP2 DUP2 SUB PUSH1 0x0 DUP4 ADD MSTORE PUSH2 0x648 DUP2 PUSH2 0x60C JUMP JUMPDEST SWAP1 POP SWAP2 SWAP1 POP JUMP JUMPDEST PUSH32 0x4E487B7100000000000000000000000000000000000000000000000000000000 PUSH1 0x0 MSTORE PUSH1 0x22 PUSH1 0x4 MSTORE PUSH1 0x24 PUSH1 0x0 REVERT JUMPDEST PUSH1 0x0 PUSH1 0x2 DUP3 DIV SWAP1 POP PUSH1 0x1 DUP3 AND DUP1 PUSH2 0x696 JUMPI PUSH1 0x7F DUP3 AND SWAP2 POP JUMPDEST PUSH1 0x20 DUP3 LT DUP2 SUB PUSH2 0x6A9 JUMPI PUSH2 0x6A8 PUSH2 0x64F JUMP JUMPDEST JUMPDEST POP SWAP2 SWAP1 POP JUMP JUMPDEST PUSH1 0x0 DUP2 SWAP1 POP DUP2 PUSH1 0x0 MSTORE PUSH1 0x20 PUSH1 0x0 KECCAK256 SWAP1 POP SWAP2 SWAP1 POP JUMP JUMPDEST PUSH1 0x0 PUSH1 0x20 PUSH1 0x1F DUP4 ADD DIV SWAP1 POP SWAP2 SWAP1 POP JUMP JUMPDEST PUSH1 0x0 DUP3 DUP3 SHL SWAP1 POP SWAP3 SWAP2 POP POP JUMP JUMPDEST PUSH1 0x0 PUSH1 0x8 DUP4 MUL PUSH2 0x711 PUSH32 0xFFFFFFFFFFFFFFFFFFFFFFFFFFFFFFFFFFFFFFFFFFFFFFFFFFFFFFFFFFFFFFFF DUP3 PUSH2 0x6D4 JUMP JUMPDEST PUSH2 0x71B DUP7 DUP4 PUSH2 0x6D4 JUMP JUMPDEST SWAP6 POP DUP1 NOT DUP5 AND SWAP4 POP DUP1 DUP7 AND DUP5 OR SWAP3 POP POP POP SWAP4 SWAP3 POP POP POP JUMP JUMPDEST PUSH1 0x0 DUP2 SWAP1 POP SWAP2 SWAP1 POP JUMP JUMPDEST PUSH1 0x0 PUSH2 0x758 PUSH2 0x753 PUSH2 0x74E DUP5 PUSH2 0x58C JUMP JUMPDEST PUSH2 0x733 JUMP JUMPDEST PUSH2 0x58C JUMP JUMPDEST SWAP1 POP SWAP2 SWAP1 POP JUMP JUMPDEST PUSH1 0x0 DUP2 SWAP1 POP SWAP2 SWAP1 POP JUMP JUMPDEST PUSH2 0x772 DUP4 PUSH2 0x73D JUMP JUMPDEST PUSH2 0x786 PUSH2 0x77E DUP3 PUSH2 0x75F JUMP JUMPDEST DUP5 DUP5 SLOAD PUSH2 0x6E1 JUMP JUMPDEST DUP3 SSTORE POP POP POP POP JUMP JUMPDEST PUSH1 0x0 SWAP1 JUMP JUMPDEST PUSH2 0x79B PUSH2 0x78E JUMP JUMPDEST PUSH2 0x7A6 DUP2 DUP5 DUP5 PUSH2 0x769 JUMP JUMPDEST POP POP POP JUMP JUMPDEST JUMPDEST DUP2 DUP2 LT ISZERO PUSH2 0x7CA JUMPI PUSH2 0x7BF PUSH1 0x0 DUP3 PUSH2 0x793 JUMP JUMPDEST PUSH1 0x1 DUP2 ADD SWAP1 POP PUSH2 0x7AC JUMP JUMPDEST POP POP JUMP JUMPDEST PUSH1 0x1F DUP3 GT ISZERO PUSH2 0x80F JUMPI PUSH2 0x7E0 DUP2 PUSH2 0x6AF JUMP JUMPDEST PUSH2 0x7E9 DUP5 PUSH2 0x6C4 JUMP JUMPDEST DUP2 ADD PUSH1 0x20 DUP6 LT ISZERO PUSH2 0x7F8 JUMPI DUP2 SWAP1 POP JUMPDEST PUSH2 0x80C PUSH2 0x804 DUP6 PUSH2 0x6C4 JUMP JUMPDEST DUP4 ADD DUP3 PUSH2 0x7AB JUMP JUMPDEST POP POP JUMPDEST POP POP POP JUMP JUMPDEST PUSH1 0x0 DUP3 DUP3 SHR SWAP1 POP SWAP3 SWAP2 POP POP JUMP JUMPDEST PUSH1 0x0 PUSH2 0x832 PUSH1 0x0 NOT DUP5 PUSH1 0x8 MUL PUSH2 0x814 JUMP JUMPDEST NOT DUP1 DUP4 AND SWAP2 POP POP SWAP3 SWAP2 POP POP JUMP JUMPDEST PUSH1 0x0 PUSH2 0x84B DUP4 DUP4 PUSH2 0x821 JUMP JUMPDEST SWAP2 POP DUP3 PUSH1 0x2 MUL DUP3 OR SWAP1 POP SWAP3 SWAP2 POP POP JUMP JUMPDEST PUSH2 0x864 DUP3 PUSH2 0x50D JUMP JUMPDEST PUSH8 0xFFFFFFFFFFFFFFFF DUP2 GT ISZERO PUSH2 0x87D JUMPI PUSH2 0x87C PUSH2 0x2D8 JUMP JUMPDEST JUMPDEST PUSH2 0x887 DUP3 SLOAD PUSH2 0x67E JUMP JUMPDEST PUSH2 0x892 DUP3 DUP3 DUP6 PUSH2 0x7CE JUMP JUMPDEST PUSH1 0x0 PUSH1 0x20 SWAP1 POP PUSH1 0x1F DUP4 GT PUSH1 0x1 DUP2 EQ PUSH2 0x8C5 JUMPI PUSH1 0x0 DUP5 ISZERO PUSH2 0x8B3 JUMPI DUP3 DUP8 ADD MLOAD SWAP1 POP JUMPDEST PUSH2 0x8BD DUP6 DUP3 PUSH2 0x83F JUMP JUMPDEST DUP7 SSTORE POP PUSH2 0x925 JUMP JUMPDEST PUSH1 0x1F NOT DUP5 AND PUSH2 0x8D3 DUP7 PUSH2 0x6AF JUMP JUMPDEST PUSH1 0x0 JUMPDEST DUP3 DUP2 LT ISZERO PUSH2 0x8FB JUMPI DUP5 DUP10 ADD MLOAD DUP3 SSTORE PUSH1 0x1 DUP3 ADD SWAP2 POP PUSH1 0x20 DUP6 ADD SWAP5 POP PUSH1 0x20 DUP2 ADD SWAP1 POP PUSH2 0x8D6 JUMP JUMPDEST DUP7 DUP4 LT ISZERO PUSH2 0x918 JUMPI DUP5 DUP10 ADD MLOAD PUSH2 0x914 PUSH1 0x1F DUP10 AND DUP3 PUSH2 0x821 JUMP JUMPDEST DUP4 SSTORE POP JUMPDEST PUSH1 0x1 PUSH1 0x2 DUP9 MUL ADD DUP9 SSTORE POP POP POP JUMPDEST POP POP POP POP POP POP JUMP INVALID LOG2 PUSH5 0x6970667358 0x22 SLT KECCAK256 INVALID 0x2E SMOD 0xA9 0xE0 PUSH26 0xB327EC9741E2D9813EE50D4AA116FDE3E675022096E1B31FC723 PUSH5 0x736F6C6343 STOP ADDMOD GT STOP CALLER "
				},
				"gasEstimates": {
					"creation": {
						"codeDepositCost": "480600",
						"executionCost": "518",
						"totalCost": "481118"
					},
					"external": {
						"makeCharacter(string)": "infinite",
						"players(address)": "infinite"
					}
				},
				"methodIdentifiers": {
					"makeCharacter(string)": "101df88e",
					"players(address)": "e2eb41ff"
				}
			},
			"storageLayout": {
				"storage": [
					{
						"astId": 16,
						"contract": "contracts/myContract.sol:myContractB",
						"label": "players",
						"offset": 0,
						"slot": "0",
						"type": "t_mapping(t_address,t_struct(Player)11_storage)"
					}
				],
				"types": {
					"t_address": {
						"encoding": "inplace",
						"label": "address",
						"numberOfBytes": "20"
					},
					"t_bool": {
						"encoding": "inplace",
						"label": "bool",
						"numberOfBytes": "1"
					},
					"t_mapping(t_address,t_struct(Player)11_storage)": {
						"encoding": "mapping",
						"key": "t_address",
						"label": "mapping(address => struct myContractB.Player)",
						"numberOfBytes": "32",
						"value": "t_struct(Player)11_storage"
					},
					"t_string_storage": {
						"encoding": "bytes",
						"label": "string",
						"numberOfBytes": "32"
					},
					"t_struct(Player)11_storage": {
						"encoding": "inplace",
						"label": "struct myContractB.Player",
						"members": [
							{
								"astId": 6,
								"contract": "contracts/myContract.sol:myContractB",
								"label": "name",
								"offset": 0,
								"slot": "0",
								"type": "t_string_storage"
							},
							{
								"astId": 8,
								"contract": "contracts/myContract.sol:myContractB",
								"label": "amount",
								"offset": 0,
								"slot": "1",
								"type": "t_uint256"
							},
							{
								"astId": 10,
								"contract": "contracts/myContract.sol:myContractB",
								"label": "created",
								"offset": 0,
								"slot": "2",
								"type": "t_bool"
							}
						],
						"numberOfBytes": "96"
					},
					"t_uint256": {
						"encoding": "inplace",
						"label": "uint256",
						"numberOfBytes": "32"
					}
				}
			},
			"userdoc": {
				"kind": "user",
				"methods": {},
				"version": 1
			}
		}
	}
}