{
	"contracts/myContract.sol": {
		"myContractB": {
			"abi": [
				{
					"inputs": [],
					"name": "sendMe",
					"outputs": [
						{
							"internalType": "uint256",
							"name": "",
							"type": "uint256"
						}
					],
					"stateMutability": "payable",
					"type": "function"
				}
			],
			"devdoc": {
				"kind": "dev",
				"methods": {},
				"version": 1
			},
			"evm": {
				"assembly": "    /* \"contracts/myContract.sol\":552:741  contract myContractB {... */\n  mstore(0x40, 0x80)\n  callvalue\n  dup1\n  iszero\n  tag_1\n  jumpi\n  0x00\n  dup1\n  revert\ntag_1:\n  pop\n  dataSize(sub_0)\n  dup1\n  dataOffset(sub_0)\n  0x00\n  codecopy\n  0x00\n  return\nstop\n\nsub_0: assembly {\n        /* \"contracts/myContract.sol\":552:741  contract myContractB {... */\n      mstore(0x40, 0x80)\n      jumpi(tag_1, lt(calldatasize, 0x04))\n      shr(0xe0, calldataload(0x00))\n      dup1\n      0x2d80d05b\n      eq\n      tag_2\n      jumpi\n    tag_1:\n      0x00\n      dup1\n      revert\n        /* \"contracts/myContract.sol\":584:738  function sendMe() public payable returns (uint) {... */\n    tag_2:\n      tag_3\n      tag_4\n      jump\t// in\n    tag_3:\n      mload(0x40)\n      tag_5\n      swap2\n      swap1\n      tag_6\n      jump\t// in\n    tag_5:\n      mload(0x40)\n      dup1\n      swap2\n      sub\n      swap1\n      return\n    tag_4:\n        /* \"contracts/myContract.sol\":626:630  uint */\n      0x00\n        /* \"contracts/myContract.sol\":664:672  10 ether */\n      0x8ac7230489e80000\n        /* \"contracts/myContract.sol\":651:660  msg.value */\n      callvalue\n        /* \"contracts/myContract.sol\":651:672  msg.value == 10 ether */\n      eq\n        /* \"contracts/myContract.sol\":643:673  require(msg.value == 10 ether) */\n      tag_8\n      jumpi\n      0x00\n      dup1\n      revert\n    tag_8:\n        /* \"contracts/myContract.sol\":685:695  uint value */\n      0x00\n        /* \"contracts/myContract.sol\":698:707  msg.value */\n      callvalue\n        /* \"contracts/myContract.sol\":685:707  uint value = msg.value */\n      swap1\n      pop\n        /* \"contracts/myContract.sol\":725:730  value */\n      dup1\n        /* \"contracts/myContract.sol\":718:730  return value */\n      swap2\n      pop\n      pop\n        /* \"contracts/myContract.sol\":584:738  function sendMe() public payable returns (uint) {... */\n      swap1\n      jump\t// out\n        /* \"#utility.yul\":7:84   */\n    tag_9:\n        /* \"#utility.yul\":44:51   */\n      0x00\n        /* \"#utility.yul\":73:78   */\n      dup2\n        /* \"#utility.yul\":62:78   */\n      swap1\n      pop\n        /* \"#utility.yul\":7:84   */\n      swap2\n      swap1\n      pop\n      jump\t// out\n        /* \"#utility.yul\":90:208   */\n    tag_10:\n        /* \"#utility.yul\":177:201   */\n      tag_14\n        /* \"#utility.yul\":195:200   */\n      dup2\n        /* \"#utility.yul\":177:201   */\n      tag_9\n      jump\t// in\n    tag_14:\n        /* \"#utility.yul\":172:175   */\n      dup3\n        /* \"#utility.yul\":165:202   */\n      mstore\n        /* \"#utility.yul\":90:208   */\n      pop\n      pop\n      jump\t// out\n        /* \"#utility.yul\":214:436   */\n    tag_6:\n        /* \"#utility.yul\":307:311   */\n      0x00\n        /* \"#utility.yul\":345:347   */\n      0x20\n        /* \"#utility.yul\":334:343   */\n      dup3\n        /* \"#utility.yul\":330:348   */\n      add\n        /* \"#utility.yul\":322:348   */\n      swap1\n      pop\n        /* \"#utility.yul\":358:429   */\n      tag_16\n        /* \"#utility.yul\":426:427   */\n      0x00\n        /* \"#utility.yul\":415:424   */\n      dup4\n        /* \"#utility.yul\":411:428   */\n      add\n        /* \"#utility.yul\":402:408   */\n      dup5\n        /* \"#utility.yul\":358:429   */\n      tag_10\n      jump\t// in\n    tag_16:\n        /* \"#utility.yul\":214:436   */\n      swap3\n      swap2\n      pop\n      pop\n      jump\t// out\n\n    auxdata: 0xa2646970667358221220d2181cdbdebe19919f43f9fa0679e5530b6ad0a3f8bba8b5183ca591753e080664736f6c63430008110033\n}\n",
				"bytecode": {
					"linkReferences": {},
					"object": "608060405234801561001057600080fd5b5060c28061001f6000396000f3fe608060405260043610601c5760003560e01c80632d80d05b146021575b600080fd5b6027603b565b604051603291906073565b60405180910390f35b6000678ac7230489e800003414605057600080fd5b60003490508091505090565b6000819050919050565b606d81605c565b82525050565b6000602082019050608660008301846066565b9291505056fea2646970667358221220d2181cdbdebe19919f43f9fa0679e5530b6ad0a3f8bba8b5183ca591753e080664736f6c63430008110033",
					"opcodes": "PUSH1 0x80 PUSH1 0x40 MSTORE CALLVALUE DUP1 ISZERO PUSH2 0x10 JUMPI PUSH1 0x0 DUP1 REVERT JUMPDEST POP PUSH1 0xC2 DUP1 PUSH2 0x1F PUSH1 0x0 CODECOPY PUSH1 0x0 RETURN INVALID PUSH1 0x80 PUSH1 0x40 MSTORE PUSH1 0x4 CALLDATASIZE LT PUSH1 0x1C JUMPI PUSH1 0x0 CALLDATALOAD PUSH1 0xE0 SHR DUP1 PUSH4 0x2D80D05B EQ PUSH1 0x21 JUMPI JUMPDEST PUSH1 0x0 DUP1 REVERT JUMPDEST PUSH1 0x27 PUSH1 0x3B JUMP JUMPDEST PUSH1 0x40 MLOAD PUSH1 0x32 SWAP2 SWAP1 PUSH1 0x73 JUMP JUMPDEST PUSH1 0x40 MLOAD DUP1 SWAP2 SUB SWAP1 RETURN JUMPDEST PUSH1 0x0 PUSH8 0x8AC7230489E80000 CALLVALUE EQ PUSH1 0x50 JUMPI PUSH1 0x0 DUP1 REVERT JUMPDEST PUSH1 0x0 CALLVALUE SWAP1 POP DUP1 SWAP2 POP POP SWAP1 JUMP JUMPDEST PUSH1 0x0 DUP2 SWAP1 POP SWAP2 SWAP1 POP JUMP JUMPDEST PUSH1 0x6D DUP2 PUSH1 0x5C JUMP JUMPDEST DUP3 MSTORE POP POP JUMP JUMPDEST PUSH1 0x0 PUSH1 0x20 DUP3 ADD SWAP1 POP PUSH1 0x86 PUSH1 0x0 DUP4 ADD DUP5 PUSH1 0x66 JUMP JUMPDEST SWAP3 SWAP2 POP POP JUMP INVALID LOG2 PUSH5 0x6970667358 0x22 SLT KECCAK256 0xD2 XOR SHR 0xDB 0xDE 0xBE NOT SWAP2 SWAP16 NUMBER 0xF9 STATICCALL MOD PUSH26 0xE5530B6AD0A3F8BBA8B5183CA591753E080664736F6C63430008 GT STOP CALLER "
				},
				"gasEstimates": {
					"creation": {
						"codeDepositCost": "38800",
						"executionCost": "93",
						"totalCost": "38893"
					},
					"external": {
						"sendMe()": "325"
					}
				},
				"methodIdentifiers": {
					"sendMe()": "2d80d05b"
				}
			},
			"storageLayout": {
				"storage": [],
				"types": null
			},
			"userdoc": {
				"kind": "user",
				"methods": {},
				"version": 1
			}
		}
	}
}