{
	"contracts/1_Storage.sol": {
		"Storage": {
			"abi": [
				{
					"inputs": [],
					"stateMutability": "nonpayable",
					"type": "constructor"
				},
				{
					"inputs": [],
					"name": "addElement",
					"outputs": [],
					"stateMutability": "nonpayable",
					"type": "function"
				},
				{
					"inputs": [],
					"name": "b1",
					"outputs": [
						{
							"internalType": "bytes",
							"name": "",
							"type": "bytes"
						}
					],
					"stateMutability": "view",
					"type": "function"
				},
				{
					"inputs": [],
					"name": "getValue",
					"outputs": [
						{
							"internalType": "uint256",
							"name": "",
							"type": "uint256"
						}
					],
					"stateMutability": "view",
					"type": "function"
				},
				{
					"inputs": [
						{
							"internalType": "string",
							"name": "",
							"type": "string"
						}
					],
					"name": "myMapping",
					"outputs": [
						{
							"internalType": "uint256",
							"name": "",
							"type": "uint256"
						}
					],
					"stateMutability": "view",
					"type": "function"
				},
				{
					"inputs": [
						{
							"internalType": "uint256",
							"name": "",
							"type": "uint256"
						}
					],
					"name": "players",
					"outputs": [
						{
							"internalType": "string",
							"name": "name",
							"type": "string"
						},
						{
							"internalType": "uint256",
							"name": "level",
							"type": "uint256"
						},
						{
							"internalType": "uint256",
							"name": "score",
							"type": "uint256"
						}
					],
					"stateMutability": "view",
					"type": "function"
				},
				{
					"inputs": [],
					"name": "retrieve",
					"outputs": [
						{
							"internalType": "uint256",
							"name": "",
							"type": "uint256"
						}
					],
					"stateMutability": "view",
					"type": "function"
				},
				{
					"inputs": [],
					"name": "s1",
					"outputs": [
						{
							"internalType": "string",
							"name": "",
							"type": "string"
						}
					],
					"stateMutability": "view",
					"type": "function"
				},
				{
					"inputs": [
						{
							"internalType": "uint256",
							"name": "_id",
							"type": "uint256"
						},
						{
							"internalType": "string",
							"name": "",
							"type": "string"
						}
					],
					"name": "setMapping",
					"outputs": [],
					"stateMutability": "nonpayable",
					"type": "function"
				},
				{
					"inputs": [
						{
							"internalType": "uint256",
							"name": "_value",
							"type": "uint256"
						}
					],
					"name": "setValue",
					"outputs": [],
					"stateMutability": "nonpayable",
					"type": "function"
				},
				{
					"inputs": [
						{
							"internalType": "uint256",
							"name": "num",
							"type": "uint256"
						}
					],
					"name": "store",
					"outputs": [],
					"stateMutability": "nonpayable",
					"type": "function"
				}
			],
			"devdoc": {
				"custom:dev-run-script": "./scripts/deploy_with_ethers.ts",
				"details": "Store & retrieve value in a variable",
				"kind": "dev",
				"methods": {
					"retrieve()": {
						"details": "Return value ",
						"returns": {
							"_0": "value of 'number'"
						}
					},
					"store(uint256)": {
						"details": "Store value in variable",
						"params": {
							"num": "value to store"
						}
					}
				},
				"title": "Storage",
				"version": 1
			},
			"evm": {
				"assembly": "    /* \"contracts/1_Storage.sol\":192:1263  contract Storage {... */\n  mstore(0x40, 0x80)\n    /* \"contracts/1_Storage.sol\":257:280  bytes public b1 = \"abc\" */\n  mload(0x40)\n  dup1\n  0x40\n  add\n  0x40\n  mstore\n  dup1\n  0x03\n  dup2\n  mstore\n  0x20\n  add\n  0x6162630000000000000000000000000000000000000000000000000000000000\n  dup2\n  mstore\n  pop\n  0x02\n  swap1\n  dup2\n  tag_1\n  swap2\n  swap1\n  tag_2\n  jump\t// in\ntag_1:\n  pop\n    /* \"contracts/1_Storage.sol\":287:311  string public s1 = \"abc\" */\n  mload(0x40)\n  dup1\n  0x40\n  add\n  0x40\n  mstore\n  dup1\n  0x03\n  dup2\n  mstore\n  0x20\n  add\n  0x6162630000000000000000000000000000000000000000000000000000000000\n  dup2\n  mstore\n  pop\n  0x03\n  swap1\n  dup2\n  tag_3\n  swap2\n  swap1\n  tag_4\n  jump\t// in\ntag_3:\n  pop\n    /* \"contracts/1_Storage.sol\":502:545  constructor() {... */\n  callvalue\n  dup1\n  iszero\n  tag_5\n  jumpi\n  0x00\n  dup1\n  revert\ntag_5:\n  pop\n    /* \"contracts/1_Storage.sol\":535:538  100 */\n  0x64\n    /* \"contracts/1_Storage.sol\":526:532  number */\n  0x00\n    /* \"contracts/1_Storage.sol\":526:538  number = 100 */\n  dup2\n  swap1\n  sstore\n  pop\n    /* \"contracts/1_Storage.sol\":192:1263  contract Storage {... */\n  jump(tag_8)\n    /* \"#utility.yul\":7:106   */\ntag_9:\n    /* \"#utility.yul\":59:65   */\n  0x00\n    /* \"#utility.yul\":93:98   */\n  dup2\n    /* \"#utility.yul\":87:99   */\n  mload\n    /* \"#utility.yul\":77:99   */\n  swap1\n  pop\n    /* \"#utility.yul\":7:106   */\n  swap2\n  swap1\n  pop\n  jump\t// out\n    /* \"#utility.yul\":112:292   */\ntag_10:\n    /* \"#utility.yul\":160:237   */\n  0x4e487b7100000000000000000000000000000000000000000000000000000000\n    /* \"#utility.yul\":157:158   */\n  0x00\n    /* \"#utility.yul\":150:238   */\n  mstore\n    /* \"#utility.yul\":257:261   */\n  0x41\n    /* \"#utility.yul\":254:255   */\n  0x04\n    /* \"#utility.yul\":247:262   */\n  mstore\n    /* \"#utility.yul\":281:285   */\n  0x24\n    /* \"#utility.yul\":278:279   */\n  0x00\n    /* \"#utility.yul\":271:286   */\n  revert\n    /* \"#utility.yul\":298:478   */\ntag_11:\n    /* \"#utility.yul\":346:423   */\n  0x4e487b7100000000000000000000000000000000000000000000000000000000\n    /* \"#utility.yul\":343:344   */\n  0x00\n    /* \"#utility.yul\":336:424   */\n  mstore\n    /* \"#utility.yul\":443:447   */\n  0x22\n    /* \"#utility.yul\":440:441   */\n  0x04\n    /* \"#utility.yul\":433:448   */\n  mstore\n    /* \"#utility.yul\":467:471   */\n  0x24\n    /* \"#utility.yul\":464:465   */\n  0x00\n    /* \"#utility.yul\":457:472   */\n  revert\n    /* \"#utility.yul\":484:804   */\ntag_12:\n    /* \"#utility.yul\":528:534   */\n  0x00\n    /* \"#utility.yul\":565:566   */\n  0x02\n    /* \"#utility.yul\":559:563   */\n  dup3\n    /* \"#utility.yul\":555:567   */\n  div\n    /* \"#utility.yul\":545:567   */\n  swap1\n  pop\n    /* \"#utility.yul\":612:613   */\n  0x01\n    /* \"#utility.yul\":606:610   */\n  dup3\n    /* \"#utility.yul\":602:614   */\n  and\n    /* \"#utility.yul\":633:651   */\n  dup1\n    /* \"#utility.yul\":623:704   */\n  tag_36\n  jumpi\n    /* \"#utility.yul\":689:693   */\n  0x7f\n    /* \"#utility.yul\":681:687   */\n  dup3\n    /* \"#utility.yul\":677:694   */\n  and\n    /* \"#utility.yul\":667:694   */\n  swap2\n  pop\n    /* \"#utility.yul\":623:704   */\ntag_36:\n    /* \"#utility.yul\":751:753   */\n  0x20\n    /* \"#utility.yul\":743:749   */\n  dup3\n    /* \"#utility.yul\":740:754   */\n  lt\n    /* \"#utility.yul\":720:738   */\n  dup2\n    /* \"#utility.yul\":717:755   */\n  sub\n    /* \"#utility.yul\":714:798   */\n  tag_37\n  jumpi\n    /* \"#utility.yul\":770:788   */\n  tag_38\n  tag_11\n  jump\t// in\ntag_38:\n    /* \"#utility.yul\":714:798   */\ntag_37:\n    /* \"#utility.yul\":535:804   */\n  pop\n    /* \"#utility.yul\":484:804   */\n  swap2\n  swap1\n  pop\n  jump\t// out\n    /* \"#utility.yul\":810:950   */\ntag_13:\n    /* \"#utility.yul\":858:862   */\n  0x00\n    /* \"#utility.yul\":881:884   */\n  dup2\n    /* \"#utility.yul\":873:884   */\n  swap1\n  pop\n    /* \"#utility.yul\":904:907   */\n  dup2\n    /* \"#utility.yul\":901:902   */\n  0x00\n    /* \"#utility.yul\":894:908   */\n  mstore\n    /* \"#utility.yul\":938:942   */\n  0x20\n    /* \"#utility.yul\":935:936   */\n  0x00\n    /* \"#utility.yul\":925:943   */\n  keccak256\n    /* \"#utility.yul\":917:943   */\n  swap1\n  pop\n    /* \"#utility.yul\":810:950   */\n  swap2\n  swap1\n  pop\n  jump\t// out\n    /* \"#utility.yul\":956:1049   */\ntag_14:\n    /* \"#utility.yul\":993:999   */\n  0x00\n    /* \"#utility.yul\":1040:1042   */\n  0x20\n    /* \"#utility.yul\":1035:1037   */\n  0x1f\n    /* \"#utility.yul\":1028:1033   */\n  dup4\n    /* \"#utility.yul\":1024:1038   */\n  add\n    /* \"#utility.yul\":1020:1043   */\n  div\n    /* \"#utility.yul\":1010:1043   */\n  swap1\n  pop\n    /* \"#utility.yul\":956:1049   */\n  swap2\n  swap1\n  pop\n  jump\t// out\n    /* \"#utility.yul\":1055:1162   */\ntag_15:\n    /* \"#utility.yul\":1099:1107   */\n  0x00\n    /* \"#utility.yul\":1149:1154   */\n  dup3\n    /* \"#utility.yul\":1143:1147   */\n  dup3\n    /* \"#utility.yul\":1139:1155   */\n  shl\n    /* \"#utility.yul\":1118:1155   */\n  swap1\n  pop\n    /* \"#utility.yul\":1055:1162   */\n  swap3\n  swap2\n  pop\n  pop\n  jump\t// out\n    /* \"#utility.yul\":1168:1561   */\ntag_16:\n    /* \"#utility.yul\":1237:1243   */\n  0x00\n    /* \"#utility.yul\":1287:1288   */\n  0x08\n    /* \"#utility.yul\":1275:1285   */\n  dup4\n    /* \"#utility.yul\":1271:1289   */\n  mul\n    /* \"#utility.yul\":1310:1407   */\n  tag_43\n    /* \"#utility.yul\":1340:1406   */\n  0xffffffffffffffffffffffffffffffffffffffffffffffffffffffffffffffff\n    /* \"#utility.yul\":1329:1338   */\n  dup3\n    /* \"#utility.yul\":1310:1407   */\n  tag_15\n  jump\t// in\ntag_43:\n    /* \"#utility.yul\":1428:1467   */\n  tag_44\n    /* \"#utility.yul\":1458:1466   */\n  dup7\n    /* \"#utility.yul\":1447:1456   */\n  dup4\n    /* \"#utility.yul\":1428:1467   */\n  tag_15\n  jump\t// in\ntag_44:\n    /* \"#utility.yul\":1416:1467   */\n  swap6\n  pop\n    /* \"#utility.yul\":1500:1504   */\n  dup1\n    /* \"#utility.yul\":1496:1505   */\n  not\n    /* \"#utility.yul\":1489:1494   */\n  dup5\n    /* \"#utility.yul\":1485:1506   */\n  and\n    /* \"#utility.yul\":1476:1506   */\n  swap4\n  pop\n    /* \"#utility.yul\":1549:1553   */\n  dup1\n    /* \"#utility.yul\":1539:1547   */\n  dup7\n    /* \"#utility.yul\":1535:1554   */\n  and\n    /* \"#utility.yul\":1528:1533   */\n  dup5\n    /* \"#utility.yul\":1525:1555   */\n  or\n    /* \"#utility.yul\":1515:1555   */\n  swap3\n  pop\n    /* \"#utility.yul\":1244:1561   */\n  pop\n  pop\n    /* \"#utility.yul\":1168:1561   */\n  swap4\n  swap3\n  pop\n  pop\n  pop\n  jump\t// out\n    /* \"#utility.yul\":1567:1644   */\ntag_17:\n    /* \"#utility.yul\":1604:1611   */\n  0x00\n    /* \"#utility.yul\":1633:1638   */\n  dup2\n    /* \"#utility.yul\":1622:1638   */\n  swap1\n  pop\n    /* \"#utility.yul\":1567:1644   */\n  swap2\n  swap1\n  pop\n  jump\t// out\n    /* \"#utility.yul\":1650:1710   */\ntag_18:\n    /* \"#utility.yul\":1678:1681   */\n  0x00\n    /* \"#utility.yul\":1699:1704   */\n  dup2\n    /* \"#utility.yul\":1692:1704   */\n  swap1\n  pop\n    /* \"#utility.yul\":1650:1710   */\n  swap2\n  swap1\n  pop\n  jump\t// out\n    /* \"#utility.yul\":1716:1858   */\ntag_19:\n    /* \"#utility.yul\":1766:1775   */\n  0x00\n    /* \"#utility.yul\":1799:1852   */\n  tag_48\n    /* \"#utility.yul\":1817:1851   */\n  tag_49\n    /* \"#utility.yul\":1826:1850   */\n  tag_50\n    /* \"#utility.yul\":1844:1849   */\n  dup5\n    /* \"#utility.yul\":1826:1850   */\n  tag_17\n  jump\t// in\ntag_50:\n    /* \"#utility.yul\":1817:1851   */\n  tag_18\n  jump\t// in\ntag_49:\n    /* \"#utility.yul\":1799:1852   */\n  tag_17\n  jump\t// in\ntag_48:\n    /* \"#utility.yul\":1786:1852   */\n  swap1\n  pop\n    /* \"#utility.yul\":1716:1858   */\n  swap2\n  swap1\n  pop\n  jump\t// out\n    /* \"#utility.yul\":1864:1939   */\ntag_20:\n    /* \"#utility.yul\":1907:1910   */\n  0x00\n    /* \"#utility.yul\":1928:1933   */\n  dup2\n    /* \"#utility.yul\":1921:1933   */\n  swap1\n  pop\n    /* \"#utility.yul\":1864:1939   */\n  swap2\n  swap1\n  pop\n  jump\t// out\n    /* \"#utility.yul\":1945:2214   */\ntag_21:\n    /* \"#utility.yul\":2055:2094   */\n  tag_53\n    /* \"#utility.yul\":2086:2093   */\n  dup4\n    /* \"#utility.yul\":2055:2094   */\n  tag_19\n  jump\t// in\ntag_53:\n    /* \"#utility.yul\":2116:2207   */\n  tag_54\n    /* \"#utility.yul\":2165:2206   */\n  tag_55\n    /* \"#utility.yul\":2189:2205   */\n  dup3\n    /* \"#utility.yul\":2165:2206   */\n  tag_20\n  jump\t// in\ntag_55:\n    /* \"#utility.yul\":2157:2163   */\n  dup5\n    /* \"#utility.yul\":2150:2154   */\n  dup5\n    /* \"#utility.yul\":2144:2155   */\n  sload\n    /* \"#utility.yul\":2116:2207   */\n  tag_16\n  jump\t// in\ntag_54:\n    /* \"#utility.yul\":2110:2114   */\n  dup3\n    /* \"#utility.yul\":2103:2208   */\n  sstore\n    /* \"#utility.yul\":2021:2214   */\n  pop\n    /* \"#utility.yul\":1945:2214   */\n  pop\n  pop\n  pop\n  jump\t// out\n    /* \"#utility.yul\":2220:2293   */\ntag_22:\n    /* \"#utility.yul\":2265:2268   */\n  0x00\n    /* \"#utility.yul\":2220:2293   */\n  swap1\n  jump\t// out\n    /* \"#utility.yul\":2299:2488   */\ntag_23:\n    /* \"#utility.yul\":2376:2408   */\n  tag_58\n  tag_22\n  jump\t// in\ntag_58:\n    /* \"#utility.yul\":2417:2482   */\n  tag_59\n    /* \"#utility.yul\":2475:2481   */\n  dup2\n    /* \"#utility.yul\":2467:2473   */\n  dup5\n    /* \"#utility.yul\":2461:2465   */\n  dup5\n    /* \"#utility.yul\":2417:2482   */\n  tag_21\n  jump\t// in\ntag_59:\n    /* \"#utility.yul\":2352:2488   */\n  pop\n    /* \"#utility.yul\":2299:2488   */\n  pop\n  pop\n  jump\t// out\n    /* \"#utility.yul\":2494:2680   */\ntag_24:\n    /* \"#utility.yul\":2554:2674   */\ntag_61:\n    /* \"#utility.yul\":2571:2574   */\n  dup2\n    /* \"#utility.yul\":2564:2569   */\n  dup2\n    /* \"#utility.yul\":2561:2575   */\n  lt\n    /* \"#utility.yul\":2554:2674   */\n  iszero\n  tag_63\n  jumpi\n    /* \"#utility.yul\":2625:2664   */\n  tag_64\n    /* \"#utility.yul\":2662:2663   */\n  0x00\n    /* \"#utility.yul\":2655:2660   */\n  dup3\n    /* \"#utility.yul\":2625:2664   */\n  tag_23\n  jump\t// in\ntag_64:\n    /* \"#utility.yul\":2598:2599   */\n  0x01\n    /* \"#utility.yul\":2591:2596   */\n  dup2\n    /* \"#utility.yul\":2587:2600   */\n  add\n    /* \"#utility.yul\":2578:2600   */\n  swap1\n  pop\n    /* \"#utility.yul\":2554:2674   */\n  jump(tag_61)\ntag_63:\n    /* \"#utility.yul\":2494:2680   */\n  pop\n  pop\n  jump\t// out\n    /* \"#utility.yul\":2686:3227   */\ntag_25:\n    /* \"#utility.yul\":2786:2788   */\n  0x1f\n    /* \"#utility.yul\":2781:2784   */\n  dup3\n    /* \"#utility.yul\":2778:2789   */\n  gt\n    /* \"#utility.yul\":2775:3220   */\n  iszero\n  tag_66\n  jumpi\n    /* \"#utility.yul\":2820:2857   */\n  tag_67\n    /* \"#utility.yul\":2851:2856   */\n  dup2\n    /* \"#utility.yul\":2820:2857   */\n  tag_13\n  jump\t// in\ntag_67:\n    /* \"#utility.yul\":2903:2932   */\n  tag_68\n    /* \"#utility.yul\":2921:2931   */\n  dup5\n    /* \"#utility.yul\":2903:2932   */\n  tag_14\n  jump\t// in\ntag_68:\n    /* \"#utility.yul\":2893:2901   */\n  dup2\n    /* \"#utility.yul\":2889:2933   */\n  add\n    /* \"#utility.yul\":3086:3088   */\n  0x20\n    /* \"#utility.yul\":3074:3084   */\n  dup6\n    /* \"#utility.yul\":3071:3089   */\n  lt\n    /* \"#utility.yul\":3068:3117   */\n  iszero\n  tag_69\n  jumpi\n    /* \"#utility.yul\":3107:3115   */\n  dup2\n    /* \"#utility.yul\":3092:3115   */\n  swap1\n  pop\n    /* \"#utility.yul\":3068:3117   */\ntag_69:\n    /* \"#utility.yul\":3130:3210   */\n  tag_70\n    /* \"#utility.yul\":3186:3208   */\n  tag_71\n    /* \"#utility.yul\":3204:3207   */\n  dup6\n    /* \"#utility.yul\":3186:3208   */\n  tag_14\n  jump\t// in\ntag_71:\n    /* \"#utility.yul\":3176:3184   */\n  dup4\n    /* \"#utility.yul\":3172:3209   */\n  add\n    /* \"#utility.yul\":3159:3170   */\n  dup3\n    /* \"#utility.yul\":3130:3210   */\n  tag_24\n  jump\t// in\ntag_70:\n    /* \"#utility.yul\":2790:3220   */\n  pop\n  pop\n    /* \"#utility.yul\":2775:3220   */\ntag_66:\n    /* \"#utility.yul\":2686:3227   */\n  pop\n  pop\n  pop\n  jump\t// out\n    /* \"#utility.yul\":3233:3350   */\ntag_26:\n    /* \"#utility.yul\":3287:3295   */\n  0x00\n    /* \"#utility.yul\":3337:3342   */\n  dup3\n    /* \"#utility.yul\":3331:3335   */\n  dup3\n    /* \"#utility.yul\":3327:3343   */\n  shr\n    /* \"#utility.yul\":3306:3343   */\n  swap1\n  pop\n    /* \"#utility.yul\":3233:3350   */\n  swap3\n  swap2\n  pop\n  pop\n  jump\t// out\n    /* \"#utility.yul\":3356:3525   */\ntag_27:\n    /* \"#utility.yul\":3400:3406   */\n  0x00\n    /* \"#utility.yul\":3433:3484   */\n  tag_74\n    /* \"#utility.yul\":3481:3482   */\n  0x00\n    /* \"#utility.yul\":3477:3483   */\n  not\n    /* \"#utility.yul\":3469:3474   */\n  dup5\n    /* \"#utility.yul\":3466:3467   */\n  0x08\n    /* \"#utility.yul\":3462:3475   */\n  mul\n    /* \"#utility.yul\":3433:3484   */\n  tag_26\n  jump\t// in\ntag_74:\n    /* \"#utility.yul\":3429:3485   */\n  not\n    /* \"#utility.yul\":3514:3518   */\n  dup1\n    /* \"#utility.yul\":3508:3512   */\n  dup4\n    /* \"#utility.yul\":3504:3519   */\n  and\n    /* \"#utility.yul\":3494:3519   */\n  swap2\n  pop\n    /* \"#utility.yul\":3407:3525   */\n  pop\n    /* \"#utility.yul\":3356:3525   */\n  swap3\n  swap2\n  pop\n  pop\n  jump\t// out\n    /* \"#utility.yul\":3530:3825   */\ntag_28:\n    /* \"#utility.yul\":3606:3610   */\n  0x00\n    /* \"#utility.yul\":3752:3781   */\n  tag_76\n    /* \"#utility.yul\":3777:3780   */\n  dup4\n    /* \"#utility.yul\":3771:3775   */\n  dup4\n    /* \"#utility.yul\":3752:3781   */\n  tag_27\n  jump\t// in\ntag_76:\n    /* \"#utility.yul\":3744:3781   */\n  swap2\n  pop\n    /* \"#utility.yul\":3814:3817   */\n  dup3\n    /* \"#utility.yul\":3811:3812   */\n  0x02\n    /* \"#utility.yul\":3807:3818   */\n  mul\n    /* \"#utility.yul\":3801:3805   */\n  dup3\n    /* \"#utility.yul\":3798:3819   */\n  or\n    /* \"#utility.yul\":3790:3819   */\n  swap1\n  pop\n    /* \"#utility.yul\":3530:3825   */\n  swap3\n  swap2\n  pop\n  pop\n  jump\t// out\n    /* \"#utility.yul\":3830:5222   */\ntag_2:\n    /* \"#utility.yul\":3946:3983   */\n  tag_78\n    /* \"#utility.yul\":3979:3982   */\n  dup3\n    /* \"#utility.yul\":3946:3983   */\n  tag_9\n  jump\t// in\ntag_78:\n    /* \"#utility.yul\":4048:4066   */\n  0xffffffffffffffff\n    /* \"#utility.yul\":4040:4046   */\n  dup2\n    /* \"#utility.yul\":4037:4067   */\n  gt\n    /* \"#utility.yul\":4034:4090   */\n  iszero\n  tag_79\n  jumpi\n    /* \"#utility.yul\":4070:4088   */\n  tag_80\n  tag_10\n  jump\t// in\ntag_80:\n    /* \"#utility.yul\":4034:4090   */\ntag_79:\n    /* \"#utility.yul\":4114:4152   */\n  tag_81\n    /* \"#utility.yul\":4146:4150   */\n  dup3\n    /* \"#utility.yul\":4140:4151   */\n  sload\n    /* \"#utility.yul\":4114:4152   */\n  tag_12\n  jump\t// in\ntag_81:\n    /* \"#utility.yul\":4199:4265   */\n  tag_82\n    /* \"#utility.yul\":4258:4264   */\n  dup3\n    /* \"#utility.yul\":4250:4256   */\n  dup3\n    /* \"#utility.yul\":4244:4248   */\n  dup6\n    /* \"#utility.yul\":4199:4265   */\n  tag_25\n  jump\t// in\ntag_82:\n    /* \"#utility.yul\":4292:4293   */\n  0x00\n    /* \"#utility.yul\":4316:4320   */\n  0x20\n    /* \"#utility.yul\":4303:4320   */\n  swap1\n  pop\n    /* \"#utility.yul\":4348:4350   */\n  0x1f\n    /* \"#utility.yul\":4340:4346   */\n  dup4\n    /* \"#utility.yul\":4337:4351   */\n  gt\n    /* \"#utility.yul\":4365:4366   */\n  0x01\n    /* \"#utility.yul\":4360:4977   */\n  dup2\n  eq\n  tag_84\n  jumpi\n    /* \"#utility.yul\":5021:5022   */\n  0x00\n    /* \"#utility.yul\":5038:5044   */\n  dup5\n    /* \"#utility.yul\":5035:5112   */\n  iszero\n  tag_85\n  jumpi\n    /* \"#utility.yul\":5087:5096   */\n  dup3\n    /* \"#utility.yul\":5082:5085   */\n  dup8\n    /* \"#utility.yul\":5078:5097   */\n  add\n    /* \"#utility.yul\":5072:5098   */\n  mload\n    /* \"#utility.yul\":5063:5098   */\n  swap1\n  pop\n    /* \"#utility.yul\":5035:5112   */\ntag_85:\n    /* \"#utility.yul\":5138:5205   */\n  tag_86\n    /* \"#utility.yul\":5198:5204   */\n  dup6\n    /* \"#utility.yul\":5191:5196   */\n  dup3\n    /* \"#utility.yul\":5138:5205   */\n  tag_28\n  jump\t// in\ntag_86:\n    /* \"#utility.yul\":5132:5136   */\n  dup7\n    /* \"#utility.yul\":5125:5206   */\n  sstore\n    /* \"#utility.yul\":4994:5216   */\n  pop\n    /* \"#utility.yul\":4330:5216   */\n  jump(tag_83)\n    /* \"#utility.yul\":4360:4977   */\ntag_84:\n    /* \"#utility.yul\":4412:4416   */\n  0x1f\n    /* \"#utility.yul\":4408:4417   */\n  not\n    /* \"#utility.yul\":4400:4406   */\n  dup5\n    /* \"#utility.yul\":4396:4418   */\n  and\n    /* \"#utility.yul\":4446:4482   */\n  tag_87\n    /* \"#utility.yul\":4477:4481   */\n  dup7\n    /* \"#utility.yul\":4446:4482   */\n  tag_13\n  jump\t// in\ntag_87:\n    /* \"#utility.yul\":4504:4505   */\n  0x00\n    /* \"#utility.yul\":4518:4726   */\ntag_88:\n    /* \"#utility.yul\":4532:4539   */\n  dup3\n    /* \"#utility.yul\":4529:4530   */\n  dup2\n    /* \"#utility.yul\":4526:4540   */\n  lt\n    /* \"#utility.yul\":4518:4726   */\n  iszero\n  tag_90\n  jumpi\n    /* \"#utility.yul\":4611:4620   */\n  dup5\n    /* \"#utility.yul\":4606:4609   */\n  dup10\n    /* \"#utility.yul\":4602:4621   */\n  add\n    /* \"#utility.yul\":4596:4622   */\n  mload\n    /* \"#utility.yul\":4588:4594   */\n  dup3\n    /* \"#utility.yul\":4581:4623   */\n  sstore\n    /* \"#utility.yul\":4662:4663   */\n  0x01\n    /* \"#utility.yul\":4654:4660   */\n  dup3\n    /* \"#utility.yul\":4650:4664   */\n  add\n    /* \"#utility.yul\":4640:4664   */\n  swap2\n  pop\n    /* \"#utility.yul\":4709:4711   */\n  0x20\n    /* \"#utility.yul\":4698:4707   */\n  dup6\n    /* \"#utility.yul\":4694:4712   */\n  add\n    /* \"#utility.yul\":4681:4712   */\n  swap5\n  pop\n    /* \"#utility.yul\":4555:4559   */\n  0x20\n    /* \"#utility.yul\":4552:4553   */\n  dup2\n    /* \"#utility.yul\":4548:4560   */\n  add\n    /* \"#utility.yul\":4543:4560   */\n  swap1\n  pop\n    /* \"#utility.yul\":4518:4726   */\n  jump(tag_88)\ntag_90:\n    /* \"#utility.yul\":4754:4760   */\n  dup7\n    /* \"#utility.yul\":4745:4752   */\n  dup4\n    /* \"#utility.yul\":4742:4761   */\n  lt\n    /* \"#utility.yul\":4739:4918   */\n  iszero\n  tag_91\n  jumpi\n    /* \"#utility.yul\":4812:4821   */\n  dup5\n    /* \"#utility.yul\":4807:4810   */\n  dup10\n    /* \"#utility.yul\":4803:4822   */\n  add\n    /* \"#utility.yul\":4797:4823   */\n  mload\n    /* \"#utility.yul\":4855:4903   */\n  tag_92\n    /* \"#utility.yul\":4897:4901   */\n  0x1f\n    /* \"#utility.yul\":4889:4895   */\n  dup10\n    /* \"#utility.yul\":4885:4902   */\n  and\n    /* \"#utility.yul\":4874:4883   */\n  dup3\n    /* \"#utility.yul\":4855:4903   */\n  tag_27\n  jump\t// in\ntag_92:\n    /* \"#utility.yul\":4847:4853   */\n  dup4\n    /* \"#utility.yul\":4840:4904   */\n  sstore\n    /* \"#utility.yul\":4762:4918   */\n  pop\n    /* \"#utility.yul\":4739:4918   */\ntag_91:\n    /* \"#utility.yul\":4964:4965   */\n  0x01\n    /* \"#utility.yul\":4960:4961   */\n  0x02\n    /* \"#utility.yul\":4952:4958   */\n  dup9\n    /* \"#utility.yul\":4948:4962   */\n  mul\n    /* \"#utility.yul\":4944:4966   */\n  add\n    /* \"#utility.yul\":4938:4942   */\n  dup9\n    /* \"#utility.yul\":4931:4967   */\n  sstore\n    /* \"#utility.yul\":4367:4977   */\n  pop\n  pop\n  pop\n    /* \"#utility.yul\":4330:5216   */\ntag_83:\n  pop\n    /* \"#utility.yul\":3921:5222   */\n  pop\n  pop\n  pop\n    /* \"#utility.yul\":3830:5222   */\n  pop\n  pop\n  jump\t// out\n    /* \"#utility.yul\":5228:5369   */\ntag_29:\n    /* \"#utility.yul\":5277:5281   */\n  0x00\n    /* \"#utility.yul\":5300:5303   */\n  dup2\n    /* \"#utility.yul\":5292:5303   */\n  swap1\n  pop\n    /* \"#utility.yul\":5323:5326   */\n  dup2\n    /* \"#utility.yul\":5320:5321   */\n  0x00\n    /* \"#utility.yul\":5313:5327   */\n  mstore\n    /* \"#utility.yul\":5357:5361   */\n  0x20\n    /* \"#utility.yul\":5354:5355   */\n  0x00\n    /* \"#utility.yul\":5344:5362   */\n  keccak256\n    /* \"#utility.yul\":5336:5362   */\n  swap1\n  pop\n    /* \"#utility.yul\":5228:5369   */\n  swap2\n  swap1\n  pop\n  jump\t// out\n    /* \"#utility.yul\":5375:5918   */\ntag_30:\n    /* \"#utility.yul\":5476:5478   */\n  0x1f\n    /* \"#utility.yul\":5471:5474   */\n  dup3\n    /* \"#utility.yul\":5468:5479   */\n  gt\n    /* \"#utility.yul\":5465:5911   */\n  iszero\n  tag_95\n  jumpi\n    /* \"#utility.yul\":5510:5548   */\n  tag_96\n    /* \"#utility.yul\":5542:5547   */\n  dup2\n    /* \"#utility.yul\":5510:5548   */\n  tag_29\n  jump\t// in\ntag_96:\n    /* \"#utility.yul\":5594:5623   */\n  tag_97\n    /* \"#utility.yul\":5612:5622   */\n  dup5\n    /* \"#utility.yul\":5594:5623   */\n  tag_14\n  jump\t// in\ntag_97:\n    /* \"#utility.yul\":5584:5592   */\n  dup2\n    /* \"#utility.yul\":5580:5624   */\n  add\n    /* \"#utility.yul\":5777:5779   */\n  0x20\n    /* \"#utility.yul\":5765:5775   */\n  dup6\n    /* \"#utility.yul\":5762:5780   */\n  lt\n    /* \"#utility.yul\":5759:5808   */\n  iszero\n  tag_98\n  jumpi\n    /* \"#utility.yul\":5798:5806   */\n  dup2\n    /* \"#utility.yul\":5783:5806   */\n  swap1\n  pop\n    /* \"#utility.yul\":5759:5808   */\ntag_98:\n    /* \"#utility.yul\":5821:5901   */\n  tag_99\n    /* \"#utility.yul\":5877:5899   */\n  tag_100\n    /* \"#utility.yul\":5895:5898   */\n  dup6\n    /* \"#utility.yul\":5877:5899   */\n  tag_14\n  jump\t// in\ntag_100:\n    /* \"#utility.yul\":5867:5875   */\n  dup4\n    /* \"#utility.yul\":5863:5900   */\n  add\n    /* \"#utility.yul\":5850:5861   */\n  dup3\n    /* \"#utility.yul\":5821:5901   */\n  tag_24\n  jump\t// in\ntag_99:\n    /* \"#utility.yul\":5480:5911   */\n  pop\n  pop\n    /* \"#utility.yul\":5465:5911   */\ntag_95:\n    /* \"#utility.yul\":5375:5918   */\n  pop\n  pop\n  pop\n  jump\t// out\n    /* \"#utility.yul\":5924:7319   */\ntag_4:\n    /* \"#utility.yul\":6041:6078   */\n  tag_102\n    /* \"#utility.yul\":6074:6077   */\n  dup3\n    /* \"#utility.yul\":6041:6078   */\n  tag_9\n  jump\t// in\ntag_102:\n    /* \"#utility.yul\":6143:6161   */\n  0xffffffffffffffff\n    /* \"#utility.yul\":6135:6141   */\n  dup2\n    /* \"#utility.yul\":6132:6162   */\n  gt\n    /* \"#utility.yul\":6129:6185   */\n  iszero\n  tag_103\n  jumpi\n    /* \"#utility.yul\":6165:6183   */\n  tag_104\n  tag_10\n  jump\t// in\ntag_104:\n    /* \"#utility.yul\":6129:6185   */\ntag_103:\n    /* \"#utility.yul\":6209:6247   */\n  tag_105\n    /* \"#utility.yul\":6241:6245   */\n  dup3\n    /* \"#utility.yul\":6235:6246   */\n  sload\n    /* \"#utility.yul\":6209:6247   */\n  tag_12\n  jump\t// in\ntag_105:\n    /* \"#utility.yul\":6294:6361   */\n  tag_106\n    /* \"#utility.yul\":6354:6360   */\n  dup3\n    /* \"#utility.yul\":6346:6352   */\n  dup3\n    /* \"#utility.yul\":6340:6344   */\n  dup6\n    /* \"#utility.yul\":6294:6361   */\n  tag_30\n  jump\t// in\ntag_106:\n    /* \"#utility.yul\":6388:6389   */\n  0x00\n    /* \"#utility.yul\":6412:6416   */\n  0x20\n    /* \"#utility.yul\":6399:6416   */\n  swap1\n  pop\n    /* \"#utility.yul\":6444:6446   */\n  0x1f\n    /* \"#utility.yul\":6436:6442   */\n  dup4\n    /* \"#utility.yul\":6433:6447   */\n  gt\n    /* \"#utility.yul\":6461:6462   */\n  0x01\n    /* \"#utility.yul\":6456:7074   */\n  dup2\n  eq\n  tag_108\n  jumpi\n    /* \"#utility.yul\":7118:7119   */\n  0x00\n    /* \"#utility.yul\":7135:7141   */\n  dup5\n    /* \"#utility.yul\":7132:7209   */\n  iszero\n  tag_109\n  jumpi\n    /* \"#utility.yul\":7184:7193   */\n  dup3\n    /* \"#utility.yul\":7179:7182   */\n  dup8\n    /* \"#utility.yul\":7175:7194   */\n  add\n    /* \"#utility.yul\":7169:7195   */\n  mload\n    /* \"#utility.yul\":7160:7195   */\n  swap1\n  pop\n    /* \"#utility.yul\":7132:7209   */\ntag_109:\n    /* \"#utility.yul\":7235:7302   */\n  tag_110\n    /* \"#utility.yul\":7295:7301   */\n  dup6\n    /* \"#utility.yul\":7288:7293   */\n  dup3\n    /* \"#utility.yul\":7235:7302   */\n  tag_28\n  jump\t// in\ntag_110:\n    /* \"#utility.yul\":7229:7233   */\n  dup7\n    /* \"#utility.yul\":7222:7303   */\n  sstore\n    /* \"#utility.yul\":7091:7313   */\n  pop\n    /* \"#utility.yul\":6426:7313   */\n  jump(tag_107)\n    /* \"#utility.yul\":6456:7074   */\ntag_108:\n    /* \"#utility.yul\":6508:6512   */\n  0x1f\n    /* \"#utility.yul\":6504:6513   */\n  not\n    /* \"#utility.yul\":6496:6502   */\n  dup5\n    /* \"#utility.yul\":6492:6514   */\n  and\n    /* \"#utility.yul\":6542:6579   */\n  tag_111\n    /* \"#utility.yul\":6574:6578   */\n  dup7\n    /* \"#utility.yul\":6542:6579   */\n  tag_29\n  jump\t// in\ntag_111:\n    /* \"#utility.yul\":6601:6602   */\n  0x00\n    /* \"#utility.yul\":6615:6823   */\ntag_112:\n    /* \"#utility.yul\":6629:6636   */\n  dup3\n    /* \"#utility.yul\":6626:6627   */\n  dup2\n    /* \"#utility.yul\":6623:6637   */\n  lt\n    /* \"#utility.yul\":6615:6823   */\n  iszero\n  tag_114\n  jumpi\n    /* \"#utility.yul\":6708:6717   */\n  dup5\n    /* \"#utility.yul\":6703:6706   */\n  dup10\n    /* \"#utility.yul\":6699:6718   */\n  add\n    /* \"#utility.yul\":6693:6719   */\n  mload\n    /* \"#utility.yul\":6685:6691   */\n  dup3\n    /* \"#utility.yul\":6678:6720   */\n  sstore\n    /* \"#utility.yul\":6759:6760   */\n  0x01\n    /* \"#utility.yul\":6751:6757   */\n  dup3\n    /* \"#utility.yul\":6747:6761   */\n  add\n    /* \"#utility.yul\":6737:6761   */\n  swap2\n  pop\n    /* \"#utility.yul\":6806:6808   */\n  0x20\n    /* \"#utility.yul\":6795:6804   */\n  dup6\n    /* \"#utility.yul\":6791:6809   */\n  add\n    /* \"#utility.yul\":6778:6809   */\n  swap5\n  pop\n    /* \"#utility.yul\":6652:6656   */\n  0x20\n    /* \"#utility.yul\":6649:6650   */\n  dup2\n    /* \"#utility.yul\":6645:6657   */\n  add\n    /* \"#utility.yul\":6640:6657   */\n  swap1\n  pop\n    /* \"#utility.yul\":6615:6823   */\n  jump(tag_112)\ntag_114:\n    /* \"#utility.yul\":6851:6857   */\n  dup7\n    /* \"#utility.yul\":6842:6849   */\n  dup4\n    /* \"#utility.yul\":6839:6858   */\n  lt\n    /* \"#utility.yul\":6836:7015   */\n  iszero\n  tag_115\n  jumpi\n    /* \"#utility.yul\":6909:6918   */\n  dup5\n    /* \"#utility.yul\":6904:6907   */\n  dup10\n    /* \"#utility.yul\":6900:6919   */\n  add\n    /* \"#utility.yul\":6894:6920   */\n  mload\n    /* \"#utility.yul\":6952:7000   */\n  tag_116\n    /* \"#utility.yul\":6994:6998   */\n  0x1f\n    /* \"#utility.yul\":6986:6992   */\n  dup10\n    /* \"#utility.yul\":6982:6999   */\n  and\n    /* \"#utility.yul\":6971:6980   */\n  dup3\n    /* \"#utility.yul\":6952:7000   */\n  tag_27\n  jump\t// in\ntag_116:\n    /* \"#utility.yul\":6944:6950   */\n  dup4\n    /* \"#utility.yul\":6937:7001   */\n  sstore\n    /* \"#utility.yul\":6859:7015   */\n  pop\n    /* \"#utility.yul\":6836:7015   */\ntag_115:\n    /* \"#utility.yul\":7061:7062   */\n  0x01\n    /* \"#utility.yul\":7057:7058   */\n  0x02\n    /* \"#utility.yul\":7049:7055   */\n  dup9\n    /* \"#utility.yul\":7045:7059   */\n  mul\n    /* \"#utility.yul\":7041:7063   */\n  add\n    /* \"#utility.yul\":7035:7039   */\n  dup9\n    /* \"#utility.yul\":7028:7064   */\n  sstore\n    /* \"#utility.yul\":6463:7074   */\n  pop\n  pop\n  pop\n    /* \"#utility.yul\":6426:7313   */\ntag_107:\n  pop\n    /* \"#utility.yul\":6016:7319   */\n  pop\n  pop\n  pop\n    /* \"#utility.yul\":5924:7319   */\n  pop\n  pop\n  jump\t// out\n    /* \"contracts/1_Storage.sol\":192:1263  contract Storage {... */\ntag_8:\n  dataSize(sub_0)\n  dup1\n  dataOffset(sub_0)\n  0x00\n  codecopy\n  0x00\n  return\nstop\n\nsub_0: assembly {\n        /* \"contracts/1_Storage.sol\":192:1263  contract Storage {... */\n      mstore(0x40, 0x80)\n      callvalue\n      dup1\n      iszero\n      tag_1\n      jumpi\n      0x00\n      dup1\n      revert\n    tag_1:\n      pop\n      jumpi(tag_2, lt(calldatasize, 0x04))\n      shr(0xe0, calldataload(0x00))\n      dup1\n      0x6cc014de\n      gt\n      tag_13\n      jumpi\n      dup1\n      0x6cc014de\n      eq\n      tag_8\n      jumpi\n      dup1\n      0xee495002\n      eq\n      tag_9\n      jumpi\n      dup1\n      0xf05fbc5a\n      eq\n      tag_10\n      jumpi\n      dup1\n      0xf71d96cb\n      eq\n      tag_11\n      jumpi\n      dup1\n      0xffac7005\n      eq\n      tag_12\n      jumpi\n      jump(tag_2)\n    tag_13:\n      dup1\n      0x20965255\n      eq\n      tag_3\n      jumpi\n      dup1\n      0x2e64cec1\n      eq\n      tag_4\n      jumpi\n      dup1\n      0x3f2273b3\n      eq\n      tag_5\n      jumpi\n      dup1\n      0x55241077\n      eq\n      tag_6\n      jumpi\n      dup1\n      0x6057361d\n      eq\n      tag_7\n      jumpi\n    tag_2:\n      0x00\n      dup1\n      revert\n        /* \"contracts/1_Storage.sol\":1025:1101  function getValue() public view returns (uint) {... */\n    tag_3:\n      tag_14\n      tag_15\n      jump\t// in\n    tag_14:\n      mload(0x40)\n      tag_16\n      swap2\n      swap1\n      tag_17\n      jump\t// in\n    tag_16:\n      mload(0x40)\n      dup1\n      swap2\n      sub\n      swap1\n      return\n        /* \"contracts/1_Storage.sol\":1182:1261  function retrieve() public view returns (uint256){... */\n    tag_4:\n      tag_18\n      tag_19\n      jump\t// in\n    tag_18:\n      mload(0x40)\n      tag_20\n      swap2\n      swap1\n      tag_17\n      jump\t// in\n    tag_20:\n      mload(0x40)\n      dup1\n      swap2\n      sub\n      swap1\n      return\n        /* \"contracts/1_Storage.sol\":672:755  function addElement() public {... */\n    tag_5:\n      tag_21\n      tag_22\n      jump\t// in\n    tag_21:\n      stop\n        /* \"contracts/1_Storage.sol\":933:1002  function setValue(uint _value) public {... */\n    tag_6:\n      tag_23\n      0x04\n      dup1\n      calldatasize\n      sub\n      dup2\n      add\n      swap1\n      tag_24\n      swap2\n      swap1\n      tag_25\n      jump\t// in\n    tag_24:\n      tag_26\n      jump\t// in\n    tag_23:\n      stop\n        /* \"contracts/1_Storage.sol\":846:910  function store(uint256 num) public {... */\n    tag_7:\n      tag_27\n      0x04\n      dup1\n      calldatasize\n      sub\n      dup2\n      add\n      swap1\n      tag_28\n      swap2\n      swap1\n      tag_25\n      jump\t// in\n    tag_28:\n      tag_29\n      jump\t// in\n    tag_27:\n      stop\n        /* \"contracts/1_Storage.sol\":287:311  string public s1 = \"abc\" */\n    tag_8:\n      tag_30\n      tag_31\n      jump\t// in\n    tag_30:\n      mload(0x40)\n      tag_32\n      swap2\n      swap1\n      tag_33\n      jump\t// in\n    tag_32:\n      mload(0x40)\n      dup1\n      swap2\n      sub\n      swap1\n      return\n        /* \"contracts/1_Storage.sol\":257:280  bytes public b1 = \"abc\" */\n    tag_9:\n      tag_34\n      tag_35\n      jump\t// in\n    tag_34:\n      mload(0x40)\n      tag_36\n      swap2\n      swap1\n      tag_37\n      jump\t// in\n    tag_36:\n      mload(0x40)\n      dup1\n      swap2\n      sub\n      swap1\n      return\n        /* \"contracts/1_Storage.sol\":551:663  function setMapping(uint _id, string memory) public {... */\n    tag_10:\n      tag_38\n      0x04\n      dup1\n      calldatasize\n      sub\n      dup2\n      add\n      swap1\n      tag_39\n      swap2\n      swap1\n      tag_40\n      jump\t// in\n    tag_39:\n      tag_41\n      jump\t// in\n    tag_38:\n      stop\n        /* \"contracts/1_Storage.sol\":457:495  mapping(uint => Player) public players */\n    tag_11:\n      tag_42\n      0x04\n      dup1\n      calldatasize\n      sub\n      dup2\n      add\n      swap1\n      tag_43\n      swap2\n      swap1\n      tag_25\n      jump\t// in\n    tag_43:\n      tag_44\n      jump\t// in\n    tag_42:\n      mload(0x40)\n      tag_45\n      swap4\n      swap3\n      swap2\n      swap1\n      tag_46\n      jump\t// in\n    tag_45:\n      mload(0x40)\n      dup1\n      swap2\n      sub\n      swap1\n      return\n        /* \"contracts/1_Storage.sol\":317:357  mapping(string => uint) public myMapping */\n    tag_12:\n      tag_47\n      0x04\n      dup1\n      calldatasize\n      sub\n      dup2\n      add\n      swap1\n      tag_48\n      swap2\n      swap1\n      tag_49\n      jump\t// in\n    tag_48:\n      tag_50\n      jump\t// in\n    tag_47:\n      mload(0x40)\n      tag_51\n      swap2\n      swap1\n      tag_17\n      jump\t// in\n    tag_51:\n      mload(0x40)\n      dup1\n      swap2\n      sub\n      swap1\n      return\n        /* \"contracts/1_Storage.sol\":1025:1101  function getValue() public view returns (uint) {... */\n    tag_15:\n        /* \"contracts/1_Storage.sol\":1066:1070  uint */\n      0x00\n        /* \"contracts/1_Storage.sol\":1089:1094  value */\n      sload(0x01)\n        /* \"contracts/1_Storage.sol\":1082:1094  return value */\n      swap1\n      pop\n        /* \"contracts/1_Storage.sol\":1025:1101  function getValue() public view returns (uint) {... */\n      swap1\n      jump\t// out\n        /* \"contracts/1_Storage.sol\":1182:1261  function retrieve() public view returns (uint256){... */\n    tag_19:\n        /* \"contracts/1_Storage.sol\":1223:1230  uint256 */\n      0x00\n        /* \"contracts/1_Storage.sol\":1248:1254  number */\n      dup1\n      sload\n        /* \"contracts/1_Storage.sol\":1241:1254  return number */\n      swap1\n      pop\n        /* \"contracts/1_Storage.sol\":1182:1261  function retrieve() public view returns (uint256){... */\n      swap1\n      jump\t// out\n        /* \"contracts/1_Storage.sol\":672:755  function addElement() public {... */\n    tag_22:\n        /* \"contracts/1_Storage.sol\":711:713  b1 */\n      0x02\n        /* \"contracts/1_Storage.sol\":711:723  b1.push(\"x\") */\n      dup1\n      dup1\n      sload\n      dup1\n      tag_55\n      swap1\n      tag_56\n      jump\t// in\n    tag_55:\n      dup1\n      0x1f\n      dup2\n      sub\n      tag_57\n      jumpi\n      dup4\n      0x00\n      mstore\n      keccak256(0x00, 0x20)\n      not(0xff)\n      dup5\n      and\n      dup2\n      sstore\n      0x3f\n      swap4\n      pop\n      pop\n    tag_57:\n      pop\n      0x02\n      dup3\n      add\n      dup4\n      sstore\n      0x01\n      dup2\n      add\n      swap3\n      pop\n      pop\n      pop\n      0x01\n      swap1\n      sub\n      dup2\n      sload\n      0x01\n      and\n      iszero\n      tag_59\n      jumpi\n      swap1\n      0x00\n      mstore\n      keccak256(0x00, 0x20)\n      swap1\n      0x20\n      swap2\n      dup3\n      dup3\n      div\n      add\n      swap2\n      swap1\n      mod\n    tag_59:\n      0x7800000000000000000000000000000000000000000000000000000000000000\n      swap1\n      swap2\n      swap1\n      swap2\n      0x1f\n      sub\n      0x0100\n      exp\n      dup2\n      sload\n      dup2\n      0xff\n      mul\n      not\n      and\n      swap1\n      0x0100000000000000000000000000000000000000000000000000000000000000\n      dup5\n      div\n      mul\n      or\n      swap1\n      sstore\n      pop\n        /* \"contracts/1_Storage.sol\":672:755  function addElement() public {... */\n      jump\t// out\n        /* \"contracts/1_Storage.sol\":933:1002  function setValue(uint _value) public {... */\n    tag_26:\n        /* \"contracts/1_Storage.sol\":989:995  _value */\n      dup1\n        /* \"contracts/1_Storage.sol\":981:986  value */\n      0x01\n        /* \"contracts/1_Storage.sol\":981:995  value = _value */\n      dup2\n      swap1\n      sstore\n      pop\n        /* \"contracts/1_Storage.sol\":933:1002  function setValue(uint _value) public {... */\n      pop\n      jump\t// out\n        /* \"contracts/1_Storage.sol\":846:910  function store(uint256 num) public {... */\n    tag_29:\n        /* \"contracts/1_Storage.sol\":900:903  num */\n      dup1\n        /* \"contracts/1_Storage.sol\":891:897  number */\n      0x00\n        /* \"contracts/1_Storage.sol\":891:903  number = num */\n      dup2\n      swap1\n      sstore\n      pop\n        /* \"contracts/1_Storage.sol\":846:910  function store(uint256 num) public {... */\n      pop\n      jump\t// out\n        /* \"contracts/1_Storage.sol\":287:311  string public s1 = \"abc\" */\n    tag_31:\n      0x03\n      dup1\n      sload\n      tag_62\n      swap1\n      tag_56\n      jump\t// in\n    tag_62:\n      dup1\n      0x1f\n      add\n      0x20\n      dup1\n      swap2\n      div\n      mul\n      0x20\n      add\n      mload(0x40)\n      swap1\n      dup2\n      add\n      0x40\n      mstore\n      dup1\n      swap3\n      swap2\n      swap1\n      dup2\n      dup2\n      mstore\n      0x20\n      add\n      dup3\n      dup1\n      sload\n      tag_63\n      swap1\n      tag_56\n      jump\t// in\n    tag_63:\n      dup1\n      iszero\n      tag_64\n      jumpi\n      dup1\n      0x1f\n      lt\n      tag_65\n      jumpi\n      0x0100\n      dup1\n      dup4\n      sload\n      div\n      mul\n      dup4\n      mstore\n      swap2\n      0x20\n      add\n      swap2\n      jump(tag_64)\n    tag_65:\n      dup3\n      add\n      swap2\n      swap1\n      0x00\n      mstore\n      keccak256(0x00, 0x20)\n      swap1\n    tag_66:\n      dup2\n      sload\n      dup2\n      mstore\n      swap1\n      0x01\n      add\n      swap1\n      0x20\n      add\n      dup1\n      dup4\n      gt\n      tag_66\n      jumpi\n      dup3\n      swap1\n      sub\n      0x1f\n      and\n      dup3\n      add\n      swap2\n    tag_64:\n      pop\n      pop\n      pop\n      pop\n      pop\n      dup2\n      jump\t// out\n        /* \"contracts/1_Storage.sol\":257:280  bytes public b1 = \"abc\" */\n    tag_35:\n      0x02\n      dup1\n      sload\n      tag_67\n      swap1\n      tag_56\n      jump\t// in\n    tag_67:\n      dup1\n      0x1f\n      add\n      0x20\n      dup1\n      swap2\n      div\n      mul\n      0x20\n      add\n      mload(0x40)\n      swap1\n      dup2\n      add\n      0x40\n      mstore\n      dup1\n      swap3\n      swap2\n      swap1\n      dup2\n      dup2\n      mstore\n      0x20\n      add\n      dup3\n      dup1\n      sload\n      tag_68\n      swap1\n      tag_56\n      jump\t// in\n    tag_68:\n      dup1\n      iszero\n      tag_69\n      jumpi\n      dup1\n      0x1f\n      lt\n      tag_70\n      jumpi\n      0x0100\n      dup1\n      dup4\n      sload\n      div\n      mul\n      dup4\n      mstore\n      swap2\n      0x20\n      add\n      swap2\n      jump(tag_69)\n    tag_70:\n      dup3\n      add\n      swap2\n      swap1\n      0x00\n      mstore\n      keccak256(0x00, 0x20)\n      swap1\n    tag_71:\n      dup2\n      sload\n      dup2\n      mstore\n      swap1\n      0x01\n      add\n      swap1\n      0x20\n      add\n      dup1\n      dup4\n      gt\n      tag_71\n      jumpi\n      dup3\n      swap1\n      sub\n      0x1f\n      and\n      dup3\n      add\n      swap2\n    tag_69:\n      pop\n      pop\n      pop\n      pop\n      pop\n      dup2\n      jump\t// out\n        /* \"contracts/1_Storage.sol\":551:663  function setMapping(uint _id, string memory) public {... */\n    tag_41:\n        /* \"contracts/1_Storage.sol\":628:656  Player(\"Christian\", 10, 100) */\n      mload(0x40)\n      dup1\n      0x60\n      add\n      0x40\n      mstore\n      dup1\n      mload(0x40)\n      dup1\n      0x40\n      add\n      0x40\n      mstore\n      dup1\n      0x09\n      dup2\n      mstore\n      0x20\n      add\n      0x43687269737469616e0000000000000000000000000000000000000000000000\n      dup2\n      mstore\n      pop\n      dup2\n      mstore\n      0x20\n      add\n        /* \"contracts/1_Storage.sol\":648:650  10 */\n      0x0a\n        /* \"contracts/1_Storage.sol\":628:656  Player(\"Christian\", 10, 100) */\n      dup2\n      mstore\n      0x20\n      add\n        /* \"contracts/1_Storage.sol\":652:655  100 */\n      0x64\n        /* \"contracts/1_Storage.sol\":628:656  Player(\"Christian\", 10, 100) */\n      dup2\n      mstore\n      pop\n        /* \"contracts/1_Storage.sol\":613:620  players */\n      0x05\n        /* \"contracts/1_Storage.sol\":613:625  players[_id] */\n      0x00\n        /* \"contracts/1_Storage.sol\":621:624  _id */\n      dup5\n        /* \"contracts/1_Storage.sol\":613:625  players[_id] */\n      dup2\n      mstore\n      0x20\n      add\n      swap1\n      dup2\n      mstore\n      0x20\n      add\n      0x00\n      keccak256\n        /* \"contracts/1_Storage.sol\":613:656  players[_id] = Player(\"Christian\", 10, 100) */\n      0x00\n      dup3\n      add\n      mload\n      dup2\n      0x00\n      add\n      swap1\n      dup2\n      tag_73\n      swap2\n      swap1\n      tag_74\n      jump\t// in\n    tag_73:\n      pop\n      0x20\n      dup3\n      add\n      mload\n      dup2\n      0x01\n      add\n      sstore\n      0x40\n      dup3\n      add\n      mload\n      dup2\n      0x02\n      add\n      sstore\n      swap1\n      pop\n      pop\n        /* \"contracts/1_Storage.sol\":551:663  function setMapping(uint _id, string memory) public {... */\n      pop\n      pop\n      jump\t// out\n        /* \"contracts/1_Storage.sol\":457:495  mapping(uint => Player) public players */\n    tag_44:\n      mstore(0x20, 0x05)\n      dup1\n      0x00\n      mstore\n      keccak256(0x00, 0x40)\n      0x00\n      swap2\n      pop\n      swap1\n      pop\n      dup1\n      0x00\n      add\n      dup1\n      sload\n      tag_75\n      swap1\n      tag_56\n      jump\t// in\n    tag_75:\n      dup1\n      0x1f\n      add\n      0x20\n      dup1\n      swap2\n      div\n      mul\n      0x20\n      add\n      mload(0x40)\n      swap1\n      dup2\n      add\n      0x40\n      mstore\n      dup1\n      swap3\n      swap2\n      swap1\n      dup2\n      dup2\n      mstore\n      0x20\n      add\n      dup3\n      dup1\n      sload\n      tag_76\n      swap1\n      tag_56\n      jump\t// in\n    tag_76:\n      dup1\n      iszero\n      tag_77\n      jumpi\n      dup1\n      0x1f\n      lt\n      tag_78\n      jumpi\n      0x0100\n      dup1\n      dup4\n      sload\n      div\n      mul\n      dup4\n      mstore\n      swap2\n      0x20\n      add\n      swap2\n      jump(tag_77)\n    tag_78:\n      dup3\n      add\n      swap2\n      swap1\n      0x00\n      mstore\n      keccak256(0x00, 0x20)\n      swap1\n    tag_79:\n      dup2\n      sload\n      dup2\n      mstore\n      swap1\n      0x01\n      add\n      swap1\n      0x20\n      add\n      dup1\n      dup4\n      gt\n      tag_79\n      jumpi\n      dup3\n      swap1\n      sub\n      0x1f\n      and\n      dup3\n      add\n      swap2\n    tag_77:\n      pop\n      pop\n      pop\n      pop\n      pop\n      swap1\n      dup1\n      0x01\n      add\n      sload\n      swap1\n      dup1\n      0x02\n      add\n      sload\n      swap1\n      pop\n      dup4\n      jump\t// out\n        /* \"contracts/1_Storage.sol\":317:357  mapping(string => uint) public myMapping */\n    tag_50:\n      0x04\n      dup2\n      dup1\n      mload\n      0x20\n      dup2\n      add\n      dup3\n      add\n      dup1\n      mload\n      dup5\n      dup3\n      mstore\n      0x20\n      dup4\n      add\n      0x20\n      dup6\n      add\n      keccak256\n      dup2\n      dup4\n      mstore\n      dup1\n      swap6\n      pop\n      pop\n      pop\n      pop\n      pop\n      pop\n      0x00\n      swap2\n      pop\n      swap1\n      pop\n      sload\n      dup2\n      jump\t// out\n        /* \"#utility.yul\":7:84   */\n    tag_80:\n        /* \"#utility.yul\":44:51   */\n      0x00\n        /* \"#utility.yul\":73:78   */\n      dup2\n        /* \"#utility.yul\":62:78   */\n      swap1\n      pop\n        /* \"#utility.yul\":7:84   */\n      swap2\n      swap1\n      pop\n      jump\t// out\n        /* \"#utility.yul\":90:208   */\n    tag_81:\n        /* \"#utility.yul\":177:201   */\n      tag_123\n        /* \"#utility.yul\":195:200   */\n      dup2\n        /* \"#utility.yul\":177:201   */\n      tag_80\n      jump\t// in\n    tag_123:\n        /* \"#utility.yul\":172:175   */\n      dup3\n        /* \"#utility.yul\":165:202   */\n      mstore\n        /* \"#utility.yul\":90:208   */\n      pop\n      pop\n      jump\t// out\n        /* \"#utility.yul\":214:436   */\n    tag_17:\n        /* \"#utility.yul\":307:311   */\n      0x00\n        /* \"#utility.yul\":345:347   */\n      0x20\n        /* \"#utility.yul\":334:343   */\n      dup3\n        /* \"#utility.yul\":330:348   */\n      add\n        /* \"#utility.yul\":322:348   */\n      swap1\n      pop\n        /* \"#utility.yul\":358:429   */\n      tag_125\n        /* \"#utility.yul\":426:427   */\n      0x00\n        /* \"#utility.yul\":415:424   */\n      dup4\n        /* \"#utility.yul\":411:428   */\n      add\n        /* \"#utility.yul\":402:408   */\n      dup5\n        /* \"#utility.yul\":358:429   */\n      tag_81\n      jump\t// in\n    tag_125:\n        /* \"#utility.yul\":214:436   */\n      swap3\n      swap2\n      pop\n      pop\n      jump\t// out\n        /* \"#utility.yul\":442:517   */\n    tag_82:\n        /* \"#utility.yul\":475:481   */\n      0x00\n        /* \"#utility.yul\":508:510   */\n      0x40\n        /* \"#utility.yul\":502:511   */\n      mload\n        /* \"#utility.yul\":492:511   */\n      swap1\n      pop\n        /* \"#utility.yul\":442:517   */\n      swap1\n      jump\t// out\n        /* \"#utility.yul\":523:640   */\n    tag_83:\n        /* \"#utility.yul\":632:633   */\n      0x00\n        /* \"#utility.yul\":629:630   */\n      dup1\n        /* \"#utility.yul\":622:634   */\n      revert\n        /* \"#utility.yul\":646:763   */\n    tag_84:\n        /* \"#utility.yul\":755:756   */\n      0x00\n        /* \"#utility.yul\":752:753   */\n      dup1\n        /* \"#utility.yul\":745:757   */\n      revert\n        /* \"#utility.yul\":769:891   */\n    tag_85:\n        /* \"#utility.yul\":842:866   */\n      tag_130\n        /* \"#utility.yul\":860:865   */\n      dup2\n        /* \"#utility.yul\":842:866   */\n      tag_80\n      jump\t// in\n    tag_130:\n        /* \"#utility.yul\":835:840   */\n      dup2\n        /* \"#utility.yul\":832:867   */\n      eq\n        /* \"#utility.yul\":822:885   */\n      tag_131\n      jumpi\n        /* \"#utility.yul\":881:882   */\n      0x00\n        /* \"#utility.yul\":878:879   */\n      dup1\n        /* \"#utility.yul\":871:883   */\n      revert\n        /* \"#utility.yul\":822:885   */\n    tag_131:\n        /* \"#utility.yul\":769:891   */\n      pop\n      jump\t// out\n        /* \"#utility.yul\":897:1036   */\n    tag_86:\n        /* \"#utility.yul\":943:948   */\n      0x00\n        /* \"#utility.yul\":981:987   */\n      dup2\n        /* \"#utility.yul\":968:988   */\n      calldataload\n        /* \"#utility.yul\":959:988   */\n      swap1\n      pop\n        /* \"#utility.yul\":997:1030   */\n      tag_133\n        /* \"#utility.yul\":1024:1029   */\n      dup2\n        /* \"#utility.yul\":997:1030   */\n      tag_85\n      jump\t// in\n    tag_133:\n        /* \"#utility.yul\":897:1036   */\n      swap3\n      swap2\n      pop\n      pop\n      jump\t// out\n        /* \"#utility.yul\":1042:1371   */\n    tag_25:\n        /* \"#utility.yul\":1101:1107   */\n      0x00\n        /* \"#utility.yul\":1150:1152   */\n      0x20\n        /* \"#utility.yul\":1138:1147   */\n      dup3\n        /* \"#utility.yul\":1129:1136   */\n      dup5\n        /* \"#utility.yul\":1125:1148   */\n      sub\n        /* \"#utility.yul\":1121:1153   */\n      slt\n        /* \"#utility.yul\":1118:1237   */\n      iszero\n      tag_135\n      jumpi\n        /* \"#utility.yul\":1156:1235   */\n      tag_136\n      tag_83\n      jump\t// in\n    tag_136:\n        /* \"#utility.yul\":1118:1237   */\n    tag_135:\n        /* \"#utility.yul\":1276:1277   */\n      0x00\n        /* \"#utility.yul\":1301:1354   */\n      tag_137\n        /* \"#utility.yul\":1346:1353   */\n      dup5\n        /* \"#utility.yul\":1337:1343   */\n      dup3\n        /* \"#utility.yul\":1326:1335   */\n      dup6\n        /* \"#utility.yul\":1322:1344   */\n      add\n        /* \"#utility.yul\":1301:1354   */\n      tag_86\n      jump\t// in\n    tag_137:\n        /* \"#utility.yul\":1291:1354   */\n      swap2\n      pop\n        /* \"#utility.yul\":1247:1364   */\n      pop\n        /* \"#utility.yul\":1042:1371   */\n      swap3\n      swap2\n      pop\n      pop\n      jump\t// out\n        /* \"#utility.yul\":1377:1476   */\n    tag_87:\n        /* \"#utility.yul\":1429:1435   */\n      0x00\n        /* \"#utility.yul\":1463:1468   */\n      dup2\n        /* \"#utility.yul\":1457:1469   */\n      mload\n        /* \"#utility.yul\":1447:1469   */\n      swap1\n      pop\n        /* \"#utility.yul\":1377:1476   */\n      swap2\n      swap1\n      pop\n      jump\t// out\n        /* \"#utility.yul\":1482:1651   */\n    tag_88:\n        /* \"#utility.yul\":1566:1577   */\n      0x00\n        /* \"#utility.yul\":1600:1606   */\n      dup3\n        /* \"#utility.yul\":1595:1598   */\n      dup3\n        /* \"#utility.yul\":1588:1607   */\n      mstore\n        /* \"#utility.yul\":1640:1644   */\n      0x20\n        /* \"#utility.yul\":1635:1638   */\n      dup3\n        /* \"#utility.yul\":1631:1645   */\n      add\n        /* \"#utility.yul\":1616:1645   */\n      swap1\n      pop\n        /* \"#utility.yul\":1482:1651   */\n      swap3\n      swap2\n      pop\n      pop\n      jump\t// out\n        /* \"#utility.yul\":1657:1903   */\n    tag_89:\n        /* \"#utility.yul\":1738:1739   */\n      0x00\n        /* \"#utility.yul\":1748:1861   */\n    tag_141:\n        /* \"#utility.yul\":1762:1768   */\n      dup4\n        /* \"#utility.yul\":1759:1760   */\n      dup2\n        /* \"#utility.yul\":1756:1769   */\n      lt\n        /* \"#utility.yul\":1748:1861   */\n      iszero\n      tag_143\n      jumpi\n        /* \"#utility.yul\":1847:1848   */\n      dup1\n        /* \"#utility.yul\":1842:1845   */\n      dup3\n        /* \"#utility.yul\":1838:1849   */\n      add\n        /* \"#utility.yul\":1832:1850   */\n      mload\n        /* \"#utility.yul\":1828:1829   */\n      dup2\n        /* \"#utility.yul\":1823:1826   */\n      dup5\n        /* \"#utility.yul\":1819:1830   */\n      add\n        /* \"#utility.yul\":1812:1851   */\n      mstore\n        /* \"#utility.yul\":1784:1786   */\n      0x20\n        /* \"#utility.yul\":1781:1782   */\n      dup2\n        /* \"#utility.yul\":1777:1787   */\n      add\n        /* \"#utility.yul\":1772:1787   */\n      swap1\n      pop\n        /* \"#utility.yul\":1748:1861   */\n      jump(tag_141)\n    tag_143:\n        /* \"#utility.yul\":1895:1896   */\n      0x00\n        /* \"#utility.yul\":1886:1892   */\n      dup5\n        /* \"#utility.yul\":1881:1884   */\n      dup5\n        /* \"#utility.yul\":1877:1893   */\n      add\n        /* \"#utility.yul\":1870:1897   */\n      mstore\n        /* \"#utility.yul\":1719:1903   */\n      pop\n        /* \"#utility.yul\":1657:1903   */\n      pop\n      pop\n      pop\n      jump\t// out\n        /* \"#utility.yul\":1909:2011   */\n    tag_90:\n        /* \"#utility.yul\":1950:1956   */\n      0x00\n        /* \"#utility.yul\":2001:2003   */\n      0x1f\n        /* \"#utility.yul\":1997:2004   */\n      not\n        /* \"#utility.yul\":1992:1994   */\n      0x1f\n        /* \"#utility.yul\":1985:1990   */\n      dup4\n        /* \"#utility.yul\":1981:1995   */\n      add\n        /* \"#utility.yul\":1977:2005   */\n      and\n        /* \"#utility.yul\":1967:2005   */\n      swap1\n      pop\n        /* \"#utility.yul\":1909:2011   */\n      swap2\n      swap1\n      pop\n      jump\t// out\n        /* \"#utility.yul\":2017:2394   */\n    tag_91:\n        /* \"#utility.yul\":2105:2108   */\n      0x00\n        /* \"#utility.yul\":2133:2172   */\n      tag_146\n        /* \"#utility.yul\":2166:2171   */\n      dup3\n        /* \"#utility.yul\":2133:2172   */\n      tag_87\n      jump\t// in\n    tag_146:\n        /* \"#utility.yul\":2188:2259   */\n      tag_147\n        /* \"#utility.yul\":2252:2258   */\n      dup2\n        /* \"#utility.yul\":2247:2250   */\n      dup6\n        /* \"#utility.yul\":2188:2259   */\n      tag_88\n      jump\t// in\n    tag_147:\n        /* \"#utility.yul\":2181:2259   */\n      swap4\n      pop\n        /* \"#utility.yul\":2268:2333   */\n      tag_148\n        /* \"#utility.yul\":2326:2332   */\n      dup2\n        /* \"#utility.yul\":2321:2324   */\n      dup6\n        /* \"#utility.yul\":2314:2318   */\n      0x20\n        /* \"#utility.yul\":2307:2312   */\n      dup7\n        /* \"#utility.yul\":2303:2319   */\n      add\n        /* \"#utility.yul\":2268:2333   */\n      tag_89\n      jump\t// in\n    tag_148:\n        /* \"#utility.yul\":2358:2387   */\n      tag_149\n        /* \"#utility.yul\":2380:2386   */\n      dup2\n        /* \"#utility.yul\":2358:2387   */\n      tag_90\n      jump\t// in\n    tag_149:\n        /* \"#utility.yul\":2353:2356   */\n      dup5\n        /* \"#utility.yul\":2349:2388   */\n      add\n        /* \"#utility.yul\":2342:2388   */\n      swap2\n      pop\n        /* \"#utility.yul\":2109:2394   */\n      pop\n        /* \"#utility.yul\":2017:2394   */\n      swap3\n      swap2\n      pop\n      pop\n      jump\t// out\n        /* \"#utility.yul\":2400:2713   */\n    tag_33:\n        /* \"#utility.yul\":2513:2517   */\n      0x00\n        /* \"#utility.yul\":2551:2553   */\n      0x20\n        /* \"#utility.yul\":2540:2549   */\n      dup3\n        /* \"#utility.yul\":2536:2554   */\n      add\n        /* \"#utility.yul\":2528:2554   */\n      swap1\n      pop\n        /* \"#utility.yul\":2600:2609   */\n      dup2\n        /* \"#utility.yul\":2594:2598   */\n      dup2\n        /* \"#utility.yul\":2590:2610   */\n      sub\n        /* \"#utility.yul\":2586:2587   */\n      0x00\n        /* \"#utility.yul\":2575:2584   */\n      dup4\n        /* \"#utility.yul\":2571:2588   */\n      add\n        /* \"#utility.yul\":2564:2611   */\n      mstore\n        /* \"#utility.yul\":2628:2706   */\n      tag_151\n        /* \"#utility.yul\":2701:2705   */\n      dup2\n        /* \"#utility.yul\":2692:2698   */\n      dup5\n        /* \"#utility.yul\":2628:2706   */\n      tag_91\n      jump\t// in\n    tag_151:\n        /* \"#utility.yul\":2620:2706   */\n      swap1\n      pop\n        /* \"#utility.yul\":2400:2713   */\n      swap3\n      swap2\n      pop\n      pop\n      jump\t// out\n        /* \"#utility.yul\":2719:2817   */\n    tag_92:\n        /* \"#utility.yul\":2770:2776   */\n      0x00\n        /* \"#utility.yul\":2804:2809   */\n      dup2\n        /* \"#utility.yul\":2798:2810   */\n      mload\n        /* \"#utility.yul\":2788:2810   */\n      swap1\n      pop\n        /* \"#utility.yul\":2719:2817   */\n      swap2\n      swap1\n      pop\n      jump\t// out\n        /* \"#utility.yul\":2823:2991   */\n    tag_93:\n        /* \"#utility.yul\":2906:2917   */\n      0x00\n        /* \"#utility.yul\":2940:2946   */\n      dup3\n        /* \"#utility.yul\":2935:2938   */\n      dup3\n        /* \"#utility.yul\":2928:2947   */\n      mstore\n        /* \"#utility.yul\":2980:2984   */\n      0x20\n        /* \"#utility.yul\":2975:2978   */\n      dup3\n        /* \"#utility.yul\":2971:2985   */\n      add\n        /* \"#utility.yul\":2956:2985   */\n      swap1\n      pop\n        /* \"#utility.yul\":2823:2991   */\n      swap3\n      swap2\n      pop\n      pop\n      jump\t// out\n        /* \"#utility.yul\":2997:3370   */\n    tag_94:\n        /* \"#utility.yul\":3083:3086   */\n      0x00\n        /* \"#utility.yul\":3111:3149   */\n      tag_155\n        /* \"#utility.yul\":3143:3148   */\n      dup3\n        /* \"#utility.yul\":3111:3149   */\n      tag_92\n      jump\t// in\n    tag_155:\n        /* \"#utility.yul\":3165:3235   */\n      tag_156\n        /* \"#utility.yul\":3228:3234   */\n      dup2\n        /* \"#utility.yul\":3223:3226   */\n      dup6\n        /* \"#utility.yul\":3165:3235   */\n      tag_93\n      jump\t// in\n    tag_156:\n        /* \"#utility.yul\":3158:3235   */\n      swap4\n      pop\n        /* \"#utility.yul\":3244:3309   */\n      tag_157\n        /* \"#utility.yul\":3302:3308   */\n      dup2\n        /* \"#utility.yul\":3297:3300   */\n      dup6\n        /* \"#utility.yul\":3290:3294   */\n      0x20\n        /* \"#utility.yul\":3283:3288   */\n      dup7\n        /* \"#utility.yul\":3279:3295   */\n      add\n        /* \"#utility.yul\":3244:3309   */\n      tag_89\n      jump\t// in\n    tag_157:\n        /* \"#utility.yul\":3334:3363   */\n      tag_158\n        /* \"#utility.yul\":3356:3362   */\n      dup2\n        /* \"#utility.yul\":3334:3363   */\n      tag_90\n      jump\t// in\n    tag_158:\n        /* \"#utility.yul\":3329:3332   */\n      dup5\n        /* \"#utility.yul\":3325:3364   */\n      add\n        /* \"#utility.yul\":3318:3364   */\n      swap2\n      pop\n        /* \"#utility.yul\":3087:3370   */\n      pop\n        /* \"#utility.yul\":2997:3370   */\n      swap3\n      swap2\n      pop\n      pop\n      jump\t// out\n        /* \"#utility.yul\":3376:3685   */\n    tag_37:\n        /* \"#utility.yul\":3487:3491   */\n      0x00\n        /* \"#utility.yul\":3525:3527   */\n      0x20\n        /* \"#utility.yul\":3514:3523   */\n      dup3\n        /* \"#utility.yul\":3510:3528   */\n      add\n        /* \"#utility.yul\":3502:3528   */\n      swap1\n      pop\n        /* \"#utility.yul\":3574:3583   */\n      dup2\n        /* \"#utility.yul\":3568:3572   */\n      dup2\n        /* \"#utility.yul\":3564:3584   */\n      sub\n        /* \"#utility.yul\":3560:3561   */\n      0x00\n        /* \"#utility.yul\":3549:3558   */\n      dup4\n        /* \"#utility.yul\":3545:3562   */\n      add\n        /* \"#utility.yul\":3538:3585   */\n      mstore\n        /* \"#utility.yul\":3602:3678   */\n      tag_160\n        /* \"#utility.yul\":3673:3677   */\n      dup2\n        /* \"#utility.yul\":3664:3670   */\n      dup5\n        /* \"#utility.yul\":3602:3678   */\n      tag_94\n      jump\t// in\n    tag_160:\n        /* \"#utility.yul\":3594:3678   */\n      swap1\n      pop\n        /* \"#utility.yul\":3376:3685   */\n      swap3\n      swap2\n      pop\n      pop\n      jump\t// out\n        /* \"#utility.yul\":3691:3808   */\n    tag_95:\n        /* \"#utility.yul\":3800:3801   */\n      0x00\n        /* \"#utility.yul\":3797:3798   */\n      dup1\n        /* \"#utility.yul\":3790:3802   */\n      revert\n        /* \"#utility.yul\":3814:3931   */\n    tag_96:\n        /* \"#utility.yul\":3923:3924   */\n      0x00\n        /* \"#utility.yul\":3920:3921   */\n      dup1\n        /* \"#utility.yul\":3913:3925   */\n      revert\n        /* \"#utility.yul\":3937:4117   */\n    tag_97:\n        /* \"#utility.yul\":3985:4062   */\n      0x4e487b7100000000000000000000000000000000000000000000000000000000\n        /* \"#utility.yul\":3982:3983   */\n      0x00\n        /* \"#utility.yul\":3975:4063   */\n      mstore\n        /* \"#utility.yul\":4082:4086   */\n      0x41\n        /* \"#utility.yul\":4079:4080   */\n      0x04\n        /* \"#utility.yul\":4072:4087   */\n      mstore\n        /* \"#utility.yul\":4106:4110   */\n      0x24\n        /* \"#utility.yul\":4103:4104   */\n      0x00\n        /* \"#utility.yul\":4096:4111   */\n      revert\n        /* \"#utility.yul\":4123:4404   */\n    tag_98:\n        /* \"#utility.yul\":4206:4233   */\n      tag_165\n        /* \"#utility.yul\":4228:4232   */\n      dup3\n        /* \"#utility.yul\":4206:4233   */\n      tag_90\n      jump\t// in\n    tag_165:\n        /* \"#utility.yul\":4198:4204   */\n      dup2\n        /* \"#utility.yul\":4194:4234   */\n      add\n        /* \"#utility.yul\":4336:4342   */\n      dup2\n        /* \"#utility.yul\":4324:4334   */\n      dup2\n        /* \"#utility.yul\":4321:4343   */\n      lt\n        /* \"#utility.yul\":4300:4318   */\n      0xffffffffffffffff\n        /* \"#utility.yul\":4288:4298   */\n      dup3\n        /* \"#utility.yul\":4285:4319   */\n      gt\n        /* \"#utility.yul\":4282:4344   */\n      or\n        /* \"#utility.yul\":4279:4367   */\n      iszero\n      tag_166\n      jumpi\n        /* \"#utility.yul\":4347:4365   */\n      tag_167\n      tag_97\n      jump\t// in\n    tag_167:\n        /* \"#utility.yul\":4279:4367   */\n    tag_166:\n        /* \"#utility.yul\":4387:4397   */\n      dup1\n        /* \"#utility.yul\":4383:4385   */\n      0x40\n        /* \"#utility.yul\":4376:4398   */\n      mstore\n        /* \"#utility.yul\":4166:4404   */\n      pop\n        /* \"#utility.yul\":4123:4404   */\n      pop\n      pop\n      jump\t// out\n        /* \"#utility.yul\":4410:4539   */\n    tag_99:\n        /* \"#utility.yul\":4444:4450   */\n      0x00\n        /* \"#utility.yul\":4471:4491   */\n      tag_169\n      tag_82\n      jump\t// in\n    tag_169:\n        /* \"#utility.yul\":4461:4491   */\n      swap1\n      pop\n        /* \"#utility.yul\":4500:4533   */\n      tag_170\n        /* \"#utility.yul\":4528:4532   */\n      dup3\n        /* \"#utility.yul\":4520:4526   */\n      dup3\n        /* \"#utility.yul\":4500:4533   */\n      tag_98\n      jump\t// in\n    tag_170:\n        /* \"#utility.yul\":4410:4539   */\n      swap2\n      swap1\n      pop\n      jump\t// out\n        /* \"#utility.yul\":4545:4853   */\n    tag_100:\n        /* \"#utility.yul\":4607:4611   */\n      0x00\n        /* \"#utility.yul\":4697:4715   */\n      0xffffffffffffffff\n        /* \"#utility.yul\":4689:4695   */\n      dup3\n        /* \"#utility.yul\":4686:4716   */\n      gt\n        /* \"#utility.yul\":4683:4739   */\n      iszero\n      tag_172\n      jumpi\n        /* \"#utility.yul\":4719:4737   */\n      tag_173\n      tag_97\n      jump\t// in\n    tag_173:\n        /* \"#utility.yul\":4683:4739   */\n    tag_172:\n        /* \"#utility.yul\":4757:4786   */\n      tag_174\n        /* \"#utility.yul\":4779:4785   */\n      dup3\n        /* \"#utility.yul\":4757:4786   */\n      tag_90\n      jump\t// in\n    tag_174:\n        /* \"#utility.yul\":4749:4786   */\n      swap1\n      pop\n        /* \"#utility.yul\":4841:4845   */\n      0x20\n        /* \"#utility.yul\":4835:4839   */\n      dup2\n        /* \"#utility.yul\":4831:4846   */\n      add\n        /* \"#utility.yul\":4823:4846   */\n      swap1\n      pop\n        /* \"#utility.yul\":4545:4853   */\n      swap2\n      swap1\n      pop\n      jump\t// out\n        /* \"#utility.yul\":4859:5005   */\n    tag_101:\n        /* \"#utility.yul\":4956:4962   */\n      dup3\n        /* \"#utility.yul\":4951:4954   */\n      dup2\n        /* \"#utility.yul\":4946:4949   */\n      dup4\n        /* \"#utility.yul\":4933:4963   */\n      calldatacopy\n        /* \"#utility.yul\":4997:4998   */\n      0x00\n        /* \"#utility.yul\":4988:4994   */\n      dup4\n        /* \"#utility.yul\":4983:4986   */\n      dup4\n        /* \"#utility.yul\":4979:4995   */\n      add\n        /* \"#utility.yul\":4972:4999   */\n      mstore\n        /* \"#utility.yul\":4859:5005   */\n      pop\n      pop\n      pop\n      jump\t// out\n        /* \"#utility.yul\":5011:5436   */\n    tag_102:\n        /* \"#utility.yul\":5089:5094   */\n      0x00\n        /* \"#utility.yul\":5114:5180   */\n      tag_177\n        /* \"#utility.yul\":5130:5179   */\n      tag_178\n        /* \"#utility.yul\":5172:5178   */\n      dup5\n        /* \"#utility.yul\":5130:5179   */\n      tag_100\n      jump\t// in\n    tag_178:\n        /* \"#utility.yul\":5114:5180   */\n      tag_99\n      jump\t// in\n    tag_177:\n        /* \"#utility.yul\":5105:5180   */\n      swap1\n      pop\n        /* \"#utility.yul\":5203:5209   */\n      dup3\n        /* \"#utility.yul\":5196:5201   */\n      dup2\n        /* \"#utility.yul\":5189:5210   */\n      mstore\n        /* \"#utility.yul\":5241:5245   */\n      0x20\n        /* \"#utility.yul\":5234:5239   */\n      dup2\n        /* \"#utility.yul\":5230:5246   */\n      add\n        /* \"#utility.yul\":5279:5282   */\n      dup5\n        /* \"#utility.yul\":5270:5276   */\n      dup5\n        /* \"#utility.yul\":5265:5268   */\n      dup5\n        /* \"#utility.yul\":5261:5277   */\n      add\n        /* \"#utility.yul\":5258:5283   */\n      gt\n        /* \"#utility.yul\":5255:5367   */\n      iszero\n      tag_179\n      jumpi\n        /* \"#utility.yul\":5286:5365   */\n      tag_180\n      tag_96\n      jump\t// in\n    tag_180:\n        /* \"#utility.yul\":5255:5367   */\n    tag_179:\n        /* \"#utility.yul\":5376:5430   */\n      tag_181\n        /* \"#utility.yul\":5423:5429   */\n      dup5\n        /* \"#utility.yul\":5418:5421   */\n      dup3\n        /* \"#utility.yul\":5413:5416   */\n      dup6\n        /* \"#utility.yul\":5376:5430   */\n      tag_101\n      jump\t// in\n    tag_181:\n        /* \"#utility.yul\":5095:5436   */\n      pop\n        /* \"#utility.yul\":5011:5436   */\n      swap4\n      swap3\n      pop\n      pop\n      pop\n      jump\t// out\n        /* \"#utility.yul\":5456:5796   */\n    tag_103:\n        /* \"#utility.yul\":5512:5517   */\n      0x00\n        /* \"#utility.yul\":5561:5564   */\n      dup3\n        /* \"#utility.yul\":5554:5558   */\n      0x1f\n        /* \"#utility.yul\":5546:5552   */\n      dup4\n        /* \"#utility.yul\":5542:5559   */\n      add\n        /* \"#utility.yul\":5538:5565   */\n      slt\n        /* \"#utility.yul\":5528:5650   */\n      tag_183\n      jumpi\n        /* \"#utility.yul\":5569:5648   */\n      tag_184\n      tag_95\n      jump\t// in\n    tag_184:\n        /* \"#utility.yul\":5528:5650   */\n    tag_183:\n        /* \"#utility.yul\":5686:5692   */\n      dup2\n        /* \"#utility.yul\":5673:5693   */\n      calldataload\n        /* \"#utility.yul\":5711:5790   */\n      tag_185\n        /* \"#utility.yul\":5786:5789   */\n      dup5\n        /* \"#utility.yul\":5778:5784   */\n      dup3\n        /* \"#utility.yul\":5771:5775   */\n      0x20\n        /* \"#utility.yul\":5763:5769   */\n      dup7\n        /* \"#utility.yul\":5759:5776   */\n      add\n        /* \"#utility.yul\":5711:5790   */\n      tag_102\n      jump\t// in\n    tag_185:\n        /* \"#utility.yul\":5702:5790   */\n      swap2\n      pop\n        /* \"#utility.yul\":5518:5796   */\n      pop\n        /* \"#utility.yul\":5456:5796   */\n      swap3\n      swap2\n      pop\n      pop\n      jump\t// out\n        /* \"#utility.yul\":5802:6456   */\n    tag_40:\n        /* \"#utility.yul\":5880:5886   */\n      0x00\n        /* \"#utility.yul\":5888:5894   */\n      dup1\n        /* \"#utility.yul\":5937:5939   */\n      0x40\n        /* \"#utility.yul\":5925:5934   */\n      dup4\n        /* \"#utility.yul\":5916:5923   */\n      dup6\n        /* \"#utility.yul\":5912:5935   */\n      sub\n        /* \"#utility.yul\":5908:5940   */\n      slt\n        /* \"#utility.yul\":5905:6024   */\n      iszero\n      tag_187\n      jumpi\n        /* \"#utility.yul\":5943:6022   */\n      tag_188\n      tag_83\n      jump\t// in\n    tag_188:\n        /* \"#utility.yul\":5905:6024   */\n    tag_187:\n        /* \"#utility.yul\":6063:6064   */\n      0x00\n        /* \"#utility.yul\":6088:6141   */\n      tag_189\n        /* \"#utility.yul\":6133:6140   */\n      dup6\n        /* \"#utility.yul\":6124:6130   */\n      dup3\n        /* \"#utility.yul\":6113:6122   */\n      dup7\n        /* \"#utility.yul\":6109:6131   */\n      add\n        /* \"#utility.yul\":6088:6141   */\n      tag_86\n      jump\t// in\n    tag_189:\n        /* \"#utility.yul\":6078:6141   */\n      swap3\n      pop\n        /* \"#utility.yul\":6034:6151   */\n      pop\n        /* \"#utility.yul\":6218:6220   */\n      0x20\n        /* \"#utility.yul\":6207:6216   */\n      dup4\n        /* \"#utility.yul\":6203:6221   */\n      add\n        /* \"#utility.yul\":6190:6222   */\n      calldataload\n        /* \"#utility.yul\":6249:6267   */\n      0xffffffffffffffff\n        /* \"#utility.yul\":6241:6247   */\n      dup2\n        /* \"#utility.yul\":6238:6268   */\n      gt\n        /* \"#utility.yul\":6235:6352   */\n      iszero\n      tag_190\n      jumpi\n        /* \"#utility.yul\":6271:6350   */\n      tag_191\n      tag_84\n      jump\t// in\n    tag_191:\n        /* \"#utility.yul\":6235:6352   */\n    tag_190:\n        /* \"#utility.yul\":6376:6439   */\n      tag_192\n        /* \"#utility.yul\":6431:6438   */\n      dup6\n        /* \"#utility.yul\":6422:6428   */\n      dup3\n        /* \"#utility.yul\":6411:6420   */\n      dup7\n        /* \"#utility.yul\":6407:6429   */\n      add\n        /* \"#utility.yul\":6376:6439   */\n      tag_103\n      jump\t// in\n    tag_192:\n        /* \"#utility.yul\":6366:6439   */\n      swap2\n      pop\n        /* \"#utility.yul\":6161:6449   */\n      pop\n        /* \"#utility.yul\":5802:6456   */\n      swap3\n      pop\n      swap3\n      swap1\n      pop\n      jump\t// out\n        /* \"#utility.yul\":6462:6995   */\n    tag_46:\n        /* \"#utility.yul\":6631:6635   */\n      0x00\n        /* \"#utility.yul\":6669:6671   */\n      0x60\n        /* \"#utility.yul\":6658:6667   */\n      dup3\n        /* \"#utility.yul\":6654:6672   */\n      add\n        /* \"#utility.yul\":6646:6672   */\n      swap1\n      pop\n        /* \"#utility.yul\":6718:6727   */\n      dup2\n        /* \"#utility.yul\":6712:6716   */\n      dup2\n        /* \"#utility.yul\":6708:6728   */\n      sub\n        /* \"#utility.yul\":6704:6705   */\n      0x00\n        /* \"#utility.yul\":6693:6702   */\n      dup4\n        /* \"#utility.yul\":6689:6706   */\n      add\n        /* \"#utility.yul\":6682:6729   */\n      mstore\n        /* \"#utility.yul\":6746:6824   */\n      tag_194\n        /* \"#utility.yul\":6819:6823   */\n      dup2\n        /* \"#utility.yul\":6810:6816   */\n      dup7\n        /* \"#utility.yul\":6746:6824   */\n      tag_91\n      jump\t// in\n    tag_194:\n        /* \"#utility.yul\":6738:6824   */\n      swap1\n      pop\n        /* \"#utility.yul\":6834:6906   */\n      tag_195\n        /* \"#utility.yul\":6902:6904   */\n      0x20\n        /* \"#utility.yul\":6891:6900   */\n      dup4\n        /* \"#utility.yul\":6887:6905   */\n      add\n        /* \"#utility.yul\":6878:6884   */\n      dup6\n        /* \"#utility.yul\":6834:6906   */\n      tag_81\n      jump\t// in\n    tag_195:\n        /* \"#utility.yul\":6916:6988   */\n      tag_196\n        /* \"#utility.yul\":6984:6986   */\n      0x40\n        /* \"#utility.yul\":6973:6982   */\n      dup4\n        /* \"#utility.yul\":6969:6987   */\n      add\n        /* \"#utility.yul\":6960:6966   */\n      dup5\n        /* \"#utility.yul\":6916:6988   */\n      tag_81\n      jump\t// in\n    tag_196:\n        /* \"#utility.yul\":6462:6995   */\n      swap5\n      swap4\n      pop\n      pop\n      pop\n      pop\n      jump\t// out\n        /* \"#utility.yul\":7001:7510   */\n    tag_49:\n        /* \"#utility.yul\":7070:7076   */\n      0x00\n        /* \"#utility.yul\":7119:7121   */\n      0x20\n        /* \"#utility.yul\":7107:7116   */\n      dup3\n        /* \"#utility.yul\":7098:7105   */\n      dup5\n        /* \"#utility.yul\":7094:7117   */\n      sub\n        /* \"#utility.yul\":7090:7122   */\n      slt\n        /* \"#utility.yul\":7087:7206   */\n      iszero\n      tag_198\n      jumpi\n        /* \"#utility.yul\":7125:7204   */\n      tag_199\n      tag_83\n      jump\t// in\n    tag_199:\n        /* \"#utility.yul\":7087:7206   */\n    tag_198:\n        /* \"#utility.yul\":7273:7274   */\n      0x00\n        /* \"#utility.yul\":7262:7271   */\n      dup3\n        /* \"#utility.yul\":7258:7275   */\n      add\n        /* \"#utility.yul\":7245:7276   */\n      calldataload\n        /* \"#utility.yul\":7303:7321   */\n      0xffffffffffffffff\n        /* \"#utility.yul\":7295:7301   */\n      dup2\n        /* \"#utility.yul\":7292:7322   */\n      gt\n        /* \"#utility.yul\":7289:7406   */\n      iszero\n      tag_200\n      jumpi\n        /* \"#utility.yul\":7325:7404   */\n      tag_201\n      tag_84\n      jump\t// in\n    tag_201:\n        /* \"#utility.yul\":7289:7406   */\n    tag_200:\n        /* \"#utility.yul\":7430:7493   */\n      tag_202\n        /* \"#utility.yul\":7485:7492   */\n      dup5\n        /* \"#utility.yul\":7476:7482   */\n      dup3\n        /* \"#utility.yul\":7465:7474   */\n      dup6\n        /* \"#utility.yul\":7461:7483   */\n      add\n        /* \"#utility.yul\":7430:7493   */\n      tag_103\n      jump\t// in\n    tag_202:\n        /* \"#utility.yul\":7420:7493   */\n      swap2\n      pop\n        /* \"#utility.yul\":7216:7503   */\n      pop\n        /* \"#utility.yul\":7001:7510   */\n      swap3\n      swap2\n      pop\n      pop\n      jump\t// out\n        /* \"#utility.yul\":7516:7696   */\n    tag_104:\n        /* \"#utility.yul\":7564:7641   */\n      0x4e487b7100000000000000000000000000000000000000000000000000000000\n        /* \"#utility.yul\":7561:7562   */\n      0x00\n        /* \"#utility.yul\":7554:7642   */\n      mstore\n        /* \"#utility.yul\":7661:7665   */\n      0x22\n        /* \"#utility.yul\":7658:7659   */\n      0x04\n        /* \"#utility.yul\":7651:7666   */\n      mstore\n        /* \"#utility.yul\":7685:7689   */\n      0x24\n        /* \"#utility.yul\":7682:7683   */\n      0x00\n        /* \"#utility.yul\":7675:7690   */\n      revert\n        /* \"#utility.yul\":7702:8022   */\n    tag_56:\n        /* \"#utility.yul\":7746:7752   */\n      0x00\n        /* \"#utility.yul\":7783:7784   */\n      0x02\n        /* \"#utility.yul\":7777:7781   */\n      dup3\n        /* \"#utility.yul\":7773:7785   */\n      div\n        /* \"#utility.yul\":7763:7785   */\n      swap1\n      pop\n        /* \"#utility.yul\":7830:7831   */\n      0x01\n        /* \"#utility.yul\":7824:7828   */\n      dup3\n        /* \"#utility.yul\":7820:7832   */\n      and\n        /* \"#utility.yul\":7851:7869   */\n      dup1\n        /* \"#utility.yul\":7841:7922   */\n      tag_205\n      jumpi\n        /* \"#utility.yul\":7907:7911   */\n      0x7f\n        /* \"#utility.yul\":7899:7905   */\n      dup3\n        /* \"#utility.yul\":7895:7912   */\n      and\n        /* \"#utility.yul\":7885:7912   */\n      swap2\n      pop\n        /* \"#utility.yul\":7841:7922   */\n    tag_205:\n        /* \"#utility.yul\":7969:7971   */\n      0x20\n        /* \"#utility.yul\":7961:7967   */\n      dup3\n        /* \"#utility.yul\":7958:7972   */\n      lt\n        /* \"#utility.yul\":7938:7956   */\n      dup2\n        /* \"#utility.yul\":7935:7973   */\n      sub\n        /* \"#utility.yul\":7932:8016   */\n      tag_206\n      jumpi\n        /* \"#utility.yul\":7988:8006   */\n      tag_207\n      tag_104\n      jump\t// in\n    tag_207:\n        /* \"#utility.yul\":7932:8016   */\n    tag_206:\n        /* \"#utility.yul\":7753:8022   */\n      pop\n        /* \"#utility.yul\":7702:8022   */\n      swap2\n      swap1\n      pop\n      jump\t// out\n        /* \"#utility.yul\":8028:8169   */\n    tag_105:\n        /* \"#utility.yul\":8077:8081   */\n      0x00\n        /* \"#utility.yul\":8100:8103   */\n      dup2\n        /* \"#utility.yul\":8092:8103   */\n      swap1\n      pop\n        /* \"#utility.yul\":8123:8126   */\n      dup2\n        /* \"#utility.yul\":8120:8121   */\n      0x00\n        /* \"#utility.yul\":8113:8127   */\n      mstore\n        /* \"#utility.yul\":8157:8161   */\n      0x20\n        /* \"#utility.yul\":8154:8155   */\n      0x00\n        /* \"#utility.yul\":8144:8162   */\n      keccak256\n        /* \"#utility.yul\":8136:8162   */\n      swap1\n      pop\n        /* \"#utility.yul\":8028:8169   */\n      swap2\n      swap1\n      pop\n      jump\t// out\n        /* \"#utility.yul\":8175:8268   */\n    tag_106:\n        /* \"#utility.yul\":8212:8218   */\n      0x00\n        /* \"#utility.yul\":8259:8261   */\n      0x20\n        /* \"#utility.yul\":8254:8256   */\n      0x1f\n        /* \"#utility.yul\":8247:8252   */\n      dup4\n        /* \"#utility.yul\":8243:8257   */\n      add\n        /* \"#utility.yul\":8239:8262   */\n      div\n        /* \"#utility.yul\":8229:8262   */\n      swap1\n      pop\n        /* \"#utility.yul\":8175:8268   */\n      swap2\n      swap1\n      pop\n      jump\t// out\n        /* \"#utility.yul\":8274:8381   */\n    tag_107:\n        /* \"#utility.yul\":8318:8326   */\n      0x00\n        /* \"#utility.yul\":8368:8373   */\n      dup3\n        /* \"#utility.yul\":8362:8366   */\n      dup3\n        /* \"#utility.yul\":8358:8374   */\n      shl\n        /* \"#utility.yul\":8337:8374   */\n      swap1\n      pop\n        /* \"#utility.yul\":8274:8381   */\n      swap3\n      swap2\n      pop\n      pop\n      jump\t// out\n        /* \"#utility.yul\":8387:8780   */\n    tag_108:\n        /* \"#utility.yul\":8456:8462   */\n      0x00\n        /* \"#utility.yul\":8506:8507   */\n      0x08\n        /* \"#utility.yul\":8494:8504   */\n      dup4\n        /* \"#utility.yul\":8490:8508   */\n      mul\n        /* \"#utility.yul\":8529:8626   */\n      tag_212\n        /* \"#utility.yul\":8559:8625   */\n      0xffffffffffffffffffffffffffffffffffffffffffffffffffffffffffffffff\n        /* \"#utility.yul\":8548:8557   */\n      dup3\n        /* \"#utility.yul\":8529:8626   */\n      tag_107\n      jump\t// in\n    tag_212:\n        /* \"#utility.yul\":8647:8686   */\n      tag_213\n        /* \"#utility.yul\":8677:8685   */\n      dup7\n        /* \"#utility.yul\":8666:8675   */\n      dup4\n        /* \"#utility.yul\":8647:8686   */\n      tag_107\n      jump\t// in\n    tag_213:\n        /* \"#utility.yul\":8635:8686   */\n      swap6\n      pop\n        /* \"#utility.yul\":8719:8723   */\n      dup1\n        /* \"#utility.yul\":8715:8724   */\n      not\n        /* \"#utility.yul\":8708:8713   */\n      dup5\n        /* \"#utility.yul\":8704:8725   */\n      and\n        /* \"#utility.yul\":8695:8725   */\n      swap4\n      pop\n        /* \"#utility.yul\":8768:8772   */\n      dup1\n        /* \"#utility.yul\":8758:8766   */\n      dup7\n        /* \"#utility.yul\":8754:8773   */\n      and\n        /* \"#utility.yul\":8747:8752   */\n      dup5\n        /* \"#utility.yul\":8744:8774   */\n      or\n        /* \"#utility.yul\":8734:8774   */\n      swap3\n      pop\n        /* \"#utility.yul\":8463:8780   */\n      pop\n      pop\n        /* \"#utility.yul\":8387:8780   */\n      swap4\n      swap3\n      pop\n      pop\n      pop\n      jump\t// out\n        /* \"#utility.yul\":8786:8846   */\n    tag_109:\n        /* \"#utility.yul\":8814:8817   */\n      0x00\n        /* \"#utility.yul\":8835:8840   */\n      dup2\n        /* \"#utility.yul\":8828:8840   */\n      swap1\n      pop\n        /* \"#utility.yul\":8786:8846   */\n      swap2\n      swap1\n      pop\n      jump\t// out\n        /* \"#utility.yul\":8852:8994   */\n    tag_110:\n        /* \"#utility.yul\":8902:8911   */\n      0x00\n        /* \"#utility.yul\":8935:8988   */\n      tag_216\n        /* \"#utility.yul\":8953:8987   */\n      tag_217\n        /* \"#utility.yul\":8962:8986   */\n      tag_218\n        /* \"#utility.yul\":8980:8985   */\n      dup5\n        /* \"#utility.yul\":8962:8986   */\n      tag_80\n      jump\t// in\n    tag_218:\n        /* \"#utility.yul\":8953:8987   */\n      tag_109\n      jump\t// in\n    tag_217:\n        /* \"#utility.yul\":8935:8988   */\n      tag_80\n      jump\t// in\n    tag_216:\n        /* \"#utility.yul\":8922:8988   */\n      swap1\n      pop\n        /* \"#utility.yul\":8852:8994   */\n      swap2\n      swap1\n      pop\n      jump\t// out\n        /* \"#utility.yul\":9000:9075   */\n    tag_111:\n        /* \"#utility.yul\":9043:9046   */\n      0x00\n        /* \"#utility.yul\":9064:9069   */\n      dup2\n        /* \"#utility.yul\":9057:9069   */\n      swap1\n      pop\n        /* \"#utility.yul\":9000:9075   */\n      swap2\n      swap1\n      pop\n      jump\t// out\n        /* \"#utility.yul\":9081:9350   */\n    tag_112:\n        /* \"#utility.yul\":9191:9230   */\n      tag_221\n        /* \"#utility.yul\":9222:9229   */\n      dup4\n        /* \"#utility.yul\":9191:9230   */\n      tag_110\n      jump\t// in\n    tag_221:\n        /* \"#utility.yul\":9252:9343   */\n      tag_222\n        /* \"#utility.yul\":9301:9342   */\n      tag_223\n        /* \"#utility.yul\":9325:9341   */\n      dup3\n        /* \"#utility.yul\":9301:9342   */\n      tag_111\n      jump\t// in\n    tag_223:\n        /* \"#utility.yul\":9293:9299   */\n      dup5\n        /* \"#utility.yul\":9286:9290   */\n      dup5\n        /* \"#utility.yul\":9280:9291   */\n      sload\n        /* \"#utility.yul\":9252:9343   */\n      tag_108\n      jump\t// in\n    tag_222:\n        /* \"#utility.yul\":9246:9250   */\n      dup3\n        /* \"#utility.yul\":9239:9344   */\n      sstore\n        /* \"#utility.yul\":9157:9350   */\n      pop\n        /* \"#utility.yul\":9081:9350   */\n      pop\n      pop\n      pop\n      jump\t// out\n        /* \"#utility.yul\":9356:9429   */\n    tag_113:\n        /* \"#utility.yul\":9401:9404   */\n      0x00\n        /* \"#utility.yul\":9356:9429   */\n      swap1\n      jump\t// out\n        /* \"#utility.yul\":9435:9624   */\n    tag_114:\n        /* \"#utility.yul\":9512:9544   */\n      tag_226\n      tag_113\n      jump\t// in\n    tag_226:\n        /* \"#utility.yul\":9553:9618   */\n      tag_227\n        /* \"#utility.yul\":9611:9617   */\n      dup2\n        /* \"#utility.yul\":9603:9609   */\n      dup5\n        /* \"#utility.yul\":9597:9601   */\n      dup5\n        /* \"#utility.yul\":9553:9618   */\n      tag_112\n      jump\t// in\n    tag_227:\n        /* \"#utility.yul\":9488:9624   */\n      pop\n        /* \"#utility.yul\":9435:9624   */\n      pop\n      pop\n      jump\t// out\n        /* \"#utility.yul\":9630:9816   */\n    tag_115:\n        /* \"#utility.yul\":9690:9810   */\n    tag_229:\n        /* \"#utility.yul\":9707:9710   */\n      dup2\n        /* \"#utility.yul\":9700:9705   */\n      dup2\n        /* \"#utility.yul\":9697:9711   */\n      lt\n        /* \"#utility.yul\":9690:9810   */\n      iszero\n      tag_231\n      jumpi\n        /* \"#utility.yul\":9761:9800   */\n      tag_232\n        /* \"#utility.yul\":9798:9799   */\n      0x00\n        /* \"#utility.yul\":9791:9796   */\n      dup3\n        /* \"#utility.yul\":9761:9800   */\n      tag_114\n      jump\t// in\n    tag_232:\n        /* \"#utility.yul\":9734:9735   */\n      0x01\n        /* \"#utility.yul\":9727:9732   */\n      dup2\n        /* \"#utility.yul\":9723:9736   */\n      add\n        /* \"#utility.yul\":9714:9736   */\n      swap1\n      pop\n        /* \"#utility.yul\":9690:9810   */\n      jump(tag_229)\n    tag_231:\n        /* \"#utility.yul\":9630:9816   */\n      pop\n      pop\n      jump\t// out\n        /* \"#utility.yul\":9822:10365   */\n    tag_116:\n        /* \"#utility.yul\":9923:9925   */\n      0x1f\n        /* \"#utility.yul\":9918:9921   */\n      dup3\n        /* \"#utility.yul\":9915:9926   */\n      gt\n        /* \"#utility.yul\":9912:10358   */\n      iszero\n      tag_234\n      jumpi\n        /* \"#utility.yul\":9957:9995   */\n      tag_235\n        /* \"#utility.yul\":9989:9994   */\n      dup2\n        /* \"#utility.yul\":9957:9995   */\n      tag_105\n      jump\t// in\n    tag_235:\n        /* \"#utility.yul\":10041:10070   */\n      tag_236\n        /* \"#utility.yul\":10059:10069   */\n      dup5\n        /* \"#utility.yul\":10041:10070   */\n      tag_106\n      jump\t// in\n    tag_236:\n        /* \"#utility.yul\":10031:10039   */\n      dup2\n        /* \"#utility.yul\":10027:10071   */\n      add\n        /* \"#utility.yul\":10224:10226   */\n      0x20\n        /* \"#utility.yul\":10212:10222   */\n      dup6\n        /* \"#utility.yul\":10209:10227   */\n      lt\n        /* \"#utility.yul\":10206:10255   */\n      iszero\n      tag_237\n      jumpi\n        /* \"#utility.yul\":10245:10253   */\n      dup2\n        /* \"#utility.yul\":10230:10253   */\n      swap1\n      pop\n        /* \"#utility.yul\":10206:10255   */\n    tag_237:\n        /* \"#utility.yul\":10268:10348   */\n      tag_238\n        /* \"#utility.yul\":10324:10346   */\n      tag_239\n        /* \"#utility.yul\":10342:10345   */\n      dup6\n        /* \"#utility.yul\":10324:10346   */\n      tag_106\n      jump\t// in\n    tag_239:\n        /* \"#utility.yul\":10314:10322   */\n      dup4\n        /* \"#utility.yul\":10310:10347   */\n      add\n        /* \"#utility.yul\":10297:10308   */\n      dup3\n        /* \"#utility.yul\":10268:10348   */\n      tag_115\n      jump\t// in\n    tag_238:\n        /* \"#utility.yul\":9927:10358   */\n      pop\n      pop\n        /* \"#utility.yul\":9912:10358   */\n    tag_234:\n        /* \"#utility.yul\":9822:10365   */\n      pop\n      pop\n      pop\n      jump\t// out\n        /* \"#utility.yul\":10371:10488   */\n    tag_117:\n        /* \"#utility.yul\":10425:10433   */\n      0x00\n        /* \"#utility.yul\":10475:10480   */\n      dup3\n        /* \"#utility.yul\":10469:10473   */\n      dup3\n        /* \"#utility.yul\":10465:10481   */\n      shr\n        /* \"#utility.yul\":10444:10481   */\n      swap1\n      pop\n        /* \"#utility.yul\":10371:10488   */\n      swap3\n      swap2\n      pop\n      pop\n      jump\t// out\n        /* \"#utility.yul\":10494:10663   */\n    tag_118:\n        /* \"#utility.yul\":10538:10544   */\n      0x00\n        /* \"#utility.yul\":10571:10622   */\n      tag_242\n        /* \"#utility.yul\":10619:10620   */\n      0x00\n        /* \"#utility.yul\":10615:10621   */\n      not\n        /* \"#utility.yul\":10607:10612   */\n      dup5\n        /* \"#utility.yul\":10604:10605   */\n      0x08\n        /* \"#utility.yul\":10600:10613   */\n      mul\n        /* \"#utility.yul\":10571:10622   */\n      tag_117\n      jump\t// in\n    tag_242:\n        /* \"#utility.yul\":10567:10623   */\n      not\n        /* \"#utility.yul\":10652:10656   */\n      dup1\n        /* \"#utility.yul\":10646:10650   */\n      dup4\n        /* \"#utility.yul\":10642:10657   */\n      and\n        /* \"#utility.yul\":10632:10657   */\n      swap2\n      pop\n        /* \"#utility.yul\":10545:10663   */\n      pop\n        /* \"#utility.yul\":10494:10663   */\n      swap3\n      swap2\n      pop\n      pop\n      jump\t// out\n        /* \"#utility.yul\":10668:10963   */\n    tag_119:\n        /* \"#utility.yul\":10744:10748   */\n      0x00\n        /* \"#utility.yul\":10890:10919   */\n      tag_244\n        /* \"#utility.yul\":10915:10918   */\n      dup4\n        /* \"#utility.yul\":10909:10913   */\n      dup4\n        /* \"#utility.yul\":10890:10919   */\n      tag_118\n      jump\t// in\n    tag_244:\n        /* \"#utility.yul\":10882:10919   */\n      swap2\n      pop\n        /* \"#utility.yul\":10952:10955   */\n      dup3\n        /* \"#utility.yul\":10949:10950   */\n      0x02\n        /* \"#utility.yul\":10945:10956   */\n      mul\n        /* \"#utility.yul\":10939:10943   */\n      dup3\n        /* \"#utility.yul\":10936:10957   */\n      or\n        /* \"#utility.yul\":10928:10957   */\n      swap1\n      pop\n        /* \"#utility.yul\":10668:10963   */\n      swap3\n      swap2\n      pop\n      pop\n      jump\t// out\n        /* \"#utility.yul\":10968:12363   */\n    tag_74:\n        /* \"#utility.yul\":11085:11122   */\n      tag_246\n        /* \"#utility.yul\":11118:11121   */\n      dup3\n        /* \"#utility.yul\":11085:11122   */\n      tag_87\n      jump\t// in\n    tag_246:\n        /* \"#utility.yul\":11187:11205   */\n      0xffffffffffffffff\n        /* \"#utility.yul\":11179:11185   */\n      dup2\n        /* \"#utility.yul\":11176:11206   */\n      gt\n        /* \"#utility.yul\":11173:11229   */\n      iszero\n      tag_247\n      jumpi\n        /* \"#utility.yul\":11209:11227   */\n      tag_248\n      tag_97\n      jump\t// in\n    tag_248:\n        /* \"#utility.yul\":11173:11229   */\n    tag_247:\n        /* \"#utility.yul\":11253:11291   */\n      tag_249\n        /* \"#utility.yul\":11285:11289   */\n      dup3\n        /* \"#utility.yul\":11279:11290   */\n      sload\n        /* \"#utility.yul\":11253:11291   */\n      tag_56\n      jump\t// in\n    tag_249:\n        /* \"#utility.yul\":11338:11405   */\n      tag_250\n        /* \"#utility.yul\":11398:11404   */\n      dup3\n        /* \"#utility.yul\":11390:11396   */\n      dup3\n        /* \"#utility.yul\":11384:11388   */\n      dup6\n        /* \"#utility.yul\":11338:11405   */\n      tag_116\n      jump\t// in\n    tag_250:\n        /* \"#utility.yul\":11432:11433   */\n      0x00\n        /* \"#utility.yul\":11456:11460   */\n      0x20\n        /* \"#utility.yul\":11443:11460   */\n      swap1\n      pop\n        /* \"#utility.yul\":11488:11490   */\n      0x1f\n        /* \"#utility.yul\":11480:11486   */\n      dup4\n        /* \"#utility.yul\":11477:11491   */\n      gt\n        /* \"#utility.yul\":11505:11506   */\n      0x01\n        /* \"#utility.yul\":11500:12118   */\n      dup2\n      eq\n      tag_252\n      jumpi\n        /* \"#utility.yul\":12162:12163   */\n      0x00\n        /* \"#utility.yul\":12179:12185   */\n      dup5\n        /* \"#utility.yul\":12176:12253   */\n      iszero\n      tag_253\n      jumpi\n        /* \"#utility.yul\":12228:12237   */\n      dup3\n        /* \"#utility.yul\":12223:12226   */\n      dup8\n        /* \"#utility.yul\":12219:12238   */\n      add\n        /* \"#utility.yul\":12213:12239   */\n      mload\n        /* \"#utility.yul\":12204:12239   */\n      swap1\n      pop\n        /* \"#utility.yul\":12176:12253   */\n    tag_253:\n        /* \"#utility.yul\":12279:12346   */\n      tag_254\n        /* \"#utility.yul\":12339:12345   */\n      dup6\n        /* \"#utility.yul\":12332:12337   */\n      dup3\n        /* \"#utility.yul\":12279:12346   */\n      tag_119\n      jump\t// in\n    tag_254:\n        /* \"#utility.yul\":12273:12277   */\n      dup7\n        /* \"#utility.yul\":12266:12347   */\n      sstore\n        /* \"#utility.yul\":12135:12357   */\n      pop\n        /* \"#utility.yul\":11470:12357   */\n      jump(tag_251)\n        /* \"#utility.yul\":11500:12118   */\n    tag_252:\n        /* \"#utility.yul\":11552:11556   */\n      0x1f\n        /* \"#utility.yul\":11548:11557   */\n      not\n        /* \"#utility.yul\":11540:11546   */\n      dup5\n        /* \"#utility.yul\":11536:11558   */\n      and\n        /* \"#utility.yul\":11586:11623   */\n      tag_255\n        /* \"#utility.yul\":11618:11622   */\n      dup7\n        /* \"#utility.yul\":11586:11623   */\n      tag_105\n      jump\t// in\n    tag_255:\n        /* \"#utility.yul\":11645:11646   */\n      0x00\n        /* \"#utility.yul\":11659:11867   */\n    tag_256:\n        /* \"#utility.yul\":11673:11680   */\n      dup3\n        /* \"#utility.yul\":11670:11671   */\n      dup2\n        /* \"#utility.yul\":11667:11681   */\n      lt\n        /* \"#utility.yul\":11659:11867   */\n      iszero\n      tag_258\n      jumpi\n        /* \"#utility.yul\":11752:11761   */\n      dup5\n        /* \"#utility.yul\":11747:11750   */\n      dup10\n        /* \"#utility.yul\":11743:11762   */\n      add\n        /* \"#utility.yul\":11737:11763   */\n      mload\n        /* \"#utility.yul\":11729:11735   */\n      dup3\n        /* \"#utility.yul\":11722:11764   */\n      sstore\n        /* \"#utility.yul\":11803:11804   */\n      0x01\n        /* \"#utility.yul\":11795:11801   */\n      dup3\n        /* \"#utility.yul\":11791:11805   */\n      add\n        /* \"#utility.yul\":11781:11805   */\n      swap2\n      pop\n        /* \"#utility.yul\":11850:11852   */\n      0x20\n        /* \"#utility.yul\":11839:11848   */\n      dup6\n        /* \"#utility.yul\":11835:11853   */\n      add\n        /* \"#utility.yul\":11822:11853   */\n      swap5\n      pop\n        /* \"#utility.yul\":11696:11700   */\n      0x20\n        /* \"#utility.yul\":11693:11694   */\n      dup2\n        /* \"#utility.yul\":11689:11701   */\n      add\n        /* \"#utility.yul\":11684:11701   */\n      swap1\n      pop\n        /* \"#utility.yul\":11659:11867   */\n      jump(tag_256)\n    tag_258:\n        /* \"#utility.yul\":11895:11901   */\n      dup7\n        /* \"#utility.yul\":11886:11893   */\n      dup4\n        /* \"#utility.yul\":11883:11902   */\n      lt\n        /* \"#utility.yul\":11880:12059   */\n      iszero\n      tag_259\n      jumpi\n        /* \"#utility.yul\":11953:11962   */\n      dup5\n        /* \"#utility.yul\":11948:11951   */\n      dup10\n        /* \"#utility.yul\":11944:11963   */\n      add\n        /* \"#utility.yul\":11938:11964   */\n      mload\n        /* \"#utility.yul\":11996:12044   */\n      tag_260\n        /* \"#utility.yul\":12038:12042   */\n      0x1f\n        /* \"#utility.yul\":12030:12036   */\n      dup10\n        /* \"#utility.yul\":12026:12043   */\n      and\n        /* \"#utility.yul\":12015:12024   */\n      dup3\n        /* \"#utility.yul\":11996:12044   */\n      tag_118\n      jump\t// in\n    tag_260:\n        /* \"#utility.yul\":11988:11994   */\n      dup4\n        /* \"#utility.yul\":11981:12045   */\n      sstore\n        /* \"#utility.yul\":11903:12059   */\n      pop\n        /* \"#utility.yul\":11880:12059   */\n    tag_259:\n        /* \"#utility.yul\":12105:12106   */\n      0x01\n        /* \"#utility.yul\":12101:12102   */\n      0x02\n        /* \"#utility.yul\":12093:12099   */\n      dup9\n        /* \"#utility.yul\":12089:12103   */\n      mul\n        /* \"#utility.yul\":12085:12107   */\n      add\n        /* \"#utility.yul\":12079:12083   */\n      dup9\n        /* \"#utility.yul\":12072:12108   */\n      sstore\n        /* \"#utility.yul\":11507:12118   */\n      pop\n      pop\n      pop\n        /* \"#utility.yul\":11470:12357   */\n    tag_251:\n      pop\n        /* \"#utility.yul\":11060:12363   */\n      pop\n      pop\n      pop\n        /* \"#utility.yul\":10968:12363   */\n      pop\n      pop\n      jump\t// out\n\n    auxdata: 0xa264697066735822122090ea49068e442ea7a881f6a2bad2d764182910641b383352d4005c303cd24b3e64736f6c63430008110033\n}\n",
				"bytecode": {
					"linkReferences": {},
					"object": "60806040526040518060400160405280600381526020017f6162630000000000000000000000000000000000000000000000000000000000815250600290816200004a919062000328565b506040518060400160405280600381526020017f61626300000000000000000000000000000000000000000000000000000000008152506003908162000091919062000474565b503480156200009f57600080fd5b5060646000819055506200055b565b600081519050919050565b7f4e487b7100000000000000000000000000000000000000000000000000000000600052604160045260246000fd5b7f4e487b7100000000000000000000000000000000000000000000000000000000600052602260045260246000fd5b600060028204905060018216806200013057607f821691505b602082108103620001465762000145620000e8565b5b50919050565b60008190508160005260206000209050919050565b60006020601f8301049050919050565b600082821b905092915050565b600060088302620001b07fffffffffffffffffffffffffffffffffffffffffffffffffffffffffffffffff8262000171565b620001bc868362000171565b95508019841693508086168417925050509392505050565b6000819050919050565b6000819050919050565b60006200020962000203620001fd84620001d4565b620001de565b620001d4565b9050919050565b6000819050919050565b6200022583620001e8565b6200023d620002348262000210565b8484546200017e565b825550505050565b600090565b6200025462000245565b620002618184846200021a565b505050565b5b8181101562000289576200027d6000826200024a565b60018101905062000267565b5050565b601f821115620002d857620002a2816200014c565b620002ad8462000161565b81016020851015620002bd578190505b620002d5620002cc8562000161565b83018262000266565b50505b505050565b600082821c905092915050565b6000620002fd60001984600802620002dd565b1980831691505092915050565b6000620003188383620002ea565b9150826002028217905092915050565b6200033382620000ae565b67ffffffffffffffff8111156200034f576200034e620000b9565b5b6200035b825462000117565b620003688282856200028d565b600060209050601f831160018114620003a057600084156200038b578287015190505b6200039785826200030a565b86555062000407565b601f198416620003b0866200014c565b60005b82811015620003da57848901518255600182019150602085019450602081019050620003b3565b86831015620003fa5784890151620003f6601f891682620002ea565b8355505b6001600288020188555050505b505050505050565b60008190508160005260206000209050919050565b601f8211156200046f5762000439816200040f565b620004448462000161565b8101602085101562000454578190505b6200046c620004638562000161565b83018262000266565b50505b505050565b6200047f82620000ae565b67ffffffffffffffff8111156200049b576200049a620000b9565b5b620004a7825462000117565b620004b482828562000424565b600060209050601f831160018114620004ec5760008415620004d7578287015190505b620004e385826200030a565b86555062000553565b601f198416620004fc866200040f565b60005b828110156200052657848901518255600182019150602085019450602081019050620004ff565b8683101562000546578489015162000542601f891682620002ea565b8355505b6001600288020188555050505b505050505050565b610c49806200056b6000396000f3fe608060405234801561001057600080fd5b506004361061009e5760003560e01c80636cc014de116100665780636cc014de14610121578063ee4950021461013f578063f05fbc5a1461015d578063f71d96cb14610179578063ffac7005146101ab5761009e565b806320965255146100a35780632e64cec1146100c15780633f2273b3146100df57806355241077146100e95780636057361d14610105575b600080fd5b6100ab6101db565b6040516100b8919061056c565b60405180910390f35b6100c96101e5565b6040516100d6919061056c565b60405180910390f35b6100e76101ee565b005b61010360048036038101906100fe91906105c7565b6102ad565b005b61011f600480360381019061011a91906105c7565b6102b7565b005b6101296102c1565b6040516101369190610684565b60405180910390f35b61014761034f565b60405161015491906106fb565b60405180910390f35b61017760048036038101906101729190610852565b6103dd565b005b610193600480360381019061018e91906105c7565b610473565b6040516101a2939291906108ae565b60405180910390f35b6101c560048036038101906101c091906108ec565b610525565b6040516101d2919061056c565b60405180910390f35b6000600154905090565b60008054905090565b6002808054806101fd90610964565b80601f810361021c5783600052602060002060ff1984168155603f9350505b5060028201835560018101925050506001900381546001161561024e5790600052602060002090602091828204019190065b7f780000000000000000000000000000000000000000000000000000000000000090919091601f036101000a81548160ff021916907f010000000000000000000000000000000000000000000000000000000000000084040217905550565b8060018190555050565b8060008190555050565b600380546102ce90610964565b80601f01602080910402602001604051908101604052809291908181526020018280546102fa90610964565b80156103475780601f1061031c57610100808354040283529160200191610347565b820191906000526020600020905b81548152906001019060200180831161032a57829003601f168201915b505050505081565b6002805461035c90610964565b80601f016020809104026020016040519081016040528092919081815260200182805461038890610964565b80156103d55780601f106103aa576101008083540402835291602001916103d5565b820191906000526020600020905b8154815290600101906020018083116103b857829003601f168201915b505050505081565b60405180606001604052806040518060400160405280600981526020017f43687269737469616e00000000000000000000000000000000000000000000008152508152602001600a815260200160648152506005600084815260200190815260200160002060008201518160000190816104579190610b41565b5060208201518160010155604082015181600201559050505050565b600560205280600052604060002060009150905080600001805461049690610964565b80601f01602080910402602001604051908101604052809291908181526020018280546104c290610964565b801561050f5780601f106104e45761010080835404028352916020019161050f565b820191906000526020600020905b8154815290600101906020018083116104f257829003601f168201915b5050505050908060010154908060020154905083565b6004818051602081018201805184825260208301602085012081835280955050505050506000915090505481565b6000819050919050565b61056681610553565b82525050565b6000602082019050610581600083018461055d565b92915050565b6000604051905090565b600080fd5b600080fd5b6105a481610553565b81146105af57600080fd5b50565b6000813590506105c18161059b565b92915050565b6000602082840312156105dd576105dc610591565b5b60006105eb848285016105b2565b91505092915050565b600081519050919050565b600082825260208201905092915050565b60005b8381101561062e578082015181840152602081019050610613565b60008484015250505050565b6000601f19601f8301169050919050565b6000610656826105f4565b61066081856105ff565b9350610670818560208601610610565b6106798161063a565b840191505092915050565b6000602082019050818103600083015261069e818461064b565b905092915050565b600081519050919050565b600082825260208201905092915050565b60006106cd826106a6565b6106d781856106b1565b93506106e7818560208601610610565b6106f08161063a565b840191505092915050565b6000602082019050818103600083015261071581846106c2565b905092915050565b600080fd5b600080fd5b7f4e487b7100000000000000000000000000000000000000000000000000000000600052604160045260246000fd5b61075f8261063a565b810181811067ffffffffffffffff8211171561077e5761077d610727565b5b80604052505050565b6000610791610587565b905061079d8282610756565b919050565b600067ffffffffffffffff8211156107bd576107bc610727565b5b6107c68261063a565b9050602081019050919050565b82818337600083830152505050565b60006107f56107f0846107a2565b610787565b90508281526020810184848401111561081157610810610722565b5b61081c8482856107d3565b509392505050565b600082601f8301126108395761083861071d565b5b81356108498482602086016107e2565b91505092915050565b6000806040838503121561086957610868610591565b5b6000610877858286016105b2565b925050602083013567ffffffffffffffff81111561089857610897610596565b5b6108a485828601610824565b9150509250929050565b600060608201905081810360008301526108c8818661064b565b90506108d7602083018561055d565b6108e4604083018461055d565b949350505050565b60006020828403121561090257610901610591565b5b600082013567ffffffffffffffff8111156109205761091f610596565b5b61092c84828501610824565b91505092915050565b7f4e487b7100000000000000000000000000000000000000000000000000000000600052602260045260246000fd5b6000600282049050600182168061097c57607f821691505b60208210810361098f5761098e610935565b5b50919050565b60008190508160005260206000209050919050565b60006020601f8301049050919050565b600082821b905092915050565b6000600883026109f77fffffffffffffffffffffffffffffffffffffffffffffffffffffffffffffffff826109ba565b610a0186836109ba565b95508019841693508086168417925050509392505050565b6000819050919050565b6000610a3e610a39610a3484610553565b610a19565b610553565b9050919050565b6000819050919050565b610a5883610a23565b610a6c610a6482610a45565b8484546109c7565b825550505050565b600090565b610a81610a74565b610a8c818484610a4f565b505050565b5b81811015610ab057610aa5600082610a79565b600181019050610a92565b5050565b601f821115610af557610ac681610995565b610acf846109aa565b81016020851015610ade578190505b610af2610aea856109aa565b830182610a91565b50505b505050565b600082821c905092915050565b6000610b1860001984600802610afa565b1980831691505092915050565b6000610b318383610b07565b9150826002028217905092915050565b610b4a826105f4565b67ffffffffffffffff811115610b6357610b62610727565b5b610b6d8254610964565b610b78828285610ab4565b600060209050601f831160018114610bab5760008415610b99578287015190505b610ba38582610b25565b865550610c0b565b601f198416610bb986610995565b60005b82811015610be157848901518255600182019150602085019450602081019050610bbc565b86831015610bfe5784890151610bfa601f891682610b07565b8355505b6001600288020188555050505b50505050505056fea264697066735822122090ea49068e442ea7a881f6a2bad2d764182910641b383352d4005c303cd24b3e64736f6c63430008110033",
					"opcodes": "PUSH1 0x80 PUSH1 0x40 MSTORE PUSH1 0x40 MLOAD DUP1 PUSH1 0x40 ADD PUSH1 0x40 MSTORE DUP1 PUSH1 0x3 DUP2 MSTORE PUSH1 0x20 ADD PUSH32 0x6162630000000000000000000000000000000000000000000000000000000000 DUP2 MSTORE POP PUSH1 0x2 SWAP1 DUP2 PUSH3 0x4A SWAP2 SWAP1 PUSH3 0x328 JUMP JUMPDEST POP PUSH1 0x40 MLOAD DUP1 PUSH1 0x40 ADD PUSH1 0x40 MSTORE DUP1 PUSH1 0x3 DUP2 MSTORE PUSH1 0x20 ADD PUSH32 0x6162630000000000000000000000000000000000000000000000000000000000 DUP2 MSTORE POP PUSH1 0x3 SWAP1 DUP2 PUSH3 0x91 SWAP2 SWAP1 PUSH3 0x474 JUMP JUMPDEST POP CALLVALUE DUP1 ISZERO PUSH3 0x9F JUMPI PUSH1 0x0 DUP1 REVERT JUMPDEST POP PUSH1 0x64 PUSH1 0x0 DUP2 SWAP1 SSTORE POP PUSH3 0x55B JUMP JUMPDEST PUSH1 0x0 DUP2 MLOAD SWAP1 POP SWAP2 SWAP1 POP JUMP JUMPDEST PUSH32 0x4E487B7100000000000000000000000000000000000000000000000000000000 PUSH1 0x0 MSTORE PUSH1 0x41 PUSH1 0x4 MSTORE PUSH1 0x24 PUSH1 0x0 REVERT JUMPDEST PUSH32 0x4E487B7100000000000000000000000000000000000000000000000000000000 PUSH1 0x0 MSTORE PUSH1 0x22 PUSH1 0x4 MSTORE PUSH1 0x24 PUSH1 0x0 REVERT JUMPDEST PUSH1 0x0 PUSH1 0x2 DUP3 DIV SWAP1 POP PUSH1 0x1 DUP3 AND DUP1 PUSH3 0x130 JUMPI PUSH1 0x7F DUP3 AND SWAP2 POP JUMPDEST PUSH1 0x20 DUP3 LT DUP2 SUB PUSH3 0x146 JUMPI PUSH3 0x145 PUSH3 0xE8 JUMP JUMPDEST JUMPDEST POP SWAP2 SWAP1 POP JUMP JUMPDEST PUSH1 0x0 DUP2 SWAP1 POP DUP2 PUSH1 0x0 MSTORE PUSH1 0x20 PUSH1 0x0 KECCAK256 SWAP1 POP SWAP2 SWAP1 POP JUMP JUMPDEST PUSH1 0x0 PUSH1 0x20 PUSH1 0x1F DUP4 ADD DIV SWAP1 POP SWAP2 SWAP1 POP JUMP JUMPDEST PUSH1 0x0 DUP3 DUP3 SHL SWAP1 POP SWAP3 SWAP2 POP POP JUMP JUMPDEST PUSH1 0x0 PUSH1 0x8 DUP4 MUL PUSH3 0x1B0 PUSH32 0xFFFFFFFFFFFFFFFFFFFFFFFFFFFFFFFFFFFFFFFFFFFFFFFFFFFFFFFFFFFFFFFF DUP3 PUSH3 0x171 JUMP JUMPDEST PUSH3 0x1BC DUP7 DUP4 PUSH3 0x171 JUMP JUMPDEST SWAP6 POP DUP1 NOT DUP5 AND SWAP4 POP DUP1 DUP7 AND DUP5 OR SWAP3 POP POP POP SWAP4 SWAP3 POP POP POP JUMP JUMPDEST PUSH1 0x0 DUP2 SWAP1 POP SWAP2 SWAP1 POP JUMP JUMPDEST PUSH1 0x0 DUP2 SWAP1 POP SWAP2 SWAP1 POP JUMP JUMPDEST PUSH1 0x0 PUSH3 0x209 PUSH3 0x203 PUSH3 0x1FD DUP5 PUSH3 0x1D4 JUMP JUMPDEST PUSH3 0x1DE JUMP JUMPDEST PUSH3 0x1D4 JUMP JUMPDEST SWAP1 POP SWAP2 SWAP1 POP JUMP JUMPDEST PUSH1 0x0 DUP2 SWAP1 POP SWAP2 SWAP1 POP JUMP JUMPDEST PUSH3 0x225 DUP4 PUSH3 0x1E8 JUMP JUMPDEST PUSH3 0x23D PUSH3 0x234 DUP3 PUSH3 0x210 JUMP JUMPDEST DUP5 DUP5 SLOAD PUSH3 0x17E JUMP JUMPDEST DUP3 SSTORE POP POP POP POP JUMP JUMPDEST PUSH1 0x0 SWAP1 JUMP JUMPDEST PUSH3 0x254 PUSH3 0x245 JUMP JUMPDEST PUSH3 0x261 DUP2 DUP5 DUP5 PUSH3 0x21A JUMP JUMPDEST POP POP POP JUMP JUMPDEST JUMPDEST DUP2 DUP2 LT ISZERO PUSH3 0x289 JUMPI PUSH3 0x27D PUSH1 0x0 DUP3 PUSH3 0x24A JUMP JUMPDEST PUSH1 0x1 DUP2 ADD SWAP1 POP PUSH3 0x267 JUMP JUMPDEST POP POP JUMP JUMPDEST PUSH1 0x1F DUP3 GT ISZERO PUSH3 0x2D8 JUMPI PUSH3 0x2A2 DUP2 PUSH3 0x14C JUMP JUMPDEST PUSH3 0x2AD DUP5 PUSH3 0x161 JUMP JUMPDEST DUP2 ADD PUSH1 0x20 DUP6 LT ISZERO PUSH3 0x2BD JUMPI DUP2 SWAP1 POP JUMPDEST PUSH3 0x2D5 PUSH3 0x2CC DUP6 PUSH3 0x161 JUMP JUMPDEST DUP4 ADD DUP3 PUSH3 0x266 JUMP JUMPDEST POP POP JUMPDEST POP POP POP JUMP JUMPDEST PUSH1 0x0 DUP3 DUP3 SHR SWAP1 POP SWAP3 SWAP2 POP POP JUMP JUMPDEST PUSH1 0x0 PUSH3 0x2FD PUSH1 0x0 NOT DUP5 PUSH1 0x8 MUL PUSH3 0x2DD JUMP JUMPDEST NOT DUP1 DUP4 AND SWAP2 POP POP SWAP3 SWAP2 POP POP JUMP JUMPDEST PUSH1 0x0 PUSH3 0x318 DUP4 DUP4 PUSH3 0x2EA JUMP JUMPDEST SWAP2 POP DUP3 PUSH1 0x2 MUL DUP3 OR SWAP1 POP SWAP3 SWAP2 POP POP JUMP JUMPDEST PUSH3 0x333 DUP3 PUSH3 0xAE JUMP JUMPDEST PUSH8 0xFFFFFFFFFFFFFFFF DUP2 GT ISZERO PUSH3 0x34F JUMPI PUSH3 0x34E PUSH3 0xB9 JUMP JUMPDEST JUMPDEST PUSH3 0x35B DUP3 SLOAD PUSH3 0x117 JUMP JUMPDEST PUSH3 0x368 DUP3 DUP3 DUP6 PUSH3 0x28D JUMP JUMPDEST PUSH1 0x0 PUSH1 0x20 SWAP1 POP PUSH1 0x1F DUP4 GT PUSH1 0x1 DUP2 EQ PUSH3 0x3A0 JUMPI PUSH1 0x0 DUP5 ISZERO PUSH3 0x38B JUMPI DUP3 DUP8 ADD MLOAD SWAP1 POP JUMPDEST PUSH3 0x397 DUP6 DUP3 PUSH3 0x30A JUMP JUMPDEST DUP7 SSTORE POP PUSH3 0x407 JUMP JUMPDEST PUSH1 0x1F NOT DUP5 AND PUSH3 0x3B0 DUP7 PUSH3 0x14C JUMP JUMPDEST PUSH1 0x0 JUMPDEST DUP3 DUP2 LT ISZERO PUSH3 0x3DA JUMPI DUP5 DUP10 ADD MLOAD DUP3 SSTORE PUSH1 0x1 DUP3 ADD SWAP2 POP PUSH1 0x20 DUP6 ADD SWAP5 POP PUSH1 0x20 DUP2 ADD SWAP1 POP PUSH3 0x3B3 JUMP JUMPDEST DUP7 DUP4 LT ISZERO PUSH3 0x3FA JUMPI DUP5 DUP10 ADD MLOAD PUSH3 0x3F6 PUSH1 0x1F DUP10 AND DUP3 PUSH3 0x2EA JUMP JUMPDEST DUP4 SSTORE POP JUMPDEST PUSH1 0x1 PUSH1 0x2 DUP9 MUL ADD DUP9 SSTORE POP POP POP JUMPDEST POP POP POP POP POP POP JUMP JUMPDEST PUSH1 0x0 DUP2 SWAP1 POP DUP2 PUSH1 0x0 MSTORE PUSH1 0x20 PUSH1 0x0 KECCAK256 SWAP1 POP SWAP2 SWAP1 POP JUMP JUMPDEST PUSH1 0x1F DUP3 GT ISZERO PUSH3 0x46F JUMPI PUSH3 0x439 DUP2 PUSH3 0x40F JUMP JUMPDEST PUSH3 0x444 DUP5 PUSH3 0x161 JUMP JUMPDEST DUP2 ADD PUSH1 0x20 DUP6 LT ISZERO PUSH3 0x454 JUMPI DUP2 SWAP1 POP JUMPDEST PUSH3 0x46C PUSH3 0x463 DUP6 PUSH3 0x161 JUMP JUMPDEST DUP4 ADD DUP3 PUSH3 0x266 JUMP JUMPDEST POP POP JUMPDEST POP POP POP JUMP JUMPDEST PUSH3 0x47F DUP3 PUSH3 0xAE JUMP JUMPDEST PUSH8 0xFFFFFFFFFFFFFFFF DUP2 GT ISZERO PUSH3 0x49B JUMPI PUSH3 0x49A PUSH3 0xB9 JUMP JUMPDEST JUMPDEST PUSH3 0x4A7 DUP3 SLOAD PUSH3 0x117 JUMP JUMPDEST PUSH3 0x4B4 DUP3 DUP3 DUP6 PUSH3 0x424 JUMP JUMPDEST PUSH1 0x0 PUSH1 0x20 SWAP1 POP PUSH1 0x1F DUP4 GT PUSH1 0x1 DUP2 EQ PUSH3 0x4EC JUMPI PUSH1 0x0 DUP5 ISZERO PUSH3 0x4D7 JUMPI DUP3 DUP8 ADD MLOAD SWAP1 POP JUMPDEST PUSH3 0x4E3 DUP6 DUP3 PUSH3 0x30A JUMP JUMPDEST DUP7 SSTORE POP PUSH3 0x553 JUMP JUMPDEST PUSH1 0x1F NOT DUP5 AND PUSH3 0x4FC DUP7 PUSH3 0x40F JUMP JUMPDEST PUSH1 0x0 JUMPDEST DUP3 DUP2 LT ISZERO PUSH3 0x526 JUMPI DUP5 DUP10 ADD MLOAD DUP3 SSTORE PUSH1 0x1 DUP3 ADD SWAP2 POP PUSH1 0x20 DUP6 ADD SWAP5 POP PUSH1 0x20 DUP2 ADD SWAP1 POP PUSH3 0x4FF JUMP JUMPDEST DUP7 DUP4 LT ISZERO PUSH3 0x546 JUMPI DUP5 DUP10 ADD MLOAD PUSH3 0x542 PUSH1 0x1F DUP10 AND DUP3 PUSH3 0x2EA JUMP JUMPDEST DUP4 SSTORE POP JUMPDEST PUSH1 0x1 PUSH1 0x2 DUP9 MUL ADD DUP9 SSTORE POP POP POP JUMPDEST POP POP POP POP POP POP JUMP JUMPDEST PUSH2 0xC49 DUP1 PUSH3 0x56B PUSH1 0x0 CODECOPY PUSH1 0x0 RETURN INVALID PUSH1 0x80 PUSH1 0x40 MSTORE CALLVALUE DUP1 ISZERO PUSH2 0x10 JUMPI PUSH1 0x0 DUP1 REVERT JUMPDEST POP PUSH1 0x4 CALLDATASIZE LT PUSH2 0x9E JUMPI PUSH1 0x0 CALLDATALOAD PUSH1 0xE0 SHR DUP1 PUSH4 0x6CC014DE GT PUSH2 0x66 JUMPI DUP1 PUSH4 0x6CC014DE EQ PUSH2 0x121 JUMPI DUP1 PUSH4 0xEE495002 EQ PUSH2 0x13F JUMPI DUP1 PUSH4 0xF05FBC5A EQ PUSH2 0x15D JUMPI DUP1 PUSH4 0xF71D96CB EQ PUSH2 0x179 JUMPI DUP1 PUSH4 0xFFAC7005 EQ PUSH2 0x1AB JUMPI PUSH2 0x9E JUMP JUMPDEST DUP1 PUSH4 0x20965255 EQ PUSH2 0xA3 JUMPI DUP1 PUSH4 0x2E64CEC1 EQ PUSH2 0xC1 JUMPI DUP1 PUSH4 0x3F2273B3 EQ PUSH2 0xDF JUMPI DUP1 PUSH4 0x55241077 EQ PUSH2 0xE9 JUMPI DUP1 PUSH4 0x6057361D EQ PUSH2 0x105 JUMPI JUMPDEST PUSH1 0x0 DUP1 REVERT JUMPDEST PUSH2 0xAB PUSH2 0x1DB JUMP JUMPDEST PUSH1 0x40 MLOAD PUSH2 0xB8 SWAP2 SWAP1 PUSH2 0x56C JUMP JUMPDEST PUSH1 0x40 MLOAD DUP1 SWAP2 SUB SWAP1 RETURN JUMPDEST PUSH2 0xC9 PUSH2 0x1E5 JUMP JUMPDEST PUSH1 0x40 MLOAD PUSH2 0xD6 SWAP2 SWAP1 PUSH2 0x56C JUMP JUMPDEST PUSH1 0x40 MLOAD DUP1 SWAP2 SUB SWAP1 RETURN JUMPDEST PUSH2 0xE7 PUSH2 0x1EE JUMP JUMPDEST STOP JUMPDEST PUSH2 0x103 PUSH1 0x4 DUP1 CALLDATASIZE SUB DUP2 ADD SWAP1 PUSH2 0xFE SWAP2 SWAP1 PUSH2 0x5C7 JUMP JUMPDEST PUSH2 0x2AD JUMP JUMPDEST STOP JUMPDEST PUSH2 0x11F PUSH1 0x4 DUP1 CALLDATASIZE SUB DUP2 ADD SWAP1 PUSH2 0x11A SWAP2 SWAP1 PUSH2 0x5C7 JUMP JUMPDEST PUSH2 0x2B7 JUMP JUMPDEST STOP JUMPDEST PUSH2 0x129 PUSH2 0x2C1 JUMP JUMPDEST PUSH1 0x40 MLOAD PUSH2 0x136 SWAP2 SWAP1 PUSH2 0x684 JUMP JUMPDEST PUSH1 0x40 MLOAD DUP1 SWAP2 SUB SWAP1 RETURN JUMPDEST PUSH2 0x147 PUSH2 0x34F JUMP JUMPDEST PUSH1 0x40 MLOAD PUSH2 0x154 SWAP2 SWAP1 PUSH2 0x6FB JUMP JUMPDEST PUSH1 0x40 MLOAD DUP1 SWAP2 SUB SWAP1 RETURN JUMPDEST PUSH2 0x177 PUSH1 0x4 DUP1 CALLDATASIZE SUB DUP2 ADD SWAP1 PUSH2 0x172 SWAP2 SWAP1 PUSH2 0x852 JUMP JUMPDEST PUSH2 0x3DD JUMP JUMPDEST STOP JUMPDEST PUSH2 0x193 PUSH1 0x4 DUP1 CALLDATASIZE SUB DUP2 ADD SWAP1 PUSH2 0x18E SWAP2 SWAP1 PUSH2 0x5C7 JUMP JUMPDEST PUSH2 0x473 JUMP JUMPDEST PUSH1 0x40 MLOAD PUSH2 0x1A2 SWAP4 SWAP3 SWAP2 SWAP1 PUSH2 0x8AE JUMP JUMPDEST PUSH1 0x40 MLOAD DUP1 SWAP2 SUB SWAP1 RETURN JUMPDEST PUSH2 0x1C5 PUSH1 0x4 DUP1 CALLDATASIZE SUB DUP2 ADD SWAP1 PUSH2 0x1C0 SWAP2 SWAP1 PUSH2 0x8EC JUMP JUMPDEST PUSH2 0x525 JUMP JUMPDEST PUSH1 0x40 MLOAD PUSH2 0x1D2 SWAP2 SWAP1 PUSH2 0x56C JUMP JUMPDEST PUSH1 0x40 MLOAD DUP1 SWAP2 SUB SWAP1 RETURN JUMPDEST PUSH1 0x0 PUSH1 0x1 SLOAD SWAP1 POP SWAP1 JUMP JUMPDEST PUSH1 0x0 DUP1 SLOAD SWAP1 POP SWAP1 JUMP JUMPDEST PUSH1 0x2 DUP1 DUP1 SLOAD DUP1 PUSH2 0x1FD SWAP1 PUSH2 0x964 JUMP JUMPDEST DUP1 PUSH1 0x1F DUP2 SUB PUSH2 0x21C JUMPI DUP4 PUSH1 0x0 MSTORE PUSH1 0x20 PUSH1 0x0 KECCAK256 PUSH1 0xFF NOT DUP5 AND DUP2 SSTORE PUSH1 0x3F SWAP4 POP POP JUMPDEST POP PUSH1 0x2 DUP3 ADD DUP4 SSTORE PUSH1 0x1 DUP2 ADD SWAP3 POP POP POP PUSH1 0x1 SWAP1 SUB DUP2 SLOAD PUSH1 0x1 AND ISZERO PUSH2 0x24E JUMPI SWAP1 PUSH1 0x0 MSTORE PUSH1 0x20 PUSH1 0x0 KECCAK256 SWAP1 PUSH1 0x20 SWAP2 DUP3 DUP3 DIV ADD SWAP2 SWAP1 MOD JUMPDEST PUSH32 0x7800000000000000000000000000000000000000000000000000000000000000 SWAP1 SWAP2 SWAP1 SWAP2 PUSH1 0x1F SUB PUSH2 0x100 EXP DUP2 SLOAD DUP2 PUSH1 0xFF MUL NOT AND SWAP1 PUSH32 0x100000000000000000000000000000000000000000000000000000000000000 DUP5 DIV MUL OR SWAP1 SSTORE POP JUMP JUMPDEST DUP1 PUSH1 0x1 DUP2 SWAP1 SSTORE POP POP JUMP JUMPDEST DUP1 PUSH1 0x0 DUP2 SWAP1 SSTORE POP POP JUMP JUMPDEST PUSH1 0x3 DUP1 SLOAD PUSH2 0x2CE SWAP1 PUSH2 0x964 JUMP JUMPDEST DUP1 PUSH1 0x1F ADD PUSH1 0x20 DUP1 SWAP2 DIV MUL PUSH1 0x20 ADD PUSH1 0x40 MLOAD SWAP1 DUP2 ADD PUSH1 0x40 MSTORE DUP1 SWAP3 SWAP2 SWAP1 DUP2 DUP2 MSTORE PUSH1 0x20 ADD DUP3 DUP1 SLOAD PUSH2 0x2FA SWAP1 PUSH2 0x964 JUMP JUMPDEST DUP1 ISZERO PUSH2 0x347 JUMPI DUP1 PUSH1 0x1F LT PUSH2 0x31C JUMPI PUSH2 0x100 DUP1 DUP4 SLOAD DIV MUL DUP4 MSTORE SWAP2 PUSH1 0x20 ADD SWAP2 PUSH2 0x347 JUMP JUMPDEST DUP3 ADD SWAP2 SWAP1 PUSH1 0x0 MSTORE PUSH1 0x20 PUSH1 0x0 KECCAK256 SWAP1 JUMPDEST DUP2 SLOAD DUP2 MSTORE SWAP1 PUSH1 0x1 ADD SWAP1 PUSH1 0x20 ADD DUP1 DUP4 GT PUSH2 0x32A JUMPI DUP3 SWAP1 SUB PUSH1 0x1F AND DUP3 ADD SWAP2 JUMPDEST POP POP POP POP POP DUP2 JUMP JUMPDEST PUSH1 0x2 DUP1 SLOAD PUSH2 0x35C SWAP1 PUSH2 0x964 JUMP JUMPDEST DUP1 PUSH1 0x1F ADD PUSH1 0x20 DUP1 SWAP2 DIV MUL PUSH1 0x20 ADD PUSH1 0x40 MLOAD SWAP1 DUP2 ADD PUSH1 0x40 MSTORE DUP1 SWAP3 SWAP2 SWAP1 DUP2 DUP2 MSTORE PUSH1 0x20 ADD DUP3 DUP1 SLOAD PUSH2 0x388 SWAP1 PUSH2 0x964 JUMP JUMPDEST DUP1 ISZERO PUSH2 0x3D5 JUMPI DUP1 PUSH1 0x1F LT PUSH2 0x3AA JUMPI PUSH2 0x100 DUP1 DUP4 SLOAD DIV MUL DUP4 MSTORE SWAP2 PUSH1 0x20 ADD SWAP2 PUSH2 0x3D5 JUMP JUMPDEST DUP3 ADD SWAP2 SWAP1 PUSH1 0x0 MSTORE PUSH1 0x20 PUSH1 0x0 KECCAK256 SWAP1 JUMPDEST DUP2 SLOAD DUP2 MSTORE SWAP1 PUSH1 0x1 ADD SWAP1 PUSH1 0x20 ADD DUP1 DUP4 GT PUSH2 0x3B8 JUMPI DUP3 SWAP1 SUB PUSH1 0x1F AND DUP3 ADD SWAP2 JUMPDEST POP POP POP POP POP DUP2 JUMP JUMPDEST PUSH1 0x40 MLOAD DUP1 PUSH1 0x60 ADD PUSH1 0x40 MSTORE DUP1 PUSH1 0x40 MLOAD DUP1 PUSH1 0x40 ADD PUSH1 0x40 MSTORE DUP1 PUSH1 0x9 DUP2 MSTORE PUSH1 0x20 ADD PUSH32 0x43687269737469616E0000000000000000000000000000000000000000000000 DUP2 MSTORE POP DUP2 MSTORE PUSH1 0x20 ADD PUSH1 0xA DUP2 MSTORE PUSH1 0x20 ADD PUSH1 0x64 DUP2 MSTORE POP PUSH1 0x5 PUSH1 0x0 DUP5 DUP2 MSTORE PUSH1 0x20 ADD SWAP1 DUP2 MSTORE PUSH1 0x20 ADD PUSH1 0x0 KECCAK256 PUSH1 0x0 DUP3 ADD MLOAD DUP2 PUSH1 0x0 ADD SWAP1 DUP2 PUSH2 0x457 SWAP2 SWAP1 PUSH2 0xB41 JUMP JUMPDEST POP PUSH1 0x20 DUP3 ADD MLOAD DUP2 PUSH1 0x1 ADD SSTORE PUSH1 0x40 DUP3 ADD MLOAD DUP2 PUSH1 0x2 ADD SSTORE SWAP1 POP POP POP POP JUMP JUMPDEST PUSH1 0x5 PUSH1 0x20 MSTORE DUP1 PUSH1 0x0 MSTORE PUSH1 0x40 PUSH1 0x0 KECCAK256 PUSH1 0x0 SWAP2 POP SWAP1 POP DUP1 PUSH1 0x0 ADD DUP1 SLOAD PUSH2 0x496 SWAP1 PUSH2 0x964 JUMP JUMPDEST DUP1 PUSH1 0x1F ADD PUSH1 0x20 DUP1 SWAP2 DIV MUL PUSH1 0x20 ADD PUSH1 0x40 MLOAD SWAP1 DUP2 ADD PUSH1 0x40 MSTORE DUP1 SWAP3 SWAP2 SWAP1 DUP2 DUP2 MSTORE PUSH1 0x20 ADD DUP3 DUP1 SLOAD PUSH2 0x4C2 SWAP1 PUSH2 0x964 JUMP JUMPDEST DUP1 ISZERO PUSH2 0x50F JUMPI DUP1 PUSH1 0x1F LT PUSH2 0x4E4 JUMPI PUSH2 0x100 DUP1 DUP4 SLOAD DIV MUL DUP4 MSTORE SWAP2 PUSH1 0x20 ADD SWAP2 PUSH2 0x50F JUMP JUMPDEST DUP3 ADD SWAP2 SWAP1 PUSH1 0x0 MSTORE PUSH1 0x20 PUSH1 0x0 KECCAK256 SWAP1 JUMPDEST DUP2 SLOAD DUP2 MSTORE SWAP1 PUSH1 0x1 ADD SWAP1 PUSH1 0x20 ADD DUP1 DUP4 GT PUSH2 0x4F2 JUMPI DUP3 SWAP1 SUB PUSH1 0x1F AND DUP3 ADD SWAP2 JUMPDEST POP POP POP POP POP SWAP1 DUP1 PUSH1 0x1 ADD SLOAD SWAP1 DUP1 PUSH1 0x2 ADD SLOAD SWAP1 POP DUP4 JUMP JUMPDEST PUSH1 0x4 DUP2 DUP1 MLOAD PUSH1 0x20 DUP2 ADD DUP3 ADD DUP1 MLOAD DUP5 DUP3 MSTORE PUSH1 0x20 DUP4 ADD PUSH1 0x20 DUP6 ADD KECCAK256 DUP2 DUP4 MSTORE DUP1 SWAP6 POP POP POP POP POP POP PUSH1 0x0 SWAP2 POP SWAP1 POP SLOAD DUP2 JUMP JUMPDEST PUSH1 0x0 DUP2 SWAP1 POP SWAP2 SWAP1 POP JUMP JUMPDEST PUSH2 0x566 DUP2 PUSH2 0x553 JUMP JUMPDEST DUP3 MSTORE POP POP JUMP JUMPDEST PUSH1 0x0 PUSH1 0x20 DUP3 ADD SWAP1 POP PUSH2 0x581 PUSH1 0x0 DUP4 ADD DUP5 PUSH2 0x55D JUMP JUMPDEST SWAP3 SWAP2 POP POP JUMP JUMPDEST PUSH1 0x0 PUSH1 0x40 MLOAD SWAP1 POP SWAP1 JUMP JUMPDEST PUSH1 0x0 DUP1 REVERT JUMPDEST PUSH1 0x0 DUP1 REVERT JUMPDEST PUSH2 0x5A4 DUP2 PUSH2 0x553 JUMP JUMPDEST DUP2 EQ PUSH2 0x5AF JUMPI PUSH1 0x0 DUP1 REVERT JUMPDEST POP JUMP JUMPDEST PUSH1 0x0 DUP2 CALLDATALOAD SWAP1 POP PUSH2 0x5C1 DUP2 PUSH2 0x59B JUMP JUMPDEST SWAP3 SWAP2 POP POP JUMP JUMPDEST PUSH1 0x0 PUSH1 0x20 DUP3 DUP5 SUB SLT ISZERO PUSH2 0x5DD JUMPI PUSH2 0x5DC PUSH2 0x591 JUMP JUMPDEST JUMPDEST PUSH1 0x0 PUSH2 0x5EB DUP5 DUP3 DUP6 ADD PUSH2 0x5B2 JUMP JUMPDEST SWAP2 POP POP SWAP3 SWAP2 POP POP JUMP JUMPDEST PUSH1 0x0 DUP2 MLOAD SWAP1 POP SWAP2 SWAP1 POP JUMP JUMPDEST PUSH1 0x0 DUP3 DUP3 MSTORE PUSH1 0x20 DUP3 ADD SWAP1 POP SWAP3 SWAP2 POP POP JUMP JUMPDEST PUSH1 0x0 JUMPDEST DUP4 DUP2 LT ISZERO PUSH2 0x62E JUMPI DUP1 DUP3 ADD MLOAD DUP2 DUP5 ADD MSTORE PUSH1 0x20 DUP2 ADD SWAP1 POP PUSH2 0x613 JUMP JUMPDEST PUSH1 0x0 DUP5 DUP5 ADD MSTORE POP POP POP POP JUMP JUMPDEST PUSH1 0x0 PUSH1 0x1F NOT PUSH1 0x1F DUP4 ADD AND SWAP1 POP SWAP2 SWAP1 POP JUMP JUMPDEST PUSH1 0x0 PUSH2 0x656 DUP3 PUSH2 0x5F4 JUMP JUMPDEST PUSH2 0x660 DUP2 DUP6 PUSH2 0x5FF JUMP JUMPDEST SWAP4 POP PUSH2 0x670 DUP2 DUP6 PUSH1 0x20 DUP7 ADD PUSH2 0x610 JUMP JUMPDEST PUSH2 0x679 DUP2 PUSH2 0x63A JUMP JUMPDEST DUP5 ADD SWAP2 POP POP SWAP3 SWAP2 POP POP JUMP JUMPDEST PUSH1 0x0 PUSH1 0x20 DUP3 ADD SWAP1 POP DUP2 DUP2 SUB PUSH1 0x0 DUP4 ADD MSTORE PUSH2 0x69E DUP2 DUP5 PUSH2 0x64B JUMP JUMPDEST SWAP1 POP SWAP3 SWAP2 POP POP JUMP JUMPDEST PUSH1 0x0 DUP2 MLOAD SWAP1 POP SWAP2 SWAP1 POP JUMP JUMPDEST PUSH1 0x0 DUP3 DUP3 MSTORE PUSH1 0x20 DUP3 ADD SWAP1 POP SWAP3 SWAP2 POP POP JUMP JUMPDEST PUSH1 0x0 PUSH2 0x6CD DUP3 PUSH2 0x6A6 JUMP JUMPDEST PUSH2 0x6D7 DUP2 DUP6 PUSH2 0x6B1 JUMP JUMPDEST SWAP4 POP PUSH2 0x6E7 DUP2 DUP6 PUSH1 0x20 DUP7 ADD PUSH2 0x610 JUMP JUMPDEST PUSH2 0x6F0 DUP2 PUSH2 0x63A JUMP JUMPDEST DUP5 ADD SWAP2 POP POP SWAP3 SWAP2 POP POP JUMP JUMPDEST PUSH1 0x0 PUSH1 0x20 DUP3 ADD SWAP1 POP DUP2 DUP2 SUB PUSH1 0x0 DUP4 ADD MSTORE PUSH2 0x715 DUP2 DUP5 PUSH2 0x6C2 JUMP JUMPDEST SWAP1 POP SWAP3 SWAP2 POP POP JUMP JUMPDEST PUSH1 0x0 DUP1 REVERT JUMPDEST PUSH1 0x0 DUP1 REVERT JUMPDEST PUSH32 0x4E487B7100000000000000000000000000000000000000000000000000000000 PUSH1 0x0 MSTORE PUSH1 0x41 PUSH1 0x4 MSTORE PUSH1 0x24 PUSH1 0x0 REVERT JUMPDEST PUSH2 0x75F DUP3 PUSH2 0x63A JUMP JUMPDEST DUP2 ADD DUP2 DUP2 LT PUSH8 0xFFFFFFFFFFFFFFFF DUP3 GT OR ISZERO PUSH2 0x77E JUMPI PUSH2 0x77D PUSH2 0x727 JUMP JUMPDEST JUMPDEST DUP1 PUSH1 0x40 MSTORE POP POP POP JUMP JUMPDEST PUSH1 0x0 PUSH2 0x791 PUSH2 0x587 JUMP JUMPDEST SWAP1 POP PUSH2 0x79D DUP3 DUP3 PUSH2 0x756 JUMP JUMPDEST SWAP2 SWAP1 POP JUMP JUMPDEST PUSH1 0x0 PUSH8 0xFFFFFFFFFFFFFFFF DUP3 GT ISZERO PUSH2 0x7BD JUMPI PUSH2 0x7BC PUSH2 0x727 JUMP JUMPDEST JUMPDEST PUSH2 0x7C6 DUP3 PUSH2 0x63A JUMP JUMPDEST SWAP1 POP PUSH1 0x20 DUP2 ADD SWAP1 POP SWAP2 SWAP1 POP JUMP JUMPDEST DUP3 DUP2 DUP4 CALLDATACOPY PUSH1 0x0 DUP4 DUP4 ADD MSTORE POP POP POP JUMP JUMPDEST PUSH1 0x0 PUSH2 0x7F5 PUSH2 0x7F0 DUP5 PUSH2 0x7A2 JUMP JUMPDEST PUSH2 0x787 JUMP JUMPDEST SWAP1 POP DUP3 DUP2 MSTORE PUSH1 0x20 DUP2 ADD DUP5 DUP5 DUP5 ADD GT ISZERO PUSH2 0x811 JUMPI PUSH2 0x810 PUSH2 0x722 JUMP JUMPDEST JUMPDEST PUSH2 0x81C DUP5 DUP3 DUP6 PUSH2 0x7D3 JUMP JUMPDEST POP SWAP4 SWAP3 POP POP POP JUMP JUMPDEST PUSH1 0x0 DUP3 PUSH1 0x1F DUP4 ADD SLT PUSH2 0x839 JUMPI PUSH2 0x838 PUSH2 0x71D JUMP JUMPDEST JUMPDEST DUP2 CALLDATALOAD PUSH2 0x849 DUP5 DUP3 PUSH1 0x20 DUP7 ADD PUSH2 0x7E2 JUMP JUMPDEST SWAP2 POP POP SWAP3 SWAP2 POP POP JUMP JUMPDEST PUSH1 0x0 DUP1 PUSH1 0x40 DUP4 DUP6 SUB SLT ISZERO PUSH2 0x869 JUMPI PUSH2 0x868 PUSH2 0x591 JUMP JUMPDEST JUMPDEST PUSH1 0x0 PUSH2 0x877 DUP6 DUP3 DUP7 ADD PUSH2 0x5B2 JUMP JUMPDEST SWAP3 POP POP PUSH1 0x20 DUP4 ADD CALLDATALOAD PUSH8 0xFFFFFFFFFFFFFFFF DUP2 GT ISZERO PUSH2 0x898 JUMPI PUSH2 0x897 PUSH2 0x596 JUMP JUMPDEST JUMPDEST PUSH2 0x8A4 DUP6 DUP3 DUP7 ADD PUSH2 0x824 JUMP JUMPDEST SWAP2 POP POP SWAP3 POP SWAP3 SWAP1 POP JUMP JUMPDEST PUSH1 0x0 PUSH1 0x60 DUP3 ADD SWAP1 POP DUP2 DUP2 SUB PUSH1 0x0 DUP4 ADD MSTORE PUSH2 0x8C8 DUP2 DUP7 PUSH2 0x64B JUMP JUMPDEST SWAP1 POP PUSH2 0x8D7 PUSH1 0x20 DUP4 ADD DUP6 PUSH2 0x55D JUMP JUMPDEST PUSH2 0x8E4 PUSH1 0x40 DUP4 ADD DUP5 PUSH2 0x55D JUMP JUMPDEST SWAP5 SWAP4 POP POP POP POP JUMP JUMPDEST PUSH1 0x0 PUSH1 0x20 DUP3 DUP5 SUB SLT ISZERO PUSH2 0x902 JUMPI PUSH2 0x901 PUSH2 0x591 JUMP JUMPDEST JUMPDEST PUSH1 0x0 DUP3 ADD CALLDATALOAD PUSH8 0xFFFFFFFFFFFFFFFF DUP2 GT ISZERO PUSH2 0x920 JUMPI PUSH2 0x91F PUSH2 0x596 JUMP JUMPDEST JUMPDEST PUSH2 0x92C DUP5 DUP3 DUP6 ADD PUSH2 0x824 JUMP JUMPDEST SWAP2 POP POP SWAP3 SWAP2 POP POP JUMP JUMPDEST PUSH32 0x4E487B7100000000000000000000000000000000000000000000000000000000 PUSH1 0x0 MSTORE PUSH1 0x22 PUSH1 0x4 MSTORE PUSH1 0x24 PUSH1 0x0 REVERT JUMPDEST PUSH1 0x0 PUSH1 0x2 DUP3 DIV SWAP1 POP PUSH1 0x1 DUP3 AND DUP1 PUSH2 0x97C JUMPI PUSH1 0x7F DUP3 AND SWAP2 POP JUMPDEST PUSH1 0x20 DUP3 LT DUP2 SUB PUSH2 0x98F JUMPI PUSH2 0x98E PUSH2 0x935 JUMP JUMPDEST JUMPDEST POP SWAP2 SWAP1 POP JUMP JUMPDEST PUSH1 0x0 DUP2 SWAP1 POP DUP2 PUSH1 0x0 MSTORE PUSH1 0x20 PUSH1 0x0 KECCAK256 SWAP1 POP SWAP2 SWAP1 POP JUMP JUMPDEST PUSH1 0x0 PUSH1 0x20 PUSH1 0x1F DUP4 ADD DIV SWAP1 POP SWAP2 SWAP1 POP JUMP JUMPDEST PUSH1 0x0 DUP3 DUP3 SHL SWAP1 POP SWAP3 SWAP2 POP POP JUMP JUMPDEST PUSH1 0x0 PUSH1 0x8 DUP4 MUL PUSH2 0x9F7 PUSH32 0xFFFFFFFFFFFFFFFFFFFFFFFFFFFFFFFFFFFFFFFFFFFFFFFFFFFFFFFFFFFFFFFF DUP3 PUSH2 0x9BA JUMP JUMPDEST PUSH2 0xA01 DUP7 DUP4 PUSH2 0x9BA JUMP JUMPDEST SWAP6 POP DUP1 NOT DUP5 AND SWAP4 POP DUP1 DUP7 AND DUP5 OR SWAP3 POP POP POP SWAP4 SWAP3 POP POP POP JUMP JUMPDEST PUSH1 0x0 DUP2 SWAP1 POP SWAP2 SWAP1 POP JUMP JUMPDEST PUSH1 0x0 PUSH2 0xA3E PUSH2 0xA39 PUSH2 0xA34 DUP5 PUSH2 0x553 JUMP JUMPDEST PUSH2 0xA19 JUMP JUMPDEST PUSH2 0x553 JUMP JUMPDEST SWAP1 POP SWAP2 SWAP1 POP JUMP JUMPDEST PUSH1 0x0 DUP2 SWAP1 POP SWAP2 SWAP1 POP JUMP JUMPDEST PUSH2 0xA58 DUP4 PUSH2 0xA23 JUMP JUMPDEST PUSH2 0xA6C PUSH2 0xA64 DUP3 PUSH2 0xA45 JUMP JUMPDEST DUP5 DUP5 SLOAD PUSH2 0x9C7 JUMP JUMPDEST DUP3 SSTORE POP POP POP POP JUMP JUMPDEST PUSH1 0x0 SWAP1 JUMP JUMPDEST PUSH2 0xA81 PUSH2 0xA74 JUMP JUMPDEST PUSH2 0xA8C DUP2 DUP5 DUP5 PUSH2 0xA4F JUMP JUMPDEST POP POP POP JUMP JUMPDEST JUMPDEST DUP2 DUP2 LT ISZERO PUSH2 0xAB0 JUMPI PUSH2 0xAA5 PUSH1 0x0 DUP3 PUSH2 0xA79 JUMP JUMPDEST PUSH1 0x1 DUP2 ADD SWAP1 POP PUSH2 0xA92 JUMP JUMPDEST POP POP JUMP JUMPDEST PUSH1 0x1F DUP3 GT ISZERO PUSH2 0xAF5 JUMPI PUSH2 0xAC6 DUP2 PUSH2 0x995 JUMP JUMPDEST PUSH2 0xACF DUP5 PUSH2 0x9AA JUMP JUMPDEST DUP2 ADD PUSH1 0x20 DUP6 LT ISZERO PUSH2 0xADE JUMPI DUP2 SWAP1 POP JUMPDEST PUSH2 0xAF2 PUSH2 0xAEA DUP6 PUSH2 0x9AA JUMP JUMPDEST DUP4 ADD DUP3 PUSH2 0xA91 JUMP JUMPDEST POP POP JUMPDEST POP POP POP JUMP JUMPDEST PUSH1 0x0 DUP3 DUP3 SHR SWAP1 POP SWAP3 SWAP2 POP POP JUMP JUMPDEST PUSH1 0x0 PUSH2 0xB18 PUSH1 0x0 NOT DUP5 PUSH1 0x8 MUL PUSH2 0xAFA JUMP JUMPDEST NOT DUP1 DUP4 AND SWAP2 POP POP SWAP3 SWAP2 POP POP JUMP JUMPDEST PUSH1 0x0 PUSH2 0xB31 DUP4 DUP4 PUSH2 0xB07 JUMP JUMPDEST SWAP2 POP DUP3 PUSH1 0x2 MUL DUP3 OR SWAP1 POP SWAP3 SWAP2 POP POP JUMP JUMPDEST PUSH2 0xB4A DUP3 PUSH2 0x5F4 JUMP JUMPDEST PUSH8 0xFFFFFFFFFFFFFFFF DUP2 GT ISZERO PUSH2 0xB63 JUMPI PUSH2 0xB62 PUSH2 0x727 JUMP JUMPDEST JUMPDEST PUSH2 0xB6D DUP3 SLOAD PUSH2 0x964 JUMP JUMPDEST PUSH2 0xB78 DUP3 DUP3 DUP6 PUSH2 0xAB4 JUMP JUMPDEST PUSH1 0x0 PUSH1 0x20 SWAP1 POP PUSH1 0x1F DUP4 GT PUSH1 0x1 DUP2 EQ PUSH2 0xBAB JUMPI PUSH1 0x0 DUP5 ISZERO PUSH2 0xB99 JUMPI DUP3 DUP8 ADD MLOAD SWAP1 POP JUMPDEST PUSH2 0xBA3 DUP6 DUP3 PUSH2 0xB25 JUMP JUMPDEST DUP7 SSTORE POP PUSH2 0xC0B JUMP JUMPDEST PUSH1 0x1F NOT DUP5 AND PUSH2 0xBB9 DUP7 PUSH2 0x995 JUMP JUMPDEST PUSH1 0x0 JUMPDEST DUP3 DUP2 LT ISZERO PUSH2 0xBE1 JUMPI DUP5 DUP10 ADD MLOAD DUP3 SSTORE PUSH1 0x1 DUP3 ADD SWAP2 POP PUSH1 0x20 DUP6 ADD SWAP5 POP PUSH1 0x20 DUP2 ADD SWAP1 POP PUSH2 0xBBC JUMP JUMPDEST DUP7 DUP4 LT ISZERO PUSH2 0xBFE JUMPI DUP5 DUP10 ADD MLOAD PUSH2 0xBFA PUSH1 0x1F DUP10 AND DUP3 PUSH2 0xB07 JUMP JUMPDEST DUP4 SSTORE POP JUMPDEST PUSH1 0x1 PUSH1 0x2 DUP9 MUL ADD DUP9 SSTORE POP POP POP JUMPDEST POP POP POP POP POP POP JUMP INVALID LOG2 PUSH5 0x6970667358 0x22 SLT KECCAK256 SWAP1 0xEA 0x49 MOD DUP15 DIFFICULTY 0x2E 0xA7 0xA8 DUP2 0xF6 LOG2 0xBA 0xD2 0xD7 PUSH5 0x182910641B CODESIZE CALLER MSTORE 0xD4 STOP 0x5C ADDRESS EXTCODECOPY 0xD2 0x4B RETURNDATACOPY PUSH5 0x736F6C6343 STOP ADDMOD GT STOP CALLER "
				},
				"gasEstimates": {
					"creation": {
						"codeDepositCost": "629000",
						"executionCost": "infinite",
						"totalCost": "infinite"
					},
					"external": {
						"addElement()": "74861",
						"b1()": "infinite",
						"getValue()": "2438",
						"myMapping(string)": "infinite",
						"players(uint256)": "infinite",
						"retrieve()": "2460",
						"s1()": "infinite",
						"setMapping(uint256,string)": "infinite",
						"setValue(uint256)": "22587",
						"store(uint256)": "22609"
					}
				},
				"methodIdentifiers": {
					"addElement()": "3f2273b3",
					"b1()": "ee495002",
					"getValue()": "20965255",
					"myMapping(string)": "ffac7005",
					"players(uint256)": "f71d96cb",
					"retrieve()": "2e64cec1",
					"s1()": "6cc014de",
					"setMapping(uint256,string)": "f05fbc5a",
					"setValue(uint256)": "55241077",
					"store(uint256)": "6057361d"
				}
			},
			"storageLayout": {
				"storage": [
					{
						"astId": 4,
						"contract": "contracts/1_Storage.sol:Storage",
						"label": "number",
						"offset": 0,
						"slot": "0",
						"type": "t_uint256"
					},
					{
						"astId": 6,
						"contract": "contracts/1_Storage.sol:Storage",
						"label": "value",
						"offset": 0,
						"slot": "1",
						"type": "t_uint256"
					},
					{
						"astId": 9,
						"contract": "contracts/1_Storage.sol:Storage",
						"label": "b1",
						"offset": 0,
						"slot": "2",
						"type": "t_bytes_storage"
					},
					{
						"astId": 12,
						"contract": "contracts/1_Storage.sol:Storage",
						"label": "s1",
						"offset": 0,
						"slot": "3",
						"type": "t_string_storage"
					},
					{
						"astId": 16,
						"contract": "contracts/1_Storage.sol:Storage",
						"label": "myMapping",
						"offset": 0,
						"slot": "4",
						"type": "t_mapping(t_string_memory_ptr,t_uint256)"
					},
					{
						"astId": 28,
						"contract": "contracts/1_Storage.sol:Storage",
						"label": "players",
						"offset": 0,
						"slot": "5",
						"type": "t_mapping(t_uint256,t_struct(Player)23_storage)"
					}
				],
				"types": {
					"t_bytes_storage": {
						"encoding": "bytes",
						"label": "bytes",
						"numberOfBytes": "32"
					},
					"t_mapping(t_string_memory_ptr,t_uint256)": {
						"encoding": "mapping",
						"key": "t_string_memory_ptr",
						"label": "mapping(string => uint256)",
						"numberOfBytes": "32",
						"value": "t_uint256"
					},
					"t_mapping(t_uint256,t_struct(Player)23_storage)": {
						"encoding": "mapping",
						"key": "t_uint256",
						"label": "mapping(uint256 => struct Storage.Player)",
						"numberOfBytes": "32",
						"value": "t_struct(Player)23_storage"
					},
					"t_string_memory_ptr": {
						"encoding": "bytes",
						"label": "string",
						"numberOfBytes": "32"
					},
					"t_string_storage": {
						"encoding": "bytes",
						"label": "string",
						"numberOfBytes": "32"
					},
					"t_struct(Player)23_storage": {
						"encoding": "inplace",
						"label": "struct Storage.Player",
						"members": [
							{
								"astId": 18,
								"contract": "contracts/1_Storage.sol:Storage",
								"label": "name",
								"offset": 0,
								"slot": "0",
								"type": "t_string_storage"
							},
							{
								"astId": 20,
								"contract": "contracts/1_Storage.sol:Storage",
								"label": "level",
								"offset": 0,
								"slot": "1",
								"type": "t_uint256"
							},
							{
								"astId": 22,
								"contract": "contracts/1_Storage.sol:Storage",
								"label": "score",
								"offset": 0,
								"slot": "2",
								"type": "t_uint256"
							}
						],
						"numberOfBytes": "96"
					},
					"t_uint256": {
						"encoding": "inplace",
						"label": "uint256",
						"numberOfBytes": "32"
					}
				}
			},
			"userdoc": {
				"kind": "user",
				"methods": {},
				"version": 1
			}
		}
	}
}